:020000040800F2
:1000000000090020AD0100080D4000081140000863
:1000100015400008194000081D40000800000000BD
:100020000000000000000000000000002140000867
:100030002540000800000000294000083140000869
:10004000C7010008C7010008C7010008C701000870
:10005000C7010008C7010008C7010008C701000860
:10006000C7010008C7010008C7010008C701000850
:10007000C7010008C7010008C7010008C701000840
:10008000C7010008C7010008C70100080000000000
:10009000000000000000000000000000C701000890
:1000A000C7010008C7010008C7010008C701000810
:1000B000C7010008C7010008C7010008C701000800
:1000C000C7010008C7010008C7010008C7010008F0
:1000D000C7010008D13700084138000800000000BF
:1000E000C7010008C7010008C701000800000000A0
:1000F000000000000000000000000000C701000830
:1001000000000000C7010008C7010008C70100087F
:1001100000000000000000000000000000000000DF
:10012000C7010008C7010008C7010008C70100088F
:10013000C7010008000000000000000000000000EF
:10014000000000000000000000000000C7010008DF
:10015000C7010008C7010008C7010008B13800083E
:10016000C7010008C70100080000000000000000EF
:10017000000000000000000000000000000000007F
:1001800000000000C701000800000000000000009F
:10019000C7010008C7010008DFF80CD003F0DCFF3E
:1001A00000480047C93E0008000900200648804773
:1001B00006480047FEE7FEE7FEE7FEE7FEE7FEE74C
:1001C000FEE7FEE7FEE7FEE735400008990100087C
:1001D00080B543F60040C4F20200016841F40071AA
:1001E0000160016841F480610160016841F480713F
:1001F0000160032000F0DEF80F2000F005F800F0A9
:100200004BFF002080BD00BF10B540F20C01C2F2D0
:100210000001096844F6D352C1F26202A1FB021246
:100220000446900900F03EF94FF0FF3021460022CD
:1002300000F0D0F8002010BD704700BF80B543F635
:100240001000C4F202004FF0FF3100220161026190
:100250004161426101600260416042608160826090
:1002600000F01CFF002080BD704700BF40F2F80086
:10027000C2F20000016801310160704740F2F800ED
:10028000C2F2000000687047B0B582B0019002F081
:1002900001FE019904464D1C28BF4FF0FF3500BFF9
:1002A00002F0F8FD001BA842FAD302B0B0BD00BFB7
:1002B0004EF21000CEF20000016821F00201016050
:1002C000704700BF4EF21000CEF20000016841F00E
:1002D00002010160704700BF40F20010C0F2071039
:1002E000704700BF42F20000CEF204000068000C2C
:1002F000704700BF42F20000CEF2040000686FF3C6
:100300001F30704742F20400CEF20400016841F051
:1003100001010160704700BF42F20400CEF2040008
:10032000016821F001010160704700BF42F2040042
:10033000CEF20400016841F002010160704700BF85
:1003400042F20400CEF20400016821F002010160D3
:10035000704700BF42F20400CEF20400016841F091
:1003600004010160704700BF42F20400CEF20400B5
:10037000016821F004010160704700BF40F20040B5
:10038000C4F2272001210160704700BF40F2004005
:10039000C4F2272000210160704700BF47F61021FA
:1003A000C1F6FF710A6802604A684260896881602C
:1003B000704700004EF60C51CEF200010A684FF66D
:1003C000FF031A4060F30A2242F0806040F0FD70A3
:1003D0000860704710B54EF60C5CCEF2000CDCF8ED
:1003E0000030C3F3022E8EF00704042C28BF04242F
:1003F000BEF103034FF0FF3E0EFA04F438BF0023B2
:10040000A14399400EFA03F39A43114300F160426D
:1004100000F00F03090102F56442043B6344002825
:1004200048BF03F10C02117010BD00BF002848BF87
:10043000704700F01F01012202FA01F11C2202EABA
:10044000D0004EF20012CEF200028150704700BF81
:10045000002848BF704700F01F01012202FA01F195
:100460001C2202EAD0004EF28012CEF2000281502D
:10047000BFF34F8FBFF36F8F704700BF00F000F8DE
:100480004EF60C50BFF34F8FCEF2000001680422ED
:1004900001F4E061C0F2FA5211430160BFF34F8FE3
:1004A00000BFFDE7411E0020B0EB116F1CBF012013
:1004B00070474EF21002CEF2000251604EF6235108
:1004C000CEF20001F0230B7007219060116070479D
:1004D0004EF62450BFF35F8FCEF20000016821F486
:1004E0008031016000210167704700BF4EF6245142
:1004F00040F00100CEF200010867086840F4803047
:100500000860BFF34F8FBFF36F8F7047F0B502786D
:100510004EF69C5C4378CEF2000C4CF8043CF2B1F1
:100520004368CCF80030037BC17A90F80AE042EAD5
:100530000372447B42EA0161857B41EACE41C67B7E
:1005400041EA8441477A41EA4541007A41EA06415D
:1005500041EA072141EA4000CCF80400F0BD002048
:10056000CCF80000CCF80400F0BD00BF4EF60C50F3
:10057000CEF200000068C0F30220704710B500F111
:10058000604C4EF614540CF5644C00F00F0ECEF295
:10059000000401F00701002848BF0EEB040C9CF892
:1005A00000E081F00704042C4FEA1E1C28BF04243D
:1005B000033938BF00212CFA01F04FF0FF3C0CFA50
:1005C00004F4A04310600CFA01F0C04300EA1E10CE
:1005D000186010BD002848BF704700F01F010122BD
:1005E00002FA01F11C2202EAD0004EF20022CEF201
:1005F00000028150704700BF002844BF00207047B0
:100600001C214EF2002201EAD001CEF200028958EC
:1006100000F01F0021FA00F000F00100704700BF59
:10062000002848BF704700F01F01012202FA01F1C3
:100630001C2202EAD0004EF28022CEF2000281504B
:10064000704700BF002844BF002070471C214EF2B5
:10065000003201EAD001CEF20002895800F01F00FA
:1006600021FA00F000F00100704700BF4EF21001C7
:10067000CEF200010A68042822F0040208BF043206
:100680000A607047AFF30080704700002DE9F04129
:10069000044602F0FFFBC4B10546002084F8340094
:1006A000022084F835002068016821F00101016012
:1006B00020680168C9070BD002F0ECFB401B05283D
:1006C000F6D90321202203207AE00120BDE8F08141
:1006D000016848F23F02CFF21002D4E9013501EA85
:1006E000020ED4E9032143EA0E032B43D4E9056C3F
:1006F0001A43D4E907781143314341EA0702616A9A
:1007000042EA0802042942EA0C0303D1D4E90B2788
:100710003A43134303604269042922F0070241EA85
:1007200002012DD1D4E90A5341EA050143B3BCF5D6
:10073000005F08D0BCF1000F12D1022D16D0012DA0
:1007400007D09DB119E0032D17D8DFE805F00B0F96
:100750000B02A3F1C072B2FA82F252094AB90FE059
:10076000032D02D2012222B90AE006D1C3F30062AE
:1007700032B101214022012022E00022002AF8D1DA
:1007800000F0F8024AF6AB23103ACAF6AA23A2FBFD
:10079000033744F2A02341613909C0F60003595CD4
:1007A00040F2FF3398435F2A4FF03F0288BF043086
:1007B000C4E9160102FA01F1816000220121002042
:1007C000626584F83510BDE8F08100BF002804BFE1
:1007D0000120704790F83510022904BF02207047AD
:1007E000B0B501684AF6AB2201F0F803D1F800C0B9
:1007F000A3F11005CAF6AA22A5FB022E2CF00102D5
:100800000A600022212344F2A0240A604A608A6020
:10081000CA600A614B614FEA1E13C0F60004E35C34
:1008200040F2FF34A1435F2D4FF03F0588BF0431F4
:10083000C0E9161305FA03F38B60426580F8352092
:1008400080F834200020B0BD90F834C0BCF1010F16
:1008500031D04FF0010C80F834C090F835C0BCF1B5
:10086000010F25D110B54FF0020C80F835C0844639
:100870000020CCF85400DCF800E0DCF808C0DEF81A
:100880000040BCF1400F24F48024CEF80040CEF8A4
:1008900004300B4604BF13460A46CEF80830CEF8A3
:1008A0000C20DEF8001041F00101CEF8001010BD60
:1008B000002180F834100220704700BF90F834C047
:1008C000BCF1010F04BF0220704770B54FF0010C5E
:1008D00080F834C0D0F858E090F835C0BCF1010F72
:1008E0003DD14FF0020C80F835C04FF0000CC0F83D
:1008F00054C0D0F800C08468056CC06DDCF800609E
:10090000402C26F48026CCF80060CCF804300B464E
:1009100004BF13460A463F2101FA00F0CCF8083024
:10092000CCF80C20CEF80800DCF8000040F01600EF
:10093000CCF80000DCF8140040F08000CCF8140083
:100940002DB1DCF8000040F00800CCF80000DCF825
:10095000000040F00100CCF80000002070BD002134
:1009600080F83410022070BD70B5866D044602F028
:1009700091FA94F83510022928D105462068216C97
:10098000026822F016020260426922F0800242618F
:1009900009B9A16C19B1016821F008010160016871
:1009A00021F00101016000BF20680068C00714D079
:1009B00002F070FA401B0628F6D320206065002064
:1009C00084F83400032084F8350070BD8020606511
:1009D000002084F83400012070BDE06D3F2101FA51
:1009E00000F0B0600020012184F8340084F8351054
:1009F00070BD00BF90F83510022909D1052180F89B
:100A000035100068016821F0010101600020704785
:100A100080214165012070472DE9F04F81B0924659
:100A20000F46044602F036FA94F83510022926D112
:100A3000814620680068C00527D4D4E916B010218B
:100A40000097002F08BF2021DBF8002001FA00F8F2
:100A500012EA080F20D0606D00281CBF606D5FEAAD
:100A6000C07057D10099E06D002965D0102101FABE
:100A700000F0CBF80800002001B0BDE8F08F802026
:100A80006065002084F8340002E04FF480706065F7
:100A9000012001B0BDE8F08F0127C0F280070AF104
:100AA00001064FF0080CFD1C03E000BF10EA080F20
:100AB000D1D1606DC007CED156B1BAF1000F49D087
:100AC00002F0E8F9A0EB09004FF0080C504541D8BE
:100AD000DBF80000E16D0CFA01F2024205D0636D13
:100AE00043F001036365CBF8082007FA01F20242E4
:100AF00005D0636D43F002036365CBF8082005FA67
:100B000001F10142D2D0626D42F004026265CBF87D
:100B10000810CBE72046FFF727FFE06D302101FAF0
:100B200000F0CBF80800002084F83400012084F89D
:100B3000350001B0BDE8F08F302101FA00F0CBF8AC
:100B400008000020012184F8340084F8351001B039
:100B5000BDE8F08F20206065002084F8340001207B
:100B600084F83500032001B0BDE8F08FF0B581B006
:100B70000021009140F20C01C2F200010B68D0E9A3
:100B8000166148F2B51537680822C1F64E358A401D
:100B90003A42A3FB05350CD003681C68640708D5EE
:100BA0001C6824F004041C60B260426D42F0010233
:100BB00042650122C0F2800202FA01F33B4208D0F2
:100BC00004686469240604D5B360436D43F00203EE
:100BD000436503328A403A4208D003681B689B078A
:100BE00004D5B260426D42F00402426510228A4090
:100BF0003A4216D001680B681B0712D5B2600B6829
:100C00000A685B0306D4D20506D40A6822F00802FB
:100C10000A6001E011033FD4016C11B1044688471A
:100C20002046C26D202101FA02F33B4241D0016807
:100C30000F68FF063DD5B36090F835700B68052F3F
:100C40001AD123F016030B604B6923F080034B612C
:100C5000036C0BB9836C1BB10B6823F008030B60AA
:100C60003F219140B160002180F83410012180F8CB
:100C70003510016DE1BB3FE00A685B0310D4D2057B
:100C800012D40A6822F010020A60002180F83410A1
:100C9000012180F8351007E0816C0029BED1C0E742
:100CA000110301D4416C00E0C16B11B104468847C7
:100CB0002046416D01B3416DC90717D0052180F869
:100CC00035100168AA0A0B6823F001030B6000BF0E
:100CD000009B01339342009302D80B68DB07F7D1E6
:100CE000002180F83410012180F83510C16C19B151
:100CF00001B0BDE8F040084701B0F0BD90F83430D5
:100D0000012B04BF022070474FF0010C80F834C063
:100D100090F83530012B08D14FF0000C05299EBF0B
:100D200001F03F0100EB8101CA63002180F834101B
:100D30006046704790F83420012A04BF02207047B3
:100D4000012280F8342090F83530012B1FD106297C
:100D50001DD8DFE801F004100A0D0713150000226A
:100D6000C26314E00022C26411E0002242640EE07B
:100D7000002282640BE00022026408E0002205E009
:100D80000022C0E90F22C0E91122C26402650021DD
:100D900080F834101046704790F83500704700BF57
:100DA000406D70472DE9F04F83B000F1200200F153
:100DB0003E4741F20005019207F1FF77C4F20205B8
:100DC00007224FEAB726A84208BF0422042E38BFE4
:100DD0004FEAB7224FF0010E00274FF000084FF006
:100DE000000900920AE000BF09F1010908F10408B6
:100DF000B9F1100F07F1020700F099800D680EFAA3
:100E000009FA15EA0A0CEFD04D6845F01005122DCD
:100E100014D16FF00302019E02EA590508F01C028A
:100E20000F2356F805B003FA02F40B692BEA040409
:100E300003FA02F222434FF0010E725102680323BB
:100E4000D1F804B0BB40DD439A430BF00303BB4031
:100E50001A43BBF1120F026013D80EFA0BF212F014
:100E6000061F0ED08268CB682A40BB401A438260BE
:100E70004268CBF3001322EA0A0203FA09F31A4389
:100E80004260C2688B682A40BB401A435FEACB03CA
:100E9000C260A9D5002243F644030292C4F20203C1
:100EA0001A6843F6004642F480421A601A68C4F297
:100EB000010602F480420292029A29F003024FF6E0
:100EC000084A3244CFF6FF7A52F80A3008F00C0490
:100ED0000F25A540AB43009D05FA04F4234342F8D7
:100EE0000A3032684B6842EA0C04DD0358BF22EA3C
:100EF0000C04346072689D0342EA0C0458BF22EA75
:100F00000C047460B268DD0242EA0C0443F60C453E
:100F100058BF22EA0C04B460C4F201052A689B029F
:100F200042EA0C0458BF22EA0C042C605CE703B0D0
:100F3000BDE8F08F2DE9F04F82B000F13E4241F262
:100F4000000702F1FF72C4F20207072601914FEA7F
:100F5000B223B84208BF042643F60041042B38BF31
:100F60004FEAB226C4F2010100F1200900960024E4
:100F7000002600254FF00F0806E000BF01350236BD
:100F8000102D04F104044FD0012202FA05FC019A4D
:100F90001CEA020EF2D002680323B3409A436FF0BA
:100FA0000307026007EA550A04F01C0259F80AB068
:100FB00008FA02F22BEA020249F80A2082689A43F0
:100FC0008260426822EA0C024260C2689A43C260B0
:100FD000A1F57E7325F003029F5804F00C0208FA75
:100FE00002FC07EA0C0A009F07FA02F29245C5D1FB
:100FF000AA0853F8227027EA0C0743F822700A68FF
:1010000043F60C4322EA0E020A604A68C4F2010366
:1010100022EA0E024A608A6822EA0E028A601A6890
:1010200022EA0E021A60A9E702B0BDE8F08F00BF05
:101030000069084018BF0120704700BF002A08BFA0
:1010400009048161704700BF4269514041617047A6
:1010500081B04FF480320092009A0A430092009AC5
:10106000C261C1610099C161C1690091C06901217A
:1010700000F4803081EA104001B0704743F614411B
:10108000C4F201010A68024214BF0860704700F010
:1010900001B800BF70470000704700BF704700BF35
:1010A000704700BF70470000704700BFF0B581B0C7
:1010B0000446007843F60006C007C4F2020644D096
:1010C000B06800F00C00042805D1306880033CD5DE
:1010D0006068D0BB64E0B06800F00C00082802D162
:1010E00070684002F1D465683068B5F5A02F05D06E
:1010F000B5F5803F09D140F480300CE040F4802009
:101100003060306840F4803005E020F4803030609A
:10111000306820F48020306001F0BCFE002D0546D0
:1011200010D000BF306880030FD401F0B3FE401B25
:101130006428F7D9EFE000BF01F0ACFE401B642843
:1011400000F2E98030688003F6D42078800718D553
:10115000B06810F00C0F07D0B06800F00C00082841
:1011600057D17068400254D43068800702D5E068D7
:10117000012815D13068216920F0F80040EAC1004B
:101180003060207800070ED42078400721D4A5696C
:10119000002D00F0EF80B06800F00C0008286BD143
:1011A000012001B0F0BD6069002851D00020C4F2D8
:1011B00047200121C0F8801E01F06CFE054600BFEB
:1011C000706F8007E0D401F065FE401B0228F7D95C
:1011D000A1E000200090306C47F2000740F0805002
:1011E0003064306CC4F2000700F08050009000982A
:1011F000386840F48070386001F04CFE054600BF4E
:101200003868C0051BD401F045FE401B0228F7D901
:1012100081E0E068002840F20000C4F247204CD092
:101220000121016001F036FE054600BF30688007ED
:10123000A0D401F02FFE401B0228F7D96BE0A5686F
:10124000306F052D48D0012D4DD140F0010050E008
:101250000020C4F247200021C0F8801E01F01AFED1
:10126000054600BF706F80077FF58EAF01F012FE5C
:10127000401B0228F6D94EE00027C4F24727002081
:10128000386601F007FE022D05460BD1306880015B
:101290004FD501F0FFFD401B02284FF00300F5D9A8
:1012A00066E000BF3068800164D501F0F3FD401BAB
:1012B00003284FF00300F5D35AE00021016001F04C
:1012C000E9FD0546306880077FF55BAF01F0E2FD80
:1012D000401B0228F6D91EE040F004003067306F52
:1012E00040F0010005E020F001003067306F20F091
:1012F0000400306701F0CEFD002D054641F288372D
:1013000013D000BF306F80073FF541AF01F0C2FD41
:10131000401BB842F6D9032001B0F0BD01F0BAFD80
:10132000401BB8424FF0030022D8306F8007F5D43D
:101330002DE704F11C052FCD084340EA8210D903A4
:101340004FF6FF729143A1F5803140EA05600843F2
:1013500070600120386601F09DFD04463068800110
:1013600008D401F097FD001B02284FF00300F5D9C7
:1013700001B0F0BD002001B0F0BD00BF2DE9F0418B
:1013800043F60807C4F20207D7F8F8230D4602F027
:101390000F01A942044607D287F8F853D7F8F8039B
:1013A00000F00F00A8425AD12068810705D539689E
:1013B000A26821F0F00111433960C00735D1D7F898
:1013C000F80300F00F00A84207D987F8F853D7F8C0
:1013D000F80300F00F00A84241D12068410705D56D
:1013E0003968E26821F4E05111433960000706D5FD
:1013F0003868216920F4604040EAC100386000F09C
:101400007DF8396844F28822C1F30311C0F6000266
:10141000515CC84040F20C01C2F2000108600F208C
:10142000FEF7F2FE0020BDE8F0816068811E02290F
:1014300007D257F8081C89015CBF0120BDE8F08184
:1014400010E0012807D157F8081C89035CBF012070
:10145000BDE8F08106E057F8081C890702D4012096
:10146000BDE8F081396821F003010843386001F0DC
:1014700011FD61680646012941F2883837D00229FA
:1014800027D003290ED100BF386800F00C000C28CB
:1014900095D001F0FFFC801B40454FF00300F3D9CD
:1014A000C1E700BF386810F00C0F3FF488AF01F0BF
:1014B000F1FC801B40454FF0030088BFBDE8F08180
:1014C000F0E700BF01F0E6FC801B40454FF0030051
:1014D000A9D8386800F00C000828F3D16FE700BFE6
:1014E00001F0D8FC801B40454FF003009BD83868C2
:1014F00000F00C000428F3D161E700BF43F60401BB
:10150000C4F20201486800F00C0242F20040082ACE
:10151000C0F2F40007D0042A18BF704741F200203F
:10152000C0F27A007047D1F800C00B680A685B020D
:1015300041F200230CF03F0CC0F27A0358BF03467F
:10154000B3FBFCF00968C2F388125043C1F30141B8
:10155000022202EB4101B0FBF1F0704770B586B09A
:1015600043F63006002840F2000014460D46C4F24F
:101570000206C4F202004FF000011FD00191326850
:1015800000F5006042F004023260326802F00402AA
:101590000192019A4FF400720192022202920322F8
:1015A000CDE90312059101A9FFF7FCFB56F8280CC1
:1015B00020F0784040EAC40028431BE001913268E3
:1015C00042F001023260326802F001020192019A97
:1015D0004FF480720192022202920322CDE903129B
:1015E000059101A9FFF7DEFB56F8280C20F0EC600E
:1015F0002843204346F8280C06B070BD4C20C4F2A6
:1016000047200121016070474C20C4F2472000218F
:101610000160704740F20C00C2F2000000687047A1
:1016200040F20C0043F60801C2F20000C4F20201CD
:101630000068096844F29822C1F38221C0F60002D2
:10164000515CC840704700BF40F20C0043F60801EF
:10165000C2F20000C4F202010068096844F2982254
:10166000C1F34231C0F60002515CC840704700BF70
:1016700043F600010F22C4F2020102600A6852031D
:1016800006D40A68D20354BF00224FF4803201E02E
:101690004FF4A02242600A6802F00102C2600A68A8
:1016A000C2F3C40202610A6F520705D40A6FD2075F
:1016B0000CBF0022012200E0052282604A6F4FF435
:1016C000C02302F0010242610A68D2014FF0020217
:1016D00058BF012282614A6802F48002C2614A68EE
:1016E00002F03F0202624A68C2F3881242624A680C
:1016F00003EA420202F50032120C82624968C1F329
:101700000361C162704700BF0F22026043F6080206
:10171000C4F20202136803F003034360136803F08A
:10172000F0038360136803F4E053C360D2F800C091
:101730004FF4E05303EADC030361D2F8F80300F04E
:101740000F000860704700BF10B543F60C04C4F2E8
:1017500002042068000658BF10BD00F003F8802086
:10176000A07010BD70470000002804BF0120704722
:1017700010B5044690F8390028B9002084F83800E4
:10178000204600F021F8242084F839002068C16840
:1017900021F40051C160204600F018F8206801696A
:1017A00021F490410161416921F02A014161C16840
:1017B00041F40051C16000202021E06384F8391019
:1017C00084F83A1010BD00BF704700BF2DE9F04308
:1017D00081B004460068D4E90212E369076948F25F
:1017E0001F5827F440573A430261C26849F20C6718
:1017F000BA43D4E904761143394331431943C160F4
:101800004169A26921F440711143416141F20041F3
:10181000B3F5004FC5F2EB1840F48060C4F201014B
:1018200038D188426ED1FFF70FFF616819277843DE
:101830004900B0FBF1F0A0FB08016FF00F0000EAD7
:101840005106FFF701FF616878434900B0FBF1F5ED
:10185000FFF7FAFE616878434900B0FBF1F04FF002
:101860006409A0FB0801480900FB1950322101EB73
:10187000C000A0FB08014FF4F87000EA1110064404
:10188000FFF7E2FE616878434900B0FBF1F5FFF72E
:10189000DBFE6DE0884278D1FFF7D6FE616819273C
:1018A00078438900B0FBF1F0A0FB08016FF00F0056
:1018B00000EA5106FFF7C8FE616878438900B0FB73
:1018C000F1F5FFF7C1FE616878438900B0FBF1F0E4
:1018D0004FF06409A0FB0801480900FB19503221B0
:1018E00001EB0010A0FB0801F02000EA51100644B3
:1018F000FFF7AAFE616878438900B0FBF1F5FFF7B6
:10190000A3FE77E0FFF78CFE616819277843490052
:10191000B0FBF1F0A0FB08016FF00F0000EA5106E8
:10192000FFF77EFE616878434900B0FBF1F5FFF7F1
:1019300077FE616878434900B0FBF1F04FF064092D
:10194000A0FB0801480900FB1950322101EBC0003F
:10195000A0FB08014FF4F87000EA11100644FFF7ED
:101960005FFE616878434900B0FBF1F5FFF758FE70
:10197000616878434900B0FBF1F0A0FB0801480919
:1019800000FB19500721C00040E0FFF749FE6168E5
:10199000192778438900B0FBF1F0A0FB08016FF034
:1019A0000F0000EA5106FFF73BFE616878438900AB
:1019B000B0FBF1F5FFF734FE616878438900B0FBB6
:1019C000F1F04FF06409A0FB0801480900FB195031
:1019D000322101EB0010A0FB0801F02000EA5110B9
:1019E0000644FFF71DFE616878438900B0FBF1F5FE
:1019F000FFF716FE616878438900B0FBF1F0A0FBA9
:101A00000801480900FB19500F2100013230A0FBEA
:101A1000080201EA521021683043886001B0BDE835
:101A2000F08300BF002804BF0120704710B50446B2
:101A300090F8390028B9002084F838002046FFF7D4
:101A4000C3FE242084F839002068C16821F40051C5
:101A5000C1602046FFF7BAFE2068016921F4904179
:101A60000161416921F022014161416941F00801B0
:101A70004161C16841F40051C16000202021E06350
:101A800084F8391084F83A1010BD00BF002804BF54
:101A900001207047B0B5044690F839000D4628B9CA
:101AA000002084F838002046FFF78EFE242084F8BA
:101AB00039002068C16821F40051C1602046FFF759
:101AC00085FE2068016921F400610161416921F00E
:101AD0002A014161016941F480410161016921F0FC
:101AE00020010161016929430161C16841F400518C
:101AF000C16000202021E06384F8391084F83A1096
:101B0000B0BD00BF002804BF0120704770B5044677
:101B100090F8390015460E4628B9002084F83800A0
:101B20002046FFF751FE242084F839002068C16860
:101B300021F40051C1602046FFF748FE206801698A
:101B400021F490410161416921F02A01416101695B
:101B500021F00F010161016931430161C16821F484
:101B60000061C160C1682943C160C16841F400518E
:101B7000C16000202021E06384F8391084F83A1015
:101B800070BD00BF002804BF0120704710B524219C
:101B900080F83910044600F009F80020E06384F86A
:101BA000390084F83A0084F8380010BD704700BF4F
:101BB0002DE9F041044690F8390020280CD10F4659
:101BC00000294FF0010018BF002A01D1BDE8F081C3
:101BD00094F83800012802D10220BDE8F0810120EC
:101BE00084F838000020E06321201D4684F8390085
:101BF000164601F04FF9A684E684E18C8046002960
:101C000043D06E1C06E000BF17F8010B2168486046
:101C1000E08CD0B3E08C0138E0842068A1680068D3
:101C2000B1F5805F04D1000616D496B15DB934E0F9
:101C30000006E9D43EB305BB2FE000BF01680906EA
:101C40000AD4002EFAD001F025F9A0EB0800A84232
:101C500023D82068F2E700BF3888216922686FF333
:101C60005F200029506014BF01370237D0E700BF62
:101C700001680906C8D4002EFAD001F00BF9A0EBD8
:101C80000800A84209D82068F2E7206800684006EA
:101C900020D415B16E1C10D015E02068C16821F465
:101CA000D071C160416921F001014161202084F8B7
:101CB000390084F83A00032010E0206801684906E2
:101CC00008D4002EFAD001F0E5F8A0EB0800A842F5
:101CD000F3D9E2E7202084F839000020002184F8BD
:101CE0003810BDE8F08100BF2DE9F04381B0044613
:101CF00090F83A0020280DD10E4600294FF001003F
:101D000018BF002A02D101B0BDE8F08394F8380072
:101D1000012803D1022001B0BDE8F083012084F83E
:101D200038004FF0000822201D46C4F83C8084F89B
:101D30003A00174601F0AEF8A785E785E18D002946
:101D40004BD081466F1C0AE0206821694068002959
:101D500018BF00F07F0006F8010BE08DE8B3E08DBE
:101D60000138E0852068A1680068B1F5805F05D181
:101D7000800617D49FB165B931E000BF8006E3D477
:101D80004FB315BB2BE000BF016889060AD4002FB2
:101D9000FAD001F07FF8A0EB0900A8421FD8206814
:101DA000F2E700BF20682169406819B1C0B226F887
:101DB000010BD2E76FF35F2026F8020BCDE700BFDF
:101DC00001688906C0D4002FFAD001F063F8A0EBB7
:101DD0000900A84203D82068F2E700200CE0206840
:101DE000C16821F4D071C160416921F001014161F4
:101DF000202084F839000320202184F83A1084F848
:101E0000388001B0BDE8F08390F83930202B0BD139
:101E100000294FF0010318BF002A01D1184670476E
:101E200090F83830012B02D1022318467047016226
:101E3000002321218284C284C36380F839100168A1
:101E400080F83830C86840F08000C8601846704795
:101E5000034690F83A0020280AD100294FF00100EB
:101E600018BF002A00D1704793F83800012801D12B
:101E7000022070479962002022219A85DA85D86372
:101E800083F83A10196883F838004A6942F0010271
:101E90004A61CA6842F49072CA60704790F839305B
:101EA000202B1CBF02207047B0B5964600294FF08A
:101EB000010218BFBEF1000F03D1BDE8B0401046CB
:101EC000704790F83820012A01D10222F5E701225B
:101ED00080F83820002221230162A0F824E0A0F835
:101EE00026E0C26380F83930D0F830C041F635744E
:101EF00041F65D75C0F60004C0F600050368CCE944
:101F00000F4541F66574C0F60004CCE913421A1D72
:101F1000044660467346FEF7D1FC206800226FF04D
:101F20004001016084F83820416941F0800141613D
:101F3000C3E700BF0168806B0968C90548BF00F0AE
:101F4000A3BB0021C1840068416921F08001416187
:101F5000C16841F04001C160704700BF806B00F074
:101F600095BB00BF806B01684A6990F83930212B1E
:101F70000BD112F0800208D00022C284CA6822F07D
:101F8000C002CA60202280F839204A6990F83A30AD
:101F9000222B0FD112F040020CD00022C285CA6859
:101FA00022F49072CA604A6922F001024A6120213B
:101FB00080F83A10C16B41F01001C16300F062BBC0
:101FC00090F83A30202B1CBF02207047B0B582B089
:101FD00096460A4600294FF0010118BFBEF1000FD6
:101FE00004D102B0BDE8B0400846704790F8381000
:101FF000012901D10221F4E7012180F838100021E4
:1020000022238262A0F82CE0C16380F83A30D0F835
:1020100034C042F2710442F2A905C0F60004C0F6D1
:1020200000050368CCE90F4541F66574C0F600046D
:10203000CCE91341191D044660467346FEF73EFC89
:102040000021019120680268019242680192019A80
:1020500084F83810C26842F48072C260426942F06B
:1020600001024261426942F040024261B9E700BFA9
:102070000168806B0968C90548BF00F009BB0021F1
:10208000C1850168CA6822F48072CA604A6922F078
:1020900001024A614A6922F040024A61202180F827
:1020A0003A1000F0F5BA00BF806B00F0F3BA00BF41
:1020B00090F83810012904BF0220704701220168FE
:1020C00080F838204A6990F83930212B06D112F077
:1020D000800203D04A6922F080024A614A6990F87E
:1020E0003A30222B0ED112F040020BD0CA6822F4F3
:1020F0008072CA604A6922F001024A614A6922F08C
:1021000040024A61002180F838100020704700BF6B
:1021100090F83810012904BF02207047012180F88F
:10212000381090F83910212904D101684A6942F029
:1021300080024A6190F83A10222915D181B000211D
:10214000009101680A6800924A680092009ACA6881
:1021500042F48072CA604A6942F001024A614A69E7
:1021600042F040024A6101B0002180F8381000209E
:10217000704700BF10B504460068416994F83920E3
:10218000212A13D111F0800110D0416921F0800182
:102190004161206B002818BFFEF7E6FB2068C1688C
:1021A00021F0C001C160202084F839002068416915
:1021B00094F83A20222A17D111F0400114D0416935
:1021C00021F040014161606B002818BFFEF7CCFB95
:1021D0002068C16821F49071C160416921F001015A
:1021E0004161202084F83A00002010BD10B504465B
:1021F0000068C16821F4F071C160416921F00101FA
:1022000041614169090609D5416921F080014161B7
:10221000206B18B100210165FEF7A6FB206841691B
:10222000490609D5416921F040014161606B18B14F
:1022300000210165FEF798FB00202021E084E08565
:10224000E06384F83A1084F8391010BD10B50446E4
:102250000068C16821F0C001C1604169090609D563
:10226000416921F080014161206B18B100210165B5
:10227000FEF77AFB00202021E08484F8391010BD9D
:1022800010B504460068C16821F49071C1604169CD
:1022900021F0010141614169490609D5416921F0F7
:1022A00040014161606B18B100210165FEF75CFBE4
:1022B00000202021E08584F83A1010BD10B5016897
:1022C0000446006BCA6822F4F072CA604A6922F0C0
:1022D00001024A6140B14A6942F265331206C0F612
:1022E000000303EAE2720265626B4AB14B694FEA8E
:1022F000436C42F28D33C0F6000303EAEC731365BE
:102300004A6912060BD54A6922F080024A6130B14F
:10231000FEF770FB4FF0000110B1206B0165012149
:102320002068426952060DD5426922F0400242619E
:10233000606B38B1FEF75EFB4FF0000110B1606BCF
:102340000165012159B10020E084E085E06320208F
:1023500084F8390084F83A00204600F02BF8002079
:1023600010BD00BF806B0021D0E90C3219651AB195
:10237000126D002A18BF7047C184C185C163202136
:1023800080F8391080F83A1000F014B8806B002102
:10239000D0E90C2319651AB1126D002A18BF7047D5
:1023A000C184C185C163202180F8391080F83A10BA
:1023B000AFF30080704700BF10B50168CA6822F013
:1023C000C002CA604A69120614D54A6922F0800226
:1023D0004A61016B71B1044642F20940C0F6000047
:1023E00008650846FEF706FB58B1206B016D88476B
:1023F000002010BD0021C184202180F8391000F098
:102400000BF8002010BD00BF806B0021C18420218B
:1024100080F83910AFF30080704700BF10B5016835
:10242000CA6822F49072CA604A6922F001024A61C5
:102430004A69520614D54A6922F040024A61416B4A
:1024400071B1044642F27540C0F6000008650846C6
:10245000FEF7D0FA58B1606B016D8847002010BDBF
:102460000021C185202180F83A1000F00BF80020EF
:1024700010BD00BF806B0021C185202180F83A107B
:10248000AFF30080704700BFB0B501680A68CC6840
:102490004B6902F02F05202D04F0200503D115B162
:1024A000BDE8B040B0E05FEA027C1EBF03F0010E61
:1024B00004F4907313EB0E0329D1130616D514F010
:1024C000800313D090F83920212A31D18368026A21
:1024D000B3F5805F23D113886FF35F234B600369EB
:1024E000002B14BF0132023202621CE052061FD5DB
:1024F00014F0400208BFB0BDCA6822F04002CA60B2
:10250000202180F83910BDE8B04000F0BDB8D107F7
:1025100018BF14F480710CD1510710D416E0531C6D
:10252000036212784A60C28C013A1304C2845DD0FF
:10253000B0BDC16B41F00101C163510706D5BEF1C9
:10254000000F03D0C16B41F00201C163910706D5B2
:10255000BEF1000F03D0C16B41F00401C163BCF1B7
:10256000000F06D5BEF1000F03D0C16B41F008018A
:10257000C163C16B0029DBD0910604D51DB10446AF
:1025800000F042F8204601684A69C36B02F040023D
:1025900003F00803D21823D0CA6822F49072CA60EC
:1025A0004A6922F001024A61202280F83A204A69F1
:1025B000520624D54A6922F040024A61416BF1B1CA
:1025C00042F27962C0F60002044608460A65FEF748
:1025D00011FA0028ACD0606B016DBDE8B04008472F
:1025E000044600F04FF80020E063B0BDC86820F05A
:1025F0008000C860C86840F04000C860B0BDBDE859
:10260000B04000F03FB800BF90F83A10222918BF40
:1026100070478168B1F5805F08D102680369816AFB
:1026200052687BB1D2B221F8012B0FE00168026938
:102630004968002A826A18BF01F07F01531C836237
:10264000117004E06FF35F2221F8022B8162C18DCB
:1026500001390A04C18500D070470168CA6822F4B4
:102660009072CA604A6922F001024A61202180F812
:102670003A1000F00DB800BF806B0021C185C18405
:10268000AFF30080704700BF704700BF704700BFC6
:10269000704700BF704700BF90F83810012904BF91
:1026A00002207047242180F839100168CA6842F07E
:1026B0000102CA60202180F83910002180F838100A
:1026C0000020704790F83810012904BF022070479D
:1026D000242180F839100168CA6842F00202CA60F9
:1026E000202180F83910002180F838100020704730
:1026F00090F83810012904BF02207047242180F887
:1027000039100168CA6822F00202CA60202180F8EC
:102710003910002180F838100020704790F83810E8
:1027200001294FF002010DD0242280F839200268DF
:10273000D36861F383032021D36080F8391000212E
:1027400080F838100846704790F83810012904BF07
:1027500002207047242180F8391001680123CA68DB
:1027600063F38302CA60202180F83910002180F8C9
:1027700038100020704700BF90F8391090F83A00E8
:102780000843C0B2704700BFC06B704770B592B0CD
:10279000002543F640000195C4F2020001680124BF
:1027A00041F0805101600068022600F080500190E5
:1027B000019847F200000195C4F20000016841F45D
:1027C00040410160006800F44040019001984FF4DE
:1027D000803002904FF480000890082009904FF458
:1027E000C8700A9004200B9007200C9001A8019457
:1027F00004950796FEF75AFC78B90F200D904FF418
:102800008050CDE910050DA80621CDE90E65FEF733
:10281000B5FD0446002818BF0124204612B070BD43
:102820002DE9F04F81B00029009351D000F10077DD
:1028300043F6300607F1FF77C4F20206C7F38F278D
:102840004FF00108356808FA07F72F433760C0F3E7
:10285000872740F2700B87F0800EA2F1010A002753
:10286000C2F2000B002604E00136102E07F1020729
:102870002ED008FA06F40C42F6D03BF81E50032383
:1028800025432BF81E50C56803FA07FC0A9B25EA6E
:102890000C0503FA07F945EA0905C560056802FA5F
:1028A00007F325EA0C052B43BAF1010F0360DBD8CF
:1028B00043686FEA0C05A343009CB440A4B22343D1
:1028C000436083682B400B9DBD402B438360CBE767
:1028D00001B0BDE8F08F00BF00F1007043F6300298
:1028E00000F1FF70C4F20202C0F38F2001211368CF
:1028F00001FA00F018431060704700BF2DE9F04F57
:1029000081B0C0F3872740F2700B87F0800CA2F1F2
:10291000010A00264FF00108C2F2000B00250093C7
:1029200005E000BF0135102D06F102062ED008FA91
:1029300005F70F42F6D03BF81C4003233C432BF82D
:102940001C40C46803FA06FE0A9B24EA0E0403FA3C
:1029500006F944EA0904C460046802FA06F324EAAA
:102960000E042343BAF1010F0360DBD84368009CD7
:10297000BB43AC40A4B22343436083686FEA0E07B5
:102980003B400B9FB7403B438360CBE701B0BDE8C2
:10299000F08F00BF002908BF70472DE9F04F00F10C
:1029A000007443F6300604F1FF74C4F20206C4F367
:1029B0008F240125376805FA04F4DDF828E03C434C
:1029C000346000F1200A00266FF003084FF00F0971
:1029D000002404E00134102C06F1040614D021FA7E
:1029E00004F5ED07F6D008EA54055AF805B006F0EC
:1029F0001C0709FA07FC2BEA0C0C0EFA07F747EA4A
:102A00000C074AF80570E5E7C0F3872740F2700C21
:102A100087F0800E00244FF0010AC2F2000C00275C
:102A200005E000BF0137102F04F102042CD00AFA90
:102A300007F50D42F6D03CF81E6003FA04F82E4369
:102A40002CF81E60D0F80CB0032606FA04F92BEA25
:102A5000090B4BEA0806C660066826EA0908022642
:102A6000A64046EA08060660466826EA050502FA18
:102A700007F6B6B2354345608568099E25EA090523
:102A8000A64035438560CDE7BDE8F04F704700BFF5
:102A90002DE9F041C0F3872240F2700882F08002F5
:102AA00000234FF0010C4FF0030EC2F20008002586
:102AB00007E000BF0135102D03F1020308BFBDE898
:102AC000F0810CFA05F60E42F4D007680EFA03F412
:102AD0003C43046038F81240B44328F81240E9E758
:102AE00000F1007000F1FF70C0F38F20704700BF4D
:102AF00010B54FF0000E4FF0030C002306E000BFAE
:102B00000133102B0EF1020E08BF10BD21FA03F2A3
:102B1000D207F5D002680CFA0EF4A2430260EFE788
:102B2000B0B500224FF0030C4FF0010E002305E07A
:102B30000133102B02F1020208BFB0BD21FA03F4E9
:102B4000E407F5D004680CFA02F5AC430EFA02F57E
:102B50002C430460ECE700BF10B54FF0000E4FF0BF
:102B6000030C002306E000BF0133102B0EF1020E10
:102B700008BF10BD21FA03F2D207F5D002680CFAA3
:102B80000EF422430260EFE7B0B500224FF0030CD1
:102B90004FF0020E002305E00133102B02F1020278
:102BA00008BFB0BD21FA03F4E407F5D004680CFABD
:102BB00002F5AC430EFA02F52C430460ECE700BFCB
:102BC000B0B54FF0000E4FF0030C002306E000BF3D
:102BD0000133102B0EF1020E08BFB0BD21FA03F431
:102BE000E407F5D0C4680CFA0EF5AC4302FA0EF512
:102BF0002C43C460ECE700BF01F58032C261C161C3
:102C0000C261C169C06970470021022805D300BFB5
:102C1000013103284FEA5000FAD888B2704700BF4C
:102C200000F1007043F6300200F1FF70C4F20202BE
:102C3000C0F38F200121136801FA00F023EA00009D
:102C40001060704700F1007000F1FF7040F27001F9
:102C5000C0F38F20C2F2000131F81000704700BFAE
:102C600000F1007000F1FF7040F27001C0F38F209E
:102C7000C2F2000131F810004FF6FF714840704772
:102C80004EF6FC50CEF20000016821F08071016028
:102C9000016841F08071016041F20000CEF2000055
:102CA000016821F001010160016841F0010101604A
:102CB00000214160416800BF00BF4068401A704772
:102CC0002DE9F04381B040F25808C2F2000898F8AC
:102CD0000040042C1ED806461420994615460F467F
:102CE00001F08AFAB0B10899027807F0010302F006
:102CF000FC0265F34103C0E90391611C1A4488F8A2
:102D0000001008EB84010270C0E90166486001B060
:102D1000BDE8F083002001B0BDE8F08370B540F25B
:102D2000580CC2F2000C9CF8004084B10021002233
:102D30000CEB81035B6883420ED00132A24201F1A9
:102D40000101F5D323461146A34204D007E0002336
:102D50000021A34203D170BD1346A342FBD00CEB6C
:102D600081004068EFF31086EFF3108172B69CF893
:102D70000010013999420ADD0CEB8302141D224632
:102D800052F8045F0133256099421446F8DC8CF850
:102D9000001001F009FA002E18BF70BD62B670BDB8
:102DA000017801F0FD010170704700BF017841F02A
:102DB00002010170704700BF41688160704700BF29
:102DC0000278002918BF012102F0FE0211440170AF
:102DD000704700BF41607047704700BF40F29000ED
:102DE000C2F2000001680131016040F29400C2F2B9
:102DF0000000016811B101680139016070B540F24D
:102E00005804C2F20004207818B3002504E000BF83
:102E10002078013585421CD204EB850670680028B5
:102E2000F6D001788907F3D5816800291CBF0139E4
:102E3000816081680029EBD1D0E903219047706857
:102E400001784268CB07826004BF01F0FC01017089
:102E5000DEE7BDE87040FFF7BFBF00BFEFF30581BD
:102E600069B1002808BF70474EF21001CEF2000190
:102E70000A68D20300EBE2700028F9D108E040F2C2
:102E80009001C2F200010A680B689B1A8342FBD3CF
:102E9000704700BF40F29000C2F200000068704727
:102EA000B0B504460C2001F0A7F968B1A1000546B1
:102EB000084601F0A1F901464FF00001286018B161
:102EC0002846C0E90114B0BD0020B0BDE8B12DE92D
:102ED000F04381B00446D0E90106B04256D30C203D
:102EE000884601F089F998B18146701C87B2B80014
:102EF00001F082F9C9F8000000284FF0000014BF6B
:102F0000C9E901074FF0000904E0002188B27047C9
:102F10004FF00009042000EB860001F06DF9B9F1D3
:102F2000000F4FF0000118BF002843D066B122689F
:102F3000011F043A002300BF52F8047F01339DB201
:102F4000AE4241F8047FF7D8D9F80010216076B17D
:102F500000216FF0030200BF831827685B681744E5
:102F600001317B608BB29E4202F10402F4D8D9F8A1
:102F70000810C9F80000A160064601F015F93046B6
:102F800001F012F9484601F00FF9414608460D4696
:102F900001F0D1F8013001F02FF9D4E9001241F825
:102FA00022002068294650F8220001F0CBF8616821
:102FB000481C606001B0BDE8F04388B2704700BFB4
:102FC000002808BF704710B501680446084601F0A4
:102FD000EBF82046BDE8104001F0E6B82DE9F043DB
:102FE00081B020B3044640680D46884221D910467E
:102FF000904601F0A0F8D4F80090064659F82570E4
:10300000384601F098F8864218D9042000EB860073
:1030100001F0F2F8B0B149F825002068414650F8B7
:10302000250001F08FF8384601F0BEF80AE00024D0
:1030300008E020461146FFF749FF03E038464146C5
:1030400001F080F8204601B0BDE8F083002804BFFD
:103050000020704742688A4298BF704710B50368E5
:10306000A2F1010E53F821C08E450BD90A4600BFCC
:103070000468013104EB82035B6844F822308AB2B1
:103080009645F5D8C0F804E00446604601F08CF897
:103090002046BDE81040704730B142688A4203D9EB
:1030A000006850F82100704700207047002808BFD2
:1030B0007047B0B50446406860B10020002500BFED
:1030C000216851F8200001F06FF801356168A8B25D
:1030D0008142F5D8206801F067F82046BDE8B0408D
:1030E00001F062B870B590B044F20044C4F200043C
:1030F000A04253D041F20043C4F20103984246D0AB
:1031000041F20003C4F2010398423ED1002543F688
:1031100024000095C4F20200036A164643F010032F
:103120000362036A03F010030093009B036843F0FB
:1031300010030360036823F010030360084600F0E7
:10314000ADFA04F54C40CDE900060C20CDE9045061
:1031500025200695CDE902550795FDF779F925203B
:1031600006210022FDF736F92520FDF75FF925201D
:10317000FDF756FA6846FEF7F7FA41F20C00C4F282
:103180000100016841F02001016010B070BD41F202
:103190000C00C4F2010000F57D7003E044F2004031
:1031A000C4F20000002310B0BDE8704000E000BF92
:1031B0002DE9F04F93B044F2004AC4F2000A43F6FE
:1031C0002406984691468B4604465045C4F20206B2
:1031D0001DD041F20000C4F2010084423DD1002024
:1031E0000390306A40F010003062306A00F0100046
:1031F00003900398306840F010003060306820F091
:1032000010003060584600F049FA252538E00020CB
:103210000390F069BBF1030F40F40030F061F069F6
:1032200000F400300390039856F8040C40F400308A
:1032300046F8040C56F8040C20F4003046F8040C50
:1032400019D0BBF1010F0AD0BBF1000F17D10AF55D
:10325000DE30072703250C2106E0252510E00AF5BE
:10326000E43007270325602100220123CDE9005720
:10327000FFF790FB03E05046072100F0FDF92625FB
:103280000AF55047BC4229D100200390306ABBF1B7
:10329000030F40F020003062306A00F020000390FD
:1032A0000398306840F020003060306820F0200043
:1032B00030600ED0BBF1000F0FD10AF5E2300826C6
:1032C0000325C02100220123CDE90056FFF762FB50
:1032D00003E03846082100F0CFF947250C2008907C
:1032E00000200790CDE905000A902846CDE9034962
:1032F000CDF82480FDF7ACF8A4EB0A00B0FA80F01A
:10330000420928460621BC4208BF0622FDF762F8A2
:103310002846FDF78BF82846FDF782F903A8FEF74B
:1033200023FAE06840F02000E06013B0BDE8F08FC1
:10333000F0B591B044F20044C4F20004A04254D06D
:1033400041F20045C4F20105A84247D041F2000510
:10335000C4F20105A8423FD1002643F6240001969D
:10336000C4F20200056A174645F010050562056AB9
:1033700005F010050195019D056845F010050560F3
:10338000056825F01005056008461D4600F086F921
:1033900004F54C40CDE901070C20CDE9056025205E
:1033A0000795CDE903660896FDF752F8252006211A
:1033B0000022FDF70FF82520FDF738F82520FDF74E
:1033C0002FF901A8FEF7D0F941F20C00C4F2010078
:1033D000016841F02001016011B0F0BD41F20C0024
:1033E000C4F2010000F57D7003E044F20040C4F235
:1033F000000011B0BDE8F040DAE600BF80B582B051
:1034000040F2280140F2100344F20042C2F20001EF
:10341000C2F20003C4F20002904208BF0B4602F55C
:10342000504140F24002C2F20002884218BF1A46E0
:103430000DF107011046012200F03AFB9DF807103C
:10344000002808BF0146C8B202B080BD80B540F276
:10345000280E40F2100C44F20043C2F2000EC2F2F9
:10346000000CC4F20003984208BFF44603F5504E26
:1034700040F24003C2F20003704518BF634618468D
:1034800000F04CFC80B280BD0A7800BF002A08BF63
:10349000704700BF03681B06FCD542600268120635
:1034A000FCD511F8012FF1E7002A08BF704700BFD3
:1034B00003681B06FCD50B78013A436003681B06C2
:1034C000FCD5002A01F10101F2D1704780B540F22C
:1034D000280C40F2100344F20042C2F2000CC2F287
:1034E0000003C4F20002904208BF634602F5504C4C
:1034F00040F24002C2F20002604518BF1A46104670
:1035000000F036FB00B280BDB0B50C4640F2280199
:1035100040F2100244F20043C2F20001C2F2000283
:10352000C4F20003984208BF0A4603F5504140F236
:103530004005C2F200058842204618BF154600F03B
:10354000FAFD02462846214600F03EFB00B2B0BD1F
:1035500080B540F2280140F2100244F20043C2F26A
:103560000001C2F20002C4F20003984208BF0A46FA
:1035700040F2400103F55043C2F20001984218BFE7
:103580001146084600F0DCFAB0FA80F0400980BD30
:1035900080B540F2280140F2100244F20043C2F22A
:1035A0000001C2F20002C4F20003984208BF0A46BA
:1035B00040F2400103F55043C2F20001984218BFA7
:1035C0001146084600F026FAB0FA80F0400980BDA6
:1035D00080B540F2280140F2100244F20043C2F2EA
:1035E0000001C2F20002C4F20003984208BF0A467A
:1035F00040F2400103F55043C2F20001984218BF67
:103600001146084600F09CFA80B280BD40F22801C5
:1036100040F2100244F20043C2F20001C2F2000282
:10362000C4F20003984208BF0A4640F2400103F585
:103630005043C2F20001984218BF1146084600F0FC
:1036400091BA00BF40F2280C40F2100344F200424D
:10365000C2F2000CC2F20003C4F20002904208BFA2
:10366000634602F5504C40F24002C2F2000260454F
:1036700018BF1A4651747047704700BF704700BFAB
:10368000704700BF704700BF704700BF704700BF62
:10369000704700BF704700BF704700BF70B582B071
:1036A00003283CD8DFE800F0022C0B2100204FF06B
:1036B000070C0324C4F202004FF4C06129E0002487
:1036C000C4F202040725032620464FF400710022AD
:1036D0000123CDE90065FFF75DF904F580608021E5
:1036E00000220123CDE9006517E00020C4F20200AA
:1036F000A0F57040072102B0BDE87040FFF7BCBFE5
:103700000020C4F2020000F580604FF0070C032493
:10371000C02100220123CDE9004CFFF73BF902B0A4
:1037200070BD00BF80B582B0032824D001280FD01F
:1037300000281CBF02B080BD44F20040C4F200006B
:1037400000F5DE304FF0070C4FF0030E0C210AE0BD
:1037500044F20040C4F2000000F5E4304FF0070CE2
:103760004FF0030E602100220123CDE900ECFFF7AA
:1037700011F902B080BD44F20040C4F200000721FC
:1037800002B0BDE88040FFF777BF00BF032817D025
:10379000002818BF704780B582B041F20040C4F2E3
:1037A000010000F574404FF0080C4FF0030EC021EB
:1037B00000220123CDE900ECFFF7ECF802B080BD58
:1037C00041F20040C4F201000821FFF755BF00BFDD
:1037D00010B582B041F20004C4F2010420688006F2
:1037E0000AD5606801A98DF8040040F21000C2F209
:1037F0000000012200F0C8F800200190216801912A
:1038000061680191019901902168019161680191BC
:1038100001990190216801916168019101990190DC
:1038200021680191616801910199019020680190DE
:103830006068019001982520FCF7F2FE02B010BDEF
:1038400010B582B044F20044C4F20004206880063F
:103850000AD5606801A98DF8040040F22800C2F280
:103860000000012200F090F80020019021680191F1
:10387000616801910199019021680191616801914C
:10388000019901902168019161680191019901906C
:10389000216801916168019101990190206801906E
:1038A0006068019001982620FCF7BAFE02B010BDB6
:1038B00010B582B041F20044C4F2010420688006D1
:1038C0000AD5606801A98DF8040040F24000C2F2F8
:1038D0000000012200F058F80020019021680191B9
:1038E00061680191019901902168019161680191DC
:1038F00001990190216801916168019101990190FC
:1039000021680191616801910199019020680190FD
:103910006068019001984720FCF782FE02B010BD5C
:1039200010B504460020C4E90010C4E90202C4E94D
:1039300004000A20607442B9084600F05DFCE060B3
:1039400048B1207C40F002002074207C40F001004F
:103950002074002010BD00202060012010BD00BF99
:10396000002808BF7047017C890708D510B5C168D9
:103970000446084600F018FC2046BDE8104000212F
:1039800001740160704700BF2DE9F0410546002831
:103990004FF0000008BFBDE8F0811446A2B3D5E99E
:1039A0000002824224BF00226A60D5E901239A1AEC
:1039B000034688BF134638BF13185A1EA24201D2CD
:1039C00014461AB36A68EB68871A2646A74238BFBE
:1039D0003E4698183246884600F09BFB6868BC4219
:1039E0003044686009D90020A71B6860E86808EBCC
:1039F00006013A4600F08DFB6F60D5E90001814277
:103A000024BF002068602046BDE8F0810020BDE8AA
:103A1000F08100BF002804BF00207047D0E90123D7
:103A2000934208BF01689A1A88BF11463CBF0068DC
:103A30008118481E704700BF00284FF0000318BFD0
:103A4000002A01D118467047D0E900C3634524BF5E
:103A5000002343608368634524BF0023836010B55F
:103A6000D0E9013EBEEB030E634688BF734638BF04
:103A70000EEB0C03013B934201D21A469BB192B16B
:103A8000A1F1010C134600BF8168002908BF01683D
:103A9000013981601CF803E0C468013B04F801E0CF
:103AA000F2D1134600E00023BDE8104018467047ED
:103AB0002DE9F041054600284FF0000008BFBDE8A1
:103AC000F0811446BAB32868AA68824224BF002253
:103AD000AA60D5E90137DA1B38BF00229F4203EB09
:103AE000000688BFF21BA24201D214462AB3D5E9D0
:103AF00002232646871A1A44A74238BF3E46884604
:103B000008461146324600F004FBA868BC42304427
:103B1000A86009D9A71B0020E968A86008EB060087
:103B20003A4600F0F6FAAF602868A968814224BFDF
:103B30000020A8602046BDE8F0810020BDE8F081AB
:103B4000014600284FF000000AD0D1E901C3BCEBC8
:103B5000030224BF104670470868ACEB0301084419
:103B6000704700BF00281CBF0021C0E90111704749
:103B7000002804BF4FF0FF307047B0B5D0E90123F3
:103B8000B2EB030E38BF4FF0000E03D20468D21A16
:103B900002EB040EBEF1000F12D0D0F800C0D0E945
:103BA00002230024002000BF624528BF22469D5CFE
:103BB0008D4208BFB0BD0130864502F10102F3D14C
:103BC0004FF0FF30B0BD00BF002804BF4FF0FF3002
:103BD00070472DE9F04F81B08446D0E90103C51A42
:103BE00038BF002503D2DCF80070C01AC519954211
:103BF0004FF0FF3045D3002D43D0DCF800E0DCE986
:103C0000023C11F8019B901E00904FF0000A4FF00B
:103C1000000B002006E028446E1C641B964230D046
:103C2000254664B3734528BF53461CF8034001334F
:103C30004C4508BF4FF0010B6C1E5FEA0B6600F1AC
:103C40000100EDD0022A4FF00106E7D3002CE5D0A9
:103C5000009E023DB54228BF35466E1C002500BFC0
:103C6000734528BF53461CF8037011F8058047457B
:103C7000D1D10135AE4203F10103F1D1CCE74FF0D0
:103C8000FF3001B0BDE8F08F2DE9F04381B004466C
:103C90000846894600F04FFA002C4FF0000618BF86
:103CA000002835D0D4E900720646BA4224BF00226B
:103CB0006260D4E9012339469B1A88BF194638BF90
:103CC000D9194B1E834201D21E462BB3E068BD1AA0
:103CD0003746B54238BF2F46104449463A4600F0B1
:103CE00018FA6068AE42384460600BD90020A6EB39
:103CF00007086060E06809EB0701424600F009FA36
:103D0000C4F80480D4E90001814224BF002060602F
:103D1000304601B0BDE8F0830026F9E72DE9F04F09
:103D200083B000284ED08246D0E90103834208BF09
:103D3000DAF800C0181A88BF84463CBFDAF80030B1
:103D400003EB000CDAE90104B0EB040E38BF4FF0CE
:103D5000000E04D2DAF80030001B00EB030EBEF1B7
:103D6000000F4FF0000600F08780DAE90103C41A63
:103D700028BF264603D2DAF80040C01A0619D6B189
:103D80009AF81190DAF80000DAF80C404FF00008C9
:103D9000002700BF834228BF4346E55C4D4506D05F
:103DA0000137BE4203F10103F4D14FF0FF37F80FA2
:103DB000964503D308E00120964505D220B1BCF119
:103DC000010F01D0002657E0501E4FF000034FF0C6
:103DD000000601904BD000BFDAF800B0DAF8080016
:103DE0000C46584528BFCAF80830DAE90109B0EB9B
:103DF000090838BF9846814500EB0B0188BFA1EB4D
:103E00000908B8F1000F31D0DAF80C50BBEB090704
:103E100018BF012705EB09010DF10B003A4600F030
:103E200078F9002309EB0700CB45CAF8080007D151
:103E3000CAF8083028788DF80B000120CAF808006D
:103E4000DAF808002146584528BFCAF80830B8F10A
:103E5000000F0CD09DF80B0088559AF81120904265
:103E600005D001980136B042B6D100E02146019854
:103E7000864218BF01368B55304603B0BDE8F08F3F
:103E8000002804BF00207047B0B583684FF0000CD5
:103E900081B1D0F804E09E450CD00468002500BF35
:103EA00001330CF1010CA34228BF2B468C4501D2F3
:103EB0009E45F5D18C451CBF0020B0BDC068C05CDC
:103EC00010700120B0BD0000FEF760FCFCF780F927
:103ED00041F20040C4F2010000214FF46122FFF7DB
:103EE00001F90A20FEF7DCFF40F28C05C2F2000562
:103EF00021A12860FEF7EAFF286823A1FEF7E6FF6C
:103F00002868416869B10021002400BF006850F8AA
:103F1000210000F0A7F9286801344268A1B28A4262
:103F2000F4D81DA1FEF7D2FF28681FA1FEF7CEFF2F
:103F30002A68044620A11046FEF7C8FF286822A27E
:103F40002146FFF74BF82868416861B10021002441
:103F5000006850F8210000F085F9286801344268B3
:103F6000A1B28A42F4D80121FFF770F82868FFF760
:103F70009DF800BFFEE700BF46697273742073743A
:103F800072696E67000000005365636F6E64207392
:103F90007472696E670000005468697264207374FB
:103FA00072696E6700000000466F72746820737457
:103FB00072696E6700000000466966746820737459
:103FC00072696E670000000055706461746564205A
:103FD000666F72746820737472696E670000000007
:103FE00081B041F20041C4F201018DF80300CA68BA
:103FF000920408D50A681206FCD59DF803204A6091
:104000000A681206FCD501B070470000704700BF77
:10401000FEE700BFFEE700BFFEE700BFFEE700BF10
:10402000704700BF704700BF704700BF704700BFB8
:10403000FEF7D4BE4EF68850CEF2000001684FF075
:10404000000C41F47001016043F60001C4F202016A
:104050000A6842F001020A60C1F808C00B684FF616
:10406000FF72CFF6F6621A400A6043F21002C2F203
:1040700000424A600A6822F480220A60C1F80CC03B
:104080004FF0006140F8801C704700BF80B543F6D8
:104090000400C4F20200416801F00C0242F2004147
:1040A000082AC0F2F40106D0042A20D141F20021EE
:1040B000C0F27A011BE0D0F800C00368026803F088
:1040C0003F03C2F3881E5FEA4C2241F20022C0F295
:1040D0007A0258BF0A46B2FBF3F102680223C2F328
:1040E00001420EFB01F103EB4202B1FBF2F140F29F
:1040F0000C02C2F200021160406844F28821C0F351
:104100000310C0F60001085C116821FA00F010608D
:1041100080BD40EA01039B0703D009E008C9121FD4
:1041200008C0042AFAD203E011F8013B00F8013B71
:10413000521EF9D27047421C10F8011B0029FBD116
:10414000801A7047034611F8012B00F8012B002A52
:10415000F9D11846704700001CB50948009009487D
:1041600001900546009C06E0E06840F0010394E8F9
:10417000070098471034AC42F6D3FCF711F8000062
:10418000A8420008C842000802E008C8121F08C17F
:10419000002AFAD170477047002001E001C1121FC8
:1041A000002AFBD17047000010B5002821D0114B28
:1041B0000022001F196803E0814203D80A464968BB
:1041C0000029F9D152B11368841A9C4204D10068C5
:1041D00018441060104602E0506000E0186039B1E9
:1041E00002680B1A934203D10B681A4402604968B3
:1041F000416010BD04000020F0B50B30154D20F0DB
:1042000007010024144A0FE003688B420BD38B4252
:1042100005D95E1A43184768C3E9006700E04368A0
:10422000136002C004E0021D10680028ECD1204693
:10423000002802D1286808B10020F0BD064A0748CE
:104240001060074A121A22F00702C0E90024012078
:104250002860D7E7080000200400002004010020A7
:104260000005002010B5044601E0FFF7B9FE14F880
:10427000010B04490028F8D1BDE810400A20FFF7DF
:10428000AFBE0000000000200000000000000000A1
:1042900001020304060708090000000001020304EC
:1042A0000006101600061016C84200080000002084
:1042B00058000000884100082043000858000020F2
:1042C000A80800009841000800000000000000005D
:1042D000000000000024F4002000000000000000A6
:1042E0000000000098000020000A0000000000000C
:1042F000200000000000000000000000B8000020C6
:10430000000A000000000000200000000000000083
:1043100000000000D8000020000A0000000000009B
:040000050800019955
:00000001FF
