:020000040800F2
:10000000B0180020C10100089D4500089F45000868
:10001000A1450008A3450008A54500080000000010
:10002000000000000000000000000000A7450008DC
:10003000A945000800000000AB450008AF450008D6
:10004000DB010008DB010008DB010008DB01000820
:10005000DB010008DB010008DB010008DB01000810
:10006000DB010008DB010008DB010008DB01000800
:10007000DB010008DB010008DB010008DB010008F0
:10008000DB010008DB010008DB010008DB010008E0
:10009000DB010008DB010008DB010008DB010008D0
:1000A000DB010008DB010008DB010008DB010008C0
:1000B000DB010008DB010008DB010008DB010008B0
:1000C000DB010008DB010008DB010008DB010008A0
:1000D000DB0100083D2E0008C92E0008F12E0008A3
:1000E000DB010008DB010008DB010008DB01000880
:1000F000DB010008DB010008DB010008DB01000870
:10010000DB010008DB010008DB010008DB0100085F
:10011000192F0008412F0008DB010008DB0100084F
:10012000DB010008DB010008DB010008DB0100083F
:10013000DB010008DB010008DB010008DB0100082F
:10014000DB010008DB010008DB010008DB0100081F
:10015000DB010008DB010008DB010008692F000853
:10016000DB010008DB010008DB010008DB010008FF
:10017000DB010008DB010008DB01000800000000D3
:10018000DB010008DB010008912F0008B92F0008EF
:10019000DB010008DB010008DB010008DB010008CF
:1001A000DB010008DB010008DB010008DFF80CD0F0
:1001B00004F0A4FD0048004799410008B018002051
:1001C0000648804706480047FEE7FEE7FEE7FEE7F1
:1001D000FEE7FEE7FEE7FEE7FEE7FEE7B5450008BF
:1001E000AD01000880B50B48016841F40071016061
:1001F000016841F480610160016841F4807101602F
:10020000032000F0C3F80F2000F006F800F018F803
:10021000002080BD003C024010B5044607484FF462
:100220007A710068B0FBF1F000F018F94FF0FF3080
:100230002146002200F0BAF8002010BDCC000020BA
:10024000704700BF80B509484FF0FF3100220161BF
:10025000026141614261016002604160426081600F
:10026000826000F005F8002080BD00BF1038024019
:10027000704700BF0248016801310160704700BF4C
:10028000A804002001480068704700BFA8040020AF
:10029000BCB5019002F02AFA04460198451C28BF1B
:1002A0004FF0FF3502F022FA001BA842FAD3BCBD82
:1002B000004861E010E000E0004862E010E000E08B
:1002C000004870470001070101480068000C7047B2
:1002D000002004E0024800686FF31F30704700BF41
:1002E000002004E00248016841F00101016070470C
:1002F000042004E00248016821F001010160704718
:10030000042004E000483CE0042004E0004833E01E
:10031000042004E00248016841F0040101607047D4
:10032000042004E00248016821F0040101607047E4
:10033000042004E0014801210160704700042742C5
:1003400001480021016070470004274203490A6800
:1003500002604A684260896881607047107AFF1FB6
:100360000148012101607047200027420148002117
:100370000160704720002742016821F002010160FE
:100380007047016841F002010160704705494FF66E
:10039000FF030A681A4060F30A220348104308600A
:1003A000704700BF0CED00E00000FA05F0B5114BFE
:1003B0004FF0FF361C68C4F30224E51E84F00704E6
:1003C00038BF002506FA05F7BA43042C28BF0424D9
:1003D00006FA04F4A14300F00F04A940043C1143C1
:1003E000054A234409010244002848BF03F10C02D6
:1003F0001170F0BD0CED00E000E400E0002805D431
:10040000734600F0ECF89E46014A8850704700BFE2
:1004100000E100E0002809D4734600F0E0F89E46B1
:10042000034A8850BFF34F8FBFF36F8F704700BFF1
:1004300080E100E000F000F80648BFF34F8F064A65
:10044000016801F4E06111430160BFF34F8F00BF09
:10045000FDE700BF0CED00E00400FA05411E00209E
:10046000B0EB116F1CBF01207047044AF0235160AC
:1004700003490B70072190601160704710E000E0A5
:1004800023ED00E00448BFF35F8F016821F4803161
:10049000016000210167704724ED00E0064940F04B
:1004A00001000867086840F480300860BFF34F8F90
:1004B000BFF36F8F704700BF24ED00E002784378F0
:1004C00010490B60D2B143684B60037B42EA037270
:1004D000C37A42EA0362837A42EAC342437B42EA36
:1004E0008342837B42EA4342C37B42EA0342437A2C
:1004F000007A42EA032242EA400001E0002048601C
:100500008860704798ED00E002480068C0F3022060
:10051000704700BF0CED00E0F0B5114D01F0070190
:1005200000F00F060F4FCC1E81F00701054438BFC5
:100530000024002848BFF51928784FF0FF36050938
:10054000E540042928BF042106FA01F125EA01014A
:10055000116006FA04F1C94301EA10101860F0BDF9
:1005600000E400E014ED00E0002805D4734600F03C
:1005700036F89E46014A8850704700BF00E200E00E
:10058000002802D41C21024A32E00020704700BF3C
:1005900000E200E0002805D4734600F020F89E46F3
:1005A000014A8850704700BF80E200E0002802D472
:1005B0001C21024A1CE00020704700BF00E300E05D
:1005C000044904280A6822F0040208BF04320A60C1
:1005D000704700BF10E000E0AFF3008070471C21BF
:1005E000012201EAD00100F01F0002FA00F070477A
:1005F00001EAD00100F01F00895821FA00F000F054
:10060000010070472DE9F041044602F06FF8ACB1EB
:100610000546022084F8350000F0FFFA206800F05B
:10062000F7FA21680868C0070BD002F05FF8401B9A
:100630000528F6D90325202603205BE00120BDE82C
:10064000F081086804F1040C2D4A9CE8E81100EAE6
:10065000020ED4E9072043EA0E032B4333433B4306
:1006600043EA08031A43636A104340EA0C02042B6E
:1006700003D1D4E90B05284302430A60042B4869DF
:1006800020F0070040EA030228D1D4E90A733A4374
:1006900023B3BCF5005F08D0BCF1000F14D1022FCA
:1006A00015D0012F0AD0002F10E0032F16D80125F6
:1006B00040260120DFE807F01E0B1E02A3F1C070E8
:1006C000B0FA80F0400904E0032F03D306D1C3F34E
:1006D000006018B10125402601200BE020464A6148
:1006E00000F010F8E16D3F220026012502FA01F129
:1006F00081600020666584F83550BDE8F08100BF58
:100700003F8010F0026840F2FF3122EA010102F05E
:10071000F802103A5F2A88BF043181651823B2FBC2
:10072000F3F202A39A5CC2650846704700061016F1
:1007300000061016B0B530B1054690F83500022815
:1007400003D1022419E0012417E02868002400F0F6
:100750005FFA2121046044608460C46004614161E7
:100760002846FFF7CFFFE96D3F2202FA01F18160D1
:100770006C6585F8344085F835402046B0BDB0B58D
:1007800000F04FFA16D0012084F8340094F83500B8
:1007900001280DD10220002584F83500204665652A
:1007A00000F00BF82068016841F00101016002E0EF
:1007B00000F033FA02252846B0BDB0B50468806861
:1007C00025684028084625F480252560636008BF19
:1007D0001046A06008BF0A46E260B0BDB0B500F0A8
:1007E00020FA2BD00120A56D84F8340094F8350050
:1007F000012821D1022084F83500002060652046C0
:10080000FFF7DBFFE26D3F232068216C03FA02F261
:10081000AA60026842F016020260426942F0800259
:10082000426119B1016841F008010160016841F0BD
:10083000010101600020B0BD00F0EFF90220B0BD61
:1008400070B5866D044601F051FF054694F83500F9
:10085000022823D12068216C026822F0160202606F
:10086000426922F08002426109B9A16C19B10168A4
:1008700021F00801016000F0CBF920680068C00792
:1008800013D001F033FF401B0628F6D3202060650B
:1008900000F0C3F9032084F8350070BD002084F80F
:1008A000340080206065012070BDE06D3F2101FAB9
:1008B00000F00121B060002084F8340084F8351085
:1008C00070BD90F83510022909D1052180F8351046
:1008D0000068724600F09CF996460020704780211F
:1008E00041650120704700BF2DE9F84F16460D46BF
:1008F000044601F0FBFE814694F83500022842D1FF
:1009000020680068C00543D4102100953A4A06F1DA
:10091000010A002D08BF2021D4E91650082702F152
:10092000030801FA00FB296811EA0B0F36D1616D4B
:10093000C90733D1BAF1000F08D0EEB301F0D6FEEB
:100940000827A0EB0900B04236D8E06D296807FA05
:1009500000F20A4204D0636D43F001036365AA60AC
:10096000254A82400A4204D0636D43F00203636566
:10097000AA6008FA00F20A42D6D0636D43F004037D
:100980006365AA60D0E7002084F83400802001E08D
:100990004FF4807060650120BDE8F88F616D11B182
:1009A000616DC9070FD10099C9B1102101FA00F09A
:1009B000A8600020BDE8F88F2020606500F021F9D4
:1009C0000320BDE8F88F2046FFF73AFFE06D3021A5
:1009D00001FA00F0A86000F014F9BDE8F88F3021AA
:1009E00001FA00F00121A860002084F8340084F8A6
:1009F0003510BDE8F88F00BF01008000F8B504464F
:100A00000020564A08210090D4E91660156837681E
:100A1000814039420CD0226813685B0708D51368FF
:100A200023F004031360B160616D41F00101616561
:100A30004B4901FA00F23A4208D023685B691B0671
:100A400004D5B260626D42F00202626503318140FA
:100A5000394208D022681268920704D5B160616DEE
:100A600041F00401616510218140394217D02068AE
:100A70000268120713D5B16002680168520306D4F8
:100A8000C90506D4016821F00801016001E00803EE
:100A900001D4216C00E0A16C09B120468847E16DCA
:100AA000202000FA01F23A4233D020680368DB06C6
:100AB0002FD5B26094F835300268052B15D122F09D
:100AC00016020260426922F080024261226C0AB979
:100AD000A26C1AB1026822F0080202603F2088402E
:100AE000B06000F08EF8216D32E00168520308D446
:100AF000C9050AD4016821F01001016000F081F8F5
:100B000003E0080301D4616C00E0E16B09B1204609
:100B10008847606D08B3606DC00718D005214FF499
:100B2000165084F83510B5FBF0F021680A6822F001
:100B300001020A60009A01328242009202D80A68D9
:100B4000D207F7D1012084F8350000F066F8E16C97
:100B500019B12046BDE8F8400847F8BDCC00002098
:100B60000100800090F83430012B01D1022110E007
:100B700090F83530012B08D105299EBF01F03F01C7
:100B800000EB8101CA63002100E00121002280F80E
:100B900034200846704700BF10B500F042F804BF8B
:100BA000022010BD94F8350001280AD1062908D882
:100BB000DFE801F004150F120C181B000020E063A1
:100BC00000E00120002184F8341010BD0020E06412
:100BD000F8E700206064F5E70020A064F2E7002059
:100BE0002064EFE700202065ECE704F13C001821C9
:100BF00003F055FD0020E5E790F835007047406DA3
:100C00007047002084F83400012084F835007047D4
:100C1000016821F0010101607047002084F8340070
:100C20007047044690F83400012870472DE9FC4FC6
:100C30005A4A0A2400F120094FF0000A9042584A0B
:100C400008BF092402444FEAB223092B38BF4FEAF8
:100C5000B2240094012500260027102F08BFBDE80C
:100C6000FC8F0C6805FA07FC14EA0C0B00F090806E
:100C7000D1F804E04EF01003122B14D10AF01C033B
:100C80000F2202FA03F56FF0030202EA570259F845
:100C90000240AC430D6905FA03F30125234349F8EB
:100CA0000230D1F804E0032304680EF00302B340DD
:100CB000B2409C436FEA03082243BEF1120F026068
:100CC00013D805FA0EF212F0061F0ED08268CB6818
:100CD00002EA0802B3401A4382604FEA1E124368D8
:100CE000BA4023EA0C031A434260C2688B6802EAE6
:100CF0000802B3401A43C2605FEACE0248D5002220
:100D00002A4B284D27F0030401921A68AC462C4464
:100D100042F480421A601A680F2302F48042019262
:100D20000AF00C02019D9340214DAE46655925EA1B
:100D30000303009D05FA02F21A4344F80E20DCF882
:100D400000204C6842EA0B03E50358BF22EA0B037C
:100D5000CCF80030A503DCF8042042EA0B0358BFAE
:100D600022EA0B03CCF80430E502DCF808200E4D33
:100D700042EA0B0358BF22EA0B03CCF80830A40266
:100D80002A6842EA0B0358BF22EA0B032B600125B5
:100D900002360AF1040A01375FE700BF002402406F
:100DA0000000FEBF003C01400C3C014044380240C2
:100DB00008FCFFFF2DE9F04F354A4FF00A0A8E4636
:100DC00000F1200B4FF000089042324A08BF4FF06C
:100DD000090A02444FEAB223092B38BF4FEAB22A6C
:100DE00000270026102E08BFBDE8F08F012101FA70
:100DF00006F313EA0E0946D003216FF003024FF009
:100E00000F0C01FA08F5016802EA5604A9430160D3
:100E100007F01C015BF804200CFA01F122EA010141
:100E200026F003024BF804101B4C8168A943816033
:100E3000416899434160C168A943C16007F00C0152
:100E40000CFA01F3A4F57E7C0AFA01F15CF80220A9
:100E50001A408A4217D1B1085CF821209A434CF815
:100E600021200D4A116821EA09011160516821EA27
:100E700009015160916821EA09019160074A1168EE
:100E800021EA0901116008F1020804370136A9E7D7
:100E9000002402400000FEBF003C01400C3C014029
:100EA0000069084018BF01207047002A08BF0904E4
:100EB00081617047426951404161704781B04FF490
:100EC00080320092009A0A430092009AC261C16186
:100ED0000099C161C16900910121C06900F48030AD
:100EE00081EA104001B0704703490A68024208BF16
:100EF0007047086000F002B8143C014070470000E1
:100F0000704700BF2DE9FC4104460078A44EC0079D
:100F100009D0B06800F00C0004285DD1306880036F
:100F200001D5606830B32078800716D5B06810F01E
:100F30000C0F05D000F0F7FA64D17068400261D45C
:100F40003068800702D5E068012813D12069316834
:100F500021F0F80141EAC0003060207800070CD48D
:100F6000207840071CD4A769002F00F0F78000F01C
:100F7000DAFA78D10120BDE8FC816069002861D0EF
:100F800088480121C0F8801E01F0B0FB0546706F53
:100F90008007E5D401F0AAFB401B0228F7D9BBE08B
:100FA0000020814F0190306C40F080503064306CF4
:100FB00000F0805001900198386840F480703860EB
:100FC00001F094FB05463868C0052DD401F08EFB76
:100FD000401B0228F7D99FE000F0A5FA02D1706803
:100FE00040029BD430686168B1F5803F06D0B1F50E
:100FF000A02F64D140F480203060306840F480300D
:10100000306065E0E1686748002949D0012101604E
:1010100001F06CFB05463068800797D401F066FB51
:10102000401B0228F7D977E0306FA168012905D06D
:1010300005295AD140F004003067306F40F00100BC
:1010400030675BE057480021C0F8801E01F04EFB7E
:101050000546706F80077FF583AF01F047FB401BAB
:101060000228F6D958E04F4900208846086601F06A
:101070003DFB0546022F09D1306880014FD501F0B4
:1010800035FB411B03200229F6D987E03068800137
:1010900064D501F02BFB411B03200329F6D37DE02F
:1010A0000021016001F022FB0546306880077FF5D2
:1010B00054AF01F01BFB401B0228F6D92CE020F4B2
:1010C000803000293060306820F48020306048D0C3
:1010D00001F00CFB0546306880033FF524AF01F0BA
:1010E00005FB401B6428F6D916E020F0010000291A
:1010F0003067306F20F00400306740D001F0F6FA1E
:10110000054641F28837306F80073FF52CAF01F07C
:10111000EDFA401BB842F6D90320BDE8FC811C342F
:101120001FCC0843D90340EA82104FF6FF72914367
:1011300040EA0460A1F58031084370600120C8F8DE
:10114000600001F0D3FA04463068800106D401F053
:10115000CDFA011B03200229F6D91FE00020BDE8CB
:10116000FC8101F0C3FA0546306880037FF5DBAEF1
:1011700001F0BCFA411B03206429F5D90EE001F00F
:10118000B5FA054641F28837306F80077FF5EBAE40
:1011900001F0ACFA411B0320B942F5D9BDE8FC814E
:1011A0000038024000004742007000402DE9F04145
:1011B0004A4F04460D46D7F8000400F00F0088425D
:1011C00004D287F8005400F0A0F93BD120688107D1
:1011D00005D5A168BA6822F0F0021143B960C007D2
:1011E00029D100F092F904D987F8005400F08DF964
:1011F00028D12068410705D5E168BA6822F4E05299
:101200001143B960000706D52069B96821F460412F
:1012100041EAC000B86000F067F8B968304AC1F32D
:101220000311515CC8402F4908600F20FEF7F4FFFE
:101230000020BDE8F0816068811E022905D239686E
:10124000890107D40120BDE8F081012842D1396825
:101250008903F7D5B96821F003010843B86001F0AC
:1012600045FA0646606841F2883801282CD00228E9
:101270001ED003280BD1B86800F00C000C28B0D0A9
:1012800001F034FA811B03204145F4D9D1E7B86855
:1012900010F00C0FA5D001F029FA811B0320414565
:1012A000F5D9C6E701F022FA811B03204145C0D8D9
:1012B000B86800F00C000828F4D192E701F016FAA3
:1012C000811B03204145B4D8B86800F00C00042805
:1012D000F4D186E739688907B4D5BBE70038024006
:1012E00070640008CC0000201049486800F00C022F
:1012F0000F48082A03D0042A17D10E4870470A68FD
:101300000B685B020B4B58BF034602F03F000A68B4
:101310000968B3FBF0F0C2F38812C1F301415043F6
:10132000022202EB4101B0FBF1F0704704380240A9
:101330000024F40000127A0070B586B00D46014614
:101340001C481D4E1446D1B1002100F500600091EB
:10135000B26A42F00402B262B26A02F0040200F021
:10136000DAF84FF400720192009901A9FFF75EFCD0
:10137000306820F0784040EAC400284316E000219D
:101380000091B26A42F00102B262B26A02F0010256
:1013900000F0C1F84FF480720192009901A9FFF7A3
:1013A00045FC306820F0EC6028432043306006B0F4
:1013B00070BD00BF00000240083802400148012112
:1013C000016070474C0047420148002101607047AE
:1013D0004C00474201480068704700BFCC00002025
:1013E00004480549054A00680968C1F38221515C37
:1013F000C8407047CC0000200838024080640008D4
:1014000004480549054A00680968C1F34231515C46
:10141000C8407047CC0000200838024080640008B3
:101420000F21016022490A68520306D40A68D203D8
:1014300054BF00224FF4803201E04FF4A0224260FA
:101440000A6802F00102C2600A68C2F3C4020261C3
:101450000A6F520705D40A6FD2070CBF002201227F
:1014600000E0052282604A6F02F0010242610A68D0
:10147000D2014FF0020258BF012282614A6802F491
:101480008002C2614A6802F03F0202624A68C2F307
:10149000881242624A684968C1F30361C1624FF42D
:1014A000C02101EA420101F50031090C8162704757
:1014B0000038024010B50F224FF4E05402600B4A8E
:1014C000136803F003034360136803F0F0038360C1
:1014D000136803F4E053C360136804EAD3030361A1
:1014E000D2F8F80300F00F00086010BD0838024081
:1014F00010B5044C2068000603D500F005F88020E4
:10150000A07010BD0C3802407047D7F8000400F0FE
:101510000F00A842704700920322059103910492A4
:10152000022202927047B06800F00C000828704751
:1015300090B110B5044690F8390008B900F0E2FD0A
:1015400000F0D5FD2068016921F4904101614169F5
:1015500021F02A0100F0DCBD01207047704700BF78
:101560002DE9F04704460068D4E90212E3690569F1
:1015700025F440552A4349F20C650261C268AA432A
:10158000114322691143626911431943C1604169E2
:10159000A26921F4407111434161434940F48060E4
:1015A000B3F5004F3BD188420CBFDFF800A1DFF854
:1015B00000A1D047D4F804908046D047616819272D
:1015C0007843490000F00FFE6168784364254FEAD4
:1015D00049024900B0FBF1F0322100F0F6FD01EBC9
:1015E000C0004FF4F871B0FBF5F001EA400008FBD1
:1015F00007F1B1FBF2F1B1FBF5F100EB0118D047B7
:1016000061687843490000F0EEFD61687843490065
:10161000B0FBF1F0072100F0D8FDC00038E08842AF
:1016200014BFDFF88CA0DFF884A0D047D4F8049072
:101630008046D047616819277843890000F0D3FDC0
:101640006168784364254FEA89028900B0FBF1F0B4
:10165000322100F0BAFD01EB001008FB07F1B1FBED
:10166000F2F1B0FBF5F0B1FBF5F100F0F00000EBAA
:101670000118D04761687843890000F0B4FD6168C3
:1016800078438900B0FBF1F00F2100F09EFD0001CE
:1016900032306422B0FBF2F00840216840EA0800D2
:1016A0008860BDE8F08700BF001401400114000805
:1016B000E1130008B0B110B5044690F8390008B93C
:1016C00000F020FD00F013FD2068016921F4904135
:1016D0000161416921F022014161416941F0080144
:1016E00000F016BD01207047E0B1B0B5044690F897
:1016F00039000D4608B900F005FD00F0F8FC20683F
:10170000016921F4006100F086FD41F4804101612E
:10171000016921F02001016101692943016100F0A3
:101720001BFDB0BD0120704700B370B5044690F8B2
:10173000390015460E4608B900F0E4FC00F0D7FC6D
:101740002068016921F4904100F065FD21F00F014E
:101750000161016931430161C16821F40061C16027
:10176000C1682943C16000F0F7FC70BD01207047DB
:1017700080B110B50446242084F83900204600F0DA
:101780000BF80020E06384F8390084F8380084F80E
:101790003A0010BD0120704770472DE9F041044622
:1017A00090F83900202807D10E4641B1174632B1D2
:1017B00094F83800012805D10220BDE8F08101200D
:1017C000BDE8F08100F02EFD212084F8390000F002
:1017D0008DFF8046E784A784E08CF0B1E08C802107
:1017E00042462B460138E0842046A76800F027F8DF
:1017F000B7F5805F0BD1B8B93288216920686FF3E3
:101800005F220029426014BF01360236E4E758B96E
:1018100016F8010B21684860DEE720464021424669
:101820002B4600F00CF810B10320BDE8F081002039
:10183000202184F8380084F83910BDE8F0812DE9C2
:10184000F0411D4690460F4604465E1C2068016824
:101850003940B9421CD0002EF8D035B100F046FF17
:10186000A0EB0800A842F1D92068C16821F4D0712A
:10187000C160416921F0010141612020002184F80B
:10188000390084F8381084F83A000320BDE8F0816C
:101890000020BDE8F0812DE9F041044690F83A00BF
:1018A000202807D10E4641B1174632B194F83800CE
:1018B000012805D10220BDE8F0810120BDE8F081BA
:1018C00000F0B0FC222084F83A0000F00FFF8046C0
:1018D000E785A785E08D20B3E08D202142462B4689
:1018E0000138E0852046A768FFF7A9FFB7F5805FBC
:1018F0000DD1F0B9206821694068002919BFC0B234
:1019000026F8010B6FF35F2026F8020BE2E780B99F
:1019100020682169406809B100F07F0006F8010BDA
:10192000D8E70020202184F8380084F83A10BDE878
:10193000F0810320BDE8F081034690F839002028AB
:1019400005D131B12AB193F83800012803D1022022
:1019500070470120704710B500202124DA84D86335
:1019600083F8394019629A8483F838001968CA6884
:1019700042F08002CA6010BD034690F83A00202869
:1019800005D131B12AB193F83800012803D10220E2
:10199000704701207047B0B500202224DA85D86353
:1019A00083F83A401C68656945F0010565619A85D0
:1019B000996283F83800E16841F49071E160B0BD4C
:1019C000F8B5054690F83900202806D139B11346FC
:1019D0002AB195F83800012803D1022422E001241D
:1019E00020E00024EB8401200F4E114FEC6385F8BA
:1019F0003800AB842962286B2A68C0E913640B4E57
:101A00000432C0E90F76212685F83960FEF7E6FE3C
:101A100028686FF04001016085F83840416941F065
:101A2000800141612046F8BD611A00085B1A000878
:101A3000351A00080168806B0968C90548BF00F0C5
:101A4000E7BA0021C1840068416921F08001416149
:101A5000C16841F04001C1607047806B00F0D9BAA5
:101A600010B5846B2068416994F83920212A0BD184
:101A700011F0800108D00021E184C16821F0C0018B
:101A8000C160202184F83910406994F83A10222965
:101A900007D110F0400004D00020E085204600F07F
:101AA000E2F8E06B40F01000E0632046BDE8104033
:101AB00000F0ADBAF8B5054690F83A00202807D1F5
:101AC00013460A4631B12BB195F83800012803D1ED
:101AD00002242CE001242AE000240120154E174F97
:101AE000EC6385F838002220AB85AA6285F83A00BD
:101AF000686B2968C0E913640F4E0431C0E90F76A2
:101B0000FEF76CFE0094286801680091416800911E
:101B10000099C16841F48071C160416941F00101DF
:101B2000416185F83840416941F0400141612046FA
:101B3000F8BD00BF611A0008631B0008411B0008C4
:101B40000168806B0968C90509D40021C185016855
:101B5000734600F020FB9E46202180F83A1000F0EA
:101B600059BA806B00F057BA90F83810012901D1AA
:101B700002211BE001684A6990F83930212B06D117
:101B800012F0800203D04A6922F080024A614A6959
:101B900090F83A30222B06D112F0400203D073465F
:101BA00000F0F9FA9E46002180F838100846704788
:101BB00090F83810012901D1022128E0012180F894
:101BC000381090F83910212904D101684A6942F08F
:101BD00080024A6190F83A10222915D181B0002183
:101BE000009101680A6800924A680092009ACA68E7
:101BF00042F48072CA604A6942F001024A614A694D
:101C000042F040024A6101B0002180F838100846D5
:101C1000704710B501680446486994F83920212AB4
:101C20000FD110F080000CD000F0E0FA02D0FEF7E7
:101C300007FE2168C86820F0C000C860202084F832
:101C40003900486994F83A20222A0AD110F040005D
:101C500007D000F0D2FA01D0FEF7F2FD204600F0E6
:101C600002F8002010BD734600F0A2FA9E467047AD
:101C700010B501680446C86820F4F070C86048696F
:101C800020F0010048614869000605D500F0AEFA71
:101C900002D000F07CFA21684869400604D500F0C3
:101CA000ACFA01D000F073FA0020E084E085E06334
:101CB000202084F83A0084F83900002010BD10B5C7
:101CC00000F088FA04D500F09FFA01D000F05FFA26
:101CD0000020E084202084F83900002010BD10B5D9
:101CE00000F023FA04D500F043FA01D000F04FFAD7
:101CF0000020E085202084F83A00002010BD00BFBD
:101D0000B0B501680446006BCA6822F4F072CA607C
:101D10004A6922F001024A6128B14A691D4B120644
:101D200003EAE2720265626B2AB14B691A4D5B06E7
:101D300005EAE37313654A6912060AD54A6922F077
:101D400080024A6128B1FEF7BCFD002110B1206B72
:101D5000016501212068426952060CD5426922F0D2
:101D600040024261606B30B1FEF7ABFD80B1606B49
:101D70000021016500E059B10020E084E085E063C6
:101D8000202084F8390084F83A00204600F01AF840
:101D90000020B0BD9D1D0008B11D0008806B002112
:101DA000D0E90C32196512B1126D02B17047C9E168
:101DB000806B0021D0E90C23196512B1126D02B1BC
:101DC0007047BFE1704700BF10B500F003FA0BD5B4
:101DD00000F01AFA08D009490165FEF772FD58B102
:101DE000206B016D884707E00020E084202084F804
:101DF0003900204600F00CF8002010BD011E00083C
:101E0000806B0021C184202180F83910AFF300805D
:101E1000704700BF10B500F088F90BD500F0A8F9A5
:101E200008D009490165FEF74CFD58B1606B016DA2
:101E3000884707E00020E085202084F83A0020460B
:101E400000F00CF8002010BD4D1E0008806B002132
:101E5000C185202180F83A10AFF30080704700BFA1
:101E600070B5044600680268C168456913073BD035
:101E700001F4907605F00105761939D0D60705D022
:101E8000CE0503D5E66B46F00106E663560704D59A
:101E90001DB1E66B46F00206E663960704D51DB158
:101EA000E66B46F00406E663002B04D51DB1E36B38
:101EB00043F00803E363E36B002B67D0920605D57C
:101EC000890603D5204600F06DF820684069E16B73
:101ED00000F0400001F00801401831D1204600F028
:101EE00096F80020E06370BD930601D58B063BD4C5
:101EF000130601D50B060FD4520647D5490645D522
:101F0000C16821F04001C160202084F839002046DA
:101F1000BDE8704000F07CB894F83910212935D123
:101F2000A268216AB2F5805F27D10A886FF35F2229
:101F300042602269002A14BF01310231216220E08F
:101F40002046FFF790FE20684169490610D500F051
:101F50000FF90DD012490165FEF7B3FCB0B1606B0B
:101F6000016DBDE8704008472046BDE8704019E0AB
:101F70002046BDE8704000F04AB84A1C2262097849
:101F80004160E18C0139E184090400D070BDC16871
:101F900021F08001C160C16841F04001C16070BDA5
:101FA0000320000890F83A10222923D18168B1F566
:101FB000805F0ED102680369816A5268002B19BFE5
:101FC000D2B221F8012B6FF35F2221F8022B81623C
:101FD0000BE00168026949681AB1826A01F07F0169
:101FE00000E0826A531C83621170C18D0139C18582
:101FF000090400D07047734600F0DAF89E4600F0FE
:1020000009B8806B0021C185C184AFF3008070479F
:10201000704770477047704790F83810012901D118
:1020200002210AE0242180F839100168CA6842F0D0
:102030000102734600F0A3F89E460846704790F8E8
:102040003810012901D102210AE0242180F8391039
:102050000168CA6842F00202734600F090F89E469A
:102060000846704790F83810012901D102210AE092
:10207000242180F839100168CA6822F002027346F0
:1020800000F07DF89E460846704790F838200146DB
:102090000220012A0DD0242281F839200A68D36851
:1020A00060F383030020D360202281F8380081F898
:1020B0003920704790F83810012901D102210BE036
:1020C0002421012380F839100168CA6863F3830270
:1020D000734600F054F89E460846704790F8391051
:1020E00090F83A000843C0B27047C06B7047242094
:1020F00084F839002068C16821F40051C16020468D
:10210000FFF72EBA002084F838002046FFF726BAE1
:102110004161C16841F40051C16000202021E063A9
:1021200084F8391084F83A1010BD04460068C1687C
:1021300021F49071C160416921F00101416141695F
:1021400049067047C184C185C163202180F83910D8
:1021500080F83A10FFF736BEC16841F40051C16003
:1021600000202021E06384F8391084F83A10704789
:10217000416921F040014161606B00287047CA60ED
:102180000021202280F8381080F839207047002183
:102190000165FEF755BBCA6822F48072CA604A69BD
:1021A00022F001024A614A6922F040024A61704706
:1021B0000168CA6822F49072CA604A6922F001027A
:1021C0004A61202180F83A107047B0FBF5F000FB1F
:1021D0001560704704460068C16821F0C001C16005
:1021E000416909067047B0FBF1F65047486920F095
:1021F00080004861206B00287047486920F040004B
:102200004861606B00287047416921F0800141619D
:10221000206B002870470161416921F02A0141616A
:102220000169704700201D46E063012084F83800F2
:102230007047000091B1FEB5094E0127DDE9085C49
:102240000644C6F38F2607FA06F6064F3C68344369
:102250003C60CDE9005C00F017F8FEBD704700BFA0
:102260000000FE0330380240054908440121C0F354
:102270008F2001FA00F003490A6810430860704794
:102280000000FE03303802402DE9F84FC0F38724E8
:10229000DFF87CB0A2F1010A00264FF001084FF0F0
:1022A0000309009384F0800E0024102C08BFBDE8C1
:1022B000F88F08FA04F70F4227D03BF81E500A9B0C
:1022C00009FA06FC3D432BF81E5003FA06F5C368D5
:1022D00023EA0C032B43C36002FA06F3056825EAE0
:1022E0000C052B43BAF1010F03600ED845686FEA65
:1022F0000C03BD43009FA740BFB23D4345600B9D0B
:102300008768B5403B402B43836002360134CCE7FD
:1023100048010020C1B32DE9FE4F96461B4A012417
:10232000DDF8348000F1200B00274FF00F096FF02B
:10233000030A0244C2F38F2204FA02F2144C256805
:102340002A4300252260102D15D021FA05F2D2076C
:102350000ED00AEA550607F01C025BF806C009FA1F
:1023600002F408FA02F22CEA040422434BF8062095
:1023700004370135E7E70C9ACDE9003202227346B3
:10238000FFF782FFBDE8FE8F704700BF0000FE032D
:1023900030380240F0B5C0F387220E4D00234FF0D5
:1023A000010E4FF0030C002782F08002102F08BFAF
:1023B000F0BD0EFA07F60E4209D035F81240B443CC
:1023C00025F812400CFA03F4066834430460023323
:1023D0000137EBE74801002002490844C0F38F2091
:1023E000704700BF0000FE0370B5002203230024E5
:1023F000102C08BF70BD21FA04F5ED0705D0066862
:1024000003FA02F526EA0505056002320134EFE71A
:10241000F0B500224FF0010C03240025102D08BF59
:10242000F0BD21FA05F6F60707D0036804FA02F7B3
:102430000CFA02F6BB433343036002320135EDE789
:1024400070B5002203230024102C08BF70BD21FAB0
:1024500004F5ED0704D0066803FA02F5354305607C
:1024600002320134F0E7F0B500224FF0020C0324F1
:102470000025102D08BFF0BD21FA05F6F60707D09C
:10248000036804FA02F70CFA02F6BB433343036015
:1024900002320135EDE7F0B500234FF0030C0025C3
:1024A000102D08BFF0BD21FA05F6F60707D0C46865
:1024B0000CFA03F702FA03F6BC433443C460023358
:1024C0000135EDE701F58032C261C161C261C169C8
:1024D000C0697047002102283CBF88B2704740089D
:1024E0000131F8E7064908440121C0F38F2001FAC1
:1024F00000F004490A6822EA00000860704700BF43
:102500000000FE0330380240034908440349C0F389
:102510008F2031F8100070470000FE0348010020B2
:10252000054908440549C0F38F2031F810004FF6E3
:10253000FF714840704700BF0000FE0348010020C3
:102540000C48016821F080710160016841F08071E0
:1025500001600948016821F001010160016841F052
:102560000101016000214160416800BF00BF406877
:10257000401A7047FCED00E0001000E02DE9F84340
:10258000104C257A042D19D8074614201E46904673
:10259000894603F051FE88B10899C0E90177C0E986
:1025A000036109F0010168F341010170691C04F83D
:1025B000081F04EB85014860BDE8F8830020BDE8F2
:1025C000F88300BFD800002070B5154900220B7AAF
:1025D000934222D001EB8204E468844201D00132AC
:1025E000F6E7D0B2834218D001F1080000EB820078
:1025F0004068EFF31084EFF3108372B60B7A013B5F
:10260000D5B2AB4205DD01EB850501322E69EE60E6
:10261000F6E70B7203F0E8FD04B170BD62B670BD61
:10262000D8000020017801F0FD01017070470178A9
:1026300041F00201017070474168816070470029D4
:1026400018BF0121027802F0FE02114401707047A8
:1026500041607047704700BFB0B5184C60680130EA
:102660006060206810B1206801382060217A002560
:102670008D421ED204EB8500C068C0B1027892077B
:1026800015D5826812B1013A826010D1D0E90321D8
:102690009047204610F8081F00EB8500406842680C
:1026A00082600278D30704BF02F0FC020270013599
:1026B000DEE7BDE8B040FFF7CDBF00BFD800002087
:1026C000EFF3058131B1074950B10A68D20300EB3D
:1026D000E270F9E704494A684B689B1A8342FBD3CE
:1026E000704700BF10E000E0D800002001484068BB
:1026F000704700BFD800002010B51A4C0346184898
:10270000A34227D0184CA3421BD0184CA3421ED082
:10271000174CA34218D0174CA34209D0164CA34221
:102720000CD0164CA34206D0834218BF10BD13E054
:1027300000F5505010E000F54C400DE000F5605001
:102740000AE000F5806007E000F5406004E000F575
:10275000006001E000F550400023BDE810400FE0AC
:10276000004400400014014000480040004C00407C
:102770000050004000780040007C00400010014004
:102780002DE9F04F93B09E4F9C4E994690468A4655
:102790000446B8421AD09B48844215D100200390C9
:1027A000706A40F010007062706A00F010000390D0
:1027B0000398706840F010007060706820F010009E
:1027C0007060504600F01CFA252515E000200390AB
:1027D000306A40F400303062306A00F4003000F0BB
:1027E00009FC40F400303060306820F40030306084
:1027F000504600F039FA262507F58067CDF80880A5
:10280000BC42CDE9007920D07F4884425BD07F482C
:10281000844230D14FF0000BCDF80CB0306A40F458
:1028200000203062306A00F4002000F0E3FB40F446
:1028300000203060306820F400203060504600F006
:1028400061FA34254FF0010857E000200390306A08
:1028500040F480203062306A00F4802000F0CAFB2F
:1028600040F480203060306820F480203060504692
:1028700000F01CFA272566484FF0000B844260D018
:1028800064484FF000084FF00009844237D1CDF87A
:102890000CB0706A40F020007062706A00F0200096
:1028A00003900398706840F020007060706820F01A
:1028B00020007060504600F065FA47254FF001098E
:1028C0004FF000081BE04FF00008CDF80C80306A94
:1028D00040F480103062306A00F4801000F08AFB0F
:1028E00040F480103060306820F480103060504632
:1028F00000F02AFA35254FF0010B4FF0000940484F
:1029000051464FF0000A00F56050844201D0002685
:1029100034E0CDF80CA0306A40F000403062306AFC
:1029200000F0004000F066FB40F00040306030688E
:1029300020F000403060084600F068FA5325012678
:102940001CE0CDF80CB0306A40F080403062306A54
:1029500000F0804000F04EFB40F080403060306876
:1029600020F080403060504600F02EFA52254FF0A3
:10297000010A00264FF000094FF000080198099065
:102980000298CDE903400C200890002007900A909F
:10299000CDE905002846FDF73DFD1948201AB0FA9B
:1029A00080F042090098844208BF02222846B8F10C
:1029B000000F18BF0422BBF1000F18BF0522B9F1A8
:1029C000000F18BF0622BAF1000F18BF0722002E11
:1029D00018BF08220621FDF7E9FC2846FDF70EFD89
:1029E0002846FDF7D7FD03A8FEF7A2FDE06840F0FA
:1029F0002000E06013B0BDE8F08F00BF2038024037
:102A0000004400400010014000500040004C0040D5
:102A10000078004000140140B0B51A4D0446184833
:102A2000AC4227D0184DAC421BD0184DAC421ED042
:102A3000174DAC4218D0174DAC4209D0164DAC42E0
:102A40000CD0164DAC4206D0844218BFB0BD13E086
:102A500000F5505010E000F54C400DE000F56050DE
:102A60000AE000F5806007E000F5406004E000F552
:102A7000006001E000F55040BDE8B04080E600BFD6
:102A8000004400400014014000480040004C004059
:102A90000050004000780040007C004000100140E1
:102AA000E0B500F00DF80DF10701012201F057FA31
:102AB0009DF80710002808BF0146C8B28CBD00BFB2
:102AC00010B5164B164A1946904202F5806408BFAD
:102AD0001831A04202F5006408BF03F13001A042A2
:102AE00002F5406408BF03F14801A0420D4C08BF45
:102AF00003F1600102F55043984202F5505308BFBC
:102B0000214602F56052984208BF04F11801904234
:102B100008BF04F13001084610BD00BF0C000020C2
:102B20000044004084000020B0B514460D46FFF775
:102B3000C7FF2946224601F0D9FA80B2B0BD0A7813
:102B400042B103681B06FCD5426002681206FCD540
:102B50000131F4E7704752B1013A03681B06FCD516
:102B60000B78436003681B06FCD50131F3E770471F
:102B700010B50C46FFF7A4FF214601F041FA00B260
:102B800010BDB0B50C46FFF79BFF0546204601F08F
:102B900091FD02462846214601F04FFA00B2B0BD31
:102BA00080B5FFF78DFF01F016FAB0FA80F040090A
:102BB00080BD80B5FFF784FF01F099F9B0FA80F08D
:102BC000400980BD80B5FFF77BFF01F004FA80B2B9
:102BD00080BD80B5FFF774FFBDE8804001F00BBAFF
:102BE00010B50C46FFF76CFF447410BD704770477A
:102BF000704770477047704770477047704700BF15
:102C00007CB5032888BF7CBDDFE800F002220B1CE6
:102C1000072000F0E5F913484FF4C06100F570405B
:102C20001DE0104E072403254FF4007100F0E6F973
:102C300006F57040FFF76EFBCDE9005406F57440D1
:102C400080210CE007480721BDE87C40FFF7CEBF9C
:102C5000072000F0C5F90348C02100F5744000F0DA
:102C6000C3F97CBD00100140E0B5032814D0012851
:102C700008D0B8B9072000F0B3F90B480C2100F5D3
:102C8000DE3006E0072000F0ABF90748602100F5D0
:102C9000E43000F0A9F98CBD03480721BDE88C4061
:102CA000FFF7A4BF8CBD00BF00440040E0B503287F
:102CB00088BF8CBDDFE800F002180912072000F081
:102CC0008FF90F4800F5DE3014E0072000F088F996
:102CD0000B484FF4407100F5E2300DE00848072141
:102CE000BDE88C40FFF782BF072000F079F9044867
:102CF00000F5E0304FF4406100F076F98CBD00BF84
:102D000000480040E0B5032814D0012807D0B8B926
:102D1000082000F065F90B4800F5DA3007E00820DC
:102D200000F05EF907484FF4406100F5DE3000F036
:102D30005BF98CBD03480821BDE88C40FFF756BF06
:102D40008CBD00BF004C0040032814D0B8B97CB53E
:102D50000B4E082403254FF4805100F04FF906F57F
:102D6000DC30FFF7D7FA06F5DE30042100F046F933
:102D7000FFF7D0FA7CBD02480821FFF737BF704744
:102D800000500040E0B5032815D0012808D0C0B994
:102D9000082000F025F90B48C02100F5744007E039
:102DA000082000F01DF907484FF4844100F58230F7
:102DB00000F01AF98CBD03480821BDE88C40FFF7EC
:102DC00015BF8CBD00140140E0B5032815D00128C3
:102DD00009D0C0B9082000F003F90B484FF4C071C6
:102DE00000F5CC3006E0082000F0FAF80648C021D3
:102DF00000F5CE3000F0F8F88CBD03480821BDE89E
:102E00008C40FFF7F3BE8CBD0078004003280DD046
:102E100080B9E0B50820032100220123CDE900108C
:102E2000054800F5CA30FFF775FA8CBD0248082145
:102E3000FFF7DCBE704700BF007C004010B5074CB8
:102E40002068800604D56068C1B2054800F00AF821
:102E500020462521BDE810400EE000BF00100140D3
:102E60000C000020E0B58DF807100DF107010122DC
:102E700001F001F88CBD00BF81B0124A1060002241
:102E800000920368009343680093009B00920368DC
:102E9000009343680093009B00920368009343688B
:102EA0000093009B00920368009343680093009B8B
:102EB000009202680092406800900098084601B0B5
:102EC000FDF768BB2404002010B5074C206880067D
:102ED00004D506486168183000F08AF8204626219B
:102EE000BDE81040C8E700BF004400400C000020CF
:102EF00010B5074C2068800604D50648616830305C
:102F000000F076F820462721BDE81040B4E700BF66
:102F1000004800400C00002010B5074C20688006D7
:102F200004D506486168483000F062F82046342134
:102F3000BDE81040A0E700BF004C00400C0000209E
:102F400010B5074C2068800604D5064861686030DB
:102F500000F04EF820463521BDE810408CE700BF58
:102F6000005000400C00002010B5074C206880067F
:102F700004D56068C1B20548FFF774FF20464721B9
:102F8000BDE8104078E700BF001401408400002035
:102F900010B5074C2068800604D5064861681830D3
:102FA00000F026F820465221BDE8104064E700BF3B
:102FB000007800408400002010B5074C206880068F
:102FC00004D506486168303000F012F820465321DD
:102FD000BDE8104050E700BF007C004084000020A6
:102FE0000321CDE90010704700220123FFF792B9B9
:102FF000C9B237E703900398306870470022012375
:10300000CDE900547047000070B5044609480A46EF
:1030100001210125FFF770FB0020074E84F81C01F9
:103020002046357100F00CF8F06804490843F06060
:1030300070BD00BF00100140F8000020FFFF070036
:10304000054A0021116190F81C21F4301AB108C81A
:10305000013AD975FAE77047F8000020B0B50E4D77
:1030600004462846FFF79CFD60B92846FFF718FD87
:103070000146204600F014F894F8F2000028F0D140
:103080000020B0BD054801790120002918BF0220A9
:1030900084F8F200B0BD00BF00100140F80000202D
:1030A000F8B50D46044600F05FFA28B12046FFF758
:1030B000C7FF012084F8F2000A2D51D00D2D0ED04B
:1030C0002C2D2DD02A2D23D02F48242D3DD1242145
:1030D000C176012101720021C18041714FE02A4E69
:1030E0000027307A06F11B010F5401303072F07E58
:1030F00000F092FD0546307F00F08EFDB17940EA88
:103100000510884202D02046FFF79AFFF77136E09B
:103110001D4D01206871287A411C2844297208E05D
:10312000194DA879297A80F02C00A871481C2872C2
:1031300068180026C67600F02BFA204600F094FAB4
:10314000E8792E720130E87119E0417911B981797D
:1031500069408171017A42180131D57601720EE021
:1031600009480021C17109490978032907D101786B
:103170004278914203D1016941F4802101612046E6
:10318000BDE8F84000F060BDF8000020D00000204D
:10319000F8B590F81C71092F12D80446182015466E
:1031A0000E4603F049F858B1314601F08AFA04EBB3
:1031B0008701C571C1F8F400791C84F81C11F8BDB1
:1031C0000020F8BD0E281ED8DFE800F0081A2011F4
:1031D000262C2332172F0E14290B1F009FED241AC3
:1031E00028E09FED161A25E09FED171A22E09FEDCB
:1031F0001D1A1FE09FED131A1CE09FED151A19E030
:103200009FED1A1A16E09FED1B0A70479FED161AE4
:1032100010E09FED111A0DE09FED111A0AE09FEDED
:10322000081A07E09FED0D1A04E09FED081A01E06F
:103230009FED081A20EE010A704700BF33B33143F7
:10324000008043455C8F5042666642430000F34471
:103250009A9901429A99CA426210D83FF853933F13
:10326000689DA739C3F5F641560EED3FB8AF033F51
:10327000F5BD063A0000000010B52DED028BBDEE45
:10328000C01AB5EE400A044680ED001AB8EEC11A25
:10329000F1EE10FA30EE418A31EE402AB8BFB0EEBE
:1032A000428A092928BF09210A2000F00DF800EE02
:1032B000100AB8EE400A28EE000ABDEEC00A84EDFE
:1032C000010ABDEC028B10BD024601200B0608BFAF
:1032D000704750430139F9E72DE9F0472DED108B88
:1032E00090ED000A9FED9CEA90ED021AF6EE00DAEE
:1032F000804690ED01DA90ED03FA20EE0ECA31EE31
:10330000400A21EE0E9A20EE0E0A20EE2D0A00F061
:1033100056FD41EC180BDFF844A2B0EE480AF0EE7F
:10332000680AD047B0EE40AAB0EE480AF0EE60AAB4
:10333000F0EE680AD047B0EE40BA1CEE100AF0EE8C
:1033400060BA01F05CFB41EC180BDFF81492B0EEB0
:10335000480AF0EE680AC847B0EE40CA19EE100AF3
:10336000F0EE60CA01F04BFB41EC190BB0EE490ADC
:10337000F0EE690AC84751EC1C0B00F01CFD3FEE53
:103380004D0A05460E4620EE0E0A20EE2D0A00F0EC
:1033900016FD41EC1C0BB0EE4C0AF0EE6C0AD04767
:1033A00000F01CFDB0EE4C0A05460E46F0EE6C0A2D
:1033B000D04700F013FD05460E4600F021FD2A46D9
:1033C000334601F087F901F02DFB0AEE100A01F0F7
:1033D00016FBB7EE000A05460E4630EE4A0A00F02C
:1033E000EEFC46EC105B07460C4602F041F8B0EEEE
:1033F00040AAF0EE60AA44EC107B02F039F8B0EE7F
:10340000401AB0EE4A0AF0EE601AF0EE6A0A01F0D5
:1034100067FE51EC100B9FED4A0B00F0CCFC9FEDCA
:103420004A0B00F0C8FC01F0FDFA2FEE0E0AC8F8B6
:1034300010000DEE4E0A00F0C2FC41EC1D0BB0EE88
:103440004D0AF0EE6D0AD047B0EE40AAB0EE490A40
:10345000F0EE60AAF0EE690AC847B0EE40BAB0EEEE
:10346000480AF0EE60BAF0EE680AC847B0EE40CA0B
:10347000B0EE490AF0EE60CAF0EE690AD047B0EE4D
:1034800040EAB0EE480AF0EE60EAF0EE680AD04793
:10349000B0EE408AB0EE490AF0EE608AF0EE690ABA
:1034A000C84753EC182B51EC100B01F0BAF9B0EEF1
:1034B0004D0A04460D46F0EE6D0AC84753EC102B3A
:1034C0002046294601F0ADF904460D4651EC1C0B8F
:1034D00053EC1E2B01F0A5F922462B4601F09BF977
:1034E00001F0A0FA01F08BFA04460D4600F088FCCA
:1034F00001F098FA01F083FA45EC114B41EC100B06
:1035000001F0EEFD51EC100B9FED110B00F053FCA0
:1035100001F088FA00EE100A9FED121AB5EE400A8B
:1035200030EE011AF1EE10FAB8BFB0EE410A88EDA4
:10353000050ABDEC108BBDE8F08700BF00BF00BFDF
:103540000000000000E3C8400000000000408F4081
:1035500000000020DCA54C4035FA8E3CA953000841
:10356000E15200080000B4430849D1E903128A423D
:1035700008D190F81C11F43031B104C80139D27D62
:10358000002AF9D10020704701207047F800002080
:103590003248017A012925D13149C279097842EAB4
:1035A0004111A1F122022F2A1DD8DFE802F0421BAF
:1035B0001B1B1B36453F1B1B1B1B1B1B1B1B1B1BF2
:1035C0001B1B1B1B1B1B1B1B1B1B1B1B1B1B391830
:1035D000181818181818181818181833483C4FF4E9
:1035E00000310CE070474A1E082A0ED80121DFE89E
:1035F00002F00A06292F2D2B33053100F2E702696C
:1036000011430161EEE78021F9E76329EAD14FF424
:103610008031F4E74FF40051F1E74FF48071EEE7A9
:103620004FF48041EBE74FF48051E8E74FF400712D
:10363000E5E74FF48061E2E74FF40041DFE74FF444
:103640000061DCE74021DAE70821D8E72021D6E74E
:103650000221D4E71021D2E70421D0E7F8000020AE
:10366000D000002000BF00BF2DE9F84F2DED067BF4
:10367000DFF86C7597F80790B9F1000F00F08A80B9
:10368000804600F1F404002507F1140607F11B0B36
:103690004FF0010A98F81C01854214D254F82570A5
:1036A0003046394600F024FB58B1F879814508D1FD
:1036B00007F10800594601F004F854F8250080F895
:1036C00017A00135E6E7DFF81C0590F8008049EA0D
:1036D0004810A0F122012F2900F26780DFF8004591
:1036E000DFE811F06C014800480048004800020182
:1036F0007601400148004800480048004800480062
:103700004800480048004800480048004800480079
:103710004800480048004800480048004800480069
:1037200048004800270130003000300030003000F1
:103730003000300030003000300030003000F30046
:103740008501310101A900F03EFBDFF89C04019ADC
:1037500009EB0001007B81F82E20617A0131617252
:10376000C9B2814206D1002060724FF40030216955
:1037700008432061B8F1030F40F02782B9F1020F2E
:1037800061D0B9F1010F64D101A900F01CFB0198CF
:1037900020701AE207F11B040FF25C41204600F092
:1037A000A7FA002847D00021CDE1411EDFF83044C0
:1037B000082900F27D80DFE811F00A0035012901B7
:1037C0006D0161015901B60109009101D2E701AD16
:1037D00000F0DBFA019A64219FEDE11ADFF808643A
:1037E00001305BFA80F000EE102AB2FBF1F3B8EE84
:1037F000400A20EE011A03FB1123BDEEC11A11EE9F
:10380000102A33749FEDD71A92FBF1F320EE010AD0
:1038100003FB1122BDEEC00AF27310EE102A92FBD8
:10382000F1F303FB1121B173294600F06DFA019801
:10383000708280209BE70FF2C831204600F058FAD2
:1038400068B301217FE101A900F0BDFA0198607021
:10385000BBE1B9F1040FC0F0B88101A900F0B3FADF
:10386000A9F10402607809F00301D2B2E170920874
:1038700002EB80000438C2B2A070172A00F2A581C2
:103880000198DFE811F004009B018B01930102EB2A
:103890004201D54A02EB410181F83E0095E1DAA1EF
:1038A000204600F025FA002800F0458102214AE177
:1038B00063287FF45FAF01A900F085FACA48019937
:1038C00080F83D104FF4803051E701AD00F05DFA13
:1038D00000F02EFA00F036FAC34800F065FA80EDE9
:1038E0000A0A4FF4005042E701AD00F04EFA00F032
:1038F0001FFA9DED010A01460A20B8EE409AFFF733
:10390000E3FC01F06FF8054619EE100A0E4601F0CF
:1039100076F82A46334600F0F6FF01F083F800EE11
:10392000100AB14838EE000A80ED060A4FF48070A4
:103930001DE701A900F047FAAB48019980F8301063
:103940004FF4804013E701AD00F01FFA00F0F0F9EA
:1039500000F0F8F9A44800F027FA80ED0B0A4FF4C4
:10396000805004E701A900F02EFA019964209FED30
:103970009F1A9D4B00EE101AB1FBF0F2B8EE400A10
:1039800020EE011A02FB1012BDEEC11A11EE101A40
:103990009A759FED971A91FBF0F220EE010A02FB57
:1039A0001011BDEEC00A597510EE101A91FBF0F21D
:1039B00002FB101018754FF40070D8E6E07E8A49BB
:1039C0004138B0FA80F0400908774FF48060CEE6C5
:1039D00001AD00F0DAF900F0ABF900F0B3F982487C
:1039E00000F0E2F980ED080A4FF40040BFE601ADB7
:1039F00000F0CBF900F09CF900F0A4F97A4800F04F
:103A0000D3F980ED090A4FF40060B0E6E07E532858
:103A100006D1754890ED000AB1EE400A80ED000A2B
:103A20004020A4E601AF5846394600F06DF905463E
:103A3000019864219FED6F1A00F093F900F0C6F928
:103A400000F0A7F99FED640B00F0B5F900F0DEF986
:103A50003A46334600F057FF009A534600F03AFECC
:103A600000F0E0FF60490860012080E601A900F055
:103A7000AAF95D4801994173082078E6E07E57284D
:103A800006D1594890ED010AB1EE400A80ED010AD5
:103A900020206CE601AF5846394600F035F905465E
:103AA000019864219FED531A00F05BF900F08EF944
:103AB00000F06FF99FED480B00F07DF900F0A6F9DA
:103AC0003A46334600F01FFF009A534600F002FECC
:103AD00000F0A8FF44494860022048E6E07E2D2817
:103AE00042D101AD04F11C00294600F00DF902306D
:103AF0009DED010A294654FA80F01B30B8EE408A49
:103B000000F002F900F045F900F085F932463B4635
:103B100000F0F9FE00F068F900F06CF900F082FFA7
:103B200080F0004033E001A900F04DF92E480199E2
:103B3000017304201BE636A1204600F0D9F80321CA
:103B4000002808BF04212748017007F1140021460E
:103B5000BDEC067B01B0BDE8F04F00F0B2BD00BF88
:103B60000AD7233C17B7D13801AD00F00EF900F0A9
:103B7000DFF800F00EF900F04EF932463B4600F057
:103B8000C2FE00F031F900F035F900F04BFF00EE15
:103B9000100A154880ED020A1020E8E502EB420108
:103BA000114A02EB4101A1F840000EE002EB420194
:103BB0000D4A02EB410181F8420006E002EB4201AE
:103BC000094A02EB410181F83F00BDEC067B01B0E0
:103BD000BDE8F08F00BF00BF0000000000004E40B5
:103BE000F8000020D0000020840200200AD7233CE7
:103BF00017B7D138000070422447504747410000B2
:103C0000244750524D430000244750475341000081
:103C10002447504753560000A0F13001CAB20A2A87
:103C20000FD3A0F14101C9B2052902D8A0F1370193
:103C300007E0A0F16101CAB20021062A38BFA0F155
:103C40005701C8B2704700BF10B50446FFF78CFC9F
:103C5000002840D0244800210171244802682260D5
:103C6000426862608289A2818268A260D0F80E20D8
:103C7000C4F80E20428A62828269A261828AA2828C
:103C8000827DA275027F2277026A2262426A6262A4
:103C9000D0E90A23C4E90A2390F8302084F83020C0
:103CA00004F131020C2905D0431893F831305354F4
:103CB0000131F7E790F83D1084F83D103E21CE2900
:103CC00007D0425843186250621806319B8893808F
:103CD000F5E7002005E004480079012814BF012021
:103CE000022084F8F20010BDF800002084020020B9
:103CF0000A783AB110F8013B01319A421CBF00200A
:103D00007047F5E701207047B0B5002200230A6034
:103D10000478A4F13005092D84BFD8B2B0BD02EB00
:103D200082020133013004EB4202303A0A60EFE7CD
:103D300001309DED010A29465BFA80F0B8EE408A19
:103D4000FFF7E2BF4DF808ED9DED030A01460A209A
:103D5000B8EE409AFFF7B8FA00EE100A5DF808EBEB
:103D60007047B0FBF1F202FB110000EE100AB8EE52
:103D7000400A80EE010A01EE102AB8EE411A30EE38
:103D8000010A10EE100A00F03ABE58462946FFF725
:103D9000BBBF4DF808ED0146039D0A20FFF794FADA
:103DA0005DF808EB00F01EBEB8EE400A89EE000A8E
:103DB00030EE080A704753EC102B00F032BD10EEC5
:103DC000100A00F01CBE5846FFF79EBF0090681C0A
:103DD0008A4639465BFA80F0FFF796BF53EC102B0A
:103DE0002846314600F01DBD054618EE100A0E4665
:103DF00000F005BE02460B462846314600F06ABC7C
:103E000051EC1A0B53EC1B2B00F00BBD0746284658
:103E10000E4600F0E7BD064628460F4600F0E2BD1C
:103E200070B50D46044604301421164600F037FCE8
:103E30000A20E660256060740EB1012005E0284686
:103E400002F0FAF9E06018B103202074002070BD80
:103E500000202060012070BD60B110B50446007CD8
:103E6000800702D5E06802F0BFF9002020602074CE
:103E7000BDE8104070472DE9F843A0B3164692B351
:103E8000D0E90047054688462846A74224BF0027B8
:103E90006F6000F02CF8B04201D2064618B3E86813
:103EA00041463844E71B3446B74238BF3C462246B9
:103EB00000F0DCFB6868BE4200EB0409C5F8049022
:103EC0000BD90020A6EB040908EB04016860E86840
:103ED0004A4600F0CBFBC5F804902868814524BF12
:103EE0000020686000E000263046BDE8F88360B13D
:103EF000D0E90123934208BF01689A1A88BF11468E
:103F00003CBF00688118481E70470020704770B59C
:103F100010B3144602B30E460546D0E900018142B3
:103F200024BF00216960A968814224BF0020A860E5
:103F30002846FFF7DCFFA04201D2044660B1701EA4
:103F4000214651B1AA6802B92A68013AEE68AA600E
:103F5000435C0139B354F4E70024204670BD2DE9D9
:103F6000F843A0B3164692B30546046887688846AE
:103F70002846A74224BF0027AF6000F02CF8B042CB
:103F800001D2064618B3E868C119E71B344640461B
:103F9000B74238BF3C46224600F068FBA868BE42E4
:103FA00000EB0409C5F808900BD90020A6EB040922
:103FB000E968A86008EB04004A4600F057FBC5F822
:103FC00008902868814524BF0020A86000E00026F2
:103FD0003046BDE8F8830146002059B110B5D1E95B
:103FE0000123D41A28BF2046BDE8104002D2096838
:103FF000D01A0844704710B10021C0E90111704780
:10400000A8B1F8B50C460546FFF7E5FFAA680146DA
:104010000023002081420DD02E68EF68B24228BFF5
:104020001A46BE5CA64207D001300132F2E74FF0DB
:10403000FF3070474FF0FF30F8BD60B12DE9F84F09
:10404000934688460446FFF7C6FF584506D24FF010
:10405000FF30BDE8F88F4FF0FF3070470094A46840
:1040600082464FF0000E00204FF0000CBAF1000F16
:10407000EDD0814600985746AAF1010A0268C66849
:10408000944228BF7446305D98F80010631C884243
:1040900008BF4FF0010C1C465FEA0C6009F10100FB
:1040A000E4D0012159450ED28F420CD0934228BF53
:1040B0007346F45C18F80150AC4202D1013101336F
:1040C000F0E709EB01001C46A7EB010A8B45CDD1B7
:1040D000BFE7B0B5054608460C4600F0EBFA0246CD
:1040E00028462146BDE8B040FFF7C5BE2DE9FC419A
:1040F000B0B116460C460546FFF76DFF80B1074686
:104100002846FFF7F4FE697C80462846FFF778FFD3
:10411000B74209D2B0F1FF3F06DCB8F1000F03D07F
:1041200000263046BDE8FC81013E00270DF107085E
:10413000BE4210D0284641460122FFF710FF38B199
:104140009DF80700E055697C884201D00137EFE710
:10415000BE4218BF7E1C0020A055E2E703460020A7
:10416000C3B1F0B5D3E9015400268E4208D2A5426E
:1041700006D01F680134BC4228BF04460136F4E76C
:10418000B14204D1D868005D1070012000E0002029
:10419000BDE8F040704700008CB000F00BFAFEF76D
:1041A000CFF9DFF8CCB24FF4E1315846FEF72CFFDF
:1041B000B04E00214FF4E1324FF0000A3046FEF7D6
:1041C0009BFAAD4CAD48AF49AF4A254645F80C0FB8
:1041D000AB48C5E90121E8602846FFF77DF8A5F165
:1041E000080995ED040A06214846FFF745F80DF148
:1041F000080855E90223A5A1404600F0D7FD304646
:104200004146FEF79CFC95ED050A48460621FFF75E
:1042100033F855E90223A5A14046254600F0C6FD26
:1042200030464146FEF78BFCA84FC7F800A04FF080
:104230000209A9A45846FEF711FF0228287011D1DF
:10424000386840F6B931884217D3C7F800A0894FC3
:104250009F493846FEF773FC9E4938469B4FFEF750
:104260006EFC287850B99BF81C0085F801A0C0B9F5
:104270008048C649FEF763FCDCE702206978022823
:1042800008D1022906D07B48214685F80190FEF727
:1042900056FCCFE70128CDD101291CBF0120687051
:1042A000C8E7744C9449DFF854922046C8479449B3
:1042B0002046C84793492046C84705F1040A9BEDAC
:1042C000000A914A062150469047D5E901238F49BB
:1042D0008F4E4046B04700F05BF99BED010A8A4FD4
:1042E00000F059F9D5E901238A494046B04700F06A
:1042F0004FF99BF80C2088494046B04700F048F938
:104300009BF81000BBF812109BF80E209BF80F30A2
:10431000CDE9000181494046B04700F039F99BF8EA
:104320000D207F494046B04700F032F99BED020A6C
:1043300000F031F9D5E901237A494046B04700F051
:1043400027F979492046C8479BF816009BF81420A6
:104350009BF81530754900F5FA6000904046B0476B
:1043600000F016F99BED060A00F015F9D5E90123D6
:104370006F494046B04700F00BF99BED060A02205A
:10438000FEF720FF00F007F9D5E90123694940460F
:10439000B04700F0FDF89BED080A50460321B847EE
:1043A000D5E9012364494046B04700F0F1F863497C
:1043B0002046C8479BED090A50460221B847D5E977
:1043C00001235F494046B04700F0E2F89BED0B0A3D
:1043D00050460221B847D5E901235A494046B04723
:1043E00000F0D6F89BED0A0A50460221B847D5E9FD
:1043F000012355494046B04700F0CAF89BF83020E9
:10440000404652A1B04700F0C3F8204654A15DA435
:10441000C84700275CA69BF80C00874211D20138E0
:104420003146B8420BEB070088BF214690F8312097
:10443000404600F0BBFC0F484146FEF780FB0137C9
:10444000E9E70C4F4D49DFF8B4903846C8479BF870
:104450003D204B49404600F0A9FC38464146C8473C
:1044600027493846C847194F4FF0000ADFE600BF1A
:104470006401002000480040240100206C334142C8
:104480003CA362429AA137426292F4C244697374B7
:10449000616E63652069733A2025642E2530366489
:1044A000206D65746572730A0000000042656172D8
:1044B000696E672069733A2025642E2530366420A2
:1044C000646567726565730A0A000000DC000020FD
:1044D000836500088864000857616974696E672005
:1044E000666972737420646174612066726F6D20F6
:1044F000475053210A000000176700083F2B0008AF
:10450000126500083B650008793200081366000850
:10451000AD4D0008FE6500082766000876660008B5
:10452000F2650008006700085F650008B0660008D3
:10453000E4660008C9660008986600084D65000832
:104540003D6600086366000850660008202D20467E
:104550006978206D6F64653A2025640A00000000C8
:104560002D2049442773206F66207573656420737E
:104570006174656C6C697465733A2000716500083C
:10458000D765000825642C0025640A00E56400084E
:104590002046414648475046062138477047FEE7C7
:1045A000FEE7FEE7FEE77047704770477047FEF78B
:1045B00053B8000010B50E480F4CD0F8801041F4ED
:1045C0007001C0F880100B490A6842F001020A60CD
:1045D00000228A600B6823400B60084B4B600B681D
:1045E00023F480230B60CA604FF00061016010BDAE
:1045F00008ED00E000380240FFFFF6FE1030002416
:104600001548416801F00C021449082A03D0042A15
:1046100017D1134915E002685202114A58BF0A46E1
:104620000168022301F03F01B2FBF1F10268C2F31D
:10463000881251430268C2F3014203EB4202B1FB0C
:10464000F2F1084A084B11604068C0F30310185C8F
:1046500021FA00F010607047043802400024F40092
:1046600000127A00CC0000207064000840EA0103C8
:104670009B0703D009E008C9121F08C0042AFAD218
:1046800003E011F8013B00F8013B521EF9D27047DC
:10469000D2B201E000F8012B491EFBD27047002284
:1046A000F6E710B513460A4604461946FFF7F0FF31
:1046B000204610BD421C10F8011B0029FBD1801AB6
:1046C0007047034611F8012B00F8012B002AF9D19D
:1046D000184670472DE9FE4F804681EA0300C00F5F
:1046E0000C46009021F0004123F00045B8EB020099
:1046F000A94105D24046214690461C460B4602463B
:1047000023F00040104347D0270DC7F30A00C3F33E
:104710000A510290401A019040286BDAC3F313004B
:1047200040F4801B0098924620B10023D2EB030A8C
:1047300063EB0B0B01985946C0F14002504600F064
:10474000BEF906460D4650465946019A00F0C6F994
:1047500010EB08006141002487EA115284EAE773F4
:104760001A4340D0009A62B3019A012A4FEA0752D5
:1047700015DC001B61EB02014FF0004202EA075218
:10478000CDE90042001C41F5801132462B4600F075
:10479000FDF903B0BDE8F08F40462146F9E7001B64
:1047A00061EB0201001C41F5801300185B412018E9
:1047B000A2F5001747EB030140EAD570B6196D4129
:1047C00011E06D084FEA360645EAC0754FEA075218
:1047D000001B61EB0201001C41F5801149084FEA02
:1047E00030000019514132462B4603B0BDE8F04F6E
:1047F00000F0BDB90098012240000023D0EB020276
:1048000063EBE073009821464FEAE074B8EB0000D8
:1048100061EB0401E9E783F000435BE781F00041CD
:1048200058E72DE9FE4F81EA030404F0004421F02B
:10483000004100944FF0000B23F0004350EA0104C4
:104840005ED052EA03045BD0C3F30A54C1F30A55A5
:104850002C44A4F2F3340194A0FB0254C1F31301DD
:1048600041F48011C3F3130343F4801301FB0244AA
:1048700000FB034E840A970A44EA815447EA8357AF
:10488000A4FB076802958D0A05FB07854FEA932C68
:1048900004FB0C542705029D4FEA065847EA1637D9
:1048A000B5EB08056EEB070C870E920E47EA8117F1
:1048B00042EA8312A7FB0201B6EB0B0164EB000492
:1048C0002B0D43EA0C335E1844EB1C50DA4651467C
:1048D000E7FB0201C5F313044FEA0B3343EA145319
:1048E0004FEA0432019C43EA0603A4F10C0402944B
:1048F000009CCDE900B400F049F903B0BDE8F08FA9
:1049000000200146F9E72DE9F04D81EA030404F0A7
:10491000004B21F0004514464FF0000A23F00041FF
:1049200050EA050220D054EA01021DD0C5F30A570F
:104930000246C5F31303C1F31300C1F30A5640F452
:10494000801543F48013A7EB0608101BD64608F227
:10495000FD3873EB050002D308F1010801E092185D
:104960005B41B8F1000F03DA00200146BDE8F08D8D
:1049700000204FF48011064684460EE0171B73EBAF
:10498000050705D3121B63EB050306434CEA010C34
:1049900049084FEA300092185B4150EA0107EDD117
:1049A00052EA030012D082EA040083EA05010843B8
:1049B00005D0101BAB4106D20122002306E00022E5
:1049C0004FF0004302E06FF0010253101AEB0600B3
:1049D0004CEB085110EB0A0041EB0B01BDE8F04D28
:1049E00000F0C5B80EB540F2334102910021CDE987
:1049F00000110A460B4600F0C9F803B000BD00F0F4
:104A0000004230F000400AD0C10D01F56071C0F3E2
:104A1000160042EA0151C2084007114370470020C6
:104A20000146704701F0004330B421F0004150EAE4
:104A3000010206D00A0DA2F56072C1F31301002A2B
:104A400002DC30BC00207047440F44EAC104C100BE
:104A5000E01830BC00EBC25000F052B82DE9F05F16
:104A60000546002092469B468846064681464024DD
:104A70001BE0284641464746224600F057F9534678
:104A80005A46C01A914110D311461846224600F0EA
:104A900016F82D1A67EB01084F4622460120002127
:104AA00000F00DF817EB00094E41201EA4F101049F
:104AB000DFDC484631462A464346BDE8F09F202ABF
:104AC00004DB203A00FA02F1002070479140C2F165
:104AD000200320FA03F3194390407047202A06DB95
:104AE000CB17203A41FA02F043EAE07306E041FABC
:104AF00002F3D040C2F120029140084319467047AA
:104B00000029A8BF7047401C490008BF20F00100E1
:104B1000704710B4B0FA80FC00FA0CF050EA0104BF
:104B200004BF10BC704749B1CCF1200421FA04F451
:104B300011FA0CF118BF012121430843A3EB0C012A
:104B4000CB1D4FEA00614FEA102042BF002010BC8D
:104B5000704700EBC35010440029A4BF10BC70473D
:104B6000401C490008BF20F0010010BC704710B580
:104B7000141E73F1000408DA401C41F10001921880
:104B80005B411A4301D120F0010010BD2DE9F04D29
:104B900092469B4611B1B1FA81F202E0B0FA80F27E
:104BA00020329046FFF78BFF04460F4640EA0A008A
:104BB00041EA0B0153465A46084313D0114653EAC3
:104BC000010019D0C8F14002504600F0AFF8054688
:104BD0000E46504659464246FFF771FF084305D03E
:104BE000012004E020463946BDE8F08D0020054351
:104BF00046EAE0762C4337430A986305E40AA0EBC3
:104C000008000022FD0A44EA47540A3002D5002079
:104C10000146E9E7010510196941DDE90845001978
:104C20006941BDE8F04DA2E72DE9F04D00231A4699
:104C30001B1A8A4103DB00200146BDE8F08DC1F359
:104C40000A52C1F3130141F480154FF0000BD10754
:104C500002D100186D41521E0027044640F2FF1198
:104C6000384601EB620A3E468046024600204FF479
:104C7000801100F05BF8C2197141BB1846EB0100CE
:104C8000B4EB030C75EB000C04D3E41A65EB0005E0
:104C900017460E46241908F101006D41804634285C
:104CA000E3DDF91946EB0600091BA84103D24FF0DA
:104CB000FF32134601E0002213461BEB070046EBD0
:104CC0000A51BDE8F04DFFF752BF000030B5041E99
:104CD00071F1000404DB4FF00044404264EB010139
:104CE000141E73F1000405DB1C464FF000435242D2
:104CF00063EB04038B4208BF824230BD1CB50948F8
:104D00000090094801900546009C06E0E06840F0EC
:104D1000010394E8070098471034AC42F6D3FBF740
:104D200049FA00004067000860670008202A04DB99
:104D3000203A21FA02F00021704721FA02F3D04014
:104D4000C2F1200291400843194670470EB5C10FC9
:104D500080EAE0700844CA07002140F233438DE83E
:104D60000E000A460B46FFF711FF03B000BD70B5F9
:104D7000C1F30A5201F000450024C1F3130140F2CF
:104D8000FF3341F480119A4201DA002070BD40F2F5
:104D900033439A42A2F2334203DC5242FFF7C6FF8A
:104DA00000E090402C43F1D0404270BD0FB4084B5E
:104DB00010B504A902AA039800F0CCFF044602A98A
:104DC000002001F0F8F9204610BC5DF814FB00004B
:104DD000B761000803B401984100009850EAC1206F
:104DE00018BF04204A0D18BF40F0010040F2FF72C6
:104DF000B2EB515F08BF40F00200012808BF052058
:104E000002B070470000000070B59B482DED020B0A
:104E10002DED068B079D25F00044A04218DC974835
:104E2000844202DC0AD1069840B19DED060BBDEC30
:104E3000068B02B0BDE8704000F042BF002DCCBF31
:104E40009FED8F0B9FED900BBDEC068B02B070BDFC
:104E50008F48A04215DD8F48A042D8BF4FF0FF34E5
:104E600058DD9DED060B51EC100BFFF7B3FF042846
:104E700008BF00F049FF9DED060BBDEC068B02B0AC
:104E800070BD9DED060B51EC100B01F0A1F9CDE9C1
:104E9000060181489FED828BA0423CDD8248A04202
:104EA0001FDD00249FED82AB9DED060B53EC1A2B0A
:104EB00051EC100BFFF70EFC9DED060B41EC190BAE
:104EC00053EC1A2B51EC100BFFF7ABFC53EC182BE7
:104ED000FFF7A1FC53EC192BFFF715FDCDE90601F7
:104EE00049E09DED060B012453EC182B51EC100BFF
:104EF000FFF7F0FB9DED060B41EC190B53EC182B63
:104F000051EC100BFFF787FC53EC192BFFF7FBFC60
:104F1000CDE906012FE06848A0421FDD02249FED85
:104F2000689B9DED060B53EC192B51EC100BFFF712
:104F300078FC53EC182BFFF7CDFB9DED060B41ECF5
:104F4000180B53EC192B51EC100BFFF764FC53ECCE
:104F5000182BFFF7D8FCCDE906010CE09DED060B00
:104F6000032453EC102B9FED580B51EC100BFFF763
:104F7000CAFCCDE906019DED060B53EC102B51EC5C
:104F8000100BFFF74EFC41EC180B53EC182BFFF7FE
:104F900048FC41EC190B4E480621B0EE490AF0EEF0
:104FA000690A784400F078FD53EC182B51EC100B93
:104FB000FFF737FC41EC180B4648B0EE490AF0EE1B
:104FC000690A0521784400F067FD53EC192B51EC78
:104FD000100BFFF726FC41EC100B51EC180B53ECB7
:104FE000102B002C0EDAFFF775FB9DED061B53EC22
:104FF000112BFFF716FC9DED061B53EC112BFFF751
:105000000DFC35E0FFF766FB9DED061B53EC112B05
:10501000FFF707FC41EC100B2F48784400EBC4006D
:1050200090ED001B51EC100B53EC112BFFF7F3FB31
:105030009DED061B53EC112BFFF7EDFB41EC100B24
:105040002648784400EBC40090ED001B51EC100B97
:1050500053EC112BFFF7E2FB41EC100B002DA2BF2C
:10506000BDEC068B02B070BD51EC100B81F000411D
:1050700041EC100B01E70000000010440000F07F3D
:10508000182D4454FB21F93F182D4454FB21F9BF3E
:105090000000DC3F0000203E0000F33F0000000065
:1050A000000000000000F03F0000E63F00000000AC
:1050B00000000000000000400080034000000000ED
:1050C000000000000000F83F000000000000F0BFFA
:1050D0006A13000020130000AA12000062120000F0
:1050E00070B56F4E2DED040B2DED048B82B0DDF805
:1050F00024C0DDE907235C422CF000411C4341EA57
:10510000D474069D22F00040B44205D86C422C4372
:1051100040EAD474B4420BD99DED081B9DED060BFB
:1051200002B0BDEC048B04B0BDE8704000F0D2BD0D
:10513000ACF14054A4F17F641C430BD0022404EA78
:10514000AC7444EAD27405439FED578B9FED582B06
:1051500007D015E09DED060B51EC100B01F030F877
:1051600042E0002C11BF012C9DED060B02B0BDECFE
:10517000048B04BF04B070BD022C38D0032C3BD08C
:105180000B439FED4D1B9FED4E0B0AD0B14218D142
:10519000B04209D121F0804120F080400991079070
:1051A0000FE0002A15DA10E0474B7B44002C08BFC3
:1051B00093ED000B0DD0012C10D0022C17D0032C36
:1051C0001AD0B0421DD1002A03DAB0EE410AF0EE47
:1051D000610A02B0BDEC048B04B070BD93ED000B0E
:1051E00051EC100B81F0004141EC100BF1E7B0EEF7
:1051F000480AF0EE680AECE7B0EE420AF0EE620A06
:10520000E7E7401A00159FED329B3C28C8BF8DEDA3
:10521000000B17DCBCF1000FBCBF10F13C0F8DED93
:10522000009B0FDB9DED080B53EC102B9DED060B47
:1052300051EC100BFFF767FB00F0CAFF00F0C0FF56
:10524000CDE90001B4B1012C10D0022C9FED220B4E
:1052500053EC102B9DED000B51EC100B19D0FFF708
:10526000DAFA53EC182BFFF7D6FABDE7019880F075
:10527000004001909DED000B53EC192B51EC100BED
:10528000FFF724FD04BF022000F05EFD9DED000B42
:105290009FE7FFF7C0FA53EC182BFFF7BFFAA3E71D
:1052A0000000F07F00000000182D4454FB2109404D
:1052B000182D4454FB2109C0182D4454FB21F9BF7B
:1052C000182D4454FB21F93FC211000000000000DA
:1052D0000000000000000000075C143326A6A13C7B
:1052E00010B52F499FED2C1B2DED020B84B00598B6
:1052F00020F000408842D8BF9DED040B2DDD2949E8
:10530000884209D1049840B94FF0010000F01CFD1B
:1053100000F0EAFC06B010BD05DB9DED040B00F0CB
:10532000CFFC06B010BD68469DED040B00F0E0F820
:1053300010F0030004BF9DED021B9DED000B0CD08F
:1053400001280ED09DED021B9DED000B022817D009
:10535000012000F01DFC06B010BD00F0E5FA06B01B
:1053600010BD9DED021B9DED000B012000F010FC17
:1053700051EC100B81F0004106B041EC100B10BD58
:1053800000F0D2FA51EC100B81F0004106B041EC74
:10539000100B10BD00000000000000000000000025
:1053A000FB21E93F0000F07F10B52F499FED2C1B3A
:1053B0002DED020B84B0059820F000408842DCBF40
:1053C00000209DED040B32DD2849884209D1049864
:1053D00040B94FF0010000F0B7FC00F085FC06B0CA
:1053E00010BD05DB9DED040B00F06AFC06B010BD9E
:1053F00068469DED040B00F07BF810F0030011D01F
:10540000012818D09DED021B9DED000B02281AD03B
:1054100000F08AFA51EC100B81F0004106B041EC2B
:10542000100B10BD9DED021B9DED000B012000F047
:10543000AFFB06B010BD9DED021B9DED000B00F013
:1054400073FA06B010BD012000F0A2FB51EC100B66
:1054500081F0004106B041EC100B10BD00000000CF
:105460000000000000000000FB21E93F0000F07F89
:1054700000B52DED048BB0EE409AF0EE609A83B04B
:1054800051EC190BFFF7D0FB41EC180B18EE100A8A
:1054900018EE901A8DED008B002818BF01200843EC
:1054A00020F00040C0F17F6000F1E040C00F14D058
:1054B00019EE101A19EE900A8DED009B002918BF05
:1054C0000121084320F00040C0F17F6000F1E0407E
:1054D000C00F04BF012000F037FCB0EE480A03B053
:1054E000F0EE680ABDEC048B00BD00000000000077
:1054F0002DE9F14F04462DED020B2DED088B8AB0FE
:105500009FEDE70B80ED020B139EE74826F0004568
:1055100085420ADC9DED120B002084ED000B0AB0E1
:10552000BDEC088B03B0BDE8F08FE0489FEDE0AB29
:105530009FEDE1BBA84247DDE14F9FEDE39B9FED6F
:10554000E48B9DED120B53EC1A2B51EC100B002E3B
:105550001CDDFFF760F941EC100BBD4208D053ECA5
:105560001B2B51EC100BFFF756F9C4E900010BE0BF
:1055700053EC192B51EC100BFFF74DF953EC182B92
:10558000FFF749F9C4E900010120C8E7FFF7A2F8D5
:1055900041EC100BBD4208D053EC1B2B51EC100B0F
:1055A000FFF798F8C4E900010BE053EC192B51EC1C
:1055B000100BFFF78FF853EC182BFFF78BF8C4E9AB
:1055C00000014FF0FF30AAE7C348A84279DB9DED08
:1055D000120B51EC100B00F0FBFD41EC180B9FED92
:1055E000C00B53EC102BFFF71CF99FEDBF1B53ECC6
:1055F000112BFFF76FF8FFF7BAFB0746FFF7A6FB83
:1056000041EC190B53EC1A2BFFF70BF953EC182B49
:10561000FFF704F941EC180B53EC1B2B51EC190B61
:10562000FFF7FFF8DFF8C8A241EC100B4FEA15585E
:105630000125FA4453EC102B51EC180BFFF7EBF853
:10564000032DC4E900013DD0C1F30A5005EB45111B
:10565000A8EB00001139814234DA0AEB051BB0EEE9
:1056600048AA9BED000BF0EE68AA53EC102B51EC0E
:10567000190BFFF7D6F841EC1B0B51EC1A0B53EC4E
:105680001B2BFFF7C8F841EC180B51EC1A0B53EC2D
:10569000182BFFF7C0F853EC1B2BFFF7BCF89BED62
:1056A000020B41EC1A0B53EC102B51EC190BFFF7CA
:1056B000B8F853EC1A2BFFF7AEF841EC100B6D1C49
:1056C000B8E70EE0002EA8BF3846BFF628AF94ED2D
:1056D000000B51EC100B81F00041C4E9000178424D
:1056E0001DE7C6F3130040F4801EC6F30A50A0F273
:1056F000F530471100F01F05C5F12000DDF848B076
:1057000008900020069007900520EC467949002D6E
:1057100007EB0002794408BF51F8221009D051F874
:10572000223001EB8201AB404A68089922FA01F16C
:105730001943A1FB0E26A1FB0B131A449A4234BF56
:105740000123002303EB06080CEB8003D3E901A639
:105750000E448E4234BF0121002192448A4411B18B
:10576000924502D903E0924501D2012100E00021D7
:10577000C3E901A641444CF82010011EA0F101002C
:10578000C4DC029800F10050850F0298DDE9036740
:105790008000DDF81480FFF7D9FA41EC1A0B30468F
:1057A000FFF720F99FED541B53EC112BFFF739F84D
:1057B00041EC1B0B3846FFF715F99FED511B53ECDD
:1057C000112BFFF72EF841EC180B4046FFF70AF9B2
:1057D0009FED4D1B53EC112BFFF723F841EC190BF8
:1057E00051EC180B53EC192BFEF774FF53EC1B2BE9
:1057F000FEF770FF53EC1A2BFEF76CFFCDE90801A2
:10580000002008909DED080B53EC1A2B51EC100B67
:10581000FFF701F853EC1B2BFEF7FDFF53EC182BA1
:10582000FEF7F9FF53EC192BFEF7F8FF9FED381B3D
:1058300053EC112BFEF7F5FF9FED370B41EC180BE6
:1058400053EC102B9DED080B51EC100BFEF7E9FF0C
:1058500053EC182BFEF73EFF9FED310B41EC180B7C
:1058600053EC102B9DED080B51EC100BFEF7D9FFFC
:1058700053EC182BFEF72EFF41EC100B139810F091
:10588000004F06D06D4251EC100B81F0004141EC0D
:10589000100B284684ED000B41E6000000000000DC
:1058A0000000000000000000FB21E93F7CD902401D
:1058B00000004054FB21F93F3163621A61B4D03DCE
:1058C000FB21F93F000000000000601A61B4D03DE8
:1058D0007370032E8A19A33BFB213941000000009D
:1058E00083C8C96D305FE43F000000000000E03F66
:1058F000420D0000900C0000000000000000103E6F
:10590000000000000000103C000000000000103A01
:10591000182D4454FB21F93D3326A611460B113CAA
:1059200000000054FB21F93D10B52DED040B2DEDC9
:10593000088B82B0B0EE419AF0EE619A0B9820F09D
:1059400000449FED4BABB4F1795F11DA9DED0A0B8A
:1059500051EC100BFFF70BFA002801BFB0EE4A0A1A
:10596000F0EE6A0A02B0BDEC088B04BF04B010BDB3
:105970009DED0A0B53EC102B51EC100BFEF751FF71
:1059800041EC180B3C480621B0EE480AF0EE680ADC
:10599000784400F081F853EC182B51EC100BFEF713
:1059A00040FF9DED0A0B41EC1B0B53EC192B51EC06
:1059B000100BFEF736FF41EC190B53EC1B2B51EC8F
:1059C000180BFEF72EFF53EC192BFEF724FF9FED6B
:1059D0002C0B41EC190B53EC102B51EC180BFEF770
:1059E00020FF41EC100B2848844210DA53EC192BAD
:1059F00051EC100BFEF70FFF53EC1A2BFEF70EFFC6
:105A000041EC100B02B0BDEC088B04B010BD1F4878
:105A1000A042BCBF9FED1E1B8DED001B06DBA4F555
:105A200000100190002000909DED001B51EC100B28
:105A300053EC112BFEF7EFFE9DED000B41EC180B24
:105A400053EC102B51EC1A0BFEF7E5FE41EC1A0B50
:105A500053EC192B51EC180BFEF7DDFE53EC1A2B0F
:105A6000FEF7DCFE41EC100BCCE70000000000006C
:105A7000000000000000F03FAC0900000000000042
:105A8000000000000000E03F3333D33F0000E93F57
:105A9000000000000000D23F70B504462DED028BDF
:105AA0004D1E00EBC500B0EE408AF0EE608A90ED2E
:105AB000000B35F0060017D053EC182B51EC100BEF
:105AC000FEF7AFFE41EC100B6D1E04EBC50090ED30
:105AD000001B51EC100B53EC112BFEF7FBFD41ECBE
