:020000040800F2
:1000000058190020A9010008F56C0008F96C0008D7
:10001000FD6C0008016D0008056D0008000000007F
:10002000000000000000000000000000096D000852
:100030000D6D000800000000116D0008196D00082A
:10004000C3010008C3010008C3010008C301000880
:10005000C3010008C3010008C3010008C301000870
:10006000C3010008C3010008C3010008C301000860
:10007000C3010008C3010008C3010008C301000850
:10008000C3010008C3010008C3010008000000000C
:10009000000000000000000000000000C301000894
:1000A000C3010008C3010008C3010008C301000820
:1000B000C3010008C3010008C3010008C301000810
:1000C000C3010008C3010008C3010008C301000800
:1000D000C3010008C3010008C301000800000000BC
:1000E000C3010008C3010008C301000800000000AC
:1000F000000000000000000000000000C301000834
:1001000000000000C3010008C3010008C30100088B
:1001100000000000000000000000000000000000DF
:10012000C3010008C3010008C3010008C30100089F
:10013000C3010008000000000000000000000000F3
:10014000000000000000000000000000C3010008E3
:10015000C3010008C3010008C3010008C30100086F
:10016000C3010008C30100080000000000000000F7
:10017000000000000000000000000000000000007F
:1001800000000000C30100080000000000000000A3
:10019000C3010008DFF80CD006F042FE004800471B
:1001A0003D6C000858190020064880470648004763
:1001B000FEE7FEE7FEE7FEE7FEE7FEE7FEE7FEE717
:1001C000FEE7FEE71D6D00089501000880B543F6C7
:1001D0000040C4F20200016841F40071016001684E
:1001E00041F480610160016841F480710160032085
:1001F00000F0DEF80F2000F005F804F07BFA002094
:1002000080BD00BF10B540F20411C2F200010968C0
:1002100044F6D352C1F26202A1FB021204469009D5
:1002200000F03EF94FF0FF302146002200F0D0F8F8
:10023000002010BD704700BF80B543F61000C4F227
:1002400002004FF0FF310022016102614161426111
:1002500001600260416042608160826004F04CFA9B
:10026000002080BD704700BF40F25450C2F2000031
:10027000016801310160704740F25450C2F2000041
:1002800000687047B0B582B0019005F01FF9019980
:1002900004464D1C28BF4FF0FF3500BF05F016F98E
:1002A000001BA842FAD302B0B0BD00BF4EF210004E
:1002B000CEF20000016821F002010160704700BF2A
:1002C0004EF21000CEF20000016841F00201016020
:1002D000704700BF40F20010C0F20710704700BF27
:1002E00042F20000CEF204000068000C704700BF2C
:1002F00042F20000CEF2040000686FF31F30704736
:1003000042F20400CEF20400016841F001010160F4
:10031000704700BF42F20400CEF20400016821F0F1
:1003200001010160704700BF42F20400CEF20400F8
:10033000016841F002010160704700BF42F2040011
:10034000CEF20400016821F002010160704700BF95
:1003500042F20400CEF20400016841F004010160A1
:10036000704700BF42F20400CEF20400016821F0A1
:1003700004010160704700BF40F20040C4F2272032
:1003800001210160704700BF40F20040C4F2272005
:1003900000210160704700BF47F61021C1F6FF71D0
:1003A0000A6802604A68426089688160704700009C
:1003B0004EF60C51CEF200010A684FF6FF031A40C8
:1003C00060F30A2242F0806040F0FD7008607047E0
:1003D00010B54EF60C5CCEF2000CDCF80030C3F326
:1003E000022E8EF00704042C28BF0424BEF1030360
:1003F0004FF0FF3E0EFA04F438BF0023A1439940AA
:100400000EFA03F39A43114300F1604200F00F0328
:10041000090102F56442043B6344002848BF03F12C
:100420000C02117010BD00BF002848BF704700F0DB
:100430001F01012202FA01F11C2202EAD0004EF251
:100440000012CEF200028150704700BF002848BF62
:10045000704700F01F01012202FA01F11C2202EA9A
:10046000D0004EF28012CEF200028150BFF34F8FC7
:10047000BFF36F8F704700BF00F000F84EF60C50CE
:10048000BFF34F8FCEF200000168042201F4E06157
:10049000C0F2FA5211430160BFF34F8F00BFFDE776
:1004A000411E0020B0EB116F1CBF012070474EF2BF
:1004B0001002CEF2000251604EF62351CEF200013E
:1004C000F0230B7007219060116070474EF62450A6
:1004D000BFF35F8FCEF20000016821F4803101602C
:1004E00000210167704700BF4EF6245140F0010023
:1004F000CEF200010867086840F480300860BFF35E
:100500004F8FBFF36F8F7047F0B502784EF69C5C4B
:100510004378CEF2000C4CF8043CF2B14368CCF8BE
:100520000030037BC17A90F80AE042EA0372447B10
:1005300042EA0161857B41EACE41C67B41EA8441C2
:10054000477A41EA4541007A41EA064141EA0721FA
:1005500041EA4000CCF80400F0BD0020CCF80000D7
:10056000CCF80400F0BD00BF4EF60C50CEF20000F7
:100570000068C0F30220704710B500F1604C4EF6E1
:1005800014540CF5644C00F00F0ECEF2000401F090
:100590000701002848BF0EEB040C9CF800E081F036
:1005A0000704042C4FEA1E1C28BF0424033938BF5B
:1005B00000212CFA01F04FF0FF3C0CFA04F4A043A8
:1005C00010600CFA01F0C04300EA1E10186010BD64
:1005D000002848BF704700F01F01012202FA01F114
:1005E0001C2202EAD0004EF20022CEF2000281501C
:1005F000704700BF002844BF002070471C214EF206
:10060000002201EAD001CEF20002895800F01F005A
:1006100021FA00F000F00100704700BF002848BF39
:10062000704700F01F01012202FA01F11C2202EAC8
:10063000D0004EF28022CEF200028150704700BFFF
:10064000002844BF002070471C214EF2003201EA0E
:10065000D001CEF20002895800F01F0021FA00F00C
:1006600000F00100704700BF4EF21001CEF2000111
:100670000A68042822F0040208BF04320A607047A6
:10068000AFF30080704700002DE9F041044604F00C
:100690001DFFC4B10546002084F83400022084F810
:1006A00035002068016821F00101016020680168BF
:1006B000C9070BD004F00AFF401B0528F6D9032117
:1006C000202203207AE00120BDE8F081016848F291
:1006D0003F02CFF21002D4E9013501EA020ED4E95B
:1006E000032143EA0E032B43D4E9056C1A43D4E9F2
:1006F00007781143314341EA0702616A42EA08027E
:10070000042942EA0C0303D1D4E90B273A431343EB
:1007100003604269042922F0070241EA02012DD157
:10072000D4E90A5341EA050143B3BCF5005F08D0A0
:10073000BCF1000F12D1022D16D0012D07D09DB1B2
:1007400019E0032D17D8DFE805F00B0F0B02A3F11A
:10075000C072B2FA82F252094AB90FE0032D02D2F6
:10076000012222B90AE006D1C3F3006232B10121AD
:100770004022012022E00022002AF8D100F0F802F5
:100780004AF6AB23103ACAF6AA23A2FB033747F274
:10079000B06341613909C0F60003595C40F2FF3390
:1007A00098435F2A4FF03F0288BF0430C4E9160126
:1007B00002FA01F18160002201210020626584F8C3
:1007C0003510BDE8F08100BF002804BF012070474C
:1007D00090F83510022904BF02207047B0B50168B7
:1007E0004AF6AB2201F0F803D1F800C0A3F11005DE
:1007F000CAF6AA22A5FB022E2CF001020A600022F2
:10080000212347F2B0640A604A608A60CA600A61C4
:100810004B614FEA1E13C0F60004E35C40F2FF3464
:10082000A1435F2D4FF03F0588BF0431C0E9161387
:1008300005FA03F38B60426580F8352080F8342098
:100840000020B0BD90F834C0BCF1010F31D04FF0A2
:10085000010C80F834C090F835C0BCF1010F25D1EF
:1008600010B54FF0020C80F835C084460020CCF85B
:100870005400DCF800E0DCF808C0DEF80040BCF111
:10088000400F24F48024CEF80040CEF804300B460C
:1008900004BF13460A46CEF80830CEF80C20DEF826
:1008A000001041F00101CEF8001010BD002180F8C9
:1008B00034100220704700BF90F834C0BCF1010F23
:1008C00004BF0220704770B54FF0010C80F834C0AF
:1008D000D0F858E090F835C0BCF1010F3DD14FF091
:1008E000020C80F835C04FF0000CC0F854C0D0F8AE
:1008F00000C08468056CC06DDCF80060402C26F4F4
:100900008026CCF80060CCF804300B4604BF1346B8
:100910000A463F2101FA00F0CCF80830CCF80C2050
:10092000CEF80800DCF8000040F01600CCF800001B
:10093000DCF8140040F08000CCF814002DB1DCF895
:10094000000040F00800CCF80000DCF8000040F0A7
:100950000100CCF80000002070BD002180F83410A8
:10096000022070BD70B5866D044604F0AFFD94F8AA
:100970003510022928D105462068216C026822F032
:1009800016020260426922F08002426109B9A16C3C
:1009900019B1016821F008010160016821F001012D
:1009A000016000BF20680068C00714D004F08EFD0D
:1009B000401B0628F6D320206065002084F8340010
:1009C000032084F8350070BD80206065002084F825
:1009D0003400012070BDE06D3F2101FA00F0B060ED
:1009E0000020012184F8340084F8351070BD00BF68
:1009F00090F83510022909D1052180F835100068DA
:100A0000016821F0010101600020704780214165EB
:100A1000012070472DE9F04F81B092460F46044601
:100A200004F054FD94F83510022926D1814620683F
:100A30000068C00527D4D4E916B010210097002F14
:100A400008BF2021DBF8002001FA00F812EA080FA5
:100A500020D0606D00281CBF606D5FEAC07057D168
:100A60000099E06D002965D0102101FA00F0CBF863
:100A70000800002001B0BDE8F08F802060650020F4
:100A800084F8340002E04FF480706065012001B00A
:100A9000BDE8F08F0127C0F280070AF101064FF090
:100AA000080CFD1C03E000BF10EA080FD1D1606DF7
:100AB000C007CED156B1BAF1000F49D004F006FDFF
:100AC000A0EB09004FF0080C504541D8DBF80000BE
:100AD000E16D0CFA01F2024205D0636D43F00103AF
:100AE0006365CBF8082007FA01F2024205D0636D76
:100AF00043F002036365CBF8082005FA01F10142D7
:100B0000D2D0626D42F004026265CBF80810CBE7E8
:100B10002046FFF727FFE06D302101FA00F0CBF807
:100B20000800002084F83400012084F8350001B06A
:100B3000BDE8F08F302101FA00F0CBF8080000206A
:100B4000012184F8340084F8351001B0BDE8F08F3D
:100B500020206065002084F83400012084F83500EE
:100B6000032001B0BDE8F08FF0B581B00021009105
:100B700040F20411C2F200010B68D0E9166148F29C
:100B8000B51537680822C1F64E358A403A42A3FBB4
:100B900005350CD003681C68640708D51C6824F070
:100BA00004041C60B260426D42F001024265012201
:100BB000C0F2800202FA01F33B4208D00468646983
:100BC000240604D5B360436D43F00203436503324A
:100BD0008A403A4208D003681B689B0704D5B2607C
:100BE000426D42F00402426510228A403A4216D019
:100BF00001680B681B0712D5B2600B680A685B03BB
:100C000006D4D20506D40A6822F008020A6001E080
:100C100011033FD4016C11B1044688472046C26DD0
:100C2000202101FA02F33B4241D001680F68FF0620
:100C30003DD5B36090F835700B68052F1AD123F0BD
:100C400016030B604B6923F080034B61036C0BB9F7
:100C5000836C1BB10B6823F008030B603F219140AC
:100C6000B160002180F83410012180F83510016D49
:100C7000E1BB3FE00A685B0310D4D20512D40A68D6
:100C800022F010020A60002180F83410012180F85F
:100C9000351007E0816C0029BED1C0E7110301D4F3
:100CA000416C00E0C16B11B1044688472046416D9C
:100CB00001B3416DC90717D0052180F835100168CF
:100CC000AA0A0B6823F001030B6000BF009B0133ED
:100CD0009342009302D80B68DB07F7D1002180F81C
:100CE0003410012180F83510C16C19B101B0BDE894
:100CF000F040084701B0F0BD90F83430012B04BF3C
:100D0000022070474FF0010C80F834C090F8353065
:100D1000012B08D14FF0000C05299EBF01F03F01C7
:100D200000EB8101CA63002180F8341060467047EF
:100D300090F83420012A04BF02207047012280F875
:100D4000342090F83530012B1FD106291DD8DFE85B
:100D500001F004100A0D071315000022C26314E00D
:100D60000022C26411E0002242640EE0002282648C
:100D70000BE00022026408E0002205E00022C0E946
:100D80000F22C0E91122C2640265002180F83410EC
:100D90001046704790F83500704700BF406D7047AF
:100DA0002DE9F04F83B000F1200200F13E4741F2FF
:100DB0000005019207F1FF77C4F2020507224FEA0E
:100DC000B726A84208BF0422042E38BF4FEAB72234
:100DD0004FF0010E00274FF000084FF0000900927D
:100DE0000AE000BF09F1010908F10408B9F1100F88
:100DF00007F1020700F099800D680EFA09FA15EA6A
:100E00000A0CEFD04D6845F01005122D14D16FF08B
:100E10000302019E02EA590508F01C020F2356F84E
:100E200005B003FA02F40B692BEA040403FA02F298
:100E300022434FF0010E725102680323D1F804B02F
:100E4000BB40DD439A430BF00303BB401A43BBF1A5
:100E5000120F026013D80EFA0BF212F0061F0ED01A
:100E60008268CB682A40BB401A4382604268CBF359
:100E7000001322EA0A0203FA09F31A434260C26825
:100E80008B682A40BB401A435FEACB03C260A9D5F6
:100E9000002243F644030292C4F202031A6843F6A6
:100EA000004642F480421A601A68C4F2010602F455
:100EB00080420292029A29F003024FF6084A324415
:100EC000CFF6FF7A52F80A3008F00C040F25A5403F
:100ED000AB43009D05FA04F4234342F80A3032681C
:100EE0004B6842EA0C04DD0358BF22EA0C0434606C
:100EF00072689D0342EA0C0458BF22EA0C04746035
:100F0000B268DD0242EA0C0443F60C4558BF22EAFF
:100F10000C04B460C4F201052A689B0242EA0C0486
:100F200058BF22EA0C042C605CE703B0BDE8F08FE8
:100F30002DE9F04F82B000F13E4241F2000702F18C
:100F4000FF72C4F20207072601914FEAB223B842AA
:100F500008BF042643F60041042B38BF4FEAB226EF
:100F6000C4F2010100F120090096002400260025AA
:100F70004FF00F0806E000BF01350236102D04F1D6
:100F800004044FD0012202FA05FC019A1CEA020E69
:100F9000F2D002680323B3409A436FF00307026064
:100FA00007EA550A04F01C0259F80AB008FA02F2DE
:100FB0002BEA020249F80A2082689A43826042685A
:100FC00022EA0C024260C2689A43C260A1F57E73B5
:100FD00025F003029F5804F00C0208FA02FC07EA0D
:100FE0000C0A009F07FA02F29245C5D1AA0853F8ED
:100FF000227027EA0C0743F822700A6843F60C4374
:1010000022EA0E020A604A68C4F2010322EA0E02D2
:101010004A608A6822EA0E028A601A6822EA0E0290
:101020001A60A9E702B0BDE8F08F00BF0069084070
:1010300018BF0120704700BF002A08BF0904816162
:10104000704700BF426951404161704781B04FF421
:1010500080320092009A0A430092009AC261C161F4
:101060000099C161C1690091C069012100F480301B
:1010700081EA104001B0704743F61441C4F2010107
:101080000A68024214BF0860704700F001B800BF50
:1010900070470000002804BF0120704710B50446C7
:1010A00090F83D0028B9002084F83C00204600F06C
:1010B00071F8242084F83D002068016821F00101C6
:1010C000016003F0DBFD4DF68361C4F21B31A0FB30
:1010D000011E4FEA9E424FF4967102FB01FC48F656
:1010E0003811C0F24101ACFB0113D4E9001C4A6085
:1010F00048F2A162C0F20102944538BF4FEA9E4314
:101100005A1C48F2A063C0F201039C450A6209D848
:101110004FEA4C02B0FBF2F040F6FC72104208BFFE
:1011200004201BE0A3681922002B08BF03220CFB3C
:1011300002F2B0FBF2F2120508D04BB119220CFBFF
:1011400002F2B0FBF2F040F4804005E0012005E03F
:101150000CEB4C02B0FBF2F040F40040C861D4E963
:10116000070210430860D4E903C2D4E9053042EA1B
:101170000C0218438A60C860086840F001000860EB
:1011800000202021206484F83D10206384F83E0074
:1011900010BD00BF704700BF002804BF012070478A
:1011A00010B5242180F83D10016804460A6822F039
:1011B00001020A6000F00AF80020206484F83D0073
:1011C000206384F83E0084F83C0010BD704700BFE7
:1011D0002DE9F04782B09A4616468846044604F048
:1011E00075F994F83D1020291AD1DDF828900546AC
:1011F0002068806987070FD504F068F9401B1A281A
:10120000F6D300202021002F206384F83D1084F8BD
:101210003E0084F83C0003D494F83C00012803D13C
:10122000022002B0BDE8F0870121206884F83C105C
:101230000168C90703D1016841F00101016001683B
:1012400021F400610160212184F83D10102184F80F
:101250003E10002121640021CFF6FF716662A4F8E0
:101260002AA0E162618D2185E16A11F5803F18BFF6
:10127000012944D1016841F480710160406910F096
:10128000010021D1B9F1000F80F0010610D009F161
:10129000010706E02068406910F0010080F00106B7
:1012A00012D1002FF6D004F011F9401B4845F1D9B6
:1012B00000202021206384F83D10F10784F83E00CF
:1012C00084F83C0040F0D4802069B0F5804F01D113
:1012D000FE212BE0062000EAD8112068F0310161E0
:1012E0004169090721D44169490500F1B080B9F18C
:1012F000000F00F0B58019F1010606D00FE00429B7
:10130000B8D0216B1229B5D0B8E720684169090728
:101310000BD44169490500F19A80002EF6D004F003
:10132000D5F8401B4845F0D99AE0FF21206801EA32
:1013300008010161416989071AD44169490500F131
:101340008680B9F1000F00F08B8019F1010609D1F8
:10135000206800BF416989070AD44169490576D4EC
:10136000002EF7D004F0B2F8401B4845F0D977E0E2
:101370000020019021684A690192896901910199CF
:10138000218D002954D009F1010600BF216851F8D0
:10139000142F12060FD40A68520574D4002EF5D00B
:1013A000B9F1000F74D004F091F80146491B0020F8
:1013B0004945EBD96CE0626AD4F800E0511C6162E7
:1013C0001178CEF81010618D01396185B4F828C00C
:1013D0007146ACF10107278551F8143F5B070CD526
:1013E0003B040AD0931C63625278CEF81020628DC1
:1013F000013A6285ACF1020222850A6803E000BF6F
:10140000216851F8142F52070FD40A6852053AD4B4
:10141000002EF5D0B9F1000F3AD004F057F801468C
:10142000491B00204945EBD932E0218D0029ADD17F
:1014300021680A6842F400720A60202184F83D1095
:1014400084F83E0084F83C0002B0BDE8F0870168F3
:1014500041F4007101606FF48061416104202064F7
:1014600000202021206384F83D1084F83C00206C8B
:10147000216C002084F83C000320042908BF0120CF
:1014800002B0BDE8F0876FF480600860042002E0DD
:10149000206C40F02000206400202021206384F88C
:1014A0003D1084F83C00206C042808D120680168B5
:1014B00041F400710160012002B0BDE8F087032013
:1014C00002B0BDE8F08700BF2DE9F047DDF82080CD
:1014D0009A469146044601F47F0018278EB25D1C9F
:1014E000B0F5803F08BF14272068C0593040801BEA
:1014F000B0FA80F04009484516D1002DF4D0BAF179
:10150000000F05D003F0E2FFA0EB08005045EBD937
:1015100000202021206384F83D1084F83E0084F8E8
:101520003C000320BDE8F0870020BDE8F08700BF45
:10153000F0B581B004460068154650F8143F5A07CC
:1015400018D40E464F1C04E0206850F8141F4907B9
:1015500010D40168490510D4002FF5D026B103F04E
:10156000B5FF401BB042EFD9206C40F02000206452
:10157000032008E0002001B0F0BD6FF4806101603D
:1015800004202064012000212022216384F83D20D2
:1015900084F83C1001B0F0BD2DE9F04F81B09A46BF
:1015A00016468846044603F091FF94F83D10202922
:1015B0001AD1DDF8289005462068806987070FD585
:1015C00003F084FF401B1A28F6D300202021002FAF
:1015D000206384F83D1084F83E0084F83C0003D476
:1015E00094F83C00012803D1022001B0BDE8F08F3F
:1015F0000121206884F83C100168C90703D1016803
:1016000041F001010160016821F4006101602221C3
:1016100084F83D10102184F83E100021216400213F
:10162000CFF6FF716662A4F82AA0E162618D218580
:10163000E16A026811F5803F42F48062026018BFDF
:10164000012947D1016841F480710160406910F0BF
:10165000010021D1B9F1000F80F0010610D009F18D
:10166000010706E02068406910F0010080F00106E3
:1016700012D1002FF6D003F029FF401B4845F1D9C5
:1016800000202021206384F83D10F10784F83E00FB
:1016900084F83C0040F0B5802069B0F5804F03D15C
:1016A00048F00100C1B27DE0062000EAD81A2068A7
:1016B0000AF1F00101614169090721D44169490535
:1016C00000F18E80B9F1000F00F0938019F101074D
:1016D00006D00FE00429B5D0216B1129B2D0B5E7AF
:1016E000206800BF416909070AD44169490577D4D8
:1016F000002FF7D003F0EAFE401B4845F0D978E010
:1017000020685FFA88F101614169890717D441694E
:10171000490565D4B9F1000F6BD019F1010708D163
:101720002068416989070AD44169490558D4002FC6
:10173000F7D003F0CBFE401B4845F1D959E000201B
:1017400000902068416900918169009100990168C9
:1017500041F480710160406910F0010020D1B9F1BD
:10176000000F80F0010710D009F1010606E02068A3
:10177000406910F0010080F0010711D1002EF6D071
:1017800003F0A4FE401B4845F1D90020202120632E
:1017900084F83D10F90784F83E0084F83C0030D10D
:1017A0004AF0F101206801614169890734D4416937
:1017B000490515D4B9F1000F1BD019F1010609D163
:1017C000206800BF4169890726D44169490507D4CB
:1017D000002EF7D003F07AFE401B4845F0D908E010
:1017E000016841F4007101606FF48061416104207F
:1017F000206400202021206384F83D1084F83C0000
:10180000206C216C002084F83C000320042908BFD0
:10181000012001B0BDE8F08F208D022817D00128EB
:1018200004D0E8B900200090206806E02068016834
:1018300021F480610160002100914169009181697A
:1018400000910099016841F40071016014E0206882
:10185000016821F480610160016841F4006103E0E6
:101860002068016841F480610160002100914169B4
:101870000091806900900098208D002800F012816E
:101880004FF0010A09F101074FF000080EE0B346DE
:101890002020C4F8308084F83D005FEACB7084F8E3
:1018A0003E8084F83C8000F0DD800EE1042819D2EF
:1018B00002282BD0012846D1206841694E0600F14C
:1018C000E1804169C9067BD4B9F1000F04D003F06F
:1018D000FDFD401B4845EFD9206C40F020002064FE
:1018E00075E000BF206841694E0656D44169C906BB
:1018F00044D4B9F1000F04D003F0E8FD401B484583
:10190000F0D9206C40F0200020643EE0206840695F
:1019100010F004008AEA9006B34609D0A2E000BFA6
:101920002068406910F004008AEA900B40F09A8029
:10193000002FF5D0B9F1000FA9D003F0C7FD401B6F
:101940004845EDD9A4E72068406910F004008AEA10
:10195000900B5E4607D04EE02068406910F004000E
:101960008AEA900647D1002FF6D0B9F1000F36D0A1
:1019700003F0ACFD401B4845EED931E06FF010019B
:101980004161C4F84080C4F830802020002E84F8E3
:101990003D0084F83C8040F190802068616A0069D5
:1019A0004A1C62620870208D01382085608D0138E4
:1019B000608520684169490770D50069616A64E003
:1019C0006FF010014161C4F84080C4F830802020DD
:1019D000002E84F83D0084F83C8053D46DE05E46D0
:1019E0002020C4F8308084F83D00F00784F83E8061
:1019F00084F83C8069D12068616A026822F48062C0
:101A0000026000694A1C62620870208D01382085DE
:101A1000608D013860852068406910F0040021D194
:101A20008AEA900B5E4606E02068406910F00400E8
:101A30008AEA900616D1002FF6D0B9F1000F05D032
:101A400003F044FD401B4845EED900E05E462020EF
:101A5000C4F8308084F83D0084F83E80F00784F8B4
:101A60003C8032D12068616A026842F400720260F0
:101A700000694A1C62620870208D01382085608DE3
:101A8000013860852068616A00694A1C62620870DA
:101A9000208D01382085608D01386085208D0028DB
:101AA0007FF404AF202084F83D00002084F83E003D
:101AB00084F83C0001B0BDE8F08F216C01202029A2
:101AC00008BF032001B0BDE8F08F032001B0BDE8DE
:101AD000F08F00BF2DE9F04F83B01D4617460E462C
:101AE000044603F0F3FC94F83D1020290DD1804604
:101AF000002E4FF0010018BF002F02D103B0BDE847
:101B0000F08F94F83C00012803D1022003B0BDE817
:101B1000F08F0120216884F83C000A68D20703D1C5
:101B20000A6842F001020A600A684FF0000922F4D4
:101B300000620A60212284F83D20202284F83E20A1
:101B40000022CFF6FF72C4F8409066626785E262B9
:101B5000628D6E1C22850A6842F480620A602168E8
:101B6000496911F0020122D180EA510A4FF0010BBC
:101B7000574606E02068406910F002008BEA5007E3
:101B800015D1002EF6D035B103F0A0FCA0EB080073
:101B9000A842EFD900E0574600202021206384F8B6
:101BA0003D10F90784F83E0084F83C0075D1CDF86B
:101BB000089020684169029180690290029820692A
:101BC000B0F5404F2FD12068406910F0020022D1BB
:101BD0004FF0010A8AEA50094F4606E02068406942
:101BE00010F002008AEA500715D1002EF6D035B168
:101BF00003F06CFCA0EB0800A842EFD900E04F46D0
:101C000000202021206384F83D10F90784F83E006D
:101C100084F83C0041D10020019020684169019185
:101C2000806901900198208D68B300BF206850F84A
:101C3000141F09060CD40168490532D4002EF5D0D2
:101C4000A5B303F043FCA0EB0800A842EED92DE0B9
:101C5000606A2168421C626202780A61628D013A00
:101C60006285228D531E23854F697F07DBD51B04B8
:101C7000D9D0831C636240780861608D013860852B
:101C8000901E2085CFE720464FF4823100222B465C
:101C9000CDF80080FFF718FC00B3032003B0BDE8C7
:101CA000F08F6FF480610160042002E0206C40F04E
:101CB0002000206400202021206384F83D1021684A
:101CC00084F83C00086820F480600860216C0320E0
:101CD000042908BF012003B0BDE8F08F20686FF42D
:101CE00080614161016821F480610160202084F8F5
:101CF0003D00002084F83E0084F83C0003B0BDE8BD
:101D0000F08F00BF2DE9F04F83B01D4617460E46F9
:101D1000044603F0DBFB94F83D1020290DD18046EA
:101D2000002E4FF0010018BF002F02D103B0BDE814
:101D3000F08F94F83C00012803D1022003B0BDE8E5
:101D4000F08F0120216884F83C000A68D20703D193
:101D50000A6842F001020A600A684FF0000922F4A2
:101D600000620A60222284F83D20202284F83E206E
:101D70000022CFF6FF72C4F8409066626785E26287
:101D8000628D22850A6842F480620A60216849698E
:101D900011F0020127D180EA510A6F1C4FF0010BAC
:101DA000564606E02068406910F002008BEA5006B3
:101DB00019D1002FF6D035B103F088FBA0EB080055
:101DC000A842EFD900E0564600202021206384F885
:101DD0003D10F10784F83E0084F83C0003D0032056
:101DE00003B0BDE8F08FCDF80890206841690291FA
:101DF000806902900298208D00284BD04FF0200A75
:101E000000276FF0100902E0208D002842D02068E2
:101E100041694E0618D44169C9060BD42DB103F0AF
:101E200055FBA0EB0800A842F1D9206C40F020003F
:101E3000206403E0C0F8149027642763002E84F820
:101E40003DA084F83C7061D52068616A00694A1C35
:101E500062620870208D01382085608D01386085B0
:101E6000206841694907CFD50069616A4A1C6262EE
:101E70000870208D01382085608D01386085C3E7AA
:101E8000416949050FD455B103F020FBA0EB0800D0
:101E9000A84204D820684169CE06F1D51EE0206C26
:101EA00040F0200003E06FF4806141610420206471
:101EB00000202021002E206384F83D1084F83C008F
:101EC0000CD42068016821F480610160216C03203A
:101ED000042908BF012003B0BDE8F08F0020019065
:101EE00021684A6901920A6842F001020A60019A77
:101EF0000A6822F480620A60202184F83D1084F888
:101F00003E0084F83C0003B0BDE8F08F2068016813
:101F100021F480610160216C0120202908BF032089
:101F200003B0BDE8F08F00BF80B581B04FF0000C6A
:101F3000CDF800C090F83DC0BCF1200F2BD140F28D
:101F4000041CC2F2000CDCF800C04BF2895E4FEAC0
:101F5000DC0CC1F2F84EACFB0ECE4FEA1E2C4FF05B
:101F6000190E0CFB0EFCCDF800C000BFDDF800C060
:101F7000ACF1010EBCF1000FCDF800E00ED0D0F8AE
:101F800000C0DCF818E05FEA8E7EEFD490F83CE009
:101F9000BEF1010F0CD1022001B080BD0021202232
:101FA000016380F83D2080F83C10032001B080BD23
:101FB0004FF0010E80F83CE0DCF800E05FEACE7EF6
:101FC00005D1DCF800E04EF0010ECCF800E0DCF8C2
:101FD00000E02EF4006ECCF800E04FF0210E80F807
:101FE0003DE04FF0100E80F83EE04FF0000EC0F8DC
:101FF00040E042620022CFF6FF724385C262428D0A
:1020000002854164DCF8001041F48071CCF80010C6
:1020100080F83CE0DCF80410002041F4E061CCF8EA
:10202000041001B080BD00BF80B581B04FF0000C3E
:10203000CDF800C090F83DC0BCF1200F2BD140F28C
:10204000041CC2F2000CDCF800C04BF2895E4FEABF
:10205000DC0CC1F2F84EACFB0ECE4FEA1E2C4FF05A
:10206000190E0CFB0EFCCDF800C000BFDDF800C05F
:10207000ACF1010EBCF1000FCDF800E00ED0D0F8AD
:1020800000C0DCF818E05FEA8E7EEFD490F83CE008
:10209000BEF1010F0CD1022001B080BD0021202231
:1020A000016380F83D2080F83C10032001B080BD22
:1020B0004FF0010E80F83CE0DCF800E05FEACE7EF5
:1020C00005D1DCF800E04EF0010ECCF800E0DCF8C1
:1020D00000E02EF4006ECCF800E04FF0220E80F805
:1020E0003DE04FF0100E80F83EE04FF0000EC0F8DB
:1020F00040E042620022CFF6FF724385C262428D09
:1021000002854164DCF8001041F48061CCF80010D5
:10211000DCF8001041F48071CCF8001080F83CE04D
:10212000DCF80410002041F4E061CCF8041001B0A8
:1021300080BD00BF10B582B04FF0000CCDF804C0D8
:10214000CDF800C090F83DC0BCF1200F2AD1DDF8D9
:1021500010C0BCF1040F02D0BCF1010F1ED140F23F
:10216000041EC2F2000EDEF800E04BF289544FEA82
:10217000DE0EC1F2F844AEFB044E4FEA1E2E1924C7
:102180000EFB04F4009400BF009CA4F1010ECDF8F6
:1021900000E054B10468A469A407F5D490F83C4069
:1021A000012C0CD1022002B010BD002120220163BD
:1021B00080F83D2080F83C10032002B010BD0124BF
:1021C000D0F800E080F83C40DEF80040E40705D19C
:1021D000DEF8004044F00104CEF80040DEF8004094
:1021E00024F40064CEF80040212480F83D401024FF
:1021F00080F83E400024046442624385C0F82CC04D
:10220000428D02854164016B01910199122901D02F
:10221000019929B9DEF8001041F48071CEF8001060
:10222000002180F83C10DEF80410002041F4E06149
:10223000CEF8041002B010BD10B581B04FF0000C04
:10224000CDF800C090F83DC0BCF1200F2AD1DDF8D8
:102250000CC0BCF1040F02D0BCF1010F1ED140F242
:10226000041EC2F2000EDEF800E04BF289544FEA81
:10227000DE0EC1F2F844AEFB044E4FEA1E2E1924C6
:102280000EFB04F4009400BF009CA4F1010ECDF8F5
:1022900000E054B10468A469A407F5D490F83C4068
:1022A000012C0CD1022001B010BD002120220163BD
:1022B00080F83D2080F83C10032001B010BD0124BF
:1022C000D0F800E080F83C40DEF80040E40705D19B
:1022D000DEF8004044F00104CEF80040DEF8004093
:1022E00024F40064CEF80040222480F83D401024FD
:1022F00080F83E400024046442624385C0F82CC04C
:10230000428D02854164016B112901D0016B89B9AD
:102310001CF5803F18BFBCF1010F17D1DEF800108B
:1023200041F48061CEF80010DEF8001041F48071B5
:10233000CEF80010002180F83C10DEF804100020D8
:1023400041F4E061CEF8041001B010BDBCF1040FFF
:10235000E4D0016B1129E1D0ECE700BF80B581B07A
:102360000023009390F83D30202B29D100294FF015
:10237000010C18BF002A25D040F20413C2F200035A
:102380001B684FEAD30C4BF28953C1F2F843ACFB04
:10239000033C4FEA1C2C19230CFB03F3009300BFF2
:1023A000009BA3F1010CCDF800C073B1D0F800E0A0
:1023B000DEF818309B07F3D490F83C30012B0ED197
:1023C0004FF0020C604601B080BD00212022016365
:1023D00080F83D2080F83C104FF0030CF2E7012319
:1023E00080F83C30DEF80030DB0705D1DEF8003045
:1023F00043F00103CEF80030DEF800304FF0000C5F
:1024000023F40063CEF80030212380F83D302023F0
:1024100080F83E30C0F840C041620021CFF6FF7125
:102420004285C162418D0185DEF8001041F4806172
:10243000CEF8001080F83CC0DEF8040040F4E06004
:10244000CEF80400BEE700BF80B581B00023009342
:1024500090F83D30202B29D100294FF0010C18BFF6
:10246000002A25D040F20413C2F200031B684FEA91
:10247000D30C4BF28953C1F2F843ACFB033C4FEA57
:102480001C2C19230CFB03F3009300BF009BA3F14A
:10249000010CCDF800C073B1D0F800E0DEF81830C0
:1024A0009B07F3D490F83C30012B0ED14FF0020C77
:1024B000604601B080BD00212022016380F83D20EC
:1024C00080F83C104FF0030CF2E7012380F83C3019
:1024D000DEF80030DB0705D1DEF8003043F0010301
:1024E000CEF80030DEF800304FF0000C23F400632B
:1024F000CEF80030222380F83D30202380F83E3093
:10250000C0F840C041620021CFF6FF7102854285CC
:10251000C162DEF8001041F48061CEF8001080F84E
:102520003CC0DEF8040040F4E060CEF80400BFE7F1
:1025300090F83DC0BCF1280F0CD100294FF0010CE0
:1025400018BF002A01D16046704790F83CC0BCF12A
:10255000010F01D10220704780B581B04FF0010C0E
:10256000D0F800E080F83CC0DEF800C05FEACC7C28
:1025700005D1DEF800C04CF0010CCEF800C0DEF84A
:1025800000C02CF4006CCEF800C04FF0290C80F88D
:102590003DC04FF0200C80F83EC04FF0000CC0F85A
:1025A00040C041624285C362418D0185CDF800C0C3
:1025B000DEF814100091DEF818100091009980F8F0
:1025C0003CC0DEF8040040F4E060CEF8040001B046
:1025D000BDE880406046704790F83DC0BCF1280FD0
:1025E0000CD100294FF0010C18BF002A01D1604620
:1025F000704790F83CC0BCF1010F01D10220704738
:1026000080B581B04FF0010CD0F800E080F83CC0FC
:10261000DEF800C05FEACC7C05D1DEF800C04CF0EB
:10262000010CCEF800C0DEF800C02CF4006CCEF82F
:1026300000C04FF02A0C80F83DC04FF0200C80F80D
:102640003EC04FF0000CC0F840C041624285C362FA
:10265000418D0185CDF800C0DEF814100091DEF840
:1026600018100091009980F83CC0DEF8040040F496
:10267000E060CEF8040001B0BDE8804060467047DD
:1026800090F83D1020291CBF02207047282180F8B7
:102690003D1000680168C90703D1016841F00101DC
:1026A0000160016841F480610160416841F440715A
:1026B00041600020704700BF90F83D1028291CBFE2
:1026C0000220704790F83D1090F83E2001F0030181
:1026D0001143C9B20163202180F83D10014600205A
:1026E00081F83E0009680A6822F480620A604A683C
:1026F00022F440724A607047B0B582B04FF0000CCF
:10270000CDF804C090F83DC0BCF1200F2BD140F2B1
:10271000041CC2F2000CDCF800C04BF2895E4FEAE8
:10272000DC0CC1F2F84EACFB0ECE4FEA1E2C4FF083
:10273000190E0CFB0EFCCDF804C000BFDDF804C080
:10274000ACF1010EBCF1000FCDF804E00ED0D0F8D2
:1027500000C0DCF818E05FEA8E7EEFD490F83CE031
:10276000BEF1010F0CD1022002B0B0BD0021202229
:10277000016380F83D2080F83C10032002B0B0BD1A
:102780004FF0010E80F83CE0DCF800E05FEACE7E1E
:1027900005D1DCF800E04EF0010ECCF800E0DCF8EA
:1027A00000E02EF4006ECCF800E04FF0210E80F82F
:1027B0003DE04FF0100E80F83EE04FF0000EC0F804
:1027C00040E0426243850023CFF6FF73C362438D2E
:1027D0000385416473B3416B42F6650E42F6DD0535
:1027E000C0F6000EC0F6000500240CF1100CC1F874
:1027F0003CE0C1E91044C1E912450C6504460846B5
:1028000011466246FEF758F8216800200A6842F433
:1028100080620A600A6842F480720A6084F83C00B0
:102820004A6842F440724A604A6842F400624A6070
:1028300002B0B0BDDCF8001041F48061CCF80010AB
:10284000DCF8001041F48071CCF80010002180F811
:102850003C10DCF80410002041F4E061CCF80410D6
:1028600002B0B0BD806B90F83D2090F83E10212A58
:1028700028D0222A08BF202924D001680A6822F41F
:1028800080620A600A6842F400720A604A6822F4B0
:1028900080524A604A6822F400624A600021418501
:1028A000026C002A18BF01F07BBE202280F83D2078
:1028B00090F83E2080F83E10402A08BF01F06EBE1E
:1028C00001F060BE01684A6822F400624A6000229A
:1028D0004285486840F440704860704710B5846B8A
:1028E000FEF75CFA022808BF10BD2068016821F4D9
:1028F0008061016000202021608584F83D1084F80B
:102900003E00206C40F0100120462164BDE81040DC
:1029100001F046BE10B582B04FF0000CCDF804C0F7
:1029200090F83DC0BCF1200F2BD140F2041CC2F244
:10293000000CDCF800C04BF2895E4FEADC0CC1F2FF
:10294000F84EACFB0ECE4FEA1E2C4FF0190E0CFBCE
:102950000EFCCDF804C000BFDDF804C0ACF1010EE0
:10296000BCF1000FCDF804E00ED0D0F800E0DEF8A6
:1029700018C05FEA8C7CEFD490F83CC0BCF1010F2A
:102980000CD1022002B010BD00212022016380F88A
:102990003D2080F83C10032002B010BD4FF0010C28
:1029A00080F83CC0DEF800C05FEACC7C05D1DEF8E0
:1029B00000C04CF0010CCEF800C0DEF800C02CF4D2
:1029C000006CCEF800C04FF0220C80F83DC04FF0F4
:1029D000100C80F83EC04FF0000CC0F840C04262BE
:1029E00043850023CFF6FF73C362438D03854164A3
:1029F00073B3D0F838C042F66501C0F6000142F664
:102A0000DD04C0F60004CCF83C100021CCE9101124
:102A1000CCE91214CCF850100EF1100104466046B7
:102A2000FDF74AFF216800200A6842F480620A60CC
:102A30000A6842F480720A6084F83C004A6842F4F2
:102A400040724A604A6842F400624A6002B010BDB7
:102A5000DEF8001041F48061CEF80010DEF80010BE
:102A600041F48071CEF80010002180F83C10DEF8AF
:102A70000410002041F4E061CEF8041002B010BD53
:102A800090F83E1010291CBF0120704790F83C10B0
:102A9000012904BF0220704780B500216022016334
:102AA00080F83D200268136823F480631360136884
:102AB00043F4007313604185536823F4E06353606B
:102AC00080F83C1000F002F8002080BD10B50446EC
:102AD00090F83D002938012805D8002020632820DF
:102AE00084F83D000EE094F83D00602806D0206890
:102AF000406800055CBF202084F83D000020206372
:102B000084F83E002068016821F40061016041689A
:102B1000090519D494F83D10602933D1202184F897
:102B20003D10002121644169490604D50069616AAC
:102B30004A1C626208702068016821F0010101608E
:102B4000204601F02FFD3CE0416821F40061416026
:102B5000606B90F83510012920D1A06B44F2BD5173
:102B6000C0F600010165FDF743FF50B320684169DD
:102B7000490604D50069616A4A1C626208702168CE
:102B8000A06B15E04169490604D50069616A4A1CD9
:102B900062620870204601F003FD12E044F2BD516C
:102BA000C0F600010165FDF723FF50B12168606B9D
:102BB0000A6822F001020A60202184F83D10016DAC
:102BC000884794F83D00282818BF10BD206C4007A6
:102BD00000D410BD0020CFF6FF70E062002120205D
:102BE000216384F83D00204684F83E10BDE8104083
:102BF00001F0D0BC70B582B00023019390F83D3055
:102C0000202B21D100294FF0010518BF002A1CD02C
:102C100040F20413C2F200031B684BF28955DB0833
:102C2000C1F2F845A3FB05352B0A19256B43019327
:102C3000019B5D1E01955BB10468A3699B07F7D4F6
:102C400090F83C30012B0CD10225284602B070BD13
:102C500000212022016380F83D2080F83C100325EC
:102C6000F3E7012380F83C302368DB0703D12368B6
:102C700043F0010323602368002523F4006344F834
:102C8000103B212380F83D30202380F83E3005643E
:102C9000416242850022CFF6FF72C262438D426BD1
:102CA00042F6650C42F6DD0EC0F6000CC0F6000ED2
:102CB0000385C2E90FC5C2E91155C2E913E506460D
:102CC00010462246FDF7F8FD3068016841F4806146
:102CD000016086F83C50416841F4407141604168B0
:102CE00041F400614160B0E770B582B00023019308
:102CF00090F83D30202B21D100294FF0010518BF5D
:102D0000002A1CD040F20413C2F200031B684BF2ED
:102D10008955DB08C1F2F845A3FB05352B0A1925B7
:102D20006B430193019B5D1E01955BB10468A36930
:102D30009B07F7D490F83C30012B0CD10225284694
:102D400002B070BD00212022016380F83D2080F890
:102D50003C100325F3E7012380F83C302368DB07B0
:102D600003D1236843F0010323602368002523F483
:102D7000006344F8103B222380F83D30202380F884
:102D80003E300564416242850022CFF6FF72C26286
:102D9000438D826B42F6650C42F6DD0EC0F6000CE8
:102DA000C0F6000E0385C2E90FC5C2E91155C2E99C
:102DB00013E5064610460A462146FDF77DFD3068BC
:102DC000016841F48061016086F83C50416841F43B
:102DD00040714160416841F400614160AFE700BF6C
:102DE0002DE9F04F83B0994692460F46044602F013
:102DF0006DFB94F83D1020291CD1DDF83880DDF8FA
:102E000030B005462068806986070FD502F05EFB6A
:102E1000401B1A28F6D300202021002E206384F8BE
:102E20003D1084F83E0084F83C0003D494F83C0044
:102E3000012803D1022003B0BDE8F08F01212068F2
:102E400084F83C1001684646C90703D1016841F087
:102E50000101016001684FF0000821F40061016088
:102E6000212084F83D00402084F83E000D98C4F8ED
:102E70004080C4F824B060850020CFF6FF70E06287
:102E8000608D39462085204652464B46CDE9006587
:102E900000F076F848B1216C032084F83C800429C6
:102EA00008BF012003B0BDE8F08F208DB04688B385
:102EB00008F10106206850F8141F09060DD40168B6
:102EC00049053DD4002EF5D0B8F1000F3DD002F0F9
:102ED000FDFA401B4045EDD937E0606A2168421C8D
:102EE000626202780A61228D531E2385678D013F3D
:102EF00067854F697F070AD51B0408D0831C63626E
:102F000040780861901E2085608D01386085208D95
:102F10000028CFD1204641462A46FEF709FBF8B9E2
:102F20002068016841F400710160202084F83D00B0
:102F3000002084F83E0084F83C0003B0BDE8F08F28
:102F40006FF480610160042002E0206C40F02000FA
:102F5000206400202021206384F83D1084F83C0088
:102F6000206C042808D12068016841F400710160D8
:102F7000012003B0BDE8F08F032003B0BDE8F08F5F
:102F80002DE9F04F83B00446006801939146026832
:102F9000DDF834A042F48072026040690C9E10F0AB
:102FA00001000F4624D180F0010B06F101085D46B7
:102FB00007E000BF2068406910F0010080F00105C3
:102FC00016D1B8F1000FF5D036B102F07FFAA0EBC0
:102FD0000A00B042EED900E05D46002020212063C7
:102FE00084F83D10E90784F83E0084F83C000DD1D8
:102FF000206807F0FE010161416989072AD441690F
:1030000049056AD4751C23D026B11BE0032003B008
:10301000BDE8F08F00202021206384F83D1084F863
:103020003C00216C0320042908BF012003B0BDE847
:10303000F08F00BF416989070CD4416949054CD420
:10304000002DF7D002F042FAA0EB0A00B042E1D81E
:103050002068EFE700200290206850F8141F0291CA
:103060004168029102990168090613D4751C04E0B5
:10307000206850F8141F09060CD40168490536D49D
:10308000002DF5D02EB302F021FAA0EB0A00B042D9
:10309000EED91EE001992068012942D04FEA19219A
:1030A000016150F8141F09063AD4751C05E000BFF1
:1030B000206850F8141F090632D40168490516D457
:1030C000002DF5D02EB102F001FAA0EB0A00B042BB
:1030D000EED9206C40F020000DE0016841F4007151
:1030E00001606FF4806141610420206492E76FF415
:1030F000806101600420206400202021206384F886
:103100003D1084F83C00206C04287FF47FAF2068D9
:10311000016841F400710160012003B0BDE8F08F47
:1031200020685FFA89F10161002003B0BDE8F08FEB
:103130002DE9F04F83B0984691468B46044602F045
:10314000C5F994F83D1020291AD1DDE90DA70546EF
:103150002068806986070FD502F0B8F9401B1A284D
:10316000F6D300202021002E206384F83D1084F83F
:103170003E0084F83C0003D494F83C00012803D1BD
:10318000022003B0BDE8F08F0121206884F83C10D4
:1031900001685246C90703D1016841F0010101608D
:1031A00001684FF0000A21F400610160222084F8D8
:1031B0003D00402084F83E000C98C4F840A06062B6
:1031C0000020CFF6FF706285E062608D5946208551
:1031D00020464A464346CDE9007500F065F948B1FE
:1031E000216C032084F83CA0042908BF012003B00F
:1031F000BDE8F08F208D022817D0012804D000BB35
:1032000000200290206806E02068016821F48061B7
:103210000160002102914169029181690291029944
:10322000016841F40071016013E02068016821F435
:1032300080610160016841F4006101600021029138
:1032400002E00020029020684169029180690290AA
:103250000298208D002800F00F814FF0010807F13F
:10326000010A4FF000090FE0B3462020C4F8309067
:1032700084F83D005FEACB7084F83E9084F83C907F
:1032800000F0DA800BE100BF042817D2022827D013
:10329000012842D1206841694E0600F1DD80416974
:1032A000C90676D427B102F011F9401BB842F1D912
:1032B000206C40F02000206472E000BF206841696B
:1032C0004E0653D44169C90641D427B102F0FEF835
:1032D000401BB842F2D9206C40F0200020643DE051
:1032E0002068406910F0040088EA9006B34609D0CF
:1032F000A2E000BF2068406910F0040088EA900B4B
:1033000040F09A80BAF1000FF4D0002FACD002F058
:10331000DDF8401BB842EDD9A7E72068406910F0FE
:10332000040088EA900B5E4607D04DE020684069B3
:1033300010F0040088EA900646D1BAF1000FF5D0EB
:10334000B7B302F0C3F8401BB842EFD931E06FF0D9
:1033500010014161C4F84090C4F830902020002E44
:1033600084F83D0084F83C9040F191802068616AC7
:1033700000694A1C62620870208D01382085608DCA
:103380000138608520684169490771D50069616A23
:1033900065E06FF010014161C4F84090C4F83090CE
:1033A0002020002E84F83D0084F83C9054D46EE038
:1033B0005E462020C4F8309084F83D00F00784F881
:1033C0003E9084F83C906AD12068616A026822F4D9
:1033D0008062026000694A1C62620870208D0138B8
:1033E0002085608D013860852068406910F00400F8
:1033F00022D188EA900B5E4607E000BF2068406952
:1034000010F0040088EA900616D1BAF1000FF5D04A
:103410002FB102F05BF8401BB842EFD900E05E46E6
:103420002020C4F8309084F83D0084F83E90F007E6
:1034300084F83C9033D100BF2068616A026842F48E
:103440000072026000694A1C62620870208D0138B7
:103450002085608D013860852068616A00694A1C9A
:1034600062620870208D01382085608D013860858A
:10347000208D00287FF408AF202084F83D00002034
:1034800084F83E0084F83C0003B0BDE8F08F216C66
:103490000120202908BF032003B0BDE8F08F0320DE
:1034A00003B0BDE8F08F00BF2DE9F04F83B00446B4
:1034B000006899460368019243F4806202600268E2
:1034C000DDF834A042F48072026040690C9E10F076
:1034D00001000F4624D180F0010B06F101085D4682
:1034E00007E000BF2068406910F0010080F001058E
:1034F00016D1B8F1000FF5D036B101F0E7FFA0EB1F
:103500000A00B042EED900E05D4600202021206391
:1035100084F83D10E90784F83E0084F83C000DD1A2
:10352000206807F0FE070761416989072AD44169CD
:1035300049054FD4751C23D026B11BE0032003B0EE
:10354000BDE8F08F00202021206384F83D1084F82E
:103550003C00216C0320042908BF012003B0BDE812
:10356000F08F00BF416989070CD44169490531D406
:10357000002DF7D001F0AAFFA0EB0A00B042E1D87D
:103580002068EFE700200290206850F8141F029195
:103590004168029102990168090614D4751C04E07F
:1035A000206850F8141F09060DD4016849057ED41F
:1035B000002DF5D0002E52D001F088FFA0EB0A00BC
:1035C000B042EDD94BE02068B9F1010F0CD101995F
:1035D000C9B22AE0016841F4007101606FF48061B2
:1035E000416104202064ADE7DDF804804FEA182132
:1035F000016150F8141F090614D4751C05E000BFC2
:10360000206850F8141F09060CD4016849054ED4EF
:10361000002DF5D01EB301F059FFA0EB0A00B04217
:10362000EED91CE020685FFA88F10161206850F84B
:10363000141F090617D4751C05E000BF206850F858
:10364000141F09060FD40168490530D4002DF5D0A8
:103650002EB101F03BFFA0EB0A00B042EED9206C86
:1036600040F0200027E0206800220168334641F442
:103670008071016020464FF00111CDF800A0FDF7E8
:1036800023FF00287FF45AAF206847F00101016151
:103690000221C0F2010120463246534600F0B2FF3B
:1036A00000287FF456AF002003B0BDE8F08F6FF420
:1036B000806101600420206400202021206384F8C0
:1036C0003D1084F83C00206C04287FF437AF20685C
:1036D000016841F400710160012003B0BDE8F08F82
:1036E00070B581B00024009490F83D40202C21D189
:1036F00040F20414C2F20004246819254FEAD40CE5
:103700004BF28954C1F2F844ACFB044EDDE9056C80
:103710004FEA1E2465430095009D6C1E009465B120
:10372000D0F800E0DEF81840A407F5D490F83C404B
:10373000012C0CD1022001B070BD002120220163B8
:1037400080F83D2080F83C10032001B070BD0124BA
:1037500080F83C40DEF80040E40705D1DEF8004088
:1037600044F00104CEF80040DEF8004024F4006488
:10377000CEF80040212480F83D40402480F83E40AF
:103780000024046446620026CFF6FF76A0F828C025
:10379000A0F82AC0C66241648264C3640465DEF88E
:1037A000001041F48071CEF8001080F83C40DEF843
:1037B0000410002041F4E061CEF8041001B070BDA7
:1037C00070B581B00024009490F83D40202C21D1A8
:1037D00040F20414C2F20004246819254FEAD40C04
:1037E0004BF28954C1F2F844ACFB044EDDE9056CA0
:1037F0004FEA1E2465430095009D6C1E009465B140
:10380000D0F800E0DEF81840A407F5D490F83C406A
:10381000012C0CD1022001B070BD002120220163D7
:1038200080F83D2080F83C10032001B070BD0124D9
:1038300080F83C40DEF80040E40705D1DEF80040A7
:1038400044F00104CEF80040DEF80040002524F4E6
:103850000064CEF80040222480F83D40402480F8E7
:103860003E400024CFF6FF7504644662A0F828C0ED
:10387000A0F82AC0C56241648264C3640465DEF8AE
:103880000010BCF1000F41F48061CEF80010DEF8AA
:10389000001041F48071CEF8001080F83C404FF0E9
:1038A000000006D0DEF8040040F4E060CEF804002A
:1038B000002001B070BD00BF2DE9F04385B0044683
:1038C0000020984616460F46049001F0FFFD94F83C
:1038D0003D1020291ED140F20411C2F200010968F6
:1038E0004BF28952C908C1F2F842A1FB0212DDE98C
:1038F0000C13120A19256A43049200BF049A551E3C
:1039000004955AB122689569AD07F7D494F83C50F4
:10391000012D0ED1022005B0BDE8F083002020214A
:10392000206384F83D1084F83C00032005B0BDE816
:10393000F083012584F83C501568ED0703D1156824
:1039400045F001051560156825F4006515604FF018
:10395000210584F83D504FF0400584F83E504FF06B
:103960000005256440F20005CFF6FF7561622385EE
:103970006385E56263B3656B42F6650CC0F6000CC7
:1039800042F6DD0EC0F6000EC5F83CC04FF0000C4C
:10399000103281462846C5E910CCC5E912CEC5F8DB
:1039A00050C0FCF789FF232520463946324643465E
:1039B000CDE90059FFF7E4FA70B1216C002084F8DA
:1039C0003C000320042908BF012005B0BDE8F083B6
:1039D000002005B0BDE8F0830020039021684A690B
:1039E00003928A690392039A84F83C004A6842F47D
:1039F00080724A604A6842F400624A6005B0BDE8DD
:103A0000F08300BF2DE9F04786B0044600201D4634
:103A100016460F46059001F059FD94F83D102029F7
:103A20001ED140F20411C2F2000109684BF2895222
:103A3000C908C1F2F842A1FB0213DDE90E28190AF8
:103A400019235943059100BF05994B1E059359B1A0
:103A500021688B699B07F7D494F83C30012B0ED179
:103A6000022006B0BDE8F08700202021206384F802
:103A70003D1084F83C00032006B0BDE8F087012328
:103A800084F83C300B68DB0703D10B6843F001037B
:103A90000B60814608684FF0000C20F4006008605D
:103AA000222084F83D00402084F83E000020CFF61C
:103AB000FF70C4F840C06262A4F82A80E062638D9F
:103AC00023852BB3A06B42F6650E42F6DD0AC0F6E5
:103AD000000EC0F6000A1031C0E90FECC0E911CCAD
:103AE000C0E913ACFCF7E8FE4FF0230C2046394642
:103AF00032462B46CDE900C9FFF7D6FC98B92068BD
:103B0000B8F1010F2ED1016821F4806101602DE030
:103B10004FF0230C2046394632462B46CDE900C9EA
:103B2000FFF7C2FC50B1216C002084F83C00032058
:103B3000042908BF012006B0BDE8F08700200390EB
:103B400021684A6903928A690392039A0A6842F4D7
:103B500000720A60202184F83D1084F83C0006B011
:103B6000BDE8F087416841F4805141600020049035
:103B700021684A6904928A690492049A84F83C0094
:103B80004A6842F480724A604A6842F400624A60BD
:103B900006B0BDE8F08700BF2DE9F04F83B01D46A9
:103BA00091468846044601F091FC94F83D10202986
:103BB00018D107462068806986070FD501F086FC7A
:103BC000C01B1A28F6D300202021002E206384F881
:103BD0003D1084F83E0084F83C0003D494F83C0087
:103BE000012803D1022003B0BDE8F08F4FF0010B94
:103BF000206884F83CB00168C90703D1016841F02E
:103C0000010101600168B9F1010F21F40061016057
:103C10004FF0240084F83D004FF00000206440F293
:103C20000000CFF6FF70E06208F0FE00019098BF40
:103C3000D946CDF8009005F101094FF0A00805E044
:103C4000009883450BF1010B00F09A802068016811
:103C500041F480710160406910F0010022D180F0D0
:103C60000106B24607E000BF2068406910F001007D
:103C700080F0010A16D1B9F1000FF5D02DB101F095
:103C800025FCC01BA842EFD900E0B246002120204D
:103C9000216384F83D005FEACA7084F83E1084F81E
:103CA0003C1069D120680199016101F00FFC216885
:103CB00007464B694A6994F83D109B071CD412F4DF
:103CC000806019D1A02917D045B101F0FFFBC01BBE
:103CD000A84288BF84F83D8002E000BF84F83D80A0
:103CE00020684269416994F83D00920704D411F4B8
:103CF000806101D1A028E7D1202084F83D00206810
:103D000041690268890742F40072026019D46FF4B5
:103D1000806141612068806986077FF591AF01F07D
:103D2000D5FBC01B1A28F5D300202021002E2063CC
:103D300084F83D1084F83E0084F83C007FF580AFA5
:103D40001AE0002102914169029180690290029873
:103D500020688069850715D501F0B8FBC01B1A28BB
:103D6000F6D300202021002D206384F83D1084F834
:103D70003E0084F83C0006D5032003B0BDE8F08F78
:103D8000012000E00020202184F83D10002184F86B
:103D90003C1003B0BDE8F08F2DE9F04181B001681F
:103DA00040F2020C8D694B694A6890F83E70C0F28F
:103DB000010C402F01D0102F3AD113F0011F02F453
:103DC000007E18BFBEF1000F5FD10CF10604234244
:103DD00018BFBEF1000F78D113EA0C0F18BFBEF167
:103DE000000F00F09B8190F83E70D0F82C80066B9D
:103DF00090F83D40222C79D1046D002C08BF402F53
:103E000074D0046D002C40F0E2800469B4F5404F9A
:103E100040F0DD80002400944C6900948C6900948B
:103E2000009C0C6844F480740C60016D013174E1F5
:103E300013EA0C0F02F4007418BF002C33D10CF1FC
:103E40000E073B4218BF002C66D104260CF1020776
:103E5000C0F21006354203EA070679D00CF17E075E
:103E60003B4218BF12F4806240F08580002E18BFDC
:103E7000002C00F08581428D002A00F08181426A89
:103E8000531C436212780A61A1E290F83E40402C34
:103E90001FD1046D466C002C06F0FE0424D044F0C3
:103EA00001040C613AE18A698F6902F0040201237E
:103EB00083EA92013A064FF0180258BF0C22825A48
:103EC00001B0BDE8F04100F063BB446CE4B20C61AA
:103ED00024E10469B4F5804F10D190F83D40466C60
:103EE000212C06F0FE04DAD10C6117E100240094C5
:103EF0004C6900948969009100990FE1046D002CD0
:103F00005ED0046D012C40F00981446C062606EA5F
:103F1000D414F1340C6101E190F83D204B6823F496
:103F2000E0634B60002300934B6900930B6843F000
:103F300001030B60009B0B6823F480630B604B68EC
:103F40001B056AD590F83D30222B5CD1382360E008
:103F50000CF13E073B4218BF12F480624DD1002E97
:103F600018BF002C00F00C81428D002A00F008815F
:103F70000969426ADEE1002E7FF478AF90F83D20B7
:103F8000438D002B00F0FC80436A5F1C47621B7866
:103F90000B61438D013B4385438D002B08BF292ACC
:103FA00040F0EE804A6822F480624A602121016379
:103FB000282180F83D1001B0BDE8F04100F0E4BADE
:103FC000446C062606EAD414F0340C61A6E0448D55
:103FD000002C00F08380448D012C67D118F5803FC0
:103FE00072D10C6824F480640C604C68240575D58B
:103FF0000C6824F480640C6087E0002EAFD101B01F
:10400000BDE8F041F8E190F83D7034232A2F08BF55
:104010003823C3581B685B684385438DD3B14B6914
:104020005B0707D50969436A5F1C47621970418DB8
:104030000139418501684B695B0607D50969436A07
:104040005F1C47621970418D01394185016C41F057
:1040500004010164016C21B101B0BDE8F041FEF73B
:1040600035BDA2F1280102290FD80021CFF6FF713A
:10407000C16200212022016380F83D2080F83E10BB
:1040800001B0BDE8F04100F085BA016B222918BFEC
:10409000222A75D100212022016380F83D2080F87A
:1040A0003E1001B0BDE8F04100F070BA448D022C22
:1040B00020D1C66A0C68022E1DD024F480640C60E6
:1040C0000C6844F4006418E0122E18BFB8F1040F15
:1040D00040F083810C6824F480640C600024009418
:1040E0004C6900948C690094009C0C6844F4007442
:1040F0000C6011E00C6844F480640C604C6824058A
:1041000003D54C6844F480544C60002400944C69FE
:1041100000948969009100990021016504240CF143
:104120000201C0F21004254201EA03011CD00CF187
:104130007E073B4218BF12F4806224D1002918BFC9
:10414000BEF1000F1CD0C16A90F83D20212A17D182
:10415000428D002A40F0358111F5803F18BF0429B7
:1041600073D0082971D0C8E00CF13E073B4218BF5C
:1041700012F480622FD1002918BFBEF1000F50D178
:1041800001B0BDE8F0810029D8D190F83D1090F839
:104190003E30C26A078D002F08BF212950D0212947
:1041A00003D0402B08BF2229EAD1418D002900F01D
:1041B0009A8090F83E10402940F00381016D00295B
:1041C00000F0C780016D012940F0CD800168826C4C
:1041D000D2B20A61EAE00029CDD190F83D1022293F
:1041E000CED1428D042A80F0A2800168022A0B6899
:1041F00023F480630B6080F0A180C26A022A03D19D
:104200000A6842F400620A604A6822F4E0624A6086
:104210000969426A531C43621170418D013941851D
:1042200051E0C16A428D032A28D111F5803F18BFA1
:10423000082979D101680A6822F480620A6076E070
:1042400012F5803F18BF042A55D101684A6822F44C
:10425000E0624A600A6842F400720A60002120228B
:10426000016380F83D2090F83E2080F83E10402AFF
:1042700050D101B0BDE8F04100F08EB9428D022A64
:1042800055D111F5803F18BF04297CD102684FF445
:1042900000711368194311600168426A0969531C6F
:1042A00043621170418D013941850168426A096993
:1042B000531C43621170418D0139418501684A6880
:1042C00022F440724A60202180F83D1000210163F1
:1042D00090F83E2080F83E10402A20D101B0BDE881
:1042E000F04100F05BB90068416821F480614160F1
:1042F00001B0BDE8F081082AA7D001684A6822F41D
:10430000E0624A6011210163002180F83E10202103
:1043100080F83D1001B0BDE8F04100F031B901B0C6
:10432000BDE8F04100F02EB904293FF483AF0168E5
:10433000426A0969531C4362117048E0086840F4FE
:1043400000600860486820F48060486001B0BDE803
:10435000F081C26C816C012A24D10268C9B211615A
:10436000016D023124E0016D02297FF409AF90F85C
:104370003D10222920D10068016841F4807101605C
:1043800001B0BDE8F08108293FF480AF026801392F
:104390001368022923F480631360BFF47DAF4FF4E8
:1043A000807176E70268C1F307211161016D013167
:1043B000016501B0BDE8F08190F83D1021297FF43E
:1043C000DFAE416A02684B1C436209781161418D7E
:1043D0000139418501B0BDE8F081B8F1080F3FF423
:1043E00079AEC46A0E68022C26F4806608BF06F512
:1043F00080660E6089E600BF90F83DC0428D002ABD
:1044000008BF70470268436A1269591C41621A70FA
:10441000418D01394185418D002908BFBCF12A0F2A
:1044200000D0704701684A6822F480624A60222105
:104430000163282180F83D1000F0A8B870B501682C
:1044400040F200134D694A68C0F201031D4202F4B4
:10445000807618BF002E06D0026C42F00102026482
:104460006FF480724A6115F4813F18BF002E06D0A8
:10447000026C42F0020202646FF400724A6115F4A9
:10448000823F18BF002E19D090F83E20448D90F83E
:104490003D30D0F830C0202A08BF002C23D0026C59
:1044A00042F00402026490F83E20102A03D10A6808
:1044B00042F400720A606FF480624A6115F4843F2E
:1044C00018BF002E07D00168026C42F00802026497
:1044D0006FF400624A61016C002908BF70BDBDE83D
:1044E0007040FEF7F3BA03F0F702212A04D0282B1C
:1044F00008BFBCF1210FD2D190F83D20C36A6FF004
:104500000404043B234208BF282A1DD0212AD2D10B
:104510000022CFF6FF72C26221220263202280F8BD
:104520003D20002280F83E204A68044622F4E062E2
:104530004A606FF480624A610A6822F480620A600D
:1045400000F022F82046B9E70022CFF6FF72C262DF
:104550004A68044622F4E0624A606FF480624A616D
:104560000A6822F480620A6000212022016380F838
:104570003D2080F83E1000F00DF820469EE700BF79
:10458000704700BF704700BF704700BF704700BF53
:10459000704700BF704700BF704700BF704700BF43
:1045A000704700BF704700BF90F83D00704700BFE4
:1045B00090F83E00704700BF006C7047806B016848
:1045C000D0E90D3C0A6822F480620A60002242852C
:1045D0001A65CCF8502090F83DC02023BCF1600F44
:1045E00080F83D3080F83E2006D102640A6822F04F
:1045F00001020A60FFF7D6BF0A6822F001020A60D2
:10460000FFF7CEBF2DE9F0410446006898464369A4
:104610008FB203EA0701B94202D10020BDE8F08160
:104620004169490512D41646551C00BF35B1C6B1C3
:1046300000F04CFFA0EB0800B04212D8206841699E
:104640003940B942E9D041694905EFD5016841F4E3
:10465000007101606FF480614161042020640120D9
:1046600000E0032000212022216384F83D2084F80B
:104670003C10BDE8F081000090F83D20202A1CBFCE
:1046800002207047242280F83D200268136823F03E
:1046900001031360536A23F010035362536A1943F2
:1046A0005162116841F001011160202180F83D1034
:1046B0000020704790F83D20202A1CBF0220704740
:1046C000242280F83D20026889B2136823F0010398
:1046D0001360D2F824C04FF6F07303EA0C031943B9
:1046E0005162116841F001011160202180F83D10F4
:1046F00000207047704700BF704700BF704700BF81
:1047000070470000704700BFF0B581B004460078E4
:1047100043F60006C007C4F2020644D0B06800F0B9
:104720000C00042805D1306880033CD56068D0BBFC
:1047300064E0B06800F00C00082802D17068400204
:10474000F1D465683068B5F5A02F05D0B5F5803F88
:1047500009D140F480300CE040F4802030603068B3
:1047600040F4803005E020F480303060306820F480
:104770008020306000F0AAFE002D054610D000BF5A
:10478000306880030FD400F0A1FE401B6428F7D9E5
:10479000EFE000BF00F09AFE401B642800F2E980C1
:1047A00030688003F6D42078800718D5B06810F000
:1047B0000C0F07D0B06800F00C00082857D17068C3
:1047C000400254D43068800702D5E068012815D132
:1047D0003068216920F0F80040EAC100306020789C
:1047E00000070ED42078400721D4A569002D00F0E1
:1047F000EF80B06800F00C0008286BD1012001B0F8
:10480000F0BD6069002851D00020C4F2472001218A
:10481000C0F8801E00F05AFE054600BF706F80078A
:10482000E0D400F053FE401B0228F7D9A1E000209D
:104830000090306C47F2000740F080503064306CDC
:10484000C4F2000700F0805000900098386840F4EF
:104850008070386000F03AFE054600BF3868C00539
:104860001BD400F033FE401B0228F7D981E0E0683A
:10487000002840F20000C4F247204CD00121016022
:1048800000F024FE054600BF30688007A0D400F089
:104890001DFE401B0228F7D96BE0A568306F052D7F
:1048A00048D0012D4DD140F0010050E00020C4F26D
:1048B00047200021C0F8801E00F008FE054600BF1A
:1048C000706F80077FF58EAF00F000FE401B02285E
:1048D000F6D94EE00027C4F247270020386600F0E2
:1048E000F5FD022D05460BD1306880014FD500F053
:1048F000EDFD401B02284FF00300F5D966E000BF34
:104900003068800164D500F0E1FD401B03284FF0C2
:104910000300F5D35AE00021016000F0D7FD054601
:10492000306880077FF55BAF00F0D0FD401B0228A8
:10493000F6D91EE040F004003067306F40F001000F
:1049400005E020F001003067306F20F00400306790
:1049500000F0BCFD002D054641F2883713D000BFA2
:10496000306F80073FF541AF00F0B0FD401BB8420B
:10497000F6D9032001B0F0BD00F0A8FD401BB842FD
:104980004FF0030022D8306F8007F5D42DE704F1F3
:104990001C052FCD084340EA8210D9034FF6FF7261
:1049A0009143A1F5803140EA056008437060012021
:1049B000386600F08BFD04463068800108D400F0B2
:1049C00085FD001B02284FF00300F5D901B0F0BDB2
:1049D000002001B0F0BD00BF2DE9F04143F608070B
:1049E000C4F20207D7F8F8230D4602F00F01A942DE
:1049F000044607D287F8F853D7F8F80300F00F0001
:104A0000A8425AD12068810705D53968A26821F0EB
:104A1000F00111433960C00735D1D7F8F80300F031
:104A20000F00A84207D987F8F853D7F8F80300F029
:104A30000F00A84241D12068410705D53968E268D6
:104A400021F4E05111433960000706D53868216927
:104A500020F4604040EAC100386000F07DF8396819
:104A600046F62C72C1F30311C0F60002515CC84037
:104A700040F20411C2F2000108600F20FBF7C2FBF4
:104A80000020BDE8F0816068811E022907D257F836
:104A9000081C89015CBF0120BDE8F08110E00128FD
:104AA00007D157F8081C89035CBF0120BDE8F081DD
:104AB00006E057F8081C890702D40120BDE8F08100
:104AC000396821F003010843386000F0FFFC616899
:104AD0000646012941F2883837D0022927D0032918
:104AE0000ED100BF386800F00C000C2895D000F003
:104AF000EDFC801B40454FF00300F3D9C1E700BF38
:104B0000386810F00C0F3FF488AF00F0DFFC801B1A
:104B100040454FF0030088BFBDE8F081F0E700BFDB
:104B200000F0D4FC801B40454FF00300A9D8386842
:104B300000F00C000828F3D16FE700BF00F0C6FCBE
:104B4000801B40454FF003009BD8386800F00C00F4
:104B50000428F3D161E700BF43F60401C4F2020167
:104B6000486800F00C0242F20040082AC0F2F4004B
:104B700007D0042A18BF704741F20020C0F27A0023
:104B80007047D1F800C00B680A685B0241F200234D
:104B90000CF03F0CC0F27A0358BF0346B3FBFCF0A5
:104BA0000968C2F388125043C1F30141022202EBAB
:104BB0004101B0FBF1F0704770B586B043F63006A6
:104BC000002840F2000014460D46C4F20206C4F26A
:104BD00002004FF000011FD00191326800F5006023
:104BE00042F004023260326802F004020192019A3B
:104BF0004FF400720192022202920322CDE90312C5
:104C0000059101A9FCF7CCF856F8280C20F0784063
:104C100040EAC40028431BE00191326842F00102DF
:104C20003260326802F001020192019A4FF4807200
:104C30000192022202920322CDE90312059101A9F9
:104C4000FCF7AEF856F8280C20F0EC60284320431F
:104C500046F8280C06B070BD4C20C4F24720012154
:104C6000016070474C20C4F247200021016070476A
:104C700040F20410C2F200000068704740F20410D5
:104C800043F60801C2F20000C4F20201006809689C
:104C900046F63C72C1F38221C0F60002515CC84066
:104CA000704700BF40F2041043F60801C2F2000052
:104CB000C4F202010068096846F63C72C1F3423151
:104CC000C0F60002515CC840704700BF43F60001C7
:104CD0000F22C4F2020102600A68520306D40A6875
:104CE000D20354BF00224FF4803201E04FF4A022DF
:104CF00042600A6802F00102C2600A68C2F3C4029C
:104D000002610A6F520705D40A6FD2070CBF002256
:104D1000012200E0052282604A6F4FF4C02302F0B6
:104D2000010242610A68D2014FF0020258BF01221B
:104D300082614A6802F48002C2614A6802F03F025E
:104D400002624A68C2F3881242624A6803EA420277
:104D500002F50032120C82624968C1F30361C1623C
:104D6000704700BF0F22026043F60802C4F202023D
:104D7000136803F003034360136803F0F0038360D8
:104D8000136803F4E053C360D2F800C04FF4E0535B
:104D900003EADC030361D2F8F80300F00F000860B7
:104DA000704700BF10B543F60C04C4F2020420683B
:104DB000000658BF10BD00F003F88020A07010BDA1
:104DC0007047000070B592B0002543F64000019591
:104DD000C4F202000168012441F0805101600068C2
:104DE000022600F080500190019847F200000195E2
:104DF000C4F20000016841F440410160006800F421
:104E00004040019001984FF4803002904FF48000B0
:104E10000890082009904FF4A8700A9004200B9085
:104E200007200C9001A8019404950796FFF76CFCED
:104E300078B90F200D904FF48050CDE910050DA8E2
:104E40000621CDE90E65FFF7C7FD0446002818BF0F
:104E50000124204612B070BD2DE9F04F81B0002929
:104E6000009351D000F1007743F6300607F1FF7749
:104E7000C4F20206C7F38F274FF00108356808FA1D
:104E800007F72F433760C0F3872740F2281B87F0CE
:104E9000800EA2F1010A0027C2F2000B002604E0F6
:104EA0000136102E07F102072ED008FA06F40C4244
:104EB000F6D03BF81E50032325432BF81E50C5683F
:104EC00003FA07FC0A9B25EA0C0503FA07F945EAF1
:104ED0000905C560056802FA07F325EA0C052B43AE
:104EE000BAF1010F0360DBD843686FEA0C05A343F6
:104EF000009CB440A4B22343436083682B400B9DC5
:104F0000BD402B438360CBE701B0BDE8F08F00BF0D
:104F100000F1007043F6300200F1FF70C4F20202AB
:104F2000C0F38F200121136801FA00F018431060CC
:104F3000704700BF2DE9F04F81B0C0F3872740F2E2
:104F4000281B87F0800CA2F1010A00264FF001080F
:104F5000C2F2000B0025009305E000BF0135102DC3
:104F600006F102062ED008FA05F70F42F6D03BF8FC
:104F70001C4003233C432BF81C40C46803FA06FE84
:104F80000A9B24EA0E0403FA06F944EA0904C46001
:104F9000046802FA06F324EA0E042343BAF1010F6F
:104FA0000360DBD84368009CBB43AC40A4B22343FE
:104FB000436083686FEA0E073B400B9FB7403B435B
:104FC0008360CBE701B0BDE8F08F00BF002908BFC8
:104FD00070472DE9F04F00F1007443F6300604F1FC
:104FE000FF74C4F20206C4F38F240125376805FA62
:104FF00004F4DDF828E03C43346000F1200A002688
:105000006FF003084FF00F09002404E00134102C66
:1050100006F1040614D021FA04F5ED07F6D008EAEB
:1050200054055AF805B006F01C0709FA07FC2BEAEC
:105030000C0C0EFA07F747EA0C074AF80570E5E78B
:10504000C0F3872740F2281C87F0800E00244FF021
:10505000010AC2F2000C002705E000BF0137102F43
:1050600004F102042CD00AFA07F50D42F6D03CF800
:105070001E6003FA04F82E432CF81E60D0F80CB022
:10508000032606FA04F92BEA090B4BEA0806C66068
:10509000066826EA09080226A64046EA08060660CF
:1050A000466826EA050502FA07F6B6B235434560BA
:1050B0008568099E25EA0905A64035438560CDE748
:1050C000BDE8F04F704700BF2DE9F041C0F38722E3
:1050D00040F2281882F0800200234FF0010C4FF0BC
:1050E000030EC2F20008002507E000BF0135102DB5
:1050F00003F1020308BFBDE8F0810CFA05F60E4289
:10510000F4D007680EFA03F43C43046038F8124008
:10511000B44328F81240E9E700F1007000F1FF7095
:10512000C0F38F20704700BF10B54FF0000E4FF056
:10513000030C002306E000BF0133102B0EF1020E1A
:1051400008BF10BD21FA03F2D207F5D002680CFAAD
:105150000EF4A2430260EFE7B0B500224FF0030C5B
:105160004FF0010E002305E00133102B02F1020283
:1051700008BFB0BD21FA03F4E407F5D004680CFAC7
:1051800002F5AC430EFA02F52C430460ECE700BFD5
:1051900010B54FF0000E4FF0030C002306E000BFE7
:1051A0000133102B0EF1020E08BF10BD21FA03F2DD
:1051B000D207F5D002680CFA0EF422430260EFE742
:1051C000B0B500224FF0030C4FF0020E002305E0B3
:1051D0000133102B02F1020208BFB0BD21FA03F423
:1051E000E407F5D004680CFA02F5AC430EFA02F5B8
:1051F0002C430460ECE700BFB0B54FF0000E4FF059
:10520000030C002306E000BF0133102B0EF1020E49
:1052100008BFB0BD21FA03F4E407F5D0C4680CFA66
:105220000EF5AC4302FA0EF52C43C460ECE700BF68
:1052300001F58032C261C161C261C169C069704754
:105240000021022805D300BF013103284FEA500096
:10525000FAD888B2704700BF00F1007043F6300200
:1052600000F1FF70C4F20202C0F38F200121136825
:1052700001FA00F023EA00001060704700F10070AE
:1052800000F1FF7040F22811C0F38F20C2F200013C
:1052900031F81000704700BF00F1007000F1FF709E
:1052A00040F22811C0F38F20C2F2000131F8100043
:1052B0004FF6FF71484070474EF6FC50CEF20000AA
:1052C000016821F080710160016841F08071016026
:1052D00041F20000CEF20000016821F001010160FE
:1052E000016841F00101016000214160416800BF97
:1052F00000BF4068401A70472DE9F04381B040F28A
:105300001018C2F2000898F80040042C1ED8064677
:105310001420994615460F4601F0D2FDB0B1089908
:10532000027807F0010302F0FC0265F34103C0E9D3
:105330000391611C1A4488F8001008EB8401027084
:10534000C0E90166486001B0BDE8F083002001B00B
:10535000BDE8F08370B540F2101CC2F2000C9CF85E
:10536000004084B1002100220CEB81035B68834282
:105370000ED00132A24201F10101F5D323461146BC
:10538000A34204D007E000230021A34203D170BD53
:105390001346A342FBD00CEB81004068EFF310866C
:1053A000EFF3108172B69CF80010013999420ADDC2
:1053B0000CEB8302141D224652F8045F0133256072
:1053C00099421446F8DC8CF8001001F051FD002ED3
:1053D00018BF70BD62B670BD017801F0FD010170AB
:1053E000704700BF017841F002010170704700BFB3
:1053F00041688160704700BF0278002918BF012111
:1054000002F0FE0211440170704700BF4160704716
:10541000704700BF40F24C50C2F2000001680131F9
:10542000016040F25050C2F20000016811B1016801
:105430000139016070B540F21014C2F20004207806
:1054400018B3002504E000BF2078013585421CD246
:1054500004EB850670680028F6D001788907F3D53B
:10546000816800291CBF0139816081680029EBD166
:10547000D0E903219047706801784268CB078260C9
:1054800004BF01F0FC010170DEE7BDE87040FFF7EA
:10549000BFBF00BFEFF3058169B1002808BF7047A7
:1054A0004EF21001CEF200010A68D20300EBE27066
:1054B0000028F9D108E040F24C51C2F200010A681C
:1054C0000B689B1A8342FBD3704700BF40F24C50DD
:1054D000C2F200000068704710B582B040F6004488
:1054E000C4F202044FF0030C4FF0000E20464FF4BC
:1054F000704101220023CDE900ECFFF7ADFC4FF035
:105500007040A06102B010BD80B582B000204FF0A5
:10551000000C4FF0020EC4F2020001210022002311
:10552000CDE900ECFFF798FC02B080BD1020C4F27A
:105530000200006840F24851C007C2F2000102BFF9
:105540000020087070470878002812BF0020012052
:10555000087070471020C4F20200006840F2485101
:10556000C007C2F2000107D1087800284FF0000000
:1055700008BF7047012201E0002201200870104698
:105580007047000045F20041C4F20001884216D085
:1055900045F60041C4F2000188420BD045F60001F7
:1055A000C4F20001884212BF002040F25C00C2F247
:1055B0000000704740F2B000C2F20000704740F2B5
:1055C0000800C2F2000070472DE9F04186B016468F
:1055D00045F20042C4F2000245F6004445F60003DD
:1055E0009042C4F20004C4F200030ED0A04207D0DF
:1055F000984212BF002540F25C05C2F2000508E0A7
:1056000040F2B005C2F2000503E040F20805C2F224
:105610000005A042286044D0984222D0904240F039
:10562000BE800020059043F64000C4F202000268EC
:10563000052942F400120260006800F40010059091
:10564000059800F2AC80DFE801F0039187AAAAA1D7
:1056500040F200404FF0040C0124C4F20200C021CB
:105660008DE00020049043F64000C4F2020002687E
:10567000052942F480020260006800F48000049072
:1056800004984AD002293DD0002940F0888040F299
:1056900000404FF0040C0124C4F202004FF44061BA
:1056A0006DE00020039043F64000C4F2020002685F
:1056B000052942F400020260006800F40000039033
:1056C000039842D001292FD0002968D140F200442C
:1056D000C4F20204A4F580604FF0040801274FF4DF
:1056E000807101220123CDE90078FFF76FFC04F5FA
:1056F00080604FF4007101220123CDE90078FFF7AB
:1057000065FC4CE040F20040C4F2020000F5C050DD
:105710004FF0040C0124302131E040F20040C4F28B
:105720000200A0F5D63037E040F20040C4F202009B
:1057300000F5C050042701244FF4C0710122012359
:10574000CDE90047FFF742FC29E040F20040C4F2F7
:105750000200A0F5D4301FE040F200404FF0040CEE
:105760000124C4F202004FF4107108E040F200403E
:105770004FF0040C0124C4F202004FF440710122E6
:105780000123CDE9004CFFF721FC08E040F2004086
:10579000C4F20200A0F5D830042100F0DDFA0020A8
:1057A0004FF48041C5E90160C5E90301C5E9050081
:1057B000C5E907002846FBF76DFC28460021FEF7E7
:1057C0005BFF002006B0BDE8F08100BFF0B583B0FC
:1057D0000D4645F20041C4F200011C4688428DF896
:1057E0000B2016D045F60041C4F2000188420BD0D0
:1057F00045F60001C4F20001884212BF002640F2C3
:105800005C06C2F2000608E040F2B006C2F20006F2
:1058100003E040F20806C2F200064FF47A770DF179
:105820000B023046294601230097FBF7D1FC38B91B
:1058300030462946224601230097FBF7ADFE28B1EA
:105840003046FEF7B9FE012003B0F0BD002003B0E2
:10585000F0BD00BFF0B583B00D4645F20041C4F283
:1058600000011C4688428DF80B2016D045F60041F9
:10587000C4F2000188420BD045F60001C4F20001D9
:10588000884212BF002640F25C06C2F2000608E021
:1058900040F2B006C2F2000603E040F20806C2F28F
:1058A00000064FF47A770DF10B02304629460123AA
:1058B0000097FBF78DFC38B9089B304629462246F5
:1058C0000097FBF769FE28B13046FEF775FE012010
:1058D00003B0F0BD002003B0F0BD00BF10B582B032
:1058E00045F20043C4F20003984216D045F6004347
:1058F000C4F2000398420BD045F60003C4F2000343
:10590000984212BF002440F25C04C2F2000408E096
:1059100040F2B004C2F2000403E040F20804C2F214
:1059200000044FF47A7C20460123CDF800C0FBF739
:1059300033FE28B12046FEF73FFE012002B010BD25
:10594000002002B010BD00BF10B582B045F2004487
:10595000C4F20004A04216D045F60044C4F200048C
:10596000A0420BD045F60004C4F20004A04212BFCE
:10597000002440F25C04C2F2000408E040F2B004EB
:10598000C2F2000403E040F20804C2F200044FF443
:105990007A7C2046CDF800C0FBF7FEFD28B12046FA
:1059A000FEF70AFE012002B010BD002002B010BDBB
:1059B00010B582B045F20044C4F20004A04216D0F3
:1059C00045F60044C4F20004A0420BD045F60004A2
:1059D000C4F20004A04212BF002440F25C04C2F2F0
:1059E000000408E040F2B004C2F2000403E040F218
:1059F0000804C2F200048DF806208DF807304FF439
:105A00007A7C0DF1060220460223CDF800C0FBF798
:105A1000DFFB28B12046FEF7CFFD012002B010BD0C
:105A2000002002B010BD00BF10B584B045F20044A4
:105A3000DDF818C0C4F20004A04216D045F60044B8
:105A4000C4F20004A0420BD045F60004C4F20004E6
:105A5000A04212BF002440F25C04C2F2000408E03D
:105A600040F2B004C2F2000403E040F20804C2F2C3
:105A700000044FF47A700093029001232046FF2A1D
:105A800088BF1023CDF804C0FDF7AAF928B120463D
:105A9000FEF792FD012004B010BD002004B010BD3F
:105AA00010B582B045F20043C4F2000398428DF86D
:105AB000072016D045F60042C4F2000290420BD0F7
:105AC00045F60002C4F20002904212BF002440F2E8
:105AD0005C04C2F2000408E040F2B004C2F2000428
