:020000040800F2
:1000000058140020C1010008E11F0008E51F000886
:10001000E91F0008ED1F0008F11F000800000000A4
:10002000000000000000000000000000F51F0008B4
:10003000F91F000800000000FD1F0008052000084F
:10004000DB010008DB010008DB010008DB01000820
:10005000DB010008DB0100084D1E0008691E0008D6
:10006000851E0008A11E0008BD1E0008DB01000857
:10007000DB010008DB010008DB010008DB010008F0
:10008000DB010008DB010008DB010008DB010008E0
:10009000DB010008DB010008DB010008D91E0008B5
:1000A000DB010008DB010008DB010008DB010008C0
:1000B000DB010008DB010008DB010008DB010008B0
:1000C000DB010008DB010008DB010008DB010008A0
:1000D000DB010008DB010008DB010008DB01000890
:1000E000391F0008DB010008DB010008DB01000804
:1000F000DB010008DB010008DB010008DB01000870
:10010000DB010008DB010008DB010008DB0100085F
:10011000DB010008DB010008DB010008DB0100084F
:10012000DB010008DB010008DB010008DB0100083F
:10013000DB010008DB010008DB010008DB0100082F
:10014000DB010008DB010008DB010008DB0100081F
:10015000DB010008DB010008DB010008DB0100080F
:10016000DB010008DB010008DB010008DB010008FF
:10017000DB010008DB010008DB01000800000000D3
:10018000DB010008DB010008DB010008DB010008DF
:10019000DB010008DB010008DB010008DB010008CF
:1001A000DB010008DB010008DB010008DFF80CD0F0
:1001B00001F0EAFF00480047AD1F00085814002076
:1001C0000648804706480047FEE7FEE7FEE7FEE7F1
:1001D000FEE7FEE7FEE7FEE7FEE7FEE70920000890
:1001E000AD01000880B543F60040C4F2020001688A
:1001F00041F400710160016841F4806101600168AF
:1002000041F480710160032000F024F90F2000F018
:1002100005F800F02BF8002080BD00BFB0B540F21B
:100220000C02C2F2000240F208011278C2F2000190
:100230004FF47A730968B3FBF2F20446B1FBF2F1B2
:10024000084600F07FF90F2C4FF001050CD858B983
:100250004FF0FF3021460022002500F00BF940F25C
:100260001000C2F2000004602846B0BD704700BF15
:1002700080B543F61000C4F202004FF0FF310022B7
:10028000016102614161426101600260416042605E
:100290008160826000F002F8002080BD704700BFDE
:1002A00040F20C0040F25401C2F20000C2F2000120
:1002B00000780A6810440860704700BF40F254009C
:1002C000C2F200000068704740F21000C2F2000065
:1002D0000068704740F20C02C2F2000213788342B9
:1002E00004BF00207047014640F21000C2F2000037
:1002F00000681170FFF792BF40F20C00C2F20000DC
:1003000000787047B0B5044601F0F2FB054640F2B4
:100310000C00C2F200000078611C18BF044400BF4A
:1003200001F0E6FB401BA042FAD3B0BD4EF2100034
:10033000CEF20000016821F002010160704700BFA9
:100340004EF21000CEF20000016841F0020101609F
:10035000704700BF40F20060C0F20710704700BF56
:1003600042F20000CEF204000068000C704700BFAB
:1003700042F20000CEF2040000686FF31F307047B5
:1003800042F20400CEF20400016841F00101016074
:10039000704700BF42F20400CEF20400016821F071
:1003A00001010160704700BF42F20400CEF2040078
:1003B000016841F002010160704700BF42F2040091
:1003C000CEF20400016821F002010160704700BF15
:1003D00042F20400CEF20400016841F00401016021
:1003E000704700BF42F20400CEF20400016821F021
:1003F00004010160704700BF40F20040C4F22720B2
:1004000001210160704700BF40F20040C4F2272084
:1004100000210160704700BF47F61020C1F6FF7051
:100420000068704747F61420C1F6FF7000687047F7
:1004300047F61820C1F6FF70006870472020C4F20C
:1004400027200121016070472020C4F227200021CD
:10045000016070474EF60C51CEF200010A684FF66B
:10046000FF031A4060F30A2242F0806040F0FD7002
:100470000860704710B54EF60C5CCEF2000CDCF84C
:100480000030C3F3022E8EF00704042C28BF04248E
:10049000BEF103034FF0FF3E0EFA04F438BF002311
:1004A000A14399400EFA03F39A43114300F16042CD
:1004B00000F00F03090102F56442043B6344002885
:1004C00048BF03F10C02117010BD00BF002848BFE7
:1004D000704700F01F01012202FA01F11C2202EA1A
:1004E000D0004EF20012CEF200028150704700BFE1
:1004F000002848BF704700F01F01012202FA01F1F5
:100500001C2202EAD0004EF28012CEF2000281508C
:10051000BFF34F8FBFF36F8F704700BF00F000F83D
:100520004EF60C50BFF34F8FCEF20000016804224C
:1005300001F4E061C0F2FA5211430160BFF34F8F42
:1005400000BFFDE7411E0020B0EB116F1CBF012072
:1005500070474EF21002CEF2000251604EF6235167
:10056000CEF20001F0230B700721906011607047FC
:100570004EF62450BFF35F8FCEF20000016821F4E5
:100580008031016000210167704700BF4EF62451A1
:1005900040F00100CEF200010867086840F48030A6
:1005A0000860BFF34F8FBFF36F8F7047F0B50278CD
:1005B0004EF69C5C4378CEF2000C4CF8043CF2B151
:1005C0004368CCF80030037BC17A90F80AE042EA35
:1005D0000372447B42EA0161857B41EACE41C67BDE
:1005E00041EA8441477A41EA4541007A41EA0641BD
:1005F00041EA072141EA4000CCF80400F0BD0020A8
:10060000CCF80000CCF80400F0BD00BF4EF60C5052
:10061000CEF200000068C0F30220704710B500F170
:10062000604C4EF614540CF5644C00F00F0ECEF2F4
:10063000000401F00701002848BF0EEB040C9CF8F1
:1006400000E081F00704042C4FEA1E1C28BF04249C
:10065000033938BF00212CFA01F04FF0FF3C0CFAAF
:1006600004F4A04310600CFA01F0C04300EA1E102D
:10067000186010BD002848BF704700F01F0101221C
:1006800002FA01F11C2202EAD0004EF20022CEF260
:1006900000028150704700BF002844BF002070470F
:1006A0001C214EF2002201EAD001CEF2000289584C
:1006B00000F01F0021FA00F000F00100704700BFB9
:1006C000002848BF704700F01F01012202FA01F123
:1006D0001C2202EAD0004EF28022CEF200028150AB
:1006E000704700BF002844BF002070471C214EF215
:1006F000003201EAD001CEF20002895800F01F005A
:1007000021FA00F000F00100704700BF4EF2100126
:10071000CEF200010A68042822F0040208BF043265
:100720000A607047AFF30080704700002DE9F04F7A
:1007300083B000F1200200F13E4742F200450192F1
:1007400007F1FF77C4F202050A224FEAB726A84252
:1007500008BF0922092E38BF4FEAB7224FF0010E19
:1007600000274FF000084FF0000900920AE000BF98
:1007700009F1010908F10408B9F1100F07F10207A6
:1007800000F099800D680EFA09FA15EA0A0CEFD00C
:100790004D6845F01005122D14D16FF00302019E33
:1007A00002EA590508F01C020F2356F805B003FAB7
:1007B00002F40B692BEA040403FA02F222434FF01D
:1007C000010E725102680323D1F804B0BB40DD432F
:1007D0009A430BF00303BB401A43BBF1120F0260B4
:1007E00013D80EFA0BF212F0061F0ED08268CB68F7
:1007F0002A40BB401A4382604268CBF3001322EACE
:100800000A0203FA09F31A434260C2688B682A405D
:10081000BB401A435FEACB03C260A9D5002243F66E
:1008200044030292C4F202031A6843F6004642F4FB
:1008300080421A601A68C4F2010602F480420292F1
:10084000029A29F003024FF6084A3244CFF6FF7AA3
:1008500052F80A3008F00C040F25A540AB43009D68
:1008600005FA04F4234342F80A3032684B6842EA3E
:100870000C04DD0358BF22EA0C04346072689D0347
:1008800042EA0C0458BF22EA0C047460B268DD022C
:1008900042EA0C0443F60C4558BF22EA0C04B4604B
:1008A000C4F201052A689B0242EA0C0458BF22EAFE
:1008B0000C042C605CE703B0BDE8F08F2DE9F04F2D
:1008C00082B000F13E4202F1FF7742F20042019114
:1008D000C4F202020A214FEAB726904208BF09215A
:1008E00000F1200E092E38BF4FEAB721002400275F
:1008F0000025009124E000BF0268032101FA04F3FF
:100900009A436FF00301026001EA550607F01C0CE0
:100910005EF806100F2202FA0CF291434EF8061010
:10092000816899438160416821EA0A014160C16898
:100930009943C16001350437102D04F102043CD005
:10094000012101FA05FA01991AEA010CF2D043F6E5
:100950000041C4F20101A1F57E7825F0030307F000
:100960000C0B0F2158F8033001FA0BF9009903EA38
:10097000090301FA0BF29342BED1AA0858F82230BB
:1009800043F6004123EA090348F82230C4F201018A
:100990000A6822EA0C020A604A6822EA0C024A60EB
:1009A0008A6822EA0C028A6043F60C41C4F2010113
:1009B0000A6822EA0C020A609EE702B0BDE8F08FE6
:1009C0000069084018BF0120704700BF002A08BF17
:1009D00009048161704700BF42690A408A4208BF2A
:1009E00009048161704700BF81B04FF480320092EA
:1009F000009A0A430092009AC261C1610099C161E4
:100A0000C1690091C069012100F4803081EA104081
:100A100001B0704743F61441C4F201010A68024272
:100A200014BF0860704700F001B800BF70470000B5
:100A3000B0B5A420C4F20E200121016001F058F8E5
:100A400047F204050446C4F2000500BF2868000709
:100A500007D401F04DF8001BB0F57A7FF6D90320DA
:100A6000B0BD0020B0BD00BFB0B5A420C4F20E20C0
:100A70000021016001F03CF847F204050446C4F28D
:100A8000000500BF2868000707D501F031F8001BFA
:100A9000B0F57A7FF6D90320B0BD0020B0BD00BF0D
:100AA0002420C4F20E200121016070472420C4F2EA
:100AB0000E2000210160704747F20000C4F20000E0
:100AC000006800F4404070472DE9F04182B043F6E1
:100AD00040060021C4F202060191326842F08052C1
:100AE0003260326802F080520192019A56F8382C36
:100AF00002F00C02082A03D1012002B0BDE8F08107
:100B000040F26008C4F247280446C8F8001000F01C
:100B1000EFFF054656F8400C800105D500F0E8FFD0
:100B2000401B0228F6D91FE047F200070020C4F25C
:100B300000070090386820F440402043386038684F
:100B400000F44040009000980120C8F8000000F038
:100B5000CFFF054656F8404C00F0CAFFA1010446FD
:100B60000CD4601B0228F5D9032002B0BDE8F08147
:100B700000F0BEFF001BB0F57A7FF5D8786840041E
:100B8000F6D5002002B0BDE8F08100BF70B582B09C
:100B90000020019043F64000C4F2020001684026A4
:100BA00041F0805101600068C4F20E2600F08050D0
:100BB0000190019847F204050120C4F2000530605D
:100BC00000F096FF044600BF2868C00306D400F07A
:100BD0008FFF001BB0F57A7FF6D90EE00120706020
:100BE00000F086FF044600BF2868800308D400F0A8
:100BF0007FFF001BB0F57A7FF6D9032002B070BDED
:100C0000002002B070BD00BF70B582B0002043F676
:100C100040010190C4F202010A68402642F080526D
:100C20000A600968C4F20E2601F08051019147F272
:100C300004050199C4F20005706000F059FF0446F4
:100C40002868800306D500F053FF001BB0F57A7FBB
:100C5000F6D90EE00020306000F04AFF044600BFE5
:100C60002868C00308D500F043FF001BB0F57A7F69
:100C7000F6D9032002B070BD002002B070BD00BFE5
:100C800080B581B00022009243F64002C4F2020215
:100C900013684EF6105C43F080531360126847F2FD
:100CA000000302F080520092009AC4F200035A68D6
:100CB000CEF2000C42F440225A601A68012942F434
:100CC00040221A60D3F800E040F603422EEA020206
:100CD00040EA02001860DCF8000040F00400CCF8A4
:100CE000000014BF20BF30BFDCF8000020F004017A
:100CF0000020CCF8001001B080BD0000002070473B
:100D0000002804BF012070472DE9F04182B004465D
:100D1000007843F60006C007C4F2020649D0B06866
:100D200000F00C00042809D13068800341D56068C8
:100D300000283ED1012002B0BDE8F081B06800F08B
:100D40000C00082802D170684002EDD46568306854
:100D5000B5F5A02F05D0B5F5803F09D140F480301E
:100D60000CE040F480203060306840F4803005E0D2
:100D700020F480303060306820F48020306000F053
:100D8000B7FE002D054611D03068800311D400F065
:100D9000AFFE401B6428F7D9FAE000BF00F0A8FEC0
:100DA000401B64284FF0030000F2B48030688003D9
:100DB000F4D42078800718D5B06810F00C0F07D055
:100DC000B06800F00C0008285DD1706840025AD469
:100DD0003068800702D5E068012815D130682169A4
:100DE00020F0F80040EAC1003060207800070FD4FE
:100DF0002078400721D4A569002D00F00081B0685B
:100E000000F00C00082871D1012002B0BDE8F0818B
:100E10006069002856D00020C4F247200121C0F8A4
:100E2000801E00F065FE0546706F8007E0D400F07C
:100E30005FFE401B0228F7D9AAE0306C5FEAC008C9
:100E40000AD400200190306C40F080503064306C47
:100E500000F080500190019847F20007C4F20007AB
:100E60003868C00525D4386840F48070386000F0D8
:100E70003FFE05463868C0051BD400F039FE401B14
:100E80000228F7D984E0E068002840F20000C4F2AC
:100E900047204ED00121016000F02AFE054600BF28
:100EA000306880079AD400F023FE401B0228F7D94F
:100EB0006EE0A568306F052D4CD0012D51D140F06A
:100EC000010054E00020C4F247200021C0F8801E39
:100ED00000F00EFE054600BF706F80077FF588AFFB
:100EE00000F006FE401B0228F6D951E00027C4F2AC
:100EF00047270020386600F0FBFD022D05460DD186
:100F0000306880015BD500F0F3FD401B02284FF0F4
:100F10000300F5D902B0BDE8F08100BF3068800160
:100F20006DD500F0E5FD401B03284FF00300F5D31D
:100F3000F0E70021016000F0DBFD05463068800726
:100F40007FF553AF00F0D4FD401B02284FF00300A3
:100F5000F4D9DFE740F004003067306F40F0010063
:100F600005E020F001003067306F20F004003067AA
:100F700000F0BEFD002D054641F2883713D000BFBA
:100F8000306F800712D400F0B3FD401BB842F7D990
:100F9000032002B0BDE8F08100F0AAFD401BB8427A
:100FA0004FF00300B6D8306F8007F5D4B8F1000FCA
:100FB0003FF521AF306C20F0805030641BE704F126
:100FC0001C052FCD084340EA8210D9034FF6FF726B
:100FD0009143A1F5803140EA05600843706001202B
:100FE000386600F085FD04463068800107D400F0C3
:100FF0007FFD001B02284FF00300F5D98AE700208F
:1010000002B0BDE8F08100BF002804BF0120704796
:101010002DE9F04143F60808C4F202080446D8F866
:10102000F8030D4600F00F00884207D288F8F85305
:10103000D8F8F80300F00F00A84271D120688107AA
:1010400017D5410705D5D8F8001041F4E051C8F88C
:101050000010010705D5D8F8001041F46041C8F828
:101060000010D8F80010A26821F0F0011143C8F870
:101070000010C0073AD1D8F8F80300F00F00A842DA
:1010800007D988F8F853D8F8F80300F00F00A84201
:1010900046D12068410707D5D8F80010E26821F44E
:1010A000E0511143C8F80010000708D5D8F8000037
:1010B000216920F4604040EAC100C8F8000000F057
:1010C0004FF8D8F8001042F29422C1F30311C0F691
:1010D0000002515CC84040F20801C2F20001086001
:1010E0000F20FFF79BF80020BDE8F0816068811EAB
:1010F000022907D258F8081C89015CBF0120BDE80D
:10110000F08110E0012807D158F8081C89035CBF62
:101110000120BDE8F08106E058F8081C890702D4D8
:101120000120BDE8F081D8F8001021F00301084348
:10113000C8F8000000F0DCFC064641F2883700BF2A
:10114000D8F80000616800F00C00B0EB810F92D07D
:1011500000F0CEFC801BB842F2D90320BDE8F0813C
:1011600010B543F60404C4F20204606800F00C01F8
:1011700042F200400829C0F2F40007D0042918BF49
:1011800010BD41F20020C0F27A0010BD216801F0CC
:101190003F02216823684902C3F3881105D4A1FBEB
:1011A0000001002300F09FFF06E041F20020C0F2A2
:1011B0007A004843B0FBF2F021680222C1F30141FA
:1011C00002EB4101B0FBF1F010BD00BF70B586B07D
:1011D00043F63006002840F2000014460D46C4F2E3
:1011E0000206C4F202004FF000011FD001913268E4
:1011F00000F5006042F004023260326802F004023E
:101200000192019A4FF4007201920222029203228B
:10121000CDE90312059101A9FFF788FA56F8280CC9
:1012200020F0784040EAC40028431BE00191326876
:1012300042F001023260326802F001020192019A2A
:101240004FF480720192022202920322CDE903122E
:10125000059101A9FFF76AFA56F8280C20F0EC6016
:101260002843204346F8280C06B070BD4C20C4F239
:1012700047200121016070474C20C4F24720002123
:101280000160704740F20800C2F200000068704739
:1012900040F2080043F60801C2F20000C4F2020165
:1012A0000068096842F2A422C1F38221C0F600025C
:1012B000515CC840704700BF40F2080043F6080187
:1012C000C2F20000C4F202010068096842F2A422DE
:1012D000C1F34231C0F60002515CC840704700BF04
:1012E00043F600010F22C4F2020102600A685203B1
:1012F00006D40A68D20354BF00224FF4803201E0C2
:101300004FF4A02242600A6802F00102C2600A683B
:10131000C2F3C40202610A6F520705D40A6FD207F2
:101320000CBF0022012200E0052282604A6F4FF4C8
:10133000C02302F0010242610A68D2014FF00202AA
:1013400058BF012282614A6802F48002C2614A6881
:1013500002F03F0202624A68C2F3881242624A689F
:1013600003EA420202F50032120C82624968C1F3BC
:101370000361C162704700BF0F22026043F608029A
:10138000C4F20202136803F003034360136803F01E
:10139000F0038360136803F4E053C360D2F800C025
:1013A0004FF4E05303EADC030361D2F8F80300F0E2
:1013B0000F000860704700BF10B543F60C04C4F27C
:1013C00002042068000658BF10BD00F003F880201A
:1013D000A07010BD7047000010B592B0002043F619
:1013E00040010190C4F202010A68012442F08052D7
:1013F0000A60096801F080510191019947F20001EA
:101400000190C4F200010A6842F440420A6009688F
:1014100001F44041019101994FF48031029104900F
:101420004FF4800008210890022009914FF4B47114
:101430000790CDE90A1007200C9001A80194FFF74E
:101440005FFCC0B9FFF7A2FB08B1012413E0022042
:101450000E9000200F900F200D904FF4A050109090
:101460004FF4805011900DA80621FFF7CDFD0446E2
:10147000002818BF0124204612B010BD2DE9F04FFE
:1014800081B00029009351D000F1007743F6300677
:1014900007F1FF77C4F20206C7F38F274FF0010868
:1014A000356808FA07F72F433760C0F3872740F203
:1014B000300B87F0800EA2F1010A0027C2F2000B68
:1014C000002604E00136102E07F102072ED008FA9C
:1014D00006F40C42F6D03BF81E50032325432BF8AC
:1014E0001E50C56803FA07FC0A9B25EA0C0503FA9F
:1014F00007F945EA0905C560056802FA07F325EA18
:101500000C052B43BAF1010F0360DBD843686FEA87
:101510000C05A343009CB440A4B2234343608368FA
:101520002B400B9DBD402B438360CBE701B0BDE852
:10153000F08F00BF00F1007043F6300200F1FF7041
:10154000C4F20202C0F38F200121136801FA00F0F7
:1015500018431060704700BF2DE9F04F81B0C0F311
:10156000872740F2300B87F0800CA2F1010A002699
:101570004FF00108C2F2000B0025009305E000BF08
:101580000135102D06F102062ED008FA05F70F429C
:10159000F6D03BF81C4003233C432BF81C40C468A6
:1015A00003FA06FE0A9B24EA0E0403FA06F944EA4B
:1015B0000904C460046802FA06F324EA0E04234313
:1015C000BAF1010F0360DBD84368009CBB43AC4019
:1015D000A4B22343436083686FEA0E073B400B9F2E
:1015E000B7403B438360CBE701B0BDE8F08F00BF5D
:1015F000002908BF70472DE9F04F00F1007443F651
:10160000300604F1FF74C4F20206C4F38F240125EE
:10161000376805FA04F4DDF828E03C43346000F153
:10162000200A00266FF003084FF00F09002404E0A1
:101630000134102C06F1040614D021FA04F5ED074C
:10164000F6D008EA54055AF805B006F01C0709FA66
:1016500007FC2BEA0C0C0EFA07F747EA0C074AF8CE
:101660000570E5E7C0F3872740F2300C87F0800E65
:1016700000244FF0010AC2F2000C002705E000BF71
:101680000137102F04F102042CD00AFA07F50D429D
:10169000F6D03CF81E6003FA04F82E432CF81E60C6
:1016A000D0F80CB0032606FA04F92BEA090B4BEA32
:1016B0000806C660066826EA09080226A64046EA29
:1016C00008060660466826EA050502FA07F6B6B27D
:1016D000354345608568099E25EA0905A6403543DE
:1016E0008560CDE7BDE8F04F704700BF2DE9F041C0
:1016F000C0F3872240F2300882F0800200234FF0CE
:10170000010C4FF0030EC2F20008002507E000BFF5
:101710000135102D03F1020308BFBDE8F0810CFA7A
:1017200005F60E42F4D007680EFA03F43C43046059
:1017300038F81240B44328F81240E9E700F100708D
:1017400000F1FF70C0F38F20704700BF10B54FF05D
:10175000000E4FF0030C002306E000BF0133102BF6
:101760000EF1020E08BF10BD21FA03F2D207F5D028
:1017700002680CFA0EF4A2430260EFE7B0B5002253
:101780004FF0030C4FF0010E002305E00133102B46
:1017900002F1020208BFB0BD21FA03F4E407F5D05C
:1017A00004680CFA02F5AC430EFA02F52C4304600F
:1017B000ECE700BF10B54FF0000E4FF0030C002314
:1017C00006E000BF0133102B0EF1020E08BF10BD62
:1017D00021FA03F2D207F5D002680CFA0EF4224384
:1017E0000260EFE7B0B500224FF0030C4FF0020E9D
:1017F000002305E00133102B02F1020208BFB0BD47
:1018000021FA03F4E407F5D004680CFA02F5AC43BE
:101810000EFA02F52C430460ECE700BFB0B54FF0C0
:10182000000E4FF0030C002306E000BF0133102B25
:101830000EF1020E08BFB0BD21FA03F4E407F5D0A3
:10184000C4680CFA0EF5AC4302FA0EF52C43C460E2
:10185000ECE700BF01F58032C261C161C261C169BC
:10186000C06970470021022805D300BF0131032859
:101870004FEA5000FAD888B2704700BF00F10070FC
:1018800043F6300200F1FF70C4F20202C0F38F2071
:101890000121136801FA00F023EA0000106070478C
:1018A00000F1007000F1FF7040F23001C0F38F20B2
:1018B000C2F2000131F81000704700BF00F1007063
:1018C00000F1FF7040F23001C0F38F20C2F200013E
:1018D00031F810004FF6FF71484070474EF6FC504B
:1018E000CEF20000016821F080710160016841F0D2
:1018F0008071016041F20000CEF20000016821F029
:1019000001010160016841F00101016000214160B5
:10191000416800BF00BF4068401A70472DE9F0439E
:1019200081B040F21808C2F2000898F80040042C78
:101930001ED806461420994615460F4600F074FC42
:10194000B0B10899027807F0010302F0FC0265F3D8
:101950004103C0E90391611C1A4488F8001008EBA8
:1019600084010270C0E90166486001B0BDE8F083FF
:10197000002001B0BDE8F08370B540F2180CC2F24F
:10198000000C9CF8004084B1002100220CEB810384
:101990005B6883420ED00132A24201F10101F5D30E
:1019A00023461146A34204D007E000230021A342AE
:1019B00003D170BD1346A342FBD00CEB81004068FD
:1019C000EFF31086EFF3108172B69CF80010013926
:1019D00099420ADD0CEB8302141D224652F8045F83
:1019E0000133256099421446F8DC8CF8001000F0B1
:1019F000F3FB002E18BF70BD62B670BD017801F018
:101A0000FD010170704700BF017841F002010170D3
:101A1000704700BF41688160704700BF02780029AD
:101A200018BF012102F0FE0211440170704700BF8F
:101A300041607047704700BF40F24C00C2F20000A6
:101A400001680131016040F25000C2F200000168FB
:101A500011B101680139016070B540F21804C2F299
:101A60000004207818B3002504E000BF2078013579
:101A700085421CD204EB850670680028F6D00178F8
:101A80008907F3D5816800291CBF0139816081680D
:101A90000029EBD1D0E903219047706801784268B2
:101AA000CB07826004BF01F0FC010170DEE7BDE8F6
:101AB0007040FFF7BFBF00BFEFF3058169B1002899
:101AC00008BF70474EF21001CEF200010A68D2033F
:101AD00000EBE2700028F9D108E040F24C01C2F2BC
:101AE00000010A680B689B1A8342FBD3704700BF52
:101AF00040F24C00C2F200000068704710B582B09E
:101B000041F60004C4F202044FF0030C4FF0000E43
:101B100020464FF4C04101220023CDE900ECFFF73D
:101B2000ADFC4FF0C040A06102B010BD80B582B0E6
:101B300000204FF0000C4FF0020EC4F20200012111
:101B400000220023CDE900ECFFF798FC02B080BD35
:101B50001020C4F20200006840F24A01C007C2F23D
:101B6000000102BF0020087070470878002812BFEB
:101B700000200120087070471020C4F202000068A5
:101B800040F24A01C007C2F2000107D108780028DC
:101B90004FF0000008BF7047012201E00022012041
:101BA00008701046704700002DE9F04F83B093464F
:101BB0000C46064611B1601E204213D000270125B5
:101BC00004E000BF0137102F00F0058105FA07F08F
:101BD0002042F7D081B230465A46FFF7E5FF002891
:101BE000F0D00BE043F60847C4F2010757F8080CA1
:101BF000204203D157F8040C204203D0012003B047
:101C0000BDE8F08FFF2C4FF0010000F34B80611E08
:101C10003F2900F26A804FF00608DFE811F06A0001
:101C20004000DD00E300DD00DD00DD00E600DD005A
:101C3000DD00DD00DD00DD00DD00DD00E000DD00B9
:101C4000DD00DD00DD00DD00DD00DD00DD00DD00AC
:101C5000DD00DD00DD00DD00DD00DD006800DD0011
:101C6000DD00DD00DD00DD00DD00DD00DD00DD008C
:101C7000DD00DD00DD00DD00DD00DD00DD00DD007C
:101C8000DD00DD00DD00DD00DD00DD00DD00DD006C
:101C9000DD00DD00DD00DD00DD00DD0068004FF06F
:101CA000070826E0B4F5805F09DAB4F5806F10DA32
:101CB000B4F5807F1BD0B4F5007F18D08CE0B4F56C
:101CC000804F0BDAB4F5805F0CD0B4F5005F09D01B
:101CD00082E007D0B4F5006F04D07DE002D0B4F507
:101CE000004F79D14FF0280803E0802C74D14FF0D9
:101CF0001708BBFA8BF040095D4643F60C4ABBF16E
:101D0000010F18BF45004FF0000C3046214600225D
:101D10000023C4F2010ACDE9005CFFF7AFFB2046C7
:101D2000FFF7A0FD81463046FFF708FD43F644016A
:101D3000C4F202010A6809F0FC0342F480424FF643
:101D400000460A600C213B44CFF6FF7601EA890188
:101D50000F229D598A4025EA02029A51C0B29A592F
:101D600088401043985157F8080C5FFA89F2A04355
:101D700047F8080C57F8040CBBF1010F20EA0400E7
:101D800047F8040C57F8080C40EA040047F8080C20
:101D9000DAF8000020EA0400CAF80000386820EAF7
:101DA0000400386005D1DAF800002043CAF80000CA
:101DB0000AE0BBF1000F04D0DAF800002043CAF8B3
:101DC000000038682043386040460321FEF752FB8C
:101DD0004046FEF77BFB002003B0BDE8F08F4FF0DC
:101DE0000A0886E74FF0080883E74FF0090880E704
:101DF00043F60041C4F201010A6882430A604A685E
:101E000082434A60CA688243CA608A68824300206B
:101E10008A60704743F60040C4F2010001684FF643
:101E2000FF729143016041686FF30F014160C16827
:101E30006FF30F01C16081686FF30F018160416929
:101E40006FF30F0141617047704700BF43F61441C3
:101E5000C4F201010868C00708BF704701220120D1
:101E60000A60FFF7F1BF00BF43F61441C4F201015D
:101E70000868800758BF7047022202200A60FFF7F7
:101E8000E3BF00BF43F61441C4F2010108684007F4
:101E900058BF7047042204200A60FFF7D5BF00BF77
:101EA00043F61441C4F201010868000758BF7047A7
:101EB000082208200A60FFF7C7BF00BF43F614419D
:101EC000C4F201010868C00658BF704710221020F4
:101ED0000A60FFF7B9BF00BF10B543F61444C4F25F
:101EE00001042068800603D520202060FFF7ACFFA6
:101EF0002068400603D540202060FFF7A5FF20683A
:101F0000000603D580202060FFF79EFF2068C005F3
:101F100004D54FF480702060FFF796FF206880059D
:101F200058BF10BD4FF400714FF400702160BDE840
:101F30001040FFF789BF00BF10B543F61444C4F248
:101F400001042068400504D54FF480602060FFF74D
:101F50007BFF2068000504D54FF400602060FFF788
:101F600073FF2068C00404D54FF480502060FFF751
:101F70006BFF2068800404D54FF400502060FFF709
:101F800063FF2068400404D54FF480402060FFF7D1
:101F90005BFF2068000458BF10BD4FF400414FF4B0
:101FA00000402160BDE81040FFF74EBFFFF714FA74
:101FB000FEF718F9FFF7A2FDFFF7B8FD102041F674
:101FC0001801C4F20200C4F2020100BF0268D20785
:101FD0004FF4C04208BF4FF0C0420A60F6E700006D
:101FE000704700BFFEE700BFFEE700BFFEE700BF8F
:101FF000FEE700BF704700BF704700BF704700BFDB
:10200000704700BFFFF718BD4EF68850CEF20000B3
:1020100001684FF0000C41F47001016043F60001CB
:10202000C4F202010A6842F001020A60C1F808C065
:102030000B684FF6FF72CFF6F6621A400A6043F261
:102040001002C2F200424A600A6822F480220A604A
:10205000C1F80CC04FF0006140F8801C704700BF11
:1020600080B543F60400C4F20200416801F00C029E
:1020700042F20041082AC0F2F40106D0042A20D11D
:1020800041F20021C0F27A011BE0D0F800C00368E1
:10209000026803F03F03C2F3881E5FEA4C2241F25C
:1020A0000022C0F27A0258BF0A46B2FBF3F102687E
:1020B0000223C2F301420EFB01F103EB4202B1FB2A
:1020C000F2F140F20802C2F200021160406842F2EE
:1020D0009421C0F30310C0F60001085C116821FAD6
:1020E00000F0106080BD2DE9F05F054600209246AB
:1020F0009B4688460646814640241BE028464146CA
:102100004746224600F02FF853465A46C01A9141DE
:1021100010D311461846224600F016F82D1A67EB28
:1021200001084F4622460120002100F00DF817EB70
:1021300000094E41201EA4F10104DFDC484631466F
:102140002A464346BDE8F09F202A04DB203A00FAE5
:1021500002F1002070479140C2F1200320FA03F3FE
:10216000194390407047202A04DB203A21FA02F0FC
:102170000021704721FA02F3D040C2F120029140C1
:1021800008431946704700001CB5094800900948EB
:1021900001900546009C06E0E06840F0010394E8E9
:1021A000070098471034AC42F6D3FEF703F800005E
:1021B000AC220008CC22000802E008C8121F08C1A7
:1021C000002AFAD170477047002001E001C1121FB8
:1021D000002AFBD17047000010B5002821D0114B18
:1021E0000022001F196803E0814203D80A464968AB
:1021F0000029F9D152B11368841A9C4204D10068B5
:1022000018441060104602E0506000E0186039B1D8
:1022100002680B1A934203D10B681A4402604968A2
:10222000416010BD00000020F0B50B30154D20F0CE
:1022300007010024144A0FE003688B420BD38B4242
:1022400005D95E1A43184768C3E9006700E0436890
:10225000136002C004E0021D10680028ECD1204683
:10226000002802D1286808B10020F0BD064A0748BE
:102270001060074A121A22F00702C0E90024012068
:102280002860D7E704000020000000205C00002048
:1022900058100020000000000000000001020304AC
:1022A000060708090000000001020304D02200080C
:1022B0000000002018000000B8210008E8220008F3
:1022C0001800002040140000C82100080000000091
:1022D00000000000000000000024F40001000000E5
:0822E0001000000000000000E6
:04000005080001AD41
:00000001FF
