:020000040800F2
:10000000180B00209D0100083D2100081D1F00085D
:10001000392100082D090008ED400008000000000B
:100020000000000000000000000000004521000862
:1000300031090008000000004121000849210008A2
:10004000B7010008B7010008B7010008B7010008B0
:10005000B7010008B701000835090008C509000804
:10006000E1090008FD090008190A0008B7010008A5
:10007000B7010008B7010008B7010008B701000880
:10008000B7010008B7010008B7010008B701000870
:10009000B7010008B7010008B7010008350A0008D9
:1000A000B7010008B7010008B7010008B701000850
:1000B000B7010008B7010008B7010008B701000840
:1000C000B7010008B7010008B7010008B701000830
:1000D000B70100082D3F00089D3F00080D400008B3
:1000E00051090008B7010008B7010008B70100086E
:1000F000B7010008B7010008B7010008B701000800
:10010000B7010008B7010008B7010008B7010008EF
:10011000F53B0008653C0008B7010008B70100087E
:10012000B7010008B7010008B7010008B7010008CF
:10013000B7010008B7010008B7010008B7010008BF
:10014000B7010008B7010008B7010008B7010008AF
:10015000B7010008B7010008B70100087D4000089A
:10016000B7010008B7010008B7010008B70100088F
:10017000B7010008B7010008B7010008000000003F
:10018000B7010008B7010008DFF80CD000F0BAFA98
:100190000048004785420008180B002006488047A9
:1001A00006480047FEE7FEE7FEE7FEE7FEE7FEE75C
:1001B000FEE7FEE7FEE7FEE74D21000889010008A3
:1001C00040EA01039B0703D009E008C9121F08C0D9
:1001D000042AFAD203E011F8013B00F8013B521E59
:1001E000F9D27047D2B201E000F8012B491EFBD2D0
:1001F00070470022F6E710B513460A460446194632
:10020000FFF7F0FF204610BD00F0004230F0004044
:100210000AD0C10D01F56071C0F3160042EA015128
:10022000C20840071143704700200146704701F0A3
:10023000004330B421F0004150EA010206D00A0D1B
:10024000A2F56072C1F31301002A02DC30BC002069
:100250007047440F44EAC104C100E01830BC00EB11
:10026000C25000F047B830B50B46014600202022AE
:10027000012409E021FA02F59D4205D303FA02F5B3
:10028000491B04FA02F52844151EA2F10102F1DC13
:1002900030BD2DE9F05F0546002092469B4688461A
:1002A0000646814640241BE02846414647462246F2
:1002B00000F04FFA53465A46C01A914110D31146E6
:1002C0001846224600F036FA2D1A67EB01084F4611
:1002D00022460120002100F02DFA17EB00094E41C3
:1002E000201EA4F10104DFDC484631462A4643467D
:1002F000BDE8F09F0029A8BF7047401C490008BF17
:1003000020F00100704710B4B0FA80FC00FA0CF045
:1003100050EA010404BF10BC704749B1CCF120047D
:1003200021FA04F411FA0CF118BF0121214308430A
:10033000A3EB0C01CB1D4FEA00614FEA102042BF36
:10034000002010BC704700EBC35010440029A4BF2C
:1003500010BC7047401C490008BF20F0010010BCD1
:1003600070472DE9FE4F804681EA0300C00F0C461E
:10037000009021F0004123F00045B8EB0200A941B4
:1003800005D24046214690461C460B46024623F0C5
:100390000040104347D0270DC7F30A00C3F30A51AA
:1003A0000290401A019040286BDAC3F3130040F426
:1003B000801B0098924620B10023D2EB030A63EB26
:1003C0000B0B01985946C0F14002504600F0B2F9BB
:1003D00006460D4650465946019A00F0CAF910EB00
:1003E00008006141002487EA115284EAE7731A4346
:1003F00040D0009A62B3019A012A4FEA075215DCF5
:10040000001B61EB02014FF0004202EA0752CDE906
:100410000042001C41F5801132462B4600F0CAF91B
:1004200003B0BDE8F08F40462146F9E7001B61EBC1
:100430000201001C41F5801300185B412018A2F551
:10044000001747EB030140EAD570B6196D4111E082
:100450006D084FEA360645EAC0754FEA0752001BA1
:1004600061EB0201001C41F5801149084FEA3000A0
:100470000019514132462B4603B0BDE8F04F00F061
:100480008AB90098012240000023D0EB020263EBFE
:10049000E073009821464FEAE074B8EB000061EB8E
:1004A0000401E9E783F000435BE781F0004158E78E
:1004B0002DE9FE4F81EA030404F0004421F00041DD
:1004C00000944FF0000B23F0004350EA01045ED08B
:1004D00052EA03045BD0C3F30A54C1F30A552C4417
:1004E000A4F2F3340194A0FB0254C1F3130141F4CC
:1004F0008011C3F3130343F4801301FB024400FB98
:10050000034E840A970A44EA815447EA8357A4FBBE
:10051000076802958D0A05FB07854FEA932C04FBBB
:100520000C542705029D4FEA065847EA1637B5EBEB
:1005300008056EEB070C870E920E47EA811742EA18
:100540008312A7FB0201B6EB0B0164EB00042B0D39
:1005500043EA0C335E1844EB1C50DA465146E7FB85
:100560000201C5F313044FEA0B3343EA14534FEA75
:100570000432019C43EA0603A4F10C040294009C9B
:10058000CDE900B400F016F903B0BDE8F08F00200B
:100590000146F9E72DE9F04D81EA030404F0004B30
:1005A00021F0004514464FF0000A23F0004150EAC4
:1005B000050220D054EA01021DD0C5F30A570246B5
:1005C000C5F31303C1F31300C1F30A5640F48015B9
:1005D00043F48013A7EB0608101BD64608F2FD383B
:1005E00073EB050002D308F1010801E092185B41AA
:1005F000B8F1000F03DA00200146BDE8F08D0020BD
:100600004FF48011064684460EE0171B73EB050776
:1006100005D3121B63EB050306434CEA010C4908A2
:100620004FEA300092185B4150EA0107EDD152EADF
:10063000030012D082EA040083EA0501084305D0D2
:10064000101BAB4106D20122002306E000224FF02E
:10065000004302E06FF0010253101AEB06004CEB6E
:10066000085110EB0A0041EB0B01BDE8F04D00F022
:1006700092B8C1F30A52C1F3130140F2FF3341F4BF
:1006800080119A4202DA00200146704740F233435B
:100690009A42A2F2334202DC524200F05AB800F011
:1006A00049B8000030B5041E71F1000404DB4FF0BE
:1006B0000044404264EB0101141E73F1000405DBA9
:1006C0001C464FF00043524263EB04038B4208BFC9
:1006D000824230BD30B5041E71F1000404DB4FF0DE
:1006E0000044404264EB0101141E73F1000405DB79
:1006F0001C464FF00043524263EB0403994208BF8B
:10070000904230BD1CB5094800900948019005464B
:10071000009C06E0E06840F0010394E80700984779
:100720001034AC42F6D3FFF733FD00005C610008E3
:100730007C610008202A04DB203A00FA02F1002044
:1007400070479140C2F1200320FA03F3194390400F
:100750007047202A04DB203A21FA02F0002170477A
:1007600021FA02F3D040C2F1200291400843194619
:100770007047202A06DBCB17203A41FA02F043EA01
:10078000E07306E041FA02F3D040C2F1200291404A
:1007900008431946704710B5141E73F1000408DAB7
:1007A000401C41F1000192185B411A4301D120F035
:1007B000010010BD2DE9F04D92469B4611B1B1FAF2
:1007C00081F202E0B0FA80F220329046FFF7B2FFE9
:1007D00004460F4640EA0A0041EA0B0153465A46D6
:1007E000084313D0114653EA010019D0C8F1400262
:1007F0005046FFF7AEFF05460E4650465946424664
:10080000FFF798FF084305D0012004E02046394651
:10081000BDE8F08D0020054346EAE0762C433743DF
:100820000A986305E40AA0EB08000022FD0A44EAE6
:1008300047540A3002D500200146E9E701051019A6
:100840006941DDE9084500196941BDE8F04DA2E7BD
:100850002DE9F04D00231A461B1A8A4103DB0020C4
:100860000146BDE8F08DC1F30A52C1F3130141F412
:1008700080154FF0000BD10702D100186D41521EB8
:100880000027044640F2FF11384601EB620A3E465B
:100890008046024600204FF48011FFF75AFFC2192C
:1008A0007141BB1846EB0100B4EB030C75EB000C77
:1008B00004D3E41A65EB000517460E46241908F127
:1008C00001006D4180463428E3DDF91946EB06004E
:1008D000091BA84103D24FF0FF32134601E000226A
:1008E00013461BEB070046EB0A51BDE8F04DFFF73E
:1008F00052BF30B58C1810F8012B12F00F0301D144
:1009000010F8013B120906D110F8012B03E010F892
:10091000015B01F8015B5B1EF9D101E001F8013BCD
:10092000521EFBD1A142E6D3002030BDFEE70000FD
:100930007047000043F61441C4F201010868C00783
:1009400008BF7047012201200A6001F075BF000056
:1009500010B543F61444C4F201042068400504D5E0
:100960004FF48060206001F067FF2068000504D527
:100970004FF40060206001F05FFF2068C00404D5E0
:100980004FF48050206001F057FF2068800404D5A8
:100990004FF40050206001F04FFF2068400404D560
:1009A0004FF48040206001F047FF2068000458BFEA
:1009B00010BD4FF400414FF400402160BDE81040ED
:1009C00001F03ABF43F61441C4F201010868800700
:1009D00058BF7047022202200A6001F02DBF0000BC
:1009E00043F61441C4F201010868400758BF70473C
:1009F000042204200A6001F01FBF000043F61441E6
:100A0000C4F201010868000758BF70470822082097
:100A10000A6001F011BF000043F61441C4F2010165
:100A20000868C00658BF7047102210200A6001F005
:100A300003BF000010B543F61444C4F2010420685B
:100A4000800603D52020206001F0F6FE20684006D5
:100A500003D54020206001F0EFFE2068000603D59A
:100A60008020206001F0E8FE2068C00504D54FF426
:100A70008070206001F0E0FE2068800558BF10BD46
:100A80004FF400714FF400702160BDE8104001F098
:100A9000D3BE0000EFF3058169B1002808BF70479D
:100AA0004EF21001CEF200010A68D20300EBE270B0
:100AB0000028F9D108E040F24C61C2F200010A6856
:100AC0000B689B1A8342FBD37047000040F24C60D6
:100AD000C2F2000000687047006C7047002804BF35
:100AE0000120704710B5044690F83D0028B9002059
:100AF00084F83C00204600F05BFE242084F83D0092
:100B00002068016821F00101016000F0FFFF4DF64F
:100B10008361C4F21B31A0FB011E4FEA9E424FF4D9
:100B2000967102FB01FC48F63811C0F24101ACFBA2
:100B30000113D4E9001C4A6048F2A162C0F201022C
:100B4000944538BF4FEA9E435A1C48F2A063C0F256
:100B500001039C450A6209D84FEA4C02B0FBF2F04F
:100B600040F6FC72104208BF04201BE0A368192263
:100B7000002B08BF03220CFB02F2B0FBF2F21205BD
:100B800008D04BB119220CFB02F2B0FBF2F040F49A
:100B9000804005E0012005E00CEB4C02B0FBF2F0D8
:100BA00040F40040C861D4E9070210430860D4E96A
:100BB00003C2D4E9053042EA0C0218438A60C860D7
:100BC000086840F00100086000202021206484F8BB
:100BD0003D10206384F83E0010BD00002DE9F04F69
:100BE00083B01D46914688460446FFF76FFF94F890
:100BF0003D10202918D107462068806986070FD547
:100C0000FFF764FFC01B1A28F6D300202021002E16
:100C1000206384F83D1084F83E0084F83C0003D43F
:100C200094F83C00012803D1022003B0BDE8F08F06
:100C30004FF0010B206884F83CB00168C90703D16C
:100C4000016841F0010101600168B9F1010F21F46F
:100C5000006101604FF0240084F83D004FF0000077
:100C6000206440F20000CFF6FF70E06208F0FE0062
:100C7000019098BFD946CDF8009005F101094FF0D9
:100C8000A00805E0009883450BF1010B00F09A8065
:100C90002068016841F480710160406910F0010032
:100CA00022D180F00106B24607E000BF206840690B
:100CB00010F0010080F0010A16D1B9F1000FF5D053
:100CC0002DB1FFF703FFC01BA842EFD900E0B246E9
:100CD00000212020216384F83D005FEACA7084F877
:100CE0003E1084F83C1069D1206801990161FFF73A
:100CF000EDFE216807464B694A6994F83D109B0751
:100D00001CD412F4806019D1A02917D045B1FFF787
:100D1000DDFEC01BA84288BF84F83D8002E000BF12
:100D200084F83D8020684269416994F83D0092074B
:100D300004D411F4806101D1A028E7D1202084F8E7
:100D40003D00206841690268890742F40072026030
:100D500019D46FF4806141612068806986077FF54E
:100D600091AFFFF7B3FEC01B1A28F5D30020202156
:100D7000002E206384F83D1084F83E0084F83C0087
:100D80007FF580AF1AE000210291416902918069EC
:100D90000290029820688069850715D5FFF796FEB6
:100DA000C01B1A28F6D300202021002D206384F8D0
:100DB0003D1084F83E0084F83C0006D5032003B0C3
:100DC000BDE8F08F012000E00020202184F83D10D4
:100DD000002184F83C1003B0BDE8F08F2DE9F04FFE
:100DE00081B09A46164688460446FFF76FFE94F88F
:100DF0003D1020291AD1DDF8289005462068806929
:100E000087070FD5FFF762FE401B1A28F6D3002094
:100E10002021002F206384F83D1084F83E0084F8E0
:100E20003C0003D494F83C00012803D1022001B017
:100E3000BDE8F08F0121206884F83C100168C907E3
:100E400003D1016841F001010160016821F40061F2
:100E50000160222184F83D10102184F83E10002109
:100E600021640021CFF6FF716662A4F82AA0E16236
:100E7000618D2185E16A026811F5803F42F480624C
:100E8000026018BF012947D1016841F480710160F7
:100E9000406910F0010021D1B9F1000F80F0010686
:100EA00010D009F1010706E02068406910F0010048
:100EB00080F0010612D1002FF6D0FFF707FE401B8D
:100EC0004845F1D900202021206384F83D10F10726
:100ED00084F83E0084F83C0040F0B5802069B0F50D
:100EE000804F03D148F00100C1B27DE0062000EA46
:100EF000D81A20680AF1F00101614169090721D47B
:100F00004169490500F18E80B9F1000F00F093802E
:100F100019F1010706D00FE00429B5D0216B112982
:100F2000B2D0B5E7206800BF416909070AD441691A
:100F3000490577D4002FF7D0FFF7C8FD401B48457F
:100F4000F0D978E020685FFA88F10161416989078A
:100F500017D44169490565D4B9F1000F6BD019F177
:100F6000010708D12068416989070AD44169490508
:100F700058D4002FF7D0FFF7A9FD401B4845F1D901
:100F800059E000200090206841690091816900913A
:100F90000099016841F480710160406910F001001E
:100FA00020D1B9F1000F80F0010710D009F101063E
:100FB00006E02068406910F0010080F0010711D1BF
:100FC000002EF6D0FFF782FD401B4845F1D90020E6
:100FD0002021206384F83D10F90784F83E0084F84E
:100FE0003C0030D14AF0F101206801614169890774
:100FF00034D44169490515D4B9F1000F1BD019F15A
:10100000010609D1206800BF4169890726D44169DA
:10101000490507D4002EF7D0FFF758FD401B48457F
:10102000F0D908E0016841F4007101606FF480615B
:1010300041610420206400202021206384F83D10B9
:1010400084F83C00206C216C002084F83C000320D4
:10105000042908BF012001B0BDE8F08F208D0228CF
:1010600017D0012804D0E8B900200090206806E0DD
:101070002068016821F480610160002100914169CC
:101080000091816900910099016841F4007101604B
:1010900014E02068016821F480610160016841F476
:1010A000006103E02068016841F480610160002173
:1010B000009141690091806900900098208D00287E
:1010C00000F012814FF0010A09F101074FF000080A
:1010D0000EE0B3462020C4F8308084F83D005FEA7B
:1010E000CB7084F83E8084F83C8000F0DD800EE117
:1010F000042819D202282BD0012846D12068416942
:101100004E0600F1E1804169C9067BD4B9F1000FB8
:1011100004D0FFF7DBFC401B4845EFD9206C40F0C2
:101120002000206475E000BF206841694E0656D457
:101130004169C90644D4B9F1000F04D0FFF7C6FCD9
:10114000401B4845F0D9206C40F0200020643EE070
:101150002068406910F004008AEA9006B34609D07E
:10116000A2E000BF2068406910F004008AEA900BFA
:1011700040F09A80002FF5D0B9F1000FA9D0FFF709
:10118000A5FC401B4845EDD9A4E72068406910F054
:1011900004008AEA900B5E4607D04EE02068406962
:1011A00010F004008AEA900647D1002FF6D0B9F17A
:1011B000000F36D0FFF78AFC401B4845EED931E0DE
:1011C0006FF010014161C4F84080C4F830802020E5
:1011D000002E84F83D0084F83C8040F19080206827
:1011E000616A00694A1C62620870208D013820859E
:1011F000608D0138608520684169490770D50069B4
:10120000616A64E06FF010014161C4F84080C4F885
:1012100030802020002E84F83D0084F83C8053D498
:101220006DE05E462020C4F8308084F83D00F00771
:1012300084F83E8084F83C8069D12068616A026845
:1012400022F48062026000694A1C62620870208D8C
:1012500001382085608D013860852068406910F074
:10126000040021D18AEA900B5E4606E020684069BE
:1012700010F004008AEA900616D1002FF6D0B9F1DA
:10128000000F05D0FFF722FC401B4845EED900E0D7
:101290005E462020C4F8308084F83D0084F83E800B
:1012A000F00784F83C8032D12068616A026842F419
:1012B0000072026000694A1C62620870208D013869
:1012C0002085608D013860852068616A00694A1C4C
:1012D00062620870208D01382085608D013860853C
:1012E000208D00287FF404AF202084F83D000020EA
:1012F00084F83E0084F83C0001B0BDE8F08F216C1A
:101300000120202908BF032001B0BDE8F08F032091
:1013100001B0BDE8F08F00002DE9F04782B09A4699
:10132000164688460446FFF7D1FB94F83D10202965
:101330001AD1DDF8289005462068806987070FD507
:10134000FFF7C4FB401B1A28F6D300202021002FF2
:10135000206384F83D1084F83E0084F83C0003D4F8
:1013600094F83C00012803D1022002B0BDE8F087C8
:101370000121206884F83C100168C90703D1016885
:1013800041F001010160016821F400610160212147
:1013900084F83D10102184F83E10002121640021C2
:1013A000CFF6FF716662A4F82AA0E162618D218503
:1013B000E16A11F5803F18BF012944D1016841F469
:1013C00080710160406910F0010021D1B9F1000F76
:1013D00080F0010610D009F1010706E0206840699D
:1013E00010F0010080F0010612D1002FF6D0FFF7B7
:1013F0006DFB401B4845F1D900202021206384F873
:101400003D10F10784F83E0084F83C0040F0D480A1
:101410002069B0F5804F01D1FE212BE0062000EAC3
:10142000D8112068F03101614169090721D441696F
:10143000490500F1B080B9F1000F00F0B58019F155
:10144000010606D00FE00429B8D0216B1229B5D0CF
:10145000B8E72068416909070BD44169490500F1E3
:101460009A80002EF6D0FFF731FB401B4845F0D99B
:101470009AE0FF21206801EA0801016141698907BA
:101480001AD44169490500F18680B9F1000F00F0D6
:101490008B8019F1010609D1206800BF41698907D5
:1014A0000AD44169490576D4002EF7D0FFF70EFB28
:1014B000401B4845F0D977E00020019021684A6937
:1014C0000192896901910199218D002954D009F176
:1014D000010600BF216851F8142F12060FD40A68C4
:1014E000520574D4002EF5D0B9F1000F74D0FFF777
:1014F000EDFA0146491B00204945EBD96CE0626AD0
:10150000D4F800E0511C61621178CEF81010618DA2
:1015100001396185B4F828C07146ACF1010727850F
:1015200051F8143F5B070CD53B040AD0931C63624F
:101530005278CEF81020628D013A6285ACF1020239
:1015400022850A6803E000BF216851F8142F520772
:101550000FD40A6852053AD4002EF5D0B9F1000F25
:101560003AD0FFF7B3FA0146491B00204945EBD9B1
:1015700032E0218D0029ADD121680A6842F4007261
:101580000A60202184F83D1084F83E0084F83C0075
:1015900002B0BDE8F087016841F4007101606FF4AA
:1015A000806141610420206400202021206384F8B0
:1015B0003D1084F83C00206C216C002084F83C0035
:1015C0000320042908BF012002B0BDE8F0876FF4B2
:1015D00080600860042002E0206C40F0200020645D
:1015E00000202021206384F83D1084F83C00206C0A
:1015F000042808D12068016841F4007101600120CD
:1016000002B0BDE8F087032002B0BDE8F08700001B
:101610002DE9F04F83B0994692460F460446FFF7F6
:1016200055FA94F83D1020291CD1DDF83880DDF8FA
:1016300030B005462068806986070FD5FFF746FA67
:10164000401B1A28F6D300202021002E206384F8A6
:101650003D1084F83E0084F83C0003D494F83C002C
:10166000012803D1022003B0BDE8F08F01212068DA
:1016700084F83C1001684646C90703D1016841F06F
:101680000101016001684FF0000821F40061016070
:10169000212084F83D00402084F83E000D98C4F8D5
:1016A0004080C4F824B060850020CFF6FF70E0626F
:1016B000608D39462085204652464B46CDE900656F
:1016C00000F02EFC48B1216C032084F83C800429F2
:1016D00008BF012003B0BDE8F08F208DB04688B36D
:1016E00008F10106206850F8141F09060DD401689E
:1016F00049053DD4002EF5D0B8F1000F3DD0FFF7DD
:10170000E5F9401B4045EDD937E0606A2168421C8D
:10171000626202780A61228D531E2385678D013F24
:1017200067854F697F070AD51B0408D0831C636255
:1017300040780861901E2085608D01386085208D7D
:101740000028CFD1204641462A4600F0C1FCF8B916
:101750002068016841F400710160202084F83D0098
:10176000002084F83E0084F83C0003B0BDE8F08F10
:101770006FF480610160042002E0206C40F02000E2
:10178000206400202021206384F83D1084F83C0070
:10179000206C042808D12068016841F400710160C0
:1017A000012003B0BDE8F08F032003B0BDE8F08F47
:1017B0007047000040F24C60C2F200000168013145
:1017C000016040F25060C2F20000016811B101688E
:1017D0000139016070B540F2A014C2F20004207813
:1017E00018B3002504E000BF2078013585421CD2E3
:1017F00004EB850670680028F6D001788907F3D5D8
:10180000816800291CBF0139816081680029EBD102
:10181000D0E903219047706801784268CB07826065
:1018200004BF01F0FC010170DEE7BDE8704000F08C
:10183000A5BE000080B543F60040C4F20200016876
:1018400041F400710160016841F480610160016848
:1018500041F480710160032000F088F80F2000F04F
:1018600005F800F01BF8002080BD000010B540F224
:101870000411C2F20001096844F6D352C1F26202B7
:10188000A1FB02120446900900F000FB4FF0FF306C
:101890002146002200F03EF8002010BD70470000F5
:1018A000002848BF704700F01F01012202FA01F131
:1018B0001C2202EAD0004EF28022CEF200028150B9
:1018C00070470000002848BF704700F01F01012248
:1018D00002FA01F11C2202EAD0004EF28012CEF28E
:1018E00000028150BFF34F8FBFF36F8F704700002E
:1018F000002848BF704700F01F01012202FA01F1E1
:101900001C2202EAD0004EF20012CEF200028150F8
:101910007047000010B54EF60C5CCEF2000CDCF8FF
:101920000030C3F3022E8EF00704042C28BF0424D9
:10193000BEF103034FF0FF3E0EFA04F438BF00235C
:10194000A14399400EFA03F39A43114300F1604218
:1019500000F00F03090102F56442043B63440028D0
:1019600048BF03F10C02117010BD00004EF60C517F
:10197000CEF200010A684FF6FF031A4060F30A2214
:1019800042F0806040F0FD70086070472DE9F04142
:1019900043F60807C4F20207D7F8F8230D4602F011
:1019A0000F01A942044607D287F8F853D7F8F80385
:1019B00000F00F00A8425AD12068810705D5396888
:1019C000A26821F0F00111433960C00735D1D7F882
:1019D000F80300F00F00A84207D987F8F853D7F8AA
:1019E000F80300F00F00A84241D12068410705D557
:1019F0003968E26821F4E05111433960000706D5E7
:101A00003868216920F4604040EAC100386000F085
:101A1000A5F8396845F6D812C1F30311C0F60002E3
:101A2000515CC84040F20411C2F2000108600F206E
:101A3000FFF71CFF0020BDE8F0816068811E0229CD
:101A400007D257F8081C89015CBF0120BDE8F0816E
:101A500010E0012807D157F8081C89035CBF01205A
:101A6000BDE8F08106E057F8081C890702D4012080
:101A7000BDE8F081396821F0030108433860FFF7C1
:101A800025F861680646012941F2883837D00229D5
:101A900027D003290ED100BF386800F00C000C28B5
:101AA00095D0FFF713F8801B40454FF00300F3D9A2
:101AB000C1E700BF386810F00C0F3FF488AFFFF7A4
:101AC00005F8801B40454FF0030088BFBDE8F0815A
:101AD000F0E700BFFEF7FAFF801B40454FF0030020
:101AE000A9D8386800F00C000828F3D16FE700BFD0
:101AF000FEF7ECFF801B40454FF003009BD8386891
:101B000000F00C000428F3D161E7000040F204105B
:101B100043F60801C2F20000C4F20201006809683D
:101B200045F6E812C1F38221C0F60002515CC840BC
:101B30007047000040F2041043F60801C2F20000B2
:101B4000C4F202010068096845F6E812C1F34231A7
:101B5000C0F60002515CC8407047000043F6040123
:101B6000C4F20201486800F00C0242F20040082A68
:101B7000C0F2F40007D0042A18BF704741F20020D9
:101B8000C0F27A007047D1F800C00B680A685B02A7
:101B900041F200230CF03F0CC0F27A0358BF034619
:101BA000B3FBFCF00968C2F388125043C1F3014152
:101BB000022202EB4101B0FBF1F07047F0B581B0B9
:101BC0000446007843F60006C007C4F2020644D07B
:101BD000B06800F00C00042805D1306880033CD5C3
:101BE0006068D0BB64E0B06800F00C00082802D147
:101BF00070684002F1D465683068B5F5A02F05D053
:101C0000B5F5803F09D140F480300CE040F48020ED
:101C10003060306840F4803005E020F4803030607F
:101C2000306820F480203060FEF750FF002D05461C
:101C300010D000BF306880030FD4FEF747FF401B71
:101C40006428F7D9EFE000BFFEF740FF401B64288F
:101C500000F2E98030688003F6D42078800718D538
:101C6000B06810F00C0F07D0B06800F00C00082826
:101C700057D17068400254D43068800702D5E068BC
:101C8000012815D13068216920F0F80040EAC10030
:101C90003060207800070ED42078400721D4A56951
:101CA000002D00F0EF80B06800F00C0008286BD128
:101CB000012001B0F0BD6069002851D00020C4F2BD
:101CC00047200121C0F8801EFEF700FF054600BF37
:101CD000706F8007E0D4FEF7F9FE401B0228F7D9A9
:101CE000A1E000200090306C47F2000740F08050E7
:101CF0003064306CC4F2000700F08050009000980F
:101D0000386840F480703860FEF7E0FE054600BF9A
:101D10003868C0051BD4FEF7D9FE401B0228F7D94E
:101D200081E0E068002840F20000C4F247204CD077
:101D300001210160FEF7CAFE054600BF306880073A
:101D4000A0D4FEF7C3FE401B0228F7D96BE0A568BC
:101D5000306F052D48D0012D4DD140F0010050E0ED
:101D60000020C4F247200021C0F8801EFEF7AEFE1E
:101D7000054600BF706F80077FF58EAFFEF7A6FEA9
:101D8000401B0228F6D94EE00027C4F24727002066
:101D90003866FEF79BFE022D05460BD130688001A8
:101DA0004FD5FEF793FE401B02284FF00300F5D9F4
:101DB00066E000BF3068800164D5FEF787FE401BF7
:101DC00003284FF00300F5D35AE000210160FEF72D
:101DD0007DFE0546306880077FF55BAFFEF776FE37
:101DE000401B0228F6D91EE040F004003067306F37
:101DF00040F0010005E020F001003067306F20F076
:101E000004003067FEF762FE002D054641F2883778
:101E100013D000BF306F80073FF541AFFEF756FE8D
:101E2000401BB842F6D9032001B0F0BDFEF74EFECC
:101E3000401BB8424FF0030022D8306F8007F5D422
:101E40002DE704F11C052FCD084340EA8210D90389
:101E50004FF6FF729143A1F5803140EA05600843D7
:101E6000706001203866FEF731FE0446306880015C
:101E700008D4FEF72BFE001B02284FF00300F5D913
:101E800001B0F0BD002001B0F0BD0000411E0020F7
:101E9000B0EB116F1CBF012070474EF21002CEF262
:101EA000000251604EF62351CEF20001F0230B7078
:101EB0000721906011607047002804BF012070471F
:101EC00010B5044690F8390028B9002084F838008D
:101ED000204600F021F8242084F839002068C168E9
:101EE00021F40051C160204601F0F4FE2068016930
:101EF00021F490410161416921F02A014161C168E9
:101F000041F40051C16000202021E06384F83910C1
:101F100084F83A1010BD000070470000FEE7000092
:101F20002DE9F04F83B004460068019391460268A2
:101F3000DDF834A042F48072026040690C9E10F01B
:101F400001000F4624D180F0010B06F101085D4627
:101F500007E000BF2068406910F0010080F0010533
:101F600016D1B8F1000FF5D036B1FEF7AFFDA0EBFA
:101F70000A00B042EED900E05D4600202021206337
:101F800084F83D10E90784F83E0084F83C000DD148
:101F9000206807F0FE010161416989072AD441697F
:101FA00049056AD4751C23D026B11BE0032003B079
:101FB000BDE8F08F00202021206384F83D1084F8D4
:101FC0003C00216C0320042908BF012003B0BDE8B8
:101FD000F08F00BF416989070CD4416949054CD491
:101FE000002DF7D0FEF772FDA0EB0A00B042E1D859
:101FF0002068EFE700200290206850F8141F02913B
:102000004168029102990168090613D4751C04E025
:10201000206850F8141F09060CD40168490536D40D
:10202000002DF5D02EB3FEF751FDA0EB0A00B04213
:10203000EED91EE001992068012942D04FEA19210A
:10204000016150F8141F09063AD4751C05E000BF61
:10205000206850F8141F090632D40168490516D4C7
:10206000002DF5D02EB1FEF731FDA0EB0A00B042F5
:10207000EED9206C40F020000DE0016841F40071C1
:1020800001606FF4806141610420206492E76FF485
:10209000806101600420206400202021206384F8F6
:1020A0003D1084F83C00206C04287FF47FAF20684A
:1020B000016841F400710160012003B0BDE8F08FB8
:1020C00020685FFA89F10161002003B0BDE8F08F5C
:1020D000F0B581B004460068154650F8143F5A0721
:1020E00018D40E464F1C04E0206850F8141F49070E
:1020F00010D40168490510D4002FF5D026B1FEF7A1
:10210000E5FC401BB042EFD9206C40F02000206479
:10211000032008E0002001B0F0BD6FF48061016091
:1021200004202064012000212022216384F83D2026
:1021300084F83C1001B0F0BDFEE7000070470000DD
:102140007047000070470000FFF734BB4EF6885020
:10215000CEF2000001684FF0000C41F47001016004
:1021600043F60001C4F202010A6842F001020A606B
:10217000C1F808C00B684FF6FF72CFF6F6621A403E
:102180000A6043F21002C2F200424A600A6822F476
:1021900080220A60C1F80CC04FF0006140F8801C3A
:1021A00070470000B7EE002A82EE000A4FF07E5121
:1021B000002280ED031AC0ED040AC0E90512C0E94F
:1021C000072280ED090A704710B52DED108B90EDB8
:1021D000064A90ED075A90ED086A90ED053A25EE13
:1021E000607A64EE003A37EE637A66EE013A37EED3
:1021F000637A65EE013A63EE004A74EEA33A66EE46
:10220000204A73EEE43A64EE014A63EE205A24EE6B
:10221000204A23EE011A75EEE44A26EE006A31EEFA
:10222000041A25EE000A36EE246A31EE400AB6EEB4
:10223000001AF5EE401A044627EE01BA23EE819A01
:1022400026EE018AF1EE10FA20EE01AA0AD1B5EECF
:10225000402AF1EE10FA05D1F5EE402AF1EE10FA1F
:1022600000F0D08022EE020A21EEA11A31EE000A1F
:1022700022EEA21A31EE001AB1EEC10AB4EE400A03
:10228000F1EE10FA80F11D81B7EE00CA8CEE003A33
:1022900094ED055A94ED077AF1EE000A94ED066A82
:1022A000F2EE008A23EE211A23EE020A23EE224ADE
:1022B00037EE073A65EE201A67EE072A61EE033A19
:1022C00061EEA24A74EEA33A66EE064A61EEA41AE3
:1022D00071EEA31AF8EE003A94ED082A66EE235A3E
:1022E00065EE806A36EEA1DA62EE231A66EE203AD7
:1022F00062EE026A61EE217A23EEA6EA7EEE277A8A
:1023000025EE05EA2EEE20FA2FEE06EA35EE055A06
:102310007EEE277A25EE00EA77EECE7A26EE286A60
:1023200077EEE37A26EE24EA7EEE277A26EE226A1C
:1023300036EE276A63EE843A33EE86EA25EE015ADA
:102340002FEE076A36EE055A27EE286A27EE207A26
:1023500067EE263A33EE855A61EE801A31EE855AE1
:1023600035EE475A66EE241A31EE855A26EE226A79
:1023700036EE055A27EE044A34EE05FA24EEA04A5A
:1023800021EE251A24EE024A34EE011A22EEA04A6A
:1023900024EE022A32EE011A23EE000A71EE408A80
:1023A0002EEE0E0A2DEE0D1A31EE000A2FEE0F1A48
:1023B00031EE000A28EEA81A31EE001AB1EEC10A79
:1023C000B4EE400AF1EE10FA80F18C808CEE000A37
:1023D00094ED044A20EE0D1A20EE0E2A24EE011A86
:1023E00020EE0F3A20EE280A3BEE41BA24EE021A04
:1023F00039EE419A24EE031A24EE000A38EE418A9F
:102400003AEE40AA94ED093A94ED050A94ED061AC5
:102410002BEE035A94ED072A35EE005A29EE030AF3
:1024200094ED084A30EE016A28EE030A30EE022AE3
:102430002AEE030A30EE043A26EE060A25EE051AC5
:1024400031EE000A22EE021A31EE000A23EE031AE0
:1024500031EE001AB1EEC10A84ED055A84ED066A28
:1024600084ED072A84ED083AB4EE400AF1EE10FA42
:1024700022D6B7EE001A81EE000A94ED051A94ED0B
:10248000062A94ED073A94ED084A204621EE001AF8
:1024900020EE022A20EE033A20EE040A84ED051A0B
:1024A00084ED062A84ED073A84ED080ABDEC108B12
:1024B000BDE8104001F01CBEB0EE410A02F06CFC19
:1024C000D7E7B0EE410AB0EE62CAB0EE42EAB0EE33
:1024D00061DA02F061FCF0EE4D1AB0EE4E2AF0EE39
:1024E0004C2AD1E6B0EE410A02F056FC6EE700003D
:1024F0002DE9F041054600284FF0000008BFBDE877
:10250000F0811446A2B3D5E90002824224BF002222
:102510006A60D5E901239A1A034688BF134638BF7B
:1025200013185A1EA24201D214461AB36A68EB6805
:10253000871A2646A74238BF3E4698183246884634
:10254000FDF73EFE6868BC423044686009D900204F
:10255000A71B6860E86808EB06013A46FDF730FE05
:102560006F60D5E90001814224BF002068602046E9
:10257000BDE8F0810020BDE8F08100007047000058
:102580004EF6FC50CEF20000016821F0807101602F
:10259000016841F08071016041F20000CEF200005C
:1025A000016821F001010160016841F00101016051
:1025B00000214160416800BF00BF4068401A704779
:1025C00010B582B040F60044C4F202044FF0030C90
:1025D0004FF0000E20464FF4704101220023CDE958
:1025E00000EC00F047F94FF07040A06102B010BD60
:1025F0002DE9F04F83B093460C46064611B1601E9C
:10260000204213D00027012504E000BF0137102F1E
:1026100000F0058105FA07F02042F7D081B230467C
:102620005A46FFF7E5FF0028F0D00BE043F60847D5
:10263000C4F2010757F8080C204203D157F8040CE4
:10264000204203D0012003B0BDE8F08FFF2C4FF0F3
:10265000010000F34B80611E3F2900F26A804FF0B9
:102660000608DFE811F06A004000DD00E300DD004D
:10267000DD00DD00E600DD00DD00DD00DD00DD0069
:10268000DD00DD00E000DD00DD00DD00DD00DD005F
:10269000DD00DD00DD00DD00DD00DD00DD00DD0052
:1026A000DD00DD006800DD00DD00DD00DD00DD00B7
:1026B000DD00DD00DD00DD00DD00DD00DD00DD0032
:1026C000DD00DD00DD00DD00DD00DD00DD00DD0022
:1026D000DD00DD00DD00DD00DD00DD00DD00DD0012
:1026E000DD00DD0068004FF0070826E0B4F5805FEC
:1026F00009DAB4F5806F10DAB4F5807F1BD0B4F539
:10270000007F18D08CE0B4F5804F0BDAB4F5805F11
:102710000CD0B4F5005F09D082E007D0B4F5006FAB
:1027200004D07DE002D0B4F5004F79D14FF02808F5
:1027300003E0802C74D14FF01708BBFA8BF04009EE
:102740005D4643F60C4ABBF1010F18BF45004FF040
:10275000000C3046214600220023C4F2010ACDE9D4
:10276000005C00F087F8204600F070F881463046A3
:1027700000F078F843F64401C4F202010A6809F057
:10278000FC0342F480424FF600460A600C213B44B1
:10279000CFF6FF7601EA89010F229D598A4025EA8A
:1027A00002029A51C0B29A5988401043985157F882
:1027B000080C5FFA89F2A04347F8080C57F8040C9C
:1027C000BBF1010F20EA040047F8040C57F8080C8D
:1027D00040EA040047F8080CDAF8000020EA040098
:1027E000CAF80000386820EA0400386005D1DAF839
:1027F00000002043CAF800000AE0BBF1000F04D03B
:10280000DAF800002043CAF8000038682043386036
:1028100040460321FFF77EF84046FFF769F80020A5
:1028200003B0BDE8F08F4FF00A0886E74FF00808C4
:1028300083E74FF0090880E740F61440C4F2020035
:10284000016881F470410160704700000021022896
:1028500005D300BF013103284FEA5000FAD888B2EF
:102860007047000000F1007000F1FF70C0F38F208E
:10287000704700002DE9F04F81B00029009351D03E
:1028800000F1007743F6300607F1FF77C4F2020645
:10289000C7F38F274FF00108356808FA07F72F4371
:1028A0003760C0F3872740F2B81B87F0800EA2F193
:1028B000010A0027C2F2000B002604E00136102EA8
:1028C00007F102072ED008FA06F40C42F6D03BF8C6
:1028D0001E50032325432BF81E50C56803FA07FC3E
:1028E0000A9B25EA0C0503FA07F945EA0905C560C4
:1028F000056802FA07F325EA0C052B43BAF1010F2C
:102900000360DBD843686FEA0C05A343009CB44026
:10291000A4B22343436083682B400B9DBD402B43EF
:102920008360CBE701B0BDE8F08F0000002908BF4D
:1029300070472DE9F04F00F1007443F6300604F1C2
:10294000FF74C4F20206C4F38F240125376805FA28
:1029500004F4DDF828E03C43346000F1200A00264E
:102960006FF003084FF00F09002404E00134102C2D
:1029700006F1040614D021FA04F5ED07F6D008EAB2
:1029800054055AF805B006F01C0709FA07FC2BEAB3
:102990000C0C0EFA07F747EA0C074AF80570E5E752
:1029A000C0F3872740F2B81C87F0800E00244FF058
:1029B000010AC2F2000C002705E000BF0137102F0A
:1029C00004F102042CD00AFA07F50D42F6D03CF8C7
:1029D0001E6003FA04F82E432CF81E60D0F80CB0E9
:1029E000032606FA04F92BEA090B4BEA0806C6602F
:1029F000066826EA09080226A64046EA0806066096
:102A0000466826EA050502FA07F6B6B23543456080
:102A10008568099E25EA0905A64035438560CDE70E
:102A2000BDE8F04F704700002DE9F04186B0164632
:102A300045F20042C4F2000245F6004445F60003A8
:102A40009042C4F20004C4F200030ED0A04207D0AA
:102A5000984212BF002540F25C05C2F2000508E072
:102A600040F2B005C2F2000503E040F20805C2F2F0
:102A70000005A042286045D0984222D0904240F004
:102A8000CA800020059043F64000C4F202000268AC
:102A9000052942F400120260006800F4001005905D
:102AA000059800F2B880DFE801F0039D81B6B6AD6D
:102AB00040F200404FF0040C0124C4F20200C02197
:102AC00099E00020049043F64000C4F2020002683E
:102AD000052942F480020260006800F4800004903E
:102AE000049800F29880DFE801F0036B5696967622
:102AF00040F200404FF0040C0124C4F202004FF4F5
:102B0000406178E00020039043F64000C4F20200E8
:102B10000268052942F400020260006800F4000027
:102B20000390039830D001291DD0002973D140F2C1
:102B30000044C4F20204A4F580604FF004080127A9
:102B40004FF4807101220123CDE90078FFF7EEFEFA
:102B500004F580604FF4007101220123CDE9007873
:102B6000FFF7E4FE57E040F20040C4F2020000F537
:102B7000C050042701244FF4C07101220123CDE984
:102B80000047FFF7D3FE46E040F20040C4F20200E7
:102B9000A0F5D4303CE040F20040C4F2020000F561
:102BA000C0504FF0040C0124302124E040F20040DA
:102BB0004FF0040C0124C4F202004FF410711AE02B
:102BC00040F20040C4F2020000F580504FF0040CC7
:102BD000012403210FE040F20040C4F20200A0F5FE
:102BE000D63015E040F200404FF0040C0124C4F24E
:102BF00002004FF4407101220123CDE9004CFFF7A0
:102C000095FE08E040F20040C4F20200A0F5D83082
:102C1000042100F013F800204FF48041C5E9016061
:102C2000C5E90301C5E90500C5E907002846FDF728
:102C300055FF002006B0BDE8F0810000704700009D
:102C400045F20042C4F20002904216D045F600421E
:102C5000C4F2000290420BD045F60002C4F200021A
:102C6000904212BF002040F25C00C2F2000008E077
:102C700040F2B000C2F2000003E040F20800C2F2ED
:102C8000000080B502220523FDF7A8FF002818BF29
:102C9000012080BDF0B583B00D4645F20041C4F27D
:102CA00000011C4688428DF80B2016D045F60041E5
:102CB000C4F2000188420BD045F60001C4F20001C5
:102CC000884212BF002640F25C06C2F2000608E00D
:102CD00040F2B006C2F2000603E040F20806C2F27B
:102CE00000064FF47A770DF10B0230462946012396
:102CF0000097FEF711FB38B93046294622460123DA
:102D00000097FEF76BF828B13046FDF7E5FE01208D
:102D100003B0F0BD002003B0F0BD0000F0B583B0FB
:102D20000D4645F20041C4F200011C4688428DF870
:102D30000B2016D045F60041C4F2000188420BD0AA
:102D400045F60001C4F20001884212BF002640F29D
:102D50005C06C2F2000608E040F2B006C2F20006CD
:102D600003E040F20806C2F200064FF47A770DF154
:102D70000B023046294601230097FEF7CDFA38B9F9
:102D8000089B3046294622460097FEF727F828B1CF
:102D90003046FDF7A1FE012003B0F0BD002003B0D6
:102DA000F0BD000010B582B045F20044C4F200044A
:102DB000A04216D045F60044C4F20004A0420BD055
:102DC00045F60004C4F20004A04212BF002440F201
:102DD0005C04C2F2000408E040F2B004C2F2000455
:102DE00003E040F20804C2F200048DF806208DF8DA
:102DF00007304FF47A7C0DF1060220460223CDF80D
:102E000000C0FEF789FA28B12046FDF765FE0120D3
:102E100002B010BD002002B010BD000010B584B09B
:102E200045F20044DDF818C0C4F20004A04216D0F8
:102E300045F60044C4F20004A0420BD045F600045D
:102E4000C4F20004A04212BF002440F25C04C2F2AB
:102E5000000408E040F2B004C2F2000403E040F2D3
:102E60000804C2F200044FF47A7000930290012328
:102E70002046FF2A88BF1023CDF804C0FEF7C8FB08
:102E800028B12046FDF728FE012004B010BD002027
:102E900004B010BD80B582B090F8441045F20040F7
:102EA000C4F200000DF107033A22FFF7F3FE9DF88C
:102EB0000700012121EA000002B080BDF0B581B019
:102EC000044641F0D00045F2004584F84400182043
:102ED000C4F2000584F84500FFF752FB41F680225A
:102EE000C0F2060228460121FFF79EFD94F8441027
:102EF0002846FFF7A5FE002840F0808094F8441093
:102F00000DF1030328467522FFF7C4FE9DF8030068
:102F1000712873D194F8441028466B220023FFF7E0
:102F200041FF6420FDF7B6FD94F8441028466B225B
:102F30000123FFF737FFC820FDF7ACFD94F84410DC
:102F400028461A2203230327FFF72CFF94F8441086
:102F5000284619220423FFF725FF94F844100DF1A9
:102F6000030628461B223346FFF794FE9DF8030014
:102F700094F8441000F0E50328461B228DF8033036
:102F8000FFF710FF94F8441028461C223346FFF741
:102F900081FE9DF8030094F8441000F0E7032846F2
:102FA0001C228DF80330FFF7FDFE94F844102846EC
:102FB0001D223346FFF76EFE9DF8030094F844107F
:102FC00067F303008DF8030000F0F30328461D2289
:102FD000FFF7E8FE94F84410284637222223FFF733
:102FE000E1FE94F84410284638220123FFF7DAFE68
:102FF00094F845102846FFF723FE10B1022001B0D7
:10300000F0BD94F8451028460A220023FFF7CAFEB7
:103010000A20FDF73FFD94F8451028460A220F23A9
:10302000FFF7C0FE0A20FDF735FD94F8451028464D
:103030000A220023FFF7B6FE0A20FDF72BFD94F8C5
:10304000451028460A221223FFF7ACFE0A20FDF79E
:1030500021FD4FF0625100224EF2000304F1380CC2
:103060000020C3F6FA32C3F6BF738CE80E0001B03D
:10307000F0BD000010B584B0044690F8441045F24D
:1030800000404FF0060CC4F200000DF10A033B2291
:10309000CDF800C0FFF742FEBDF80A00BDF80C20D5
:1030A000C1BA00BA000CA084D0BA12BABDF80E3072
:1030B000120CE284DABA00EE101A94ED0E1A02EE47
:1030C000100A03EE102A1BBAB8EEC00AB8EEC22AE4
:1030D000B8EEC33A1B0C21EE000A21EE022A21EEC3
:1030E000031A238584ED000A84ED012A002084ED73
:1030F000021A04B010BD000010B584B0044690F868
:10310000441045F200404FF0060CC4F200000DF1EF
:103110000A034322CDF800C0FFF700FEBDF80A0005
:10312000BDF80C20C1BA00BA000C6085D0BA12BA42
:10313000BDF80E30120CA285DABA00EE101A94ED2A
:103140000F1A02EE100A03EE102A1BBAB8EEC00ADC
:10315000B8EEC22AB8EEC33A1B0C21EE000A21EEEB
:10316000022A21EE031AE38584ED030A84ED042A82
:10317000002084ED051A04B010BD0000B0B584B085
:1031800045F2004590F84510C4F20005044602AB34
:1031900028460222FFF77EFD9DF80800C00716D0E2
:1031A00094F845104FF0070C0DF10903284603224F
:1031B000CDF800C0FFF7B2FD9DF80F00000706D460
:1031C000BDF80900DDF80B102086C4F8321000208D
:1031D00004B0B0BD70B592B0002543F64000019533
:1031E000C4F202000168022641F0805101600068CB
:1031F000012400F080500190019847F200000195F1
:10320000C4F20000016841F480410160006800F4EC
:103210008040019001984FF4803002904FF480007C
:103220000890082009904FF4A870CDE90A060720FD
:103230000C9001A8019404950796FEF7BFFC88B98D
:103240000F200D904FF4A05010904FF4805011902B
:103250000DA80621CDE90E65FEF798FB044600286F
:1032600018BF0124204612B070BD000080B5024690
:10327000002840F24C20C2F200004FF4806118BFD9
:10328000FF22FCF7AFFF80BD40F24422C2F20002F1
:10329000108040F24620C2F200000180704700001A
:1032A000F0B581B045F20044C4F20004FFF768F9BC
:1032B00041F68022C0F2060220460121FFF7B4FB4E
:1032C00020467821FFF7BCFC10B1002001B0F0BD12
:1032D0006420FDF7DFFB204678210022AE23002684
:1032E000FFF760FD2046782100222023FFF75AFDDA
:1032F0002046782100221023FFF754FD2046782134
:103300000022B023FFF74EFD204678210022C8237B
:10331000FFF748FD2046782100220023FFF742FDF9
:103320002046782100221023FFF73CFD204678211B
:1033300000224023FFF736FD20467821002281231A
:10334000FFF730FD204678210022FF23FFF72AFDFA
:10335000204678210022A123FFF724FD2046782172
:103360000022A623FFF71EFD204678210022A82375
:10337000FFF718FD2046782100223F23FFF712FDBA
:10338000204678210022A423FFF70CFD2046782157
:103390000022D323FFF706FD2046782100220023D8
:1033A000FFF700FD204678210022D523FFF7FAFC25
:1033B000204678210022F023FFF7F4FC20467821F4
:1033C0000022D923FFF7EEFC204678210022222399
:1033D000FFF7E8FC204678210022DA23FFF7E2FC21
:1033E0002046782100221223FFF7DCFC20467821BA
:1033F0000022DB23FFF7D6FC204678210022202381
:10340000FFF7D0FC2046782100228D23FFF7CAFC6D
:103410002046782100221423FFF7C4FC204678219F
:103420000022AF23FFF7BEFC40F24C25C2F200059C
:1034300028464FF48061FCF7DCFE802746F0B000A0
:10344000C3B2204678210022FFF7ACFC2046782149
:1034500000220023FFF7A6FC20467821002210233B
:10346000FFF7A0FC2046782140222B460097FFF76B
:10347000D5FC0136082E05F18005DFD140F244204D
:10348000C2F200000021018040F24620C2F200009A
:103490000180012001B0F0BD2DE9F04F85B040F270
:1034A0004423C2F200031B880F7804921F447F2F2D
:1034B00009D840F24622C2F2000217884A780297E1
:1034C0003A443F2A03D9002005B0BDE8F08F0090B0
:1034D0004878002864D040F24827C2F200073F78BD
:1034E000009AB7FA87F7203A01927A09049F40F2CE
:1034F0004C25002F18BF012757404FF0000BC2F298
:103500000005039705E000BF48780BF1010B8345E8
:1035100046D20F78002FF7D0019E4F68704307EB1B
:10352000400030F81B7002980124584400F0070650
:1035300004FA06FC4FF68076C0F20F0606EA001881
:103540006FEA0C094FF0000A80B209E03F2898BFEB
:10355000BEF17F0F1AD90E780AF1010AB245D3D213
:1035600003EB0A0607FA0AF424041FFA86FEEDD5D7
:103570003F2898BFBEF17F0FEDD8049CA24208D12E
:1035800008EB0E06AC5D44EA0C0407E0039C002C3B
:10359000F6D108EB0E06AC5D04EA0904AC55DAE797
:1035A000087840F244211844C2F2000108805DF816
:1035B000140BBDE8F08F00000378002B04BF00203F
:1035C000704770B514460D46461C00BFD8B2294658
:1035D0002246FFF761FF16F8011C884204D116F855
:1035E000013B002BF2D10021BDE870400846704736
:1035F000F0B581B040F24C2445F200450026C2F2FD
:103600000004C4F20005802746F0B000C3B228468B
:1036100078210022FFF7C6FB2846782100220023EC
:10362000FFF7C0FB2846782100221023FFF7BAFBE2
:1036300028467821402223460097FFF7EFFB01360A
:10364000082E04F18004DFD101B0F0BD70B582B066
:1036500003283CD8DFE800F0022C0B2100204FF0BB
:10366000070C0324C4F202004FF4C06129E00024D7
:10367000C4F202040725032620464FF400710022FD
:103680000123CDE90065FFF751F904F58060802141
:1036900000220123CDE9006517E00020C4F20200FA
:1036A000A0F57040072102B0BDE8704000F0A0BA5C
:1036B0000020C4F2020000F580604FF0070C0324E4
:1036C000C02100220123CDE9004CFFF72FF902B001
:1036D00070BD000080B582B0032833D8DFE800F069
:1036E0000220091644F60000C4F2000000F5DE30A6
:1036F0001CE044F60000C4F2000000F5E2304FF098
:10370000070C4FF0030E4FF4407115E044F6000033
:10371000C4F20000072102B0BDE8804000F068BAA2
:1037200044F60000C4F2000000F5E0304FF0070C52
:103730004FF0030E4FF4406100220123CDE900EC6D
:10374000FFF7F4F802B080BD2DE9F04F95B00446C4
:1037500044F2004043F62009C4F2000040F600069F
:103760008A46C4F202098442C4F20206CDE9032368
:1037700024D041F20000C4F20100844247D100206D
:103780000590D9F8240040F01000C9F82400D9F8B9
:10379000240000F0100005900598D9F8040040F0CE
:1037A0001000C9F80400D9F8040020F01000C9F88E
:1037B00004005046FFF74AFF25273CE00020059013
:1037C000D9F82000BAF1030F40F40030C9F8200006
:1037D000D9F8200000F4003005900598D9F80000D1
:1037E00040F40030C9F80000D9F8000020F400309F
:1037F000C9F8000019D0BAF1010F0AD0BAF1000FD0
:1038000018D1A6F50060072703250C2106E025271F
:1038100011E006F5806007270325602100220123BF
:10382000CDE90057FFF782F804E0A6F5E230072162
:1038300000F0DEF92627A6F5E030844202901DD183
:1038400000200590D9F8200040F48020C9F820001D
:10385000D9F8200000F4802005900598D9F80000E0
:1038600040F48020C9F80000D9F8000020F480203E
:10387000C9F800005046FFF72DFF2727A6F5DE3BCD
:103880005C4539D100200590D9F82000BAF1030F2A
:1038900040F40020C9F82000D9F8200000F40020EE
:1038A00005900598D9F8000040F40020C9F8000000
:1038B000D9F8000020F40020C9F8000017D0BAF1B0
:1038C000010F08D0BAF1000F15D1A6F50060082746
:1038D0000325032104E00827032530464FF4406107
:1038E00000220123CDE90057FFF720F803E05846F6
:1038F000082100F07DF93427A6F5DC35AC423AD139
:1039000000200590D9F82000BAF1030F40F4801090
:10391000C9F82000D9F8200000F48010059005981F
:10392000D9F8000040F48010C9F80000D9F8000070
:1039300020F48010C9F8000018D0BAF1000F19D196
:103940004FF00808032730464FF48051002201232E
:10395000CDE90078FEF7EAFF06F580600421002239
:103960000123CDE90078FEF7E1FF03E028460821B6
:1039700000F03EF93527A6F5744844453BD10020B8
:103980000590D9F82400BAF1030F40F02000C9F8DF
:103990002400D9F8240000F0200005900598D9F8FB
:1039A000040040F02000C9F80400D9F8040020F019
:1039B0002000C9F8040019D0BAF1010F08D0BAF1FB
:1039C000000F17D14FF0080C03273046C02106E046
:1039D00006F580504FF0080C03274FF48441002275
:1039E0000123CDE9007CFEF7A1FF03E0404608215A
:1039F00000F0FEF8472703980594069004980B9072
:103A00000C200A9000200990CDE907000C90384660
:103A1000FDF758FFA01B00F5E230B0FA80F0420934
:103A200002980621844208BF02225C4508BF042296
:103A3000AC4208BF05223846444508BF0622FDF7C0
:103A400069FF3846FDF754FF3846FDF729FF05A802
:103A5000FEF732FAE06840F02000E06015B0BDE803
:103A6000F08F000070B590B044F6FF73C4F200030D
:103A7000984217DC44F20044C4F20004A04261D032
:103A800044F60003C4F20003984263D044F60043B6
:103A9000C4F20003984240F09C8044F60C00C4F24B
:103AA00000009CE045F20004C4F20004A0424CD0A7
:103AB00041F20043C4F20103984200F08C8041F2CD
:103AC0000003C4F20103984240F08380002543F6CE
:103AD00020000095C4F20200436A164643F010032A
:103AE0004362436A03F010030093009B436843F072
:103AF00010034360436823F0100343600846FFF758
:103B0000A5FD04F54040CDE900060C20CDE90450A8
:103B100025200695CDE902550795FDF7D3FE252012
:103B200006210022FDF7F6FE2520FDF7E1FE252007
:103B3000FDF7B6FE6846FEF7BFF941F20C00C4F28D
:103B4000010042E044F2004001E045F20000C4F20E
:103B5000000046E0002543F620000095C4F2020074
:103B6000036A164643F480230362036A03F4802346
:103B70000093009B036843F480230360036823F4ED
:103B8000802303600846FFF7A5FD04F58060CDE9BA
:103B900000060C20CDE9045027200695CDE90255FA
:103BA0000795FDF78FFE272006210222FDF7B2FEC2
:103BB0002720FDF79DFE2720FDF772FE6846FEF7E1
:103BC0007BF944F60C00C4F20000016841F02001CA
:103BD000016010B070BD41F20C00C4F2010000F5AC
:103BE0007D70002310B0BDE87040FFF7ADBD000050
:103BF0007047000010B582B044F60044C4F20004DF
:103C0000206880060AD5606801A98DF8040040F29A
:103C10001010C2F200000122FEF76AFC00200190A1
:103C200021680191616801910199019021680191D8
:103C30006168019101990190216801916168019188
:103C400001990190216801916168019101990190A8
:103C5000206801906068019001983420FDF720FEF3
:103C600002B010BD10B582B045F20004C4F20004E9
:103C7000206880060AD5606801A98DF8040040F22A
:103C80002810C2F200000122FEF732FC0020019051
:103C90002168019161680191019901902168019168
:103CA0006168019101990190216801916168019118
:103CB0000199019021680191616801910199019038
:103CC000206801906068019001983520FDF7E8FDBB
:103CD00002B010BD2DE9F04381B004460068D4E97C
:103CE0000212E369076948F21F5827F440573A4324
:103CF0000261C26849F20C67BA43D4E90476114301
:103D0000394331431943C1604169A26921F44071CB
:103D10001143416141F20041B3F5004FC5F2EB1888
:103D200040F48060C4F2010138D188426ED1FDF7C1
:103D300001FF6168192778434900B0FBF1F0A0FB4F
:103D400008016FF00F0000EA5106FDF7F3FE61680D
:103D500078434900B0FBF1F5FDF7ECFE616878436C
:103D60004900B0FBF1F04FF06409A0FB08014809DD
:103D700000FB1950322101EBC000A0FB08014FF4F9
:103D8000F87000EA11100644FDF7D4FE616878432C
:103D90004900B0FBF1F5FDF7CDFE6DE0884278D12A
:103DA000FDF7C8FE6168192778438900B0FBF1F080
:103DB000A0FB08016FF00F0000EA5106FDF7BAFE04
:103DC000616878438900B0FBF1F5FDF7B3FE6168E7
:103DD00078438900B0FBF1F04FF06409A0FB0801C3
:103DE000480900FB1950322101EB0010A0FB08012B
:103DF000F02000EA51100644FDF79CFE616878430C
:103E00008900B0FBF1F5FDF795FE77E0FDF77EFE4A
:103E10006168192778434900B0FBF1F0A0FB080165
:103E20006FF00F0000EA5106FDF770FE61687843FD
:103E30004900B0FBF1F5FDF769FE61687843490080
:103E4000B0FBF1F04FF06409A0FB0801480900FB4A
:103E50001950322101EBC000A0FB08014FF4F870AB
:103E600000EA11100644FDF751FE616878434900ED
:103E7000B0FBF1F5FDF74AFE616878434900B0FBFD
:103E8000F1F0A0FB0801480900FB19500721C00010
:103E900040E0FDF73BFE6168192778438900B0FBDD
:103EA000F1F0A0FB08016FF00F0000EA5106FDF7EA
:103EB0002DFE616878438900B0FBF1F5FDF726FE21
:103EC000616878438900B0FBF1F04FF06409A0FB12
:103ED0000801480900FB1950322101EB0010A0FB3A
:103EE0000801F02000EA51100644FDF70FFE61685A
:103EF00078438900B0FBF1F5FDF708FE616878436F
:103F00008900B0FBF1F0A0FB0801480900FB195043
:103F10000F2100013230A0FB080201EA5210216893
:103F20003043886001B0BDE8F083000010B582B076
:103F300041F20004C4F20104206880060AD56068DA
:103F400001A98DF8040040F24010C2F200000122E5
:103F5000FEF7CEFA0020019021680191616801917D
:103F60000199019021680191616801910199019085
:103F70002168019161680191019901902168019185
:103F80006168019101990190206801906068019039
:103F900001982520FDF784FC02B010BD10B582B059
:103FA00044F20044C4F20004206880060AD5606828
:103FB00001A98DF8040040F25810C2F2000001225D
:103FC000FEF796FA00200190216801916168019145
:103FD0000199019021680191616801910199019015
:103FE0002168019161680191019901902168019115
:103FF00061680191019901902068019060680190C9
:1040000001982620FDF74CFC02B010BD10B582B01F
:1040100044F60004C4F20004206880060AD56068F3
:1040200001A98DF8040040F27010C2F200000122D4
:10403000FEF75EFA0020019021680191616801910C
:1040400001990190216801916168019101990190A4
:1040500021680191616801910199019021680191A4
:104060006168019101990190206801906068019058
:1040700001982720FDF714FC02B010BD10B582B0E6
:1040800041F20044C4F20104206880060AD5606849
:1040900001A98DF8040040F28810C2F2000001224C
:1040A000FEF726FA002001902168019161680191D4
:1040B0000199019021680191616801910199019034
:1040C0002168019161680191019901902168019134
:1040D00061680191019901902068019060680190E8
:1040E00001984720FDF7DCFB02B010BDFEE70000A1
:1040F00010B52DED088B90ED050A90ED07AA90ED17
:10410000081A90ED069A2AEE011A20EE090A30EEFE
:10411000010A044610EE100AFCF776F829EE090AA7
:10412000B6EE009A39EE400A2AEE0A1A30EE410A3B
:1041300041EC180B10EE100AFCF766F841EC110B7D
:10414000B0EE480AF0EE680A00F026FD51EC100BC4
:10415000FCF76DF894ED050A94ED061A94ED072A24
:1041600094ED083A22EE000A21EE031A30EE410ADD
:1041700030EE000A206010EE100AFCF745F841EC22
:10418000100B00F0EDF951EC100BFCF750F894ED2A
:10419000050A94ED061A94ED08AA94ED07BA20EEEC
:1041A0000A0A21EE0B1A31EE000A606010EE100AC6
:1041B000FCF72AF82BEE0B0A39EE400A2AEE0A1A0F
:1041C00030EE410A41EC180B10EE100AFCF71CF817
:1041D00041EC110BB0EE480AF0EE680A00F0DCFC8E
:1041E00051EC100BFCF723F894ED001A9FED173AF1
:1041F00000EE100A94ED034A21EE031A20EE030AA2
:1042000084ED001A9FED131A94ED012A30EE440A52
:10421000B4EE410A22EE032AF1EE10FA84ED012AEF
:1042200084ED020A02DA9FED0A1A06E09FED082AE1
:10423000B4EE420AF1EE10FA05DD30EE010A30EE7E
:10424000010A84ED020ABDEC088B10BDE12E654227
:1042500000003443000034C381B044F20041C4F292
:1042600000018DF80300CA68920408D50A68120696
:10427000FCD59DF803204A600A681206FCD501B0FF
:1042800070470000CEB044F20045C4F20005FEF7CE
:10429000A1FFFDF7CFFAFEF773F9FEF791F9284673
:1042A00000214FF46122FFF7DDFB40F2FC14C2F263
:1042B000000420460021FEF701FE20B171A001F0AC
:1042C000C9FA00BFFEE740F6144672A0C4F2020627
:1042D00001F0C0FA05F5DE3001210022FEF788F971
:1042E00040F2D4109FED700A9FED701AC2F20000E8
:1042F000F6EE000AFDF756FFFEF7D2FF002800F0A9
:10430000B9804FF4805040F2081870600DF5837743
:1043100035AE0DF1A205C2F200080DF1700A0DF1E3
:104320003E090DF10C0B00BF2046FEF7B3FD00283F
:10433000FAD12046FEF79EFE2046FEF7DDFE20461F
:10434000FEF71CFF04F10C00D4EC031A90EC030AF6
:1043500040F2D410C2F20000FDF736FF0020FEF755
:1043600085FF2068FBF750FF41EC100B38463221E7
:104370004FA28DED000B00F0BFF86068FBF744FF23
:1043800041EC100B304632214CA28DED000B00F0B9
:10439000B3F8A068FBF738FF41EC100B2846322138
:1043A00049A28DED000B00F0A7F80A200421FEF7CA
:1043B0006BFF384641460122FFF7FEF8082019211D
:1043C000FEF762FF304641460122FFF7F5F80F2065
:1043D0002D21FEF759FF284641460122FFF7ECF850
:1043E000E068FBF711FF41EC100B5046322139A277
:1043F0008DED000B00F080F82069FBF705FF41EC24
:10440000100B4846322136A28DED000B00F074F8F7
:104410006069FBF7F9FE41EC100B5846322133A2DC
:104420008DED000B00F068F814200421FEF72CFF3E
:10443000504641460122FFF7BFF812201921FEF72E
:1044400023FF484641460122FFF7B6F819202D21E7
:10445000FEF71AFF584641460122FFF7ADF8FFF775
:10446000C7F86420FCF716FBFFF7C2F86420FCF7DE
:1044700011FB59E7306880F4704030603220FCF75F
:1044800009FBF7E7446576696365206572726F72B0
:10449000210D000044657669636520636F6E6E656B
:1044A00063746564210D000000007A440000000080
:1044B0004163636558203D252E3266004163636584
:1044C00059203D252E326600416363655A203D2503
:1044D0002E32660047797258203D252E3266000044
:1044E00047797259203D252E326600004779725A6D
:1044F000203D252E326600000FB47CB50C0009ADBE
:1045000001D0611E00E00021CDE90001064B6A46A2
:104510002946089800F0E8FD002C02D0009A0021FE
:1045200011707CBC5DF814FB1758000803B40198A7
:104530004100009850EAC12018BF04204A0D18BF5E
:1045400040F0010040F2FF72B2EB515F08BF40F053
:104550000200012808BF052002B0704700000000DB
:1045600070B5C1482DED020B2DED0E8B82B0119D63
:1045700025F000449FEDBEDB9FEDBFEB84423EDBA8
:10458000A4F140511098A1F17F6108430FD0BC48BD
:10459000844202DC28D1109830B39DED100B02B09C
:1045A000BDEC0E8B02B0BDE8704000F08EBC9DEDFE
:1045B000100B53EC1D2B51EC100BFBF779FF9DED0D
:1045C000100B41EC180B53EC1E2B51EC100BFBF7AE
:1045D0006FFF53EC182BFBF7C4FE41EC100B02B03D
:1045E000BDEC0E8B02B070BD012000F0B5FC02B036
:1045F000BDEC0E8B02B0BDE8704000F07DBCA14860
:104600009FEDA18B844256DA9DED100BB4F1795FDA
:104610000ADA51EC100BFFF789FF042808BF00F0FD
:104620007BFC9DED100BDAE753EC102B51EC100BDB
:10463000FBF73EFF41EC190B95480621B0EE490A05
:10464000F0EE690A784400F0C4FB53EC192B51ECEE
:10465000100BFBF72DFF41EC1A0B8E48B0EE490A08
:10466000F0EE690A0421784400F0B3FB53EC192BF7
:1046700051EC100BFBF71CFF53EC182BFBF771FEF2
:1046800041EC100B51EC1A0B53EC102BFBF782FF93
:10469000CDE900019DED000B53EC102B9DED100BAF
:1046A00051EC100BFBF704FF9DED101B53EC112B8D
:1046B000FBF757FED2E09DED100B51EC100B01F013
:1046C000BDF853EC182BFBF7F0FE9FED730BCDE913
:1046D000000153EC102B9DED000B51EC100BFBF780
:1046E000E7FE41EC190B6E480621B0EE490AF0EEE8
:1046F000690A784400F06DFB53EC192B51EC100B58
:10470000FBF7D6FE41EC1B0B6648B0EE490AF0EE13
:10471000690A0421784400F05CFB53EC192B51EC3E
:10472000100BFBF7C5FE53EC182BFBF71AFE41EC00
:104730001C0B51EC190B01F09FF841EC180B5A4877
:104740009FED5BABA04222DC53EC1C2B51EC1B0B0E
:10475000FBF720FFCDE900019DED000B51EC180B9C
:1047600053EC102BFBF7A4FE53EC182BFBF7F9FDD1
:1047700053EC1A2BFBF79CFE53EC1D2BFBF792FE20
:1047800053EC1E2BFBF791FE41EC100B5FE08DED1F
:10479000008B002000909DED000B51EC180B53ECAA
:1047A000102BFBF7DEFD9DED000B41EC1E0B53ECD7
:1047B000102B51EC100BFBF77BFE53EC192BFBF786
:1047C00074FE53EC1E2BFBF7E5FE41EC190B53EC8A
:1047D0001C2B51EC1B0BFBF7DDFE41EC1B0B53ECD0
:1047E0001A2B51EC190BFBF763FE53EC1D2BFBF757
:1047F0005CFE41EC190B53EC1A2B51EC180BFBF738
:1048000057FE53EC1B2BFBF753FE53EC192BFBF716
:1048100049FE9DED000B41EC180B53EC1A2B51ECAB
:10482000100BFBF745FE9FED249B53EC192BFBF778
:104830003CFE41EC100B51EC180B53EC102BFBF72A
:1048400031FE53EC192BFBF730FE41EC100B002D21
:104850003FF7C5AE51EC100B81F0004141EC100B5D
:10486000BDE60000000000000000F03F0000000076
:10487000075C143326A6913C182D4454FB21F93FC4
:104880000000F07F0000E03F000000000000F03F6B
:10489000A0120000AE120000000000000000E03F87
:1048A000F2110000001200003333EF3F000000005F
:1048B0000000000000000040182D4454FB21E93F97
:1048C00070B59B482DED020B2DED068B079D25F055
:1048D0000044A04218DC9748844202DC0AD10698C2
:1048E00040B19DED060BBDEC068B02B0BDE87040FB
:1048F00000F0EBBA002DCCBF9FED8F0B9FED900B1E
:10490000BDEC068B02B070BD8F48A04215DD8F480C
:10491000A042D8BF4FF0FF3458DD9DED060B51EC9F
:10492000100BFFF703FE042808BF00F0F5FA9DED19
:10493000060BBDEC068B02B070BD9DED060B51EC75
:10494000100B00F07BFFCDE9060181489FED828BC3
:10495000A0423CDD8248A0421FDD00249FED82ABD7
:104960009DED060B53EC1A2B51EC100BFBF7F9FCE9
:104970009DED060B41EC190B53EC1A2B51EC100B6F
:10498000FBF796FD53EC182BFBF78CFD53EC192B22
:10499000FBF700FECDE9060149E09DED060B012481
:1049A00053EC182B51EC100BFBF7DBFC9DED060BC9
:1049B00041EC190B53EC182B51EC100BFBF772FD6B
:1049C00053EC192BFBF7E6FDCDE906012FE0684813
:1049D000A0421FDD02249FED689B9DED060B53EC6A
:1049E000192B51EC100BFBF763FD53EC182BFBF765
:1049F000B8FC9DED060B41EC180B53EC192B51EC58
:104A0000100BFBF74FFD53EC182BFBF7C3FDCDE963
:104A100006010CE09DED060B032453EC102B9FEDDB
:104A2000580B51EC100BFBF7B5FDCDE906019DEDE0
:104A3000060B53EC102B51EC100BFBF739FD41EC3E
:104A4000180B53EC182BFBF733FD41EC190B4E48B8
:104A50000621B0EE490AF0EE690A784400F0B9F98F
:104A600053EC182B51EC100BFBF722FD41EC180B0B
:104A70004648B0EE490AF0EE690A0521784400F094
:104A8000A8F953EC192B51EC100BFBF711FD41EC7D
:104A9000100B51EC180B53EC102B002C0EDAFBF71B
:104AA00060FC9DED061B53EC112BFBF701FD9DED0A
:104AB000061B53EC112BFBF7F8FC35E0FBF751FC20
:104AC0009DED061B53EC112BFBF7F2FC41EC100B98
:104AD0002F48784400EBC40090ED001B51EC100B04
:104AE00053EC112BFBF7DEFC9DED061B53EC112B59
:104AF000FBF7D8FC41EC100B2648784400EBC400CF
:104B000090ED001B51EC100B53EC112BFBF7CDFC7F
:104B100041EC100B002DA2BFBDEC068B02B070BDA6
:104B200051EC100B81F0004141EC100B01E700004B
:104B3000000010440000F07F182D4454FB21F93F81
:104B4000182D4454FB21F9BF0000DC3F0000203E3B
:104B50000000F33F00000000000000000000F03FF4
:104B60000000E63F000000000000000000000040E0
:104B70000080034000000000000000000000F83F3B
:104B8000000000000000F0BF420F0000F80E00001F
:104B9000820E00003A0E000070B56F4E2DED040B32
:104BA0002DED048B82B0DDF824C0DDE907235C42E3
:104BB0002CF000411C4341EAD474069D22F00040D1
:104BC000B44205D86C422C4340EAD474B4420BD9A9
:104BD0009DED081B9DED060B02B0BDEC048B04B0EF
:104BE000BDE8704000F07BB9ACF14054A4F17F64A3
:104BF0001C430BD0022404EAAC7444EAD27405438B
:104C00009FED578B9FED582B07D015E09DED060BC0
:104C100051EC100B00F00AFE42E0002C11BF012CF9
:104C20009DED060B02B0BDEC048B04BF04B070BD5B
:104C3000022C38D0032C3BD00B439FED4D1B9FED36
:104C40004E0B0AD0B14218D1B04209D121F08041B7
:104C500020F08040099107900FE0002A15DA10E05B
:104C6000474B7B44002C08BF93ED000B0DD0012C6B
:104C700010D0022C17D0032C1AD0B0421DD1002A1C
:104C800003DAB0EE410AF0EE610A02B0BDEC048B2B
:104C900004B070BD93ED000B51EC100B81F000419E
:104CA00041EC100BF1E7B0EE480AF0EE680AECE7D1
:104CB000B0EE420AF0EE620AE7E7401A00159FEDF7
:104CC000329B3C28C8BF8DED000B17DCBCF1000FF8
:104CD000BCBF10F13C0F8DED009B0FDB9DED080B71
:104CE00053EC102B9DED060B51EC100BFBF752FC17
:104CF00000F0A4FD00F09AFDCDE90001B4B1012C53
:104D000010D0022C9FED220B53EC102B9DED000BCD
:104D100051EC100B19D0FBF7C5FB53EC182BFBF72C
:104D2000C1FBBDE7019880F0004001909DED000BB4
:104D300053EC192B51EC100BFBF7B4FC04BF022011
:104D400000F00AF99DED000B9FE7FBF7ABFB53EC7E
:104D5000182BFBF7AAFBA3E70000F07F0000000080
:104D6000182D4454FB210940182D4454FB2109C03F
:104D7000182D4454FB21F9BF182D4454FB21F93F51
:104D80006A0D0000000000000000000000000000AC
:104D9000075C143326A6A13C10B52DED028BB1EEB5
:104DA000C08A18EE100A20F00040C0F1FF40C00F8A
:104DB0000AD010EE100A20F00040C0F1FF40C00FF2
:104DC00004BF012000F0C8F8B0EE480ABDEC028B29
:104DD00010BD70B504462DED028B4D1E00EBC500D5
:104DE000B0EE408AF0EE608A90ED000B35F00600E0
:104DF00017D053EC182B51EC100BFBF759FB41EC7F
:104E0000100B6D1E04EBC50090ED001B51EC100B58
:104E100053EC112BFBF7A5FA41EC100B35F0060013
:104E2000E7D1022D36D0042D1CD0062D1CBFBDECC1
:104E3000028B70BD53EC182B51EC100BFBF738FBB9
:104E400094ED0A1B53EC112BFBF78BFA53EC182B48
:104E5000FBF72EFB94ED081B53EC112BFBF781FAAB
:104E600041EC100B53EC182B51EC100BFBF720FB13
:104E700094ED061B53EC112BFBF773FA53EC182B34
:104E8000FBF716FB94ED040B53EC102BFBF769FAC0
:104E900041EC100B53EC182B51EC100BFBF708FBFB
:104EA00094ED021B53EC112BFBF75BFA53EC182B20
:104EB000FBF7FEFA94ED001B53EC112BFBF751FAB4
:104EC000BDEC028B41EC100B70BD10B553EC102BF8
:104ED00051EC100BFBF745FA41EC100B10BD10B56F
:104EE00053EC112B51EC100BFBF73BFA41EC100B80
:104EF00010BD0000000000009FED050B10B553EC45
:104F0000102B51EC100BFBF745FB41EC100B10BDC7
:104F100000000000000000009FED050B10B553ECF1
:104F2000102B51EC100BFBF7C3FA41EC100B10BD2A
:104F3000000000000000001002E008C8121F08C1B5
:104F4000002AFAD170477047002001E001C1121F0A
:104F5000002AFBD17047000001490860704700003B
:104F6000040000202DE9FF5F82B00021DDE904305C
:104F7000020DDDF840B0034318D044F61050A2F201
:104F8000FF3242431514119801281FD0A5EB0B00E6
:104F9000401C5FEA000A4FF000064E4FDFF83891E0
:104FA000B046504615D5CAF1000413E0119801240B
:104FB0004AA3012801D16FEA0B010298119AC0E9B6
:104FC0000031C0E9024206B0BDE8F09FCBF100001D
:104FD000DFE704460021404A491842EB0450CDE97E
:104FE000001012E0E00707D032463B4640464946F3
:104FF000FBF75EFA8046894632463B461046194624
:10500000FBF756FA06460F466410002CEAD1DDE99C
:105010000401DDE90023BAF1000F06DAFBF748FAD4
:1050200042464B46FBF744FA05E0FBF7B3FA42462B
:105030004B46FBF7AFFA04460E460022284BFBF71F
:1050400049FB03D84FF0FF30014607E00022254B13
:1050500020463146FBF785F9FBF70BFB102409E0EE
:10506000002C0ADB0A220023FBF713F9039B3032E2
:105070001A55641E50EA0102F2D1641C039AC4F16D
:1050800011031444119A012A03D0012208430DD1BF
:105090000AE0084304D000204FF0110B119072E792
:1050A000A3EB0B056D1E0DE05B4504DD4FF0000228
:1050B00005F1010504E003DA4FF00002A5F1010556
:1050C000002AECD002981199C0E90231C0E90045EC
:1050D00079E70000000014400000F03F30000000BD
:1050E0000000F0430000E03F2DE9FF4F95B09B46E4
:1050F0008946064600250FE2252877D10024274659
:10510000F84A0121059400E0044316F8013F203BD2
:1051100001FA03F01042F7D130782A2811D06FF04D
:105120002F033078A0F13002092A16D8059A44F0EE
:10513000020402EB820203EB42021044761C05904B
:10514000EFE759F8042B0592002A03DA504244F4A1
:105150000054059044F00204761C30782E2816D1B5
:1051600016F8010F44F004042A280DD06FF02F0226
:105170003078A0F13003092B09D807EB870302EB45
:105180004303C718761CF3E759F8047B761C307884
:105190006C280FD006DC4C2817D068280DD06A2860
:1051A00014D104E0742810D07A280FD10DE044F413
:1051B00000140AE044F4801401E044F440147278CE
:1051C000824202D104F58014761C761C3078662861
:1051D0000BD013DC582877D009DC002875D045287F
:1051E000F6D04628F4D047281AD19DE118E063286C
:1051F00035D0642879D0652812D195E1702873D014
:1052000008DC6728F1D069286FD06E280DD06F2890
:1052100006D1B5E073282CD0752875D0782874D0C5
:105220005A46179990476D1C75E1C4F30250022845
:1052300009D003280DD0D9F8001004280DD00D6036
:1052400009F1040967E1D9F80010EA17C1E9005231
:10525000F6E7D9F800100D80F2E70D70F0E719F8C5
:10526000041B8DF8001000208DF80100EA46012093
:1052700003E059F804AB4FF0FF3061074FF0000135
:1052800002D40DE008F101018846B9420FDA8045E9
:10529000F8DB1AF808100029F4D108E008F1010140
:1052A00088468142FADB1AF808100029F6D10598E1
:1052B0005B46A0EB080721463846179A00F094FA9F
:1052C000284400EB080507E04DE029E10DE01AF85D
:1052D000010B5A4617999047B8F10108F7D25B467F
:1052E00021463846179A13E142E00A220092C4F39D
:1052F00002524FF0000A022A08D059F804CB032AC0
:105300004FEAEC710AD00DE029E02AE009F107012B
:1053100021F00702F2E802C1914609E00FFA8CFC85
:105320004FEAEC71042A03D14FFA8CFC4FEAEC717E
:10533000002907DA0A460021DCF1000C61EB0201CA
:105340002D2202E0220504D52B228DF80420012213
:1053500003E0E20701D02022F7E7904659E00A2156
:1053600002E010220DE010214FF0000A00910BE046
:1053700010224FF0000A44F004040827009203E0D2
:1053800008224FF0000A0092C4F30252022A05D00C
:1053900059F804CB0021032A08D009E009F10701DC
:1053A00021F00702F2E802C1914605E01FFA8CFCE9
:1053B000042A01D10CF0FF0C4FF00008220728D579
:1053C000702806D0009B83F0100353EA0A0305D02F
:1053D0000EE040228DF80420012208E05CEA010280
:1053E00006D030228DF804208DF805000222904668
:1053F000009B83F0080353EA0A030AD15CEA010226
:1054000001D1620705D530228DF804204FF0010844
:105410007F1E582804D034A003900EA802900DE0FF
:1054200036A0F9E753466046009AFAF732FF844601
:105430000398825C0298401E029002705CEA0100B0
:10544000F0D1029806A9081A00F1200A600702D5D7
:1054500024F4803400E00127574502DDA7EB0A0061
:1054600000E0002000EB0A01009005984144401A3A
:105470000590E00306D45B462146179A059800F094
:10548000B3F90544002706E001A85A46C05D179904
:1054900090476D1C7F1C4745F6DBE0030CD55B464F
:1054A0002146179A059800F09FF9054404E0302042
:1054B0005A46179990476D1C0099481E0090002984
:1054C000F5DC08E0029802995A460078491C0291DE
:1054D000179990476D1CBAF10001AAF1010AF1DC9D
:1054E00065E10000092801003031323334353637A8
:1054F0003839616263646566000000003031323320
:1055000034353637383941424344454600000000BF
:1055100000F058F90544761C307800287FF4ECAD93
:1055200019B02846BDE8F08F620700D4062709F1BC
:10553000070222F0070CFCE80223E14603F00048D2
:105540005FEA080C02D00FF2702C0DE05FEA045CF9
:1055500002D50FF2682C07E05FEAC47C02D00FF29C
:10556000602C01E0AFF2700C4FF0FF3823F00043E5
:10557000CDF850C065280CD006DC452809D0462857
:105580001DD047283DD13DE0662818D067287ED140
:1055900038E00021112F01DB112000E0781CCDE95B
:1055A000000106A90EA8FFF7DDFCDDE90F010E9A48
:1055B00003910021009207F1010A04914DE04FF0A0
:1055C00000400097CDE9011006A90EA8FFF7CAFC1C
:1055D000DDE90F0203920E9B11990022DDF80CA069
:1055E0000093049211B9791C00EB010AB7EB0A0091
:1055F00004D4C0F1FF3007F1010A0490AAEB0700C0
:10560000019044E0012F00DA01270021112F01DD74
:10561000112000E03846CDE9000106A90EA8FFF7E9
:10562000A1FCDDE90F010E9A039100210491009283
:10563000BA4621070CD40399514500DA8A46BAF1DB
:10564000010F05DD009AAAF10101515C302908D053
:10565000B84202DA10F1040F06DA0121CDE9011097
:1056600015E0AAF10101E9E7002805DC04990144ED
:105670000491AAEB000102E0411C514500DD8A467D
:105680000499401A401C01904FF0004002902007FE
:1056900004D40198504501DBCDF8048000208DF83A
:1056A0004F0002980DF14F07B0F1004F25D02B208D
:1056B0000E9002984FF0020800280CDA4042029047
:1056C0002D200E9007E00A210298FAF7CCFD303128
:1056D000029007F8011DB8F10001A8F10108F2DC01
:1056E00002980028EFD1791E0E980870307800F0EB
:1056F000200040F0450007F8020D12A8C01B00F181
:1057000007081498007800B1012000EB0A01019805
:1057100001EBE07105984144401A401E0590E003FA
:1057200006D45B462146179A059800F05DF80544BB
:105730001498007818B15A46179990476D1CE003E9
:1057400024D55B462146179A059800F04DF805448C
:105750001CE00498002807DBDDE90301884203DD33
:105760000098405C179901E0179930205A469047FD
:10577000049805F10105401C04900198401E019019
:1057800004D12E205A46179990476D1CBAF100019A
:10579000AAF1010ADDDC05E017F8010B5A4617995A
:1057A00090476D1CB8F10001A8F10108F4DC5B46DC
:1057B0002146179A0598ABE62D0000002B0000004B
:1057C000200000002DE9F041044600251E46174642
:1057D000880404D405E039462020B0476D1C641EBF
:1057E000F9D52846BDE8F0812DE9F04104460025B1
:1057F0001E469046C80301D5302700E020278804C4
:1058000004D505E041463846B0476D1C641EF9D505
:105810002846BDE8F0814A68002A06D00A68531C71
:105820000B6010704868401E4860704710B541EC2E
:10583000100BFFF745F851EC100B10BD82B0CDE90D
:10584000000121F0004001909DED000B02B051ECF1
:10585000100B704710B5044601E0FEF7FDFC14F88C
:10586000010B04490028F8D1BDE810400A20FEF7DA
:10587000F3BC00000000002000B52DED048B83B0C8
:1058800041EC190BFAF7E4FF41EC180B18EE100A83
:1058900018EE901A8DED008B002818BF01200843E8
:1058A00020F00040C0F17F6000F1E040C00F14D054
:1058B00019EE101A19EE900A8DED009B002918BF01
:1058C0000121084320F00040C0F17F6000F1E0407A
:1058D000C00F04BF0120FFF73FFB51EC180B03B0D2
:1058E000BDEC048B00BD0000555555555555C53FC1
:1058F0007D6FEB0312D6D4BF5544880E55C1C93F06
:105900003B8F68B52882A4BF88B20175E0EF493F9C
:1059100009F7FD0DE13D023F4B2D8A1C273A03C0DC
:10592000C88A599CE52A004059018D1B6C06E6BFC8
:1059300082922EB1C5B8B33F4FBB610567ACDD3F66
:10594000182D4454FB21E93F9BF681D20B73EF3FA6
:10595000182D4454FB21F93FE2652F227F2B7A3C1E
:10596000075C143326A6813CBDCBF07A8807703CD7
:10597000075C143326A6913CC4EB98999999C9BF4A
:10598000711623FEC671BCBF6D9A74AFF2B0B3BF7F
:105990009AFDDE522DDEADBF2F6C6A2C44B4A2BF3F
:1059A0000D5555555555D53FFF8300922449C23FAB
:1059B0006E204CC5CD45B73F513DD0A0660DB13FDF
:1059C000EB0D76244B7BA93F11DA22E33AAD903FF1
:1059D00000000000000000000000000000000000C7
:1059E0000102030406070809000000000102030485
:1059F00000000000000000000000000000000000A7
:105A00000000000000100010001000100010001036
:105A100000000010000000000028002800280000FE
:105A2000000000000000000000000000002400242E
:105A3000007C00240048007C004800480000000072
:105A4000003800540050003800140054005400384E
:105A500000100000002000540058003000280054BE
:105A600000140008000000000010002800280010AA
:105A7000003400480048003400000000001000100E
:105A80000010000000000000000000000000000006
:105A9000000800100020002000200020002000202E
:105AA000001000080020001000080008000800088E
:105AB0000008000800100020001000380010002826
:105AC00000000000000000000000000000000000D6
:105AD00000100010007C001000100000000000000A
