:020000040800F2
:10000000800B0020AD010008295800082D58000879
:100010003158000835580008395800080000000021
:100020000000000000000000000000003D58000833
:100030004158000800000000455800084D580008CD
:10004000C7010008C7010008C7010008C701000870
:10005000C7010008C7010008C7010008C701000860
:10006000C7010008C7010008C7010008C701000850
:10007000C7010008C7010008C7010008C701000840
:10008000C7010008C7010008C70100080000000000
:10009000000000000000000000000000C701000890
:1000A000C7010008C7010008C7010008C701000810
:1000B000C7010008C7010008C7010008C701000800
:1000C000C7010008C7010008C7010008C7010008F0
:1000D000C7010008F9340008693500080000000075
:1000E000C7010008C7010008C701000800000000A0
:1000F000000000000000000000000000C701000830
:1001000000000000C7010008C7010008C70100087F
:1001100000000000000000000000000000000000DF
:10012000C7010008C7010008C7010008C70100088F
:10013000C7010008000000000000000000000000EF
:10014000000000000000000000000000C7010008DF
:10015000C7010008C7010008C7010008D935000819
:10016000C7010008C70100080000000000000000EF
:10017000000000000000000000000000000000007F
:1001800000000000C701000800000000000000009F
:10019000C7010008C7010008DFF80CD005F0E2FE37
:1001A0000048004739560008800B00200648804769
:1001B00006480047FEE7FEE7FEE7FEE7FEE7FEE74C
:1001C000FEE7FEE7FEE7FEE7515800089901000848
:1001D00080B543F60040C4F20200016841F40071AA
:1001E0000160016841F480610160016841F480713F
:1001F0000160032000F0DEF80F2000F005F800F0A9
:100200004BFF002080BD00BF10B540F21001C2F2CC
:100210000001096844F6D352C1F26202A1FB021246
:100220000446900900F03EF94FF0FF3021460022CD
:1002300000F0D0F8002010BD704700BF80B543F635
:100240001000C4F202004FF0FF3100220161026190
:100250004161426101600260416042608160826090
:1002600000F01CFF002080BD704700BF40F27C30D2
:10027000C2F20000016801310160704740F27C3039
:10028000C2F2000000687047B0B582B0019002F081
:10029000B7FD019904464D1C28BF4FF0FF3500BF44
:1002A00002F0AEFD001BA842FAD302B0B0BD00BF01
:1002B0004EF21000CEF20000016821F00201016050
:1002C000704700BF4EF21000CEF20000016841F00E
:1002D00002010160704700BF40F20010C0F2071039
:1002E000704700BF42F20000CEF204000068000C2C
:1002F000704700BF42F20000CEF2040000686FF3C6
:100300001F30704742F20400CEF20400016841F051
:1003100001010160704700BF42F20400CEF2040008
:10032000016821F001010160704700BF42F2040042
:10033000CEF20400016841F002010160704700BF85
:1003400042F20400CEF20400016821F002010160D3
:10035000704700BF42F20400CEF20400016841F091
:1003600004010160704700BF42F20400CEF20400B5
:10037000016821F004010160704700BF40F20040B5
:10038000C4F2272001210160704700BF40F2004005
:10039000C4F2272000210160704700BF47F61021FA
:1003A000C1F6FF710A6802604A684260896881602C
:1003B000704700004EF60C51CEF200010A684FF66D
:1003C000FF031A4060F30A2242F0806040F0FD70A3
:1003D0000860704710B54EF60C5CCEF2000CDCF8ED
:1003E0000030C3F3022E8EF00704042C28BF04242F
:1003F000BEF103034FF0FF3E0EFA04F438BF0023B2
:10040000A14399400EFA03F39A43114300F160426D
:1004100000F00F03090102F56442043B6344002825
:1004200048BF03F10C02117010BD00BF002848BF87
:10043000704700F01F01012202FA01F11C2202EABA
:10044000D0004EF20012CEF200028150704700BF81
:10045000002848BF704700F01F01012202FA01F195
:100460001C2202EAD0004EF28012CEF2000281502D
:10047000BFF34F8FBFF36F8F704700BF00F000F8DE
:100480004EF60C50BFF34F8FCEF2000001680422ED
:1004900001F4E061C0F2FA5211430160BFF34F8FE3
:1004A00000BFFDE7411E0020B0EB116F1CBF012013
:1004B00070474EF21002CEF2000251604EF6235108
:1004C000CEF20001F0230B7007219060116070479D
:1004D0004EF62450BFF35F8FCEF20000016821F486
:1004E0008031016000210167704700BF4EF6245142
:1004F00040F00100CEF200010867086840F4803047
:100500000860BFF34F8FBFF36F8F7047F0B502786D
:100510004EF69C5C4378CEF2000C4CF8043CF2B1F1
:100520004368CCF80030037BC17A90F80AE042EAD5
:100530000372447B42EA0161857B41EACE41C67B7E
:1005400041EA8441477A41EA4541007A41EA06415D
:1005500041EA072141EA4000CCF80400F0BD002048
:10056000CCF80000CCF80400F0BD00BF4EF60C50F3
:10057000CEF200000068C0F30220704710B500F111
:10058000604C4EF614540CF5644C00F00F0ECEF295
:10059000000401F00701002848BF0EEB040C9CF892
:1005A00000E081F00704042C4FEA1E1C28BF04243D
:1005B000033938BF00212CFA01F04FF0FF3C0CFA50
:1005C00004F4A04310600CFA01F0C04300EA1E10CE
:1005D000186010BD002848BF704700F01F010122BD
:1005E00002FA01F11C2202EAD0004EF20022CEF201
:1005F00000028150704700BF002844BF00207047B0
:100600001C214EF2002201EAD001CEF200028958EC
:1006100000F01F0021FA00F000F00100704700BF59
:10062000002848BF704700F01F01012202FA01F1C3
:100630001C2202EAD0004EF28022CEF2000281504B
:10064000704700BF002844BF002070471C214EF2B5
:10065000003201EAD001CEF20002895800F01F00FA
:1006600021FA00F000F00100704700BF4EF21001C7
:10067000CEF200010A68042822F0040208BF043206
:100680000A607047AFF30080704700002DE9F04129
:10069000044602F0B5FBC4B10546002084F83400DE
:1006A000022084F835002068016821F00101016012
:1006B00020680168C9070BD002F0A2FB401B052887
:1006C000F6D90321202203207AE00120BDE8F08141
:1006D000016848F23F02CFF21002D4E9013501EA85
:1006E000020ED4E9032143EA0E032B43D4E9056C3F
:1006F0001A43D4E907781143314341EA0702616A9A
:1007000042EA0802042942EA0C0303D1D4E90B2788
:100710003A43134303604269042922F0070241EA85
:1007200002012DD1D4E90A5341EA050143B3BCF5D6
:10073000005F08D0BCF1000F12D1022D16D0012DA0
:1007400007D09DB119E0032D17D8DFE805F00B0F96
:100750000B02A3F1C072B2FA82F252094AB90FE059
:10076000032D02D2012222B90AE006D1C3F30062AE
:1007700032B101214022012022E00022002AF8D1DA
:1007800000F0F8024AF6AB23103ACAF6AA23A2FBFD
:10079000033747F2584341613909C0F60003595CF9
:1007A00040F2FF3398435F2A4FF03F0288BF043086
:1007B000C4E9160102FA01F1816000220121002042
:1007C000626584F83510BDE8F08100BF002804BFE1
:1007D0000120704790F83510022904BF02207047AD
:1007E000B0B501684AF6AB2201F0F803D1F800C0B9
:1007F000A3F11005CAF6AA22A5FB022E2CF00102D5
:100800000A600022212347F258440A604A608A6045
:10081000CA600A614B614FEA1E13C0F60004E35C34
:1008200040F2FF34A1435F2D4FF03F0588BF0431F4
:10083000C0E9161305FA03F38B60426580F8352092
:1008400080F834200020B0BD90F834C0BCF1010F16
:1008500031D04FF0010C80F834C090F835C0BCF1B5
:10086000010F25D110B54FF0020C80F835C0844639
:100870000020CCF85400DCF800E0DCF808C0DEF81A
:100880000040BCF1400F24F48024CEF80040CEF8A4
:1008900004300B4604BF13460A46CEF80830CEF8A3
:1008A0000C20DEF8001041F00101CEF8001010BD60
:1008B000002180F834100220704700BF90F834C047
:1008C000BCF1010F04BF0220704770B54FF0010C5E
:1008D00080F834C0D0F858E090F835C0BCF1010F72
:1008E0003DD14FF0020C80F835C04FF0000CC0F83D
:1008F00054C0D0F800C08468056CC06DDCF800609E
:10090000402C26F48026CCF80060CCF804300B464E
:1009100004BF13460A463F2101FA00F0CCF8083024
:10092000CCF80C20CEF80800DCF8000040F01600EF
:10093000CCF80000DCF8140040F08000CCF8140083
:100940002DB1DCF8000040F00800CCF80000DCF825
:10095000000040F00100CCF80000002070BD002134
:1009600080F83410022070BD70B5866D044602F028
:1009700047FA94F83510022928D105462068216CE1
:10098000026822F016020260426922F0800242618F
:1009900009B9A16C19B1016821F008010160016871
:1009A00021F00101016000BF20680068C00714D079
:1009B00002F026FA401B0628F6D3202060650020AE
:1009C00084F83400032084F8350070BD8020606511
:1009D000002084F83400012070BDE06D3F2101FA51
:1009E00000F0B0600020012184F8340084F8351054
:1009F00070BD00BF90F83510022909D1052180F89B
:100A000035100068016821F0010101600020704785
:100A100080214165012070472DE9F04F81B0924659
:100A20000F46044602F0ECF994F83510022926D15D
:100A3000814620680068C00527D4D4E916B010218B
:100A40000097002F08BF2021DBF8002001FA00F8F2
:100A500012EA080F20D0606D00281CBF606D5FEAAD
:100A6000C07057D10099E06D002965D0102101FABE
:100A700000F0CBF80800002001B0BDE8F08F802026
:100A80006065002084F8340002E04FF480706065F7
:100A9000012001B0BDE8F08F0127C0F280070AF104
:100AA00001064FF0080CFD1C03E000BF10EA080F20
:100AB000D1D1606DC007CED156B1BAF1000F49D087
:100AC00002F09EF9A0EB09004FF0080C504541D808
:100AD000DBF80000E16D0CFA01F2024205D0636D13
:100AE00043F001036365CBF8082007FA01F20242E4
:100AF00005D0636D43F002036365CBF8082005FA67
:100B000001F10142D2D0626D42F004026265CBF87D
:100B10000810CBE72046FFF727FFE06D302101FAF0
:100B200000F0CBF80800002084F83400012084F89D
:100B3000350001B0BDE8F08F302101FA00F0CBF8AC
:100B400008000020012184F8340084F8351001B039
:100B5000BDE8F08F20206065002084F8340001207B
:100B600084F83500032001B0BDE8F08FF0B581B006
:100B70000021009140F21001C2F200010B68D0E99F
:100B8000166148F2B51537680822C1F64E358A401D
:100B90003A42A3FB05350CD003681C68640708D5EE
:100BA0001C6824F004041C60B260426D42F0010233
:100BB00042650122C0F2800202FA01F33B4208D0F2
:100BC00004686469240604D5B360436D43F00203EE
:100BD000436503328A403A4208D003681B689B078A
:100BE00004D5B260426D42F00402426510228A4090
:100BF0003A4216D001680B681B0712D5B2600B6829
:100C00000A685B0306D4D20506D40A6822F00802FB
:100C10000A6001E011033FD4016C11B1044688471A
:100C20002046C26D202101FA02F33B4241D0016807
:100C30000F68FF063DD5B36090F835700B68052F3F
:100C40001AD123F016030B604B6923F080034B612C
:100C5000036C0BB9836C1BB10B6823F008030B60AA
:100C60003F219140B160002180F83410012180F8CB
:100C70003510016DE1BB3FE00A685B0310D4D2057B
:100C800012D40A6822F010020A60002180F83410A1
:100C9000012180F8351007E0816C0029BED1C0E742
:100CA000110301D4416C00E0C16B11B104468847C7
:100CB0002046416D01B3416DC90717D0052180F869
:100CC00035100168AA0A0B6823F001030B6000BF0E
:100CD000009B01339342009302D80B68DB07F7D1E6
:100CE000002180F83410012180F83510C16C19B151
:100CF00001B0BDE8F040084701B0F0BD90F83430D5
:100D0000012B04BF022070474FF0010C80F834C063
:100D100090F83530012B08D14FF0000C05299EBF0B
:100D200001F03F0100EB8101CA63002180F834101B
:100D30006046704790F83420012A04BF02207047B3
:100D4000012280F8342090F83530012B1FD106297C
:100D50001DD8DFE801F004100A0D0713150000226A
:100D6000C26314E00022C26411E0002242640EE07B
:100D7000002282640BE00022026408E0002205E009
:100D80000022C0E90F22C0E91122C26402650021DD
:100D900080F834101046704790F83500704700BF57
:100DA000406D70472DE9F04F83B000F1200200F153
:100DB0003E4741F20005019207F1FF77C4F20205B8
:100DC00007224FEAB726A84208BF0422042E38BFE4
:100DD0004FEAB7224FF0010E00274FF000084FF006
:100DE000000900920AE000BF09F1010908F10408B6
:100DF000B9F1100F07F1020700F099800D680EFAA3
:100E000009FA15EA0A0CEFD04D6845F01005122DCD
:100E100014D16FF00302019E02EA590508F01C028A
:100E20000F2356F805B003FA02F40B692BEA040409
:100E300003FA02F222434FF0010E725102680323BB
:100E4000D1F804B0BB40DD439A430BF00303BB4031
:100E50001A43BBF1120F026013D80EFA0BF212F014
:100E6000061F0ED08268CB682A40BB401A438260BE
:100E70004268CBF3001322EA0A0203FA09F31A4389
:100E80004260C2688B682A40BB401A435FEACB03CA
:100E9000C260A9D5002243F644030292C4F20203C1
:100EA0001A6843F6004642F480421A601A68C4F297
:100EB000010602F480420292029A29F003024FF6E0
:100EC000084A3244CFF6FF7A52F80A3008F00C0490
:100ED0000F25A540AB43009D05FA04F4234342F8D7
:100EE0000A3032684B6842EA0C04DD0358BF22EA3C
:100EF0000C04346072689D0342EA0C0458BF22EA75
:100F00000C047460B268DD0242EA0C0443F60C453E
:100F100058BF22EA0C04B460C4F201052A689B029F
:100F200042EA0C0458BF22EA0C042C605CE703B0D0
:100F3000BDE8F08F2DE9F04F82B000F13E4241F262
:100F4000000702F1FF72C4F20207072601914FEA7F
:100F5000B223B84208BF042643F60041042B38BF31
:100F60004FEAB226C4F2010100F1200900960024E4
:100F7000002600254FF00F0806E000BF01350236BD
:100F8000102D04F104044FD0012202FA05FC019A4D
:100F90001CEA020EF2D002680323B3409A436FF0BA
:100FA0000307026007EA550A04F01C0259F80AB068
:100FB00008FA02F22BEA020249F80A2082689A43F0
:100FC0008260426822EA0C024260C2689A43C260B0
:100FD000A1F57E7325F003029F5804F00C0208FA75
:100FE00002FC07EA0C0A009F07FA02F29245C5D1FB
:100FF000AA0853F8227027EA0C0743F822700A68FF
:1010000043F60C4322EA0E020A604A68C4F2010366
:1010100022EA0E024A608A6822EA0E028A601A6890
:1010200022EA0E021A60A9E702B0BDE8F08F00BF05
:101030000069084018BF0120704700BF002A08BFA0
:1010400009048161704700BF4269514041617047A6
:1010500081B04FF480320092009A0A430092009AC5
:10106000C261C1610099C161C1690091C06901217A
:1010700000F4803081EA104001B0704743F614411B
:10108000C4F201010A68024214BF0860704700F010
:1010900001B800BF70470000704700BF704700BF35
:1010A000704700BF70470000704700BFF0B581B0C7
:1010B0000446007843F60006C007C4F2020644D096
:1010C000B06800F00C00042805D1306880033CD5DE
:1010D0006068D0BB64E0B06800F00C00082802D162
:1010E00070684002F1D465683068B5F5A02F05D06E
:1010F000B5F5803F09D140F480300CE040F4802009
:101100003060306840F4803005E020F4803030609A
:10111000306820F48020306001F072FE002D05461A
:1011200010D000BF306880030FD401F069FE401B6F
:101130006428F7D9EFE000BF01F062FE401B64288D
:1011400000F2E98030688003F6D42078800718D553
:10115000B06810F00C0F07D0B06800F00C00082841
:1011600057D17068400254D43068800702D5E068D7
:10117000012815D13068216920F0F80040EAC1004B
:101180003060207800070ED42078400721D4A5696C
:10119000002D00F0EF80B06800F00C0008286BD143
:1011A000012001B0F0BD6069002851D00020C4F2D8
:1011B00047200121C0F8801E01F022FE054600BF35
:1011C000706F8007E0D401F01BFE401B0228F7D9A6
:1011D000A1E000200090306C47F2000740F0805002
:1011E0003064306CC4F2000700F08050009000982A
:1011F000386840F48070386001F002FE054600BF98
:101200003868C0051BD401F0FBFD401B0228F7D94C
:1012100081E0E068002840F20000C4F247204CD092
:101220000121016001F0ECFD054600BF3068800738
:10123000A0D401F0E5FD401B0228F7D96BE0A568BA
:10124000306F052D48D0012D4DD140F0010050E008
:101250000020C4F247200021C0F8801E01F0D0FD1C
:10126000054600BF706F80077FF58EAF01F0C8FDA7
:10127000401B0228F6D94EE00027C4F24727002081
:10128000386601F0BDFD022D05460BD130688001A6
:101290004FD501F0B5FD401B02284FF00300F5D9F2
:1012A00066E000BF3068800164D501F0A9FD401BF5
:1012B00003284FF00300F5D35AE00021016001F04C
:1012C0009FFD0546306880077FF55BAF01F098FD14
:1012D000401B0228F6D91EE040F004003067306F52
:1012E00040F0010005E020F001003067306F20F091
:1012F0000400306701F084FD002D054641F2883777
:1013000013D000BF306F80073FF541AF01F078FD8B
:10131000401BB842F6D9032001B0F0BD01F070FDCA
:10132000401BB8424FF0030022D8306F8007F5D43D
:101330002DE704F11C052FCD084340EA8210D903A4
:101340004FF6FF729143A1F5803140EA05600843F2
:1013500070600120386601F053FD0446306880015A
:1013600008D401F04DFD001B02284FF00300F5D911
:1013700001B0F0BD002001B0F0BD00BF2DE9F0418B
:1013800043F60807C4F20207D7F8F8230D4602F027
:101390000F01A942044607D287F8F853D7F8F8039B
:1013A00000F00F00A8425AD12068810705D539689E
:1013B000A26821F0F00111433960C00735D1D7F898
:1013C000F80300F00F00A84207D987F8F853D7F8C0
:1013D000F80300F00F00A84241D12068410705D56D
:1013E0003968E26821F4E05111433960000706D5FD
:1013F0003868216920F4604040EAC100386000F09C
:101400007DF8396847F24042C1F30311C0F600028B
:10141000515CC84040F21001C2F2000108600F2088
:10142000FEF7F2FE0020BDE8F0816068811E02290F
:1014300007D257F8081C89015CBF0120BDE8F08184
:1014400010E0012807D157F8081C89035CBF012070
:10145000BDE8F08106E057F8081C890702D4012096
:10146000BDE8F081396821F003010843386001F0DC
:10147000C7FC61680646012941F2883837D0022945
:1014800027D003290ED100BF386800F00C000C28CB
:1014900095D001F0B5FC801B40454FF00300F3D917
:1014A000C1E700BF386810F00C0F3FF488AF01F0BF
:1014B000A7FC801B40454FF0030088BFBDE8F081CA
:1014C000F0E700BF01F09CFC801B40454FF003009B
:1014D000A9D8386800F00C000828F3D16FE700BFE6
:1014E00001F08EFC801B40454FF003009BD838680C
:1014F00000F00C000428F3D161E700BF43F60401BB
:10150000C4F20201486800F00C0242F20040082ACE
:10151000C0F2F40007D0042A18BF704741F200203F
:10152000C0F27A007047D1F800C00B680A685B020D
:1015300041F200230CF03F0CC0F27A0358BF03467F
:10154000B3FBFCF00968C2F388125043C1F30141B8
:10155000022202EB4101B0FBF1F0704770B586B09A
:1015600043F63006002840F2000014460D46C4F24F
:101570000206C4F202004FF000011FD00191326850
:1015800000F5006042F004023260326802F00402AA
:101590000192019A4FF400720192022202920322F8
:1015A000CDE90312059101A9FFF7FCFB56F8280CC1
:1015B00020F0784040EAC40028431BE001913268E3
:1015C00042F001023260326802F001020192019A97
:1015D0004FF480720192022202920322CDE903129B
:1015E000059101A9FFF7DEFB56F8280C20F0EC600E
:1015F0002843204346F8280C06B070BD4C20C4F2A6
:1016000047200121016070474C20C4F2472000218F
:101610000160704740F21000C2F20000006870479D
:1016200040F2100043F60801C2F20000C4F20201C9
:101630000068096847F25042C1F38221C0F60002F7
:10164000515CC840704700BF40F2100043F60801EB
:10165000C2F20000C4F202010068096847F2504279
:10166000C1F34231C0F60002515CC840704700BF70
:1016700043F600010F22C4F2020102600A6852031D
:1016800006D40A68D20354BF00224FF4803201E02E
:101690004FF4A02242600A6802F00102C2600A68A8
:1016A000C2F3C40202610A6F520705D40A6FD2075F
:1016B0000CBF0022012200E0052282604A6F4FF435
:1016C000C02302F0010242610A68D2014FF0020217
:1016D00058BF012282614A6802F48002C2614A68EE
:1016E00002F03F0202624A68C2F3881242624A680C
:1016F00003EA420202F50032120C82624968C1F329
:101700000361C162704700BF0F22026043F6080206
:10171000C4F20202136803F003034360136803F08A
:10172000F0038360136803F4E053C360D2F800C091
:101730004FF4E05303EADC030361D2F8F80300F04E
:101740000F000860704700BF10B543F60C04C4F2E8
:1017500002042068000658BF10BD00F003F8802086
:10176000A07010BD70470000002804BF0120704722
:1017700010B5044690F8390028B9002084F83800E4
:10178000204600F021F8242084F839002068C16840
:1017900021F40051C160204600F018F8206801696A
:1017A00021F490410161416921F02A014161C16840
:1017B00041F40051C16000202021E06384F8391019
:1017C00084F83A1010BD00BF704700BF2DE9F04308
:1017D00081B004460068D4E90212E369076948F25F
:1017E0001F5827F440573A430261C26849F20C6718
:1017F000BA43D4E904761143394331431943C160F4
:101800004169A26921F440711143416141F20041F3
:10181000B3F5004FC5F2EB1840F48060C4F201014B
:1018200038D188426ED1FFF70FFF616819277843DE
:101830004900B0FBF1F0A0FB08016FF00F0000EAD7
:101840005106FFF701FF616878434900B0FBF1F5ED
:10185000FFF7FAFE616878434900B0FBF1F04FF002
:101860006409A0FB0801480900FB1950322101EB73
:10187000C000A0FB08014FF4F87000EA1110064404
:10188000FFF7E2FE616878434900B0FBF1F5FFF72E
:10189000DBFE6DE0884278D1FFF7D6FE616819273C
:1018A00078438900B0FBF1F0A0FB08016FF00F0056
:1018B00000EA5106FFF7C8FE616878438900B0FB73
:1018C000F1F5FFF7C1FE616878438900B0FBF1F0E4
:1018D0004FF06409A0FB0801480900FB19503221B0
:1018E00001EB0010A0FB0801F02000EA51100644B3
:1018F000FFF7AAFE616878438900B0FBF1F5FFF7B6
:10190000A3FE77E0FFF78CFE616819277843490052
:10191000B0FBF1F0A0FB08016FF00F0000EA5106E8
:10192000FFF77EFE616878434900B0FBF1F5FFF7F1
:1019300077FE616878434900B0FBF1F04FF064092D
:10194000A0FB0801480900FB1950322101EBC0003F
:10195000A0FB08014FF4F87000EA11100644FFF7ED
:101960005FFE616878434900B0FBF1F5FFF758FE70
:10197000616878434900B0FBF1F0A0FB0801480919
:1019800000FB19500721C00040E0FFF749FE6168E5
:10199000192778438900B0FBF1F0A0FB08016FF034
:1019A0000F0000EA5106FFF73BFE616878438900AB
:1019B000B0FBF1F5FFF734FE616878438900B0FBB6
:1019C000F1F04FF06409A0FB0801480900FB195031
:1019D000322101EB0010A0FB0801F02000EA5110B9
:1019E0000644FFF71DFE616878438900B0FBF1F5FE
:1019F000FFF716FE616878438900B0FBF1F0A0FBA9
:101A00000801480900FB19500F2100013230A0FBEA
:101A1000080201EA521021683043886001B0BDE835
:101A2000F08300BF002804BF0120704710B50446B2
:101A300090F8390028B9002084F838002046FFF7D4
:101A4000C3FE242084F839002068C16821F40051C5
:101A5000C1602046FFF7BAFE2068016921F4904179
:101A60000161416921F022014161416941F00801B0
:101A70004161C16841F40051C16000202021E06350
:101A800084F8391084F83A1010BD00BF002804BF54
:101A900001207047B0B5044690F839000D4628B9CA
:101AA000002084F838002046FFF78EFE242084F8BA
:101AB00039002068C16821F40051C1602046FFF759
:101AC00085FE2068016921F400610161416921F00E
:101AD0002A014161016941F480410161016921F0FC
:101AE00020010161016929430161C16841F400518C
:101AF000C16000202021E06384F8391084F83A1096
:101B0000B0BD00BF002804BF0120704770B5044677
:101B100090F8390015460E4628B9002084F83800A0
:101B20002046FFF751FE242084F839002068C16860
:101B300021F40051C1602046FFF748FE206801698A
:101B400021F490410161416921F02A01416101695B
:101B500021F00F010161016931430161C16821F484
:101B60000061C160C1682943C160C16841F400518E
:101B7000C16000202021E06384F8391084F83A1015
:101B800070BD00BF002804BF0120704710B524219C
:101B900080F83910044600F009F80020E06384F86A
:101BA000390084F83A0084F8380010BD704700BF4F
:101BB0002DE9F041044690F8390020280CD10F4659
:101BC00000294FF0010018BF002A01D1BDE8F081C3
:101BD00094F83800012802D10220BDE8F0810120EC
:101BE00084F838000020E06321201D4684F8390085
:101BF000164601F005F9A684E684E18C80460029AA
:101C000043D06E1C06E000BF17F8010B2168486046
:101C1000E08CD0B3E08C0138E0842068A1680068D3
:101C2000B1F5805F04D1000616D496B15DB934E0F9
:101C30000006E9D43EB305BB2FE000BF01680906EA
:101C40000AD4002EFAD001F0DBF8A0EB0800A8427D
:101C500023D82068F2E700BF3888216922686FF333
:101C60005F200029506014BF01370237D0E700BF62
:101C700001680906C8D4002EFAD001F0C1F8A0EB23
:101C80000800A84209D82068F2E7206800684006EA
:101C900020D415B16E1C10D015E02068C16821F465
:101CA000D071C160416921F001014161202084F8B7
:101CB000390084F83A00032010E0206801684906E2
:101CC00008D4002EFAD001F09BF8A0EB0800A8423F
:101CD000F3D9E2E7202084F839000020002184F8BD
:101CE0003810BDE8F08100BF2DE9F04381B0044613
:101CF00090F83A0020280DD10E4600294FF001003F
:101D000018BF002A02D101B0BDE8F08394F8380072
:101D1000012803D1022001B0BDE8F083012084F83E
:101D200038004FF0000822201D46C4F83C8084F89B
:101D30003A00174601F064F8A785E785E18D002990
:101D40004BD081466F1C0AE0206821694068002959
:101D500018BF00F07F0006F8010BE08DE8B3E08DBE
:101D60000138E0852068A1680068B1F5805F05D181
:101D7000800617D49FB165B931E000BF8006E3D477
:101D80004FB315BB2BE000BF016889060AD4002FB2
:101D9000FAD001F035F8A0EB0900A8421FD820685E
:101DA000F2E700BF20682169406819B1C0B226F887
:101DB000010BD2E76FF35F2026F8020BCDE700BFDF
:101DC00001688906C0D4002FFAD001F019F8A0EB01
:101DD0000900A84203D82068F2E700200CE0206840
:101DE000C16821F4D071C160416921F001014161F4
:101DF000202084F839000320202184F83A1084F848
:101E0000388001B0BDE8F08390F83930202B0BD139
:101E100000294FF0010318BF002A01D1184670476E
:101E200090F83830012B02D1022318467047016226
:101E3000002321218284C284C36380F839100168A1
:101E400080F83830C86840F08000C8601846704795
:101E5000034690F83A0020280AD100294FF00100EB
:101E600018BF002A00D1704793F83800012801D12B
:101E7000022070479962002022219A85DA85D86372
:101E800083F83A10196883F838004A6942F0010271
:101E90004A61CA6842F49072CA60704790F839305B
:101EA000202B1CBF02207047B0B5964600294FF08A
:101EB000010218BFBEF1000F03D1BDE8B0401046CB
:101EC000704790F83820012A01D10222F5E701225B
:101ED00080F83820002221230162A0F824E0A0F835
:101EE00026E0C26380F83930D0F830C041F635744E
:101EF00041F65D75C0F60004C0F600050368CCE944
:101F00000F4541F66574C0F60004CCE913421A1D72
:101F1000044660467346FEF7D1FC206800226FF04D
:101F20004001016084F83820416941F0800141613D
:101F3000C3E700BF0168806B0968C90548BF00F0AE
:101F4000A3BB0021C1840068416921F08001416187
:101F5000C16841F04001C160704700BF806B00F074
:101F600095BB00BF806B01684A6990F83930212B1E
:101F70000BD112F0800208D00022C284CA6822F07D
:101F8000C002CA60202280F839204A6990F83A30AD
:101F9000222B0FD112F040020CD00022C285CA6859
:101FA00022F49072CA604A6922F001024A6120213B
:101FB00080F83A10C16B41F01001C16300F062BBC0
:101FC00090F83A30202B1CBF02207047B0B582B089
:101FD00096460A4600294FF0010118BFBEF1000FD6
:101FE00004D102B0BDE8B0400846704790F8381000
:101FF000012901D10221F4E7012180F838100021E4
:1020000022238262A0F82CE0C16380F83A30D0F835
:1020100034C042F2710442F2A905C0F60004C0F6D1
:1020200000050368CCE90F4541F66574C0F600046D
:10203000CCE91341191D044660467346FEF73EFC89
:102040000021019120680268019242680192019A80
:1020500084F83810C26842F48072C260426942F06B
:1020600001024261426942F040024261B9E700BFA9
:102070000168806B0968C90548BF00F009BB0021F1
:10208000C1850168CA6822F48072CA604A6922F078
:1020900001024A614A6922F040024A61202180F827
:1020A0003A1000F0F5BA00BF806B00F0F3BA00BF41
:1020B00090F83810012904BF0220704701220168FE
:1020C00080F838204A6990F83930212B06D112F077
:1020D000800203D04A6922F080024A614A6990F87E
:1020E0003A30222B0ED112F040020BD0CA6822F4F3
:1020F0008072CA604A6922F001024A614A6922F08C
:1021000040024A61002180F838100020704700BF6B
:1021100090F83810012904BF02207047012180F88F
:10212000381090F83910212904D101684A6942F029
:1021300080024A6190F83A10222915D181B000211D
:10214000009101680A6800924A680092009ACA6881
:1021500042F48072CA604A6942F001024A614A69E7
:1021600042F040024A6101B0002180F8381000209E
:10217000704700BF10B504460068416994F83920E3
:10218000212A13D111F0800110D0416921F0800182
:102190004161206B002818BFFEF7E6FB2068C1688C
:1021A00021F0C001C160202084F839002068416915
:1021B00094F83A20222A17D111F0400114D0416935
:1021C00021F040014161606B002818BFFEF7CCFB95
:1021D0002068C16821F49071C160416921F001015A
:1021E0004161202084F83A00002010BD10B504465B
:1021F0000068C16821F4F071C160416921F00101FA
:1022000041614169090609D5416921F080014161B7
:10221000206B18B100210165FEF7A6FB206841691B
:10222000490609D5416921F040014161606B18B14F
:1022300000210165FEF798FB00202021E084E08565
:10224000E06384F83A1084F8391010BD10B50446E4
:102250000068C16821F0C001C1604169090609D563
:10226000416921F080014161206B18B100210165B5
:10227000FEF77AFB00202021E08484F8391010BD9D
:1022800010B504460068C16821F49071C1604169CD
:1022900021F0010141614169490609D5416921F0F7
:1022A00040014161606B18B100210165FEF75CFBE4
:1022B00000202021E08584F83A1010BD10B5016897
:1022C0000446006BCA6822F4F072CA604A6922F0C0
:1022D00001024A6140B14A6942F265331206C0F612
:1022E000000303EAE2720265626B4AB14B694FEA8E
:1022F000436C42F28D33C0F6000303EAEC731365BE
:102300004A6912060BD54A6922F080024A6130B14F
:10231000FEF770FB4FF0000110B1206B0165012149
:102320002068426952060DD5426922F0400242619E
:10233000606B38B1FEF75EFB4FF0000110B1606BCF
:102340000165012159B10020E084E085E06320208F
:1023500084F8390084F83A00204600F02BF8002079
:1023600010BD00BF806B0021D0E90C3219651AB195
:10237000126D002A18BF7047C184C185C163202136
:1023800080F8391080F83A1000F014B8806B002102
:10239000D0E90C2319651AB1126D002A18BF7047D5
:1023A000C184C185C163202180F8391080F83A10BA
:1023B000AFF30080704700BF10B50168CA6822F013
:1023C000C002CA604A69120614D54A6922F0800226
:1023D0004A61016B71B1044642F20940C0F6000047
:1023E00008650846FEF706FB58B1206B016D88476B
:1023F000002010BD0021C184202180F8391000F098
:102400000BF8002010BD00BF806B0021C18420218B
:1024100080F83910AFF30080704700BF10B5016835
:10242000CA6822F49072CA604A6922F001024A61C5
:102430004A69520614D54A6922F040024A61416B4A
:1024400071B1044642F27540C0F6000008650846C6
:10245000FEF7D0FA58B1606B016D8847002010BDBF
:102460000021C185202180F83A1000F00BF80020EF
:1024700010BD00BF806B0021C185202180F83A107B
:10248000AFF30080704700BFB0B501680A68CC6840
:102490004B6902F02F05202D04F0200503D115B162
:1024A000BDE8B040B0E05FEA027C1EBF03F0010E61
:1024B00004F4907313EB0E0329D1130616D514F010
:1024C000800313D090F83920212A31D18368026A21
:1024D000B3F5805F23D113886FF35F234B600369EB
:1024E000002B14BF0132023202621CE052061FD5DB
:1024F00014F0400208BFB0BDCA6822F04002CA60B2
:10250000202180F83910BDE8B04000F0BDB8D107F7
:1025100018BF14F480710CD1510710D416E0531C6D
:10252000036212784A60C28C013A1304C2845DD0FF
:10253000B0BDC16B41F00101C163510706D5BEF1C9
:10254000000F03D0C16B41F00201C163910706D5B2
:10255000BEF1000F03D0C16B41F00401C163BCF1B7
:10256000000F06D5BEF1000F03D0C16B41F008018A
:10257000C163C16B0029DBD0910604D51DB10446AF
:1025800000F042F8204601684A69C36B02F040023D
:1025900003F00803D21823D0CA6822F49072CA60EC
:1025A0004A6922F001024A61202280F83A204A69F1
:1025B000520624D54A6922F040024A61416BF1B1CA
:1025C00042F27962C0F60002044608460A65FEF748
:1025D00011FA0028ACD0606B016DBDE8B04008472F
:1025E000044600F04FF80020E063B0BDC86820F05A
:1025F0008000C860C86840F04000C860B0BDBDE859
:10260000B04000F03FB800BF90F83A10222918BF40
:1026100070478168B1F5805F08D102680369816AFB
:1026200052687BB1D2B221F8012B0FE00168026938
:102630004968002A826A18BF01F07F01531C836237
:10264000117004E06FF35F2221F8022B8162C18DCB
:1026500001390A04C18500D070470168CA6822F4B4
:102660009072CA604A6922F001024A61202180F812
:102670003A1000F00DB800BF806B0021C185C18405
:10268000AFF30080704700BF704700BF704700BFC6
:10269000704700BF704700BF90F83810012904BF91
:1026A00002207047242180F839100168CA6842F07E
:1026B0000102CA60202180F83910002180F838100A
:1026C0000020704790F83810012904BF022070479D
:1026D000242180F839100168CA6842F00202CA60F9
:1026E000202180F83910002180F838100020704730
:1026F00090F83810012904BF02207047242180F887
:1027000039100168CA6822F00202CA60202180F8EC
:102710003910002180F838100020704790F83810E8
:1027200001294FF002010DD0242280F839200268DF
:10273000D36861F383032021D36080F8391000212E
:1027400080F838100846704790F83810012904BF07
:1027500002207047242180F8391001680123CA68DB
:1027600063F38302CA60202180F83910002180F8C9
:1027700038100020704700BF90F8391090F83A00E8
:102780000843C0B2704700BFC06B70472DE9F04FDF
:1027900081B00029009351D000F1007743F6300654
:1027A00007F1FF77C4F20206C7F38F274FF0010845
:1027B000356808FA07F72F433760C0F3872740F2E0
:1027C000840B87F0800EA2F1010A0027C2F2000BF1
:1027D000002604E00136102E07F102072ED008FA79
:1027E00006F40C42F6D03BF81E50032325432BF889
:1027F0001E50C56803FA07FC0A9B25EA0C0503FA7C
:1028000007F945EA0905C560056802FA07F325EAF4
:102810000C052B43BAF1010F0360DBD843686FEA64
:102820000C05A343009CB440A4B2234343608368D7
:102830002B400B9DBD402B438360CBE701B0BDE82F
:10284000F08F00BF00F1007043F6300200F1FF701E
:10285000C4F20202C0F38F200121136801FA00F0D4
:1028600018431060704700BF2DE9F04F81B0C0F3EE
:10287000872740F2840B87F0800CA2F1010A002622
:102880004FF00108C2F2000B0025009305E000BFE5
:102890000135102D06F102062ED008FA05F70F4279
:1028A000F6D03BF81C4003233C432BF81C40C46883
:1028B00003FA06FE0A9B24EA0E0403FA06F944EA28
:1028C0000904C460046802FA06F324EA0E042343F0
:1028D000BAF1010F0360DBD84368009CBB43AC40F6
:1028E000A4B22343436083686FEA0E073B400B9F0B
:1028F000B7403B438360CBE701B0BDE8F08F00BF3A
:10290000002908BF70472DE9F04F00F1007443F62D
:10291000300604F1FF74C4F20206C4F38F240125CB
:10292000376805FA04F4DDF828E03C43346000F130
:10293000200A00266FF003084FF00F09002404E07E
:102940000134102C06F1040614D021FA04F5ED0729
:10295000F6D008EA54055AF805B006F01C0709FA43
:1029600007FC2BEA0C0C0EFA07F747EA0C074AF8AB
:102970000570E5E7C0F3872740F2840C87F0800EEE
:1029800000244FF0010AC2F2000C002705E000BF4E
:102990000137102F04F102042CD00AFA07F50D427A
:1029A000F6D03CF81E6003FA04F82E432CF81E60A3
:1029B000D0F80CB0032606FA04F92BEA090B4BEA0F
:1029C0000806C660066826EA09080226A64046EA06
:1029D00008060660466826EA050502FA07F6B6B25A
:1029E000354345608568099E25EA0905A6403543BB
:1029F0008560CDE7BDE8F04F704700BF2DE9F0419D
:102A0000C0F3872240F2840882F0800200234FF056
:102A1000010C4FF0030EC2F20008002507E000BFD2
:102A20000135102D03F1020308BFBDE8F0810CFA57
:102A300005F60E42F4D007680EFA03F43C43046036
:102A400038F81240B44328F81240E9E700F100706A
:102A500000F1FF70C0F38F20704700BF10B54FF03A
:102A6000000E4FF0030C002306E000BF0133102BD3
:102A70000EF1020E08BF10BD21FA03F2D207F5D005
:102A800002680CFA0EF4A2430260EFE7B0B5002230
:102A90004FF0030C4FF0010E002305E00133102B23
:102AA00002F1020208BFB0BD21FA03F4E407F5D039
:102AB00004680CFA02F5AC430EFA02F52C430460EC
:102AC000ECE700BF10B54FF0000E4FF0030C0023F1
:102AD00006E000BF0133102B0EF1020E08BF10BD3F
:102AE00021FA03F2D207F5D002680CFA0EF4224361
:102AF0000260EFE7B0B500224FF0030C4FF0020E7A
:102B0000002305E00133102B02F1020208BFB0BD23
:102B100021FA03F4E407F5D004680CFA02F5AC439B
:102B20000EFA02F52C430460ECE700BFB0B54FF09D
:102B3000000E4FF0030C002306E000BF0133102B02
:102B40000EF1020E08BFB0BD21FA03F4E407F5D080
:102B5000C4680CFA0EF5AC4302FA0EF52C43C460BF
:102B6000ECE700BF01F58032C261C161C261C16999
:102B7000C06970470021022805D300BF0131032836
:102B80004FEA5000FAD888B2704700BF00F10070D9
:102B900043F6300200F1FF70C4F20202C0F38F204E
:102BA0000121136801FA00F023EA00001060704769
:102BB00000F1007000F1FF7040F28401C0F38F203B
:102BC000C2F2000131F81000704700BF00F1007040
:102BD00000F1FF7040F28401C0F38F20C2F20001C7
:102BE00031F810004FF6FF71484070474EF6FC5028
:102BF000CEF20000016821F080710160016841F0AF
:102C00008071016041F20000CEF20000016821F005
:102C100001010160016841F0010101600021416092
:102C2000416800BF00BF4068401A70472DE9F0437B
:102C300081B040F26008C2F2000898F80040042C0D
:102C40001ED806461420994615460F4604F0CAFAC7
:102C5000B0B10899027807F0010302F0FC0265F3B5
:102C60004103C0E90391611C1A4488F8001008EB85
:102C700084010270C0E90166486001B0BDE8F083DC
:102C8000002001B0BDE8F08370B540F2600CC2F2E4
:102C9000000C9CF8004084B1002100220CEB810361
:102CA0005B6883420ED00132A24201F10101F5D3EB
:102CB00023461146A34204D007E000230021A3428B
:102CC00003D170BD1346A342FBD00CEB81004068DA
:102CD000EFF31086EFF3108172B69CF80010013903
:102CE00099420ADD0CEB8302141D224652F8045F60
:102CF0000133256099421446F8DC8CF8001004F08A
:102D000049FA002E18BF70BD62B670BD017801F09F
:102D1000FD010170704700BF017841F002010170B0
:102D2000704700BF41688160704700BF027800298A
:102D300018BF012102F0FE0211440170704700BF6C
:102D400041607047704700BF40F21030C2F200008F
:102D500001680131016040F21430C2F200000168E4
:102D600011B101680139016070B540F26004C2F22E
:102D70000004207818B3002504E000BF2078013556
:102D800085421CD204EB850670680028F6D00178D5
:102D90008907F3D5816800291CBF013981608168EA
:102DA0000029EBD1D0E9032190477068017842688F
:102DB000CB07826004BF01F0FC010170DEE7BDE8D3
:102DC0007040FFF7BFBF00BFEFF3058169B1002876
:102DD00008BF70474EF21001CEF200010A68D2031C
:102DE00000EBE2700028F9D108E040F21031C2F2A5
:102DF00000010A680B689B1A8342FBD3704700BF2F
:102E000040F21030C2F200000068704770B590B018
:102E100044F20044C4F20004A04253D041F2004303
:102E2000C4F20103984246D041F20003C4F2010308
:102E300098423ED1002543F624000095C4F20200DA
:102E4000036A164643F010030362036A03F010039B
:102E50000093009B036843F010030360036823F0B2
:102E600010030360084600F0ADFA04F54C40CDE9CC
:102E700000060C20CDE9045025200695CDE9025529
:102E80000795FDF7E5FA252006210022FDF7A2FAB5
:102E90002520FDF7CBFA2520FDF7C2FB6846FEF79B
:102EA00063FC41F20C00C4F20100016841F0200112
:102EB000016010B070BD41F20C00C4F2010000F5D9
:102EC0007D7003E044F20040C4F20000002310B023
:102ED000BDE8704000E000BF2DE9F04F93B044F230
:102EE000004AC4F2000A43F62406984691468B46EF
:102EF00004465045C4F202061DD041F20000C4F25F
:102F0000010084423DD100200390306A40F010005F
:102F10003062306A00F0100003900398306840F08F
:102F200010003060306820F010003060584600F02B
:102F300049FA252538E000200390F069BBF1030F22
:102F400040F40030F061F06900F400300390039821
:102F500056F8040C40F4003046F8040C56F8040C03
:102F600020F4003046F8040C19D0BBF1010F0AD050
:102F7000BBF1000F17D10AF5DE30072703250C211E
:102F800006E0252510E00AF5E43007270325602137
:102F900000220123CDE90057FFF7B2FC03E05046C1
:102FA000072100F0FDF926250AF55047BC4229D13A
:102FB00000200390306ABBF1030F40F02000306224
:102FC000306A00F0200003900398306840F0200041
:102FD0003060306820F0200030600ED0BBF1000F70
:102FE0000FD10AF5E23008260325C0210022012373
:102FF000CDE90056FFF784FC03E03846082100F0D5
:10300000CFF947250C20089000200790CDE9050056
:103010000A902846CDE90349CDF82480FDF718FA37
:10302000A4EB0A00B0FA80F0420928460621BC420F
:1030300008BF0622FDF7CEF92846FDF7F7F9284626
:10304000FDF7EEFA03A8FEF78FFBE06840F02000E2
:10305000E06013B0BDE8F08FF0B591B044F20044E9
:10306000C4F20004A04254D041F20045C4F201056C
:10307000A84247D041F20005C4F20105A8423FD161
:10308000002643F624000196C4F20200056A1746A2
:1030900045F010050562056A05F010050195019DD2
:1030A000056845F010050560056825F01005056008
:1030B00008461D4600F086F904F54C40CDE90107AD
:1030C0000C20CDE9056025200795CDE9036608961B
:1030D000FDF7BEF9252006210022FDF77BF925200A
:1030E000FDF7A4F92520FDF79BFA01A8FEF73CFBAC
:1030F00041F20C00C4F20100016841F020010160BE
:1031000011B0F0BD41F20C00C4F2010000F57D7079
:1031100003E044F20040C4F2000011B0BDE8F0400A
:10312000DAE600BF80B582B040F2300140F2180309
:1031300044F20042C2F20001C2F20003C4F20002F3
:10314000904208BF0B4602F5504140F24802C2F2DD
:103150000002884218BF1A460DF1070110460122ED
:1031600002F05EF89DF80710002808BF0146C8B2BB
:1031700002B080BD80B540F2300E40F2180C44F22F
:103180000043C2F2000EC2F2000CC4F200039842E7
:1031900008BFF44603F5504E40F24803C2F2000364
:1031A000704518BF6346184602F070F980B280BDC2
:1031B0000A7800BF002A08BF704700BF03681B06DB
:1031C000FCD5426002681206FCD511F8012FF1E728
:1031D000002A08BF704700BF03681B06FCD50B78A8
:1031E000013A436003681B06FCD5002A01F1010186
:1031F000F2D1704780B540F2300C40F2180344F22F
:103200000042C2F2000CC2F20003C4F2000290427B
:1032100008BF634602F5504C40F24802C2F2000279
:10322000604518BF1A46104602F05AF800B280BD39
:10323000B0B50C4640F2300140F2180244F20043AF
:10324000C2F20001C2F20002C4F20003984208BFB9
:103250000A4603F5504140F24805C2F20005884293
:10326000204618BF154602F074FB02462846214648
:1032700002F062F800B2B0BD80B540F2300140F219
:10328000180244F20043C2F20001C2F20002C4F28A
:103290000003984208BF0A4640F2480103F5504334
:1032A000C2F20001984218BF1146084602F000F829
:1032B000B0FA80F0400980BD80B540F2300140F2A4
:1032C000180244F20043C2F20001C2F20002C4F24A
:1032D0000003984208BF0A4640F2480103F55043F4
:1032E000C2F20001984218BF1146084601F04AFF99
:1032F000B0FA80F0400980BD80B540F2300140F264
:10330000180244F20043C2F20001C2F20002C4F209
:103310000003984208BF0A4640F2480103F55043B3
:10332000C2F20001984218BF1146084601F0C0FFE2
:1033300080B280BD40F2300140F2180244F20043F6
:10334000C2F20001C2F20002C4F20003984208BFB8
:103350000A4640F2480103F55043C2F20001984288
:1033600018BF1146084601F0B5BF00BF40F2300C4F
:1033700040F2180344F20042C2F2000CC2F2000311
:10338000C4F20002904208BF634602F5504C40F27E
:103390004802C2F20002604518BF1A4651747047D5
:1033A000704700BF704700BF704700BF704700BF45
:1033B000704700BF704700BF704700BF704700BF35
:1033C000704700BF70B582B003283CD8DFE800F03A
:1033D000022C0B2100204FF0070C0324C4F2020042
:1033E0004FF4C06129E00024C4F20204072503263B
:1033F00020464FF4007100220123CDE90065FFF75C
:103400007FFA04F58060802100220123CDE9006568
:1034100017E00020C4F20200A0F57040072102B0BE
:10342000BDE87040FFF7BCBF0020C4F2020000F509
:1034300080604FF0070C0324C02100220123CDE956
:10344000004CFFF75DFA02B070BD00BF80B582B0DE
:10345000032824D001280FD000281CBF02B080BD53
:1034600044F20040C4F2000000F5DE304FF0070CDB
:103470004FF0030E0C210AE044F20040C4F20000B9
:1034800000F5E4304FF0070C4FF0030E60210022EE
:103490000123CDE900ECFFF733FA02B080BD44F21E
:1034A0000040C4F20000072102B0BDE88040FFF7F1
:1034B00077BF00BF032817D0002818BF704780B51A
:1034C00082B041F20040C4F2010000F574404FF0B8
:1034D000080C4FF0030EC02100220123CDE900ECBF
:1034E000FFF70EFA02B080BD41F20040C4F20100C5
:1034F0000821FFF755BF00BF10B582B041F20004AC
:10350000C4F20104206880060AD5606801A98DF81C
:10351000040040F21800C2F20000012201F0ECFDAC
:103520000020019021680191616801910199019049
:1035300021680191616801910199019021680191CF
:10354000616801910199019021680191616801917F
:1035500001990190206801906068019001982520F0
:10356000FDF75EF802B010BD10B582B044F2004421
:10357000C4F20004206880060AD5606801A98DF8AD
:10358000040040F23000C2F20000012201F0B4FD5C
:1035900000200190216801916168019101990190D9
:1035A000216801916168019101990190216801915F
:1035B000616801910199019021680191616801910F
:1035C000019901902068019060680190019826207F
:1035D000FDF726F802B010BD10B582B041F20044EC
:1035E000C4F20104206880060AD5606801A98DF83C
:1035F000040040F24800C2F20000012201F07CFD0C
:103600000020019021680191616801910199019068
:1036100021680191616801910199019021680191EE
:10362000616801910199019021680191616801919E
:1036300001990190206801906068019001984720ED
:10364000FCF7EEFF02B010BDB0B5044641F2000039
:103650000A46C4F2010001210125FFF7D7FB40F221
:10366000E910C2F2000040F2C81105700020C2F259
:10367000000184F81C01086040F2CC10C2F2000086
:1036800001684FF6FF72C0F2070211430160B0BD3E
:1036900090F81C1140F2C813C2F200030022002966
:1036A0001A6008BF7047F03050F8043F0139DA75EE
:1036B000FAD17047B0B541F200050446C4F20105E5
:1036C0002846FFF7D9FD60B92846FFF72BFD0146D4
:1036D000204600F013F894F8F200002808BFB0BDAF
:1036E000EEE740F2E910C2F2000001780120002963
:1036F00018BF022084F8F200B0BD00BF2DE9F041F0
:1037000040F2C81540F2CC18C2F20005C2F200081F
:103710002A68D8F8003004469A421BD194F81C015C
:1037200048B104F1F40200BF1368DB7D93B10138A6
:1037300002F10402F8D194F81C0100222A6030B191
:1037400004F1F00353F8046F0138F275FAD1012047
:1037500084F8F200A1F10A00222833D8DFE800F053
:103760001232326732323232323232323232323224
:10377000323232323232323232324C32323232320F
:103780008232880040F21401C2F20001097840F24E
:10379000E610C2F2000000220329027040F0C5804A
:1037A00040F2800040F2A401C2F20000C2F2000127
:1037B00000780978884240F0B880286840F480207A
:1037C0002860B2E040F20C30C2F20000007830B95C
:1037D00040F2E810C2F2000002784A40027040F263
:1037E000E710C2F200000278531C037040F2D710B9
:1037F000C2F20000815498E040F20C30C2F20000A6
:103800000022027040F2E810C2F20000027040F2A2
:10381000E610C2F20000027040F2E710C2F20000AF
:103820000122027040F2D710C2F200007CE040F2A8
:10383000E713C2F200031F7840F2D710C2F2000073
:103840000021C15502780137A2F13001CEB20A2E13
:103850001F7037D3A2F14101C9B205292AD8A2F1BC
:1038600037012FE040F20C30C2F20000012106E0E7
:1038700040F2E810C2F20000017881F02C0140F221
:10388000E716C2F2000632780170501C307040F228
:10389000D710C2F200000027875400F011FB204629
:1038A00000F08EFB40F2E610C2F2000001783770A3
:1038B000013139E0A2F16101CBB20021062B38BF02
:1038C000A2F157014278A2F13003D8B20A284FEA98
:1038D00001100FD3A2F14101C9B2052902D8A2F10A
:1038E000370307E0A2F16101C9B20023062938BFFE
:1038F000A2F1570340F2E811C2F20001184409781E
:10390000C0B288420BD094F81C010021296030B16C
:1039100004F1F00252F8043F0138D975FAD140F2AF
:10392000E610C2F20000002101702868D8F80010EB
:10393000884254D194F81C0150B104F1F40100BF45
:103940000A68D27D002A4AD0013801F10401F7D17A
:1039500040F2EC11C2F20001086820604868606023
:1039600088898A68A081A260D1F80E00C4F80E0090
:10397000488A6082888A8A69A082887DA261A0754F
:10398000087F2077086A2062486A6062D1E90A20CD
:10399000C4E90A2091F8300040F2E91284F83000BE
:1039A000D1F83100D1F83930D1F83570C4F8393058
:1039B000C4F83570C4F8310091F83D00C2F200023D
:1039C0000023137084F83D0004F13E003E31902244
:1039D00001F0ADFF002084F8F200BDE8F08140F274
:1039E000E910C2F20000007801280CBF022001207B
:1039F00084F8F200BDE8F081F0B581B090F81C7158
:103A0000092F13D80446182015460E4603F0EAFB8A
:103A100060B1314601F0A4FF04EB8701C1F8F40066
:103A2000791CC57184F81C1101B0F0BD002001B0F3
:103A3000F0BD00BF0E282CD8DFE800F008262E17B6
:103A40003842334C2147121C3D0D2D009FED311A99
:103A500020EE010A70479FED221A20EE010A7047FE
:103A60009FED221A20EE010A70479FED271A20EEE3
:103A7000010A70479FED1C1A20EE010A70479FED66
:103A80001D1A20EE010A70479FED211A20EE010A4F
:103A900070479FED210A70479FED1C1A20EE010A26
:103AA00070479FED161A20EE010A70479FED151A18
:103AB00020EE010A70479FED0B1A20EE010A7047B5
:103AC0009FED0F1A20EE010A70479FED091A20EEB4
:103AD000010A70479FED081A20EE010A704700BFE7
:103AE00033B33143008043455C8F504266664243A6
:103AF0000000F3449A9901429A99CA426210D83F51
:103B0000F853933F689DA739C3F5F641560EED3F34
:103B1000B8AF033FF5BD063A0000000009290A4688
:103B2000BDEEC01AB5EE400A28BF092280ED001A8A
:103B3000F1EE10FAB8EEC11A0CDA31EE400AC9B152
:103B4000012100BF013A01EB810113064FEA410157
:103B5000F8D10AE030EE410A61B10121013A01EBEE
:103B6000810113064FEA4101F8D101EE101AB8EEB7
:103B7000411A01E0B7EE001A20EE010ABDEEC00ABC
:103B800080ED010A704700BF002904BF0120704783
:103B90000246012001390B0602FB00F0FAD1704702
:103BA000F0B581B02DED108B90ED000A90ED022A5A
:103BB0009FEDB13A90ED011A20EE039A32EE400AE1
:103BC00090ED034A20EE030AF6EE00EA20EE2E0AFC
:103BD000044621EE03DA34EE411A10EE100A22EE0A
:103BE00003FA24EE03EA61EE03DA02F057F841EC3F
:103BF000180BB0EE480AF0EE680A02F005FDB0EED0
:103C000040AAB0EE480AF0EE60AAF0EE680A02F0B0
:103C1000FBFCB0EE40BA19EE100AF0EE60BA02F00A
:103C20003DF841EC180BB0EE480AF0EE680A02F0DD
:103C300087FCB0EE40CA1FEE100AF0EE60CA02F038
:103C40002DF841EC190BB0EE490AF0EE690A02F0CA
:103C500077FC51EC1C0B53EC102B01F031FF2DEED7
:103C6000AE0A054610EE100A0E4602F017F841ECB7
:103C70001C0BB0EE4C0AF0EE6C0A02F0C5FC53ECE3
:103C8000102B2846314601F01BFFB0EE4C0AF0EE37
:103C90006C0A05460E4602F0B7FC53EC102B284682
:103CA000314601F00DFF05460E4651EC1A0B53EC60
:103CB0001B2B01F005FF2A46334601F05AFE02F0A5
:103CC00000F80BEE100A01F0E9FF41EC100B02F0D6
:103CD000FFFCB0EE40AAB7EE000A30EE4B0A10EE41
:103CE000100AF0EE60AA01F0D9FF41EC100B02F0CF
:103CF000EFFCB0EE401AB0EE4A0AF0EE601AF0EEB9
:103D00006A0A02F01DFB51EC100B9FED550B53ECB2
:103D1000102B01F0D5FE9FED540B53EC102B01F04E
:103D2000CFFE01F0CEFF3EEE4D0A206110EE100AEC
:103D300001F0B4FF41EC1A0BB0EE4A0AF0EE6A0A49
:103D400002F062FCB0EE40BAB0EE490AF0EE60BAA2
:103D5000F0EE690A02F0F4FB51EC1B0B53EC102B54
:103D600001F0AEFE01F0ADFFB0EE480AF0EE680AD9
:103D7000054602F0E5FBB0EE40BAB0EE490AF0EEBF
:103D800060BAF0EE690A02F03FFCB0EE40CAB0EE55
:103D9000480AF0EE60CAF0EE680A02F035FCB0EEB8
:103DA000408AB0EE490AF0EE608AF0EE690A02F04D
:103DB000C7FBB0EE409AB0EE4A0AF0EE609AF0EE21
:103DC0006A0A02F0BDFBB0EE40AA53EC182B51EC8E
:103DD000190BF0EE60AA01F073FE53EC1A2B01F000
:103DE0006FFE06460F4651EC1B0B53EC1C2B01F0EB
:103DF00067FE32463B4601F05DFE01F062FF06467B
:103E0000284601F04BFF41EC180B304601F046FF0D
:103E100041EC110BB0EE480AF0EE680A02F090FA9D
:103E200051EC100B9FED120B53EC102B01F048FEE0
:103E300001F047FF9FED110A01EE100AB5EE401A9E
:103E400031EE000AF1EE10FAB8BFB0EE401A84ED80
:103E5000051ABDEC108B01B0F0BD00BF00BF00BF64
:103E60000000000000E3C8400000000000408F4058
:103E700000000020DCA54C4035FA8E3C0000B44325
:103E800040F2C81140F2CC12C2F20001C2F20002AC
:103E900009681268914211D190F81C11002904BFE1
:103EA00001207047F430002250F82230DB7D2BB126
:103EB00001328A4224BF01207047F5E70020704795
:103EC00040F2E710C2F200000078012840F04E8076
:103ED00040F2140040F2E611C2F20000C2F200010A
:103EE0000078097841EA4010411E622988BF704776
:103EF0000120DFE801F04F344855574A513B533B0E
:103F00003B3B3B3B3B3B3B3B3B3B3B3B3B3B3B3B01
:103F10003B3B3B3B3B3B3B5C3B3B3B3B593F4C3B9D
:103F20003B3B3B3B3B3B3B3B3B3B3B3B3B3B3B3BE1
:103F30003B3B3B3B3B3B3B4532323232323232320F
:103F4000323232323C625F3B3B3B3B3B3B3B3B3B99
:103F50003B3B3B3B3B3B3B3B42004FF4003040F2A2
:103F6000C811C2F200010A681043086070474FF49C
:103F70000050F4E74FF40040F1E74FF48030EEE7F3
:103F80004FF48040EBE74020E9E70820E7E74FF4F3
:103F90000070E4E78020E2E70420E0E71020DEE79D
:103FA0000220DCE72020DAE74FF48070D7E74FF4F7
:103FB0008060D4E74FF48050D1E74FF40060CEE743
:103FC0002DE9F04F81B02DED048B40F2E611C2F2E5
:103FD000000191F800C040F2D71740F2140ABCF17A
:103FE000000FC2F20007C2F2000A00F0BC800446D3
:103FF00090F81C0178B340F2D01840F2D71B04F1BE
:10400000F4060027C2F20008C2F2000B4FF00109CB
:1040100005E000BF94F81C01013787421BD256F817
:1040200027004146024600BF137833B111F8015B07
:104030000132AB42F8D0002BECD1C1798C45E9D1EB
:1040400008305946654601F08BFC56F82700AC460F
:1040500080F81790DEE79AF8008040F2D7194CEA12
:10406000481001386228C2F2000900F2D380DFE86C
:1040700010F012022F02D2017E029702E3014902E0
:10408000D1006002D100D100D100D100D100D10017
:10409000D100D100D100D100D100D100D100D10098
:1040A000D100D100D100D100D100D100D100D10088
:1040B000D100D100C102D100D100D100D100A802AD
:1040C0008901FA01D100D100D100D100D100D10085
:1040D000D100D100D100D100D100D100D100D10058
:1040E000D100D100D100D100D100D100D100D10048
:1040F000D100D100BA016300630063006300630074
:104100006300630063006300630063006300700189
:10411000E902CF02D100D100D100D100D100D100FD
:10412000D100D100D100D100D100D100D100D10007
:10413000D100D100D100A30199F80010A1F1300005
:10414000092848D8A9F10102002000BF00EB800037
:1041500001EB400091783038A1F130030A2B02F1D5
:104160000102F3D338E000210FF69050062930D039
:10417000425C7B5C01319A42F8D052B300210FF6C9
:10418000845000BF06296AD0425C7B5C01319A42B0
:10419000F8D0002A63D000210FF67050062900F0F5
:1041A000C680425C7B5C01319A42F7D0002A00F065
:1041B000BE8000210FF65C50062900F0D085435CDC
:1041C0007A5C01319342F7D00422002B08BF03220E
:1041D000AEE00022ACE0002040F2EA1140F2EC1226
:1041E000C2F20001C2F200020F780CEB020383F866
:1041F0002E00781C127BC3B2934208700AD10020B3
:1042000008704FF4003040F2C811C2F200010A6891
:1042100010430860B8F1030F40F04E8240F2A40052
:10422000BCF1020FC2F2000024D0BCF1010F3AD160
:1042300099F80020A2F13001092912D8A9F101034F
:10424000002100BF01EB810102EB41019A78303976
:10425000A2F130070A2F03F10103F3D302E0012298
:1042600066E0002140F28002C2F20002BCF1020FBF
:10427000117018D199F80010A1F13002092A10D854
:10428000A9F10103002200BF02EB820201EB42020E
:104290009978303AA1F130070A2F03F10103F3D3E3
:1042A00000E000220270BCF1040FC0F0058299F812
:1042B0000020A2F1300109290FD8A9F10103002142
:1042C00001EB810102EB41019A783039A2F130070C
:1042D0000A2F03F10103F3D300E00021ACF1040243
:1042E000D3B200789B0803EB8000031F40F28207E3
:1042F00040F28106D8B2C2F200070CF00302C2F20B
:104300000006172832703B7000F2D681DFE812F009
:104310000400CA01B401BF0140F2EC1200EB4000FE
:10432000C2F2000202EB400080F83E10C4E102221B
:1043300040F2D01040F2D711C2F20000C2F20001E8
:104340008AF80020BDEC048B01B0BDE8F04F01F00D
:1043500007BB99F80020A2F13000092800F2B181D2
:10436000A9F101030020002100EB800002EB4000D6
:104370009A783038A2F1300701310A2F03F1010396
:10438000F2D3A0E199F80020A2F13000092800F250
:10439000D781A9F101030020002100BF00EB8000BC
:1043A00002EB40009A783038A2F1300701310A2F31
:1043B00003F10103F2D3C5E199F80010A1F1300037
:1043C000092800F2FB81A9F10102002000EB800026
:1043D00001EB400091783038A1F130030A2B02F153
:1043E0000102F3D3EBE199F80010A1F130000928A4
:1043F00000F2EE81A9F10102002000BF00EB800075
:1044000001EB400091783038A1F130030A2B02F122
:104410000102F3D3DDE199F80000532840F0E28176
:1044200040F2EC10C2F2000090ED000AB1EE400A3A
:1044300080ED000A4020E6E699F80010A1F1300076
:10444000092800F2D181A9F10102002000EB8000CF
:1044500001EB400091783038A1F130030A2B02F1D2
:104460000102F3D3C1E199F80010A1F1300009284D
:1044700000F2C281A9F10102002000BF00EB800020
:1044800001EB400091783038A1F130030A2B02F1A2
:104490000102F3D3B1E199F80000A0F1300109293C
:1044A00000F2E181A9F101020021002301EB810169
:1044B00000EB4100A0F1300190781F46A0F13006DA
:1044C00001330A2E02F10102F0D3B81CC2B2CCE1D2
:1044D00099F80020A2F13000092800F21482A9F115
:1044E00001030021002000BF01EB810102EB41012B
:1044F0009A783039A2F1300701300A2F03F1010315
:10450000F2D302E299F80010A1F13000092800F27C
:104510005582A9F10102002000EB800001EB400070
:1045200091783038A1F130030A2B02F10102F3D364
:1045300045E299F800002D2840F0498299F80130B1
:10454000A3F13000092800F20D8409F101020021D5
:10455000002001EB810103EB410112F8013F3039EA
:10456000A3F1300701300A2FF3D300F0FDBB99F817
:104570000020A2F13000092800F24182A9F10103D4
:104580000021002001EB810102EB41019A783039D2
:10459000A2F1300701300A2F03F10103F2D330E218
:1045A00099F80000572840F0858240F2EC10C2F2E2
:1045B000000090ED010AB1EE400A80ED010A2020D2
:1045C00021E699F80020A2F13000092800F2888243
:1045D000A9F101030020002100EB800002EB400064
:1045E0009A783038A2F1300701310A2F03F1010324
:1045F000F2D377E299F8000040F2EC114138B0FABA
:1046000080F04009C2F2000108774FF48060FAE5BB
:1046100099F80020A2F13000092800F2A982A9F13E
:1046200001030020002100BF00EB800002EB4000EE
:104630009A783038A2F1300701310A2F03F10103D3
:10464000F2D397E299F80020A2F13000092800F295
:10465000CD82A9F101030020002100BF00EB800002
:1046600002EB40009A783038A2F1300701310A2F6E
:1046700003F10103F2D3BBE240F2EC1200EB400085
:10468000C2F2000202EB4000A0F8401014E040F239
:10469000EC1200EB4000C2F2000202EB400080F896
:1046A000421009E040F2EC1200EB4000C2F20002BE
:1046B00002EB400080F83F10BDEC048B01B0BDE878
:1046C000F08F0020002100EE100A481CC1B219F83A
:1046D000012040F2EC10A2F13003B8EE400AC2F221
:1046E0000000092B80ED0A0A17D849444B1E002709
:1046F000002100BF07EB870702EB4702A2F130075A
:104700009A780131A2F130060A2E03F10103F1D3A8
:1047100001EE107AB8EE411A02E09FEDE81A00218E
:104720000A0600F0A1820122013902EB82020B0687
:104730004FEA4202F8D102EE102AB8EE422A95E280
:104740000020002100EE100A481CC1B219F8012017
:1047500040F2EC10A2F13003B8EE400AC2F20000C1
:10476000092B80ED080A16D849444B1E002700216A
:1047700007EB870702EB4702A2F130079A78013175
:10478000A2F130060A2E03F10103F1D301EE107AF3
:10479000B8EE411A02E09FEDC91A00210A0600F0A6
:1047A0006F820122013902EB82020B064FEA4202BC
:1047B000F8D102EE102AB8EE422A63E2002040F25D
:1047C000EC11C2F2000181F83D004FF480301AE58F
:1047D000002040F2EC11C2F2000181F830004FF4E9
:1047E000804010E540200EE5002040F2EC11C2F2BE
:1047F00000014873082006E5002048F21F51C5F269
:10480000EB1100EE100A9FEDAE1AA0FB0123B8EEEB
:10481000400A5A09642320EE011A02FB130240F2F7
:10482000EC17BDEEC11AC2F2000711EE100A9FED9F
:10483000A51ABA7550FB01F2560920EE010A06EBE3
:10484000D272BDEEC00A02FB130010EE102A52FB1A
:1048500001F14E0906EBD17101FB13217875397511
:104860004FF40070CFE40122002148F21F53C5F23B
:10487000EB1300EE101A9FED921AA1FB0307B8EE9E
:10488000400A7809642720EE011A00FB171640F24F
:10489000EC10BDEEC11AC2F2000011EE101A06743F
:1048A00051FB03F69FED871A750905EBD67620EECE
:1048B000010A06FB1711BDEEC00A10EE106AC173A3
:1048C00056FB03F14B0903EBD17319F8021003FBFC
:1048D0001763A1F13007092F837310D84A44531E80
:1048E000002200BF02EB820201EB42029978303ACB
:1048F000A1F130070A2F03F10103F3D300E00022F6
:10490000428280207FE40021002048F21F52C5F23D
:10491000EB12A1FB02235A09642302FB13119FED42
:104920006A1A00EE101AB8EE400A80EE010A013051
:10493000C0B219F8001001EE102AB8EE411A40F288
:10494000EC16A1F13002C2F20006092A30EE018A0B
:1049500086ED008A17D848446546421E0020002490
:1049600000EB800001EB400091783038A1F130037A
:1049700001340A2B02F10102F2D301F082F941EC79
:10498000190BAC4602E09FED529B002467462006BF
:1049900000F08281012000BF013C00EB8000210675
:1049A0004FEA4000F8D101F06CF99FED4B0B53EC4E
:1049B000102B01F085F841EC100B6FE1002040F264
:1049C000EC11C2F2000108730420FFF71CBCA0F137
:1049D0003001092900F2F281A9F10103002100222E
:1049E00001EB810100EB4100A0F130019878013228
:1049F000A0F130070A2F03F10103F1D3E0E1002118
:104A0000002048F21F52C5F2EB12A1FB02235A0903
:104A1000642302FB13119FED2C1A00EE101AB8EE5E
:104A2000400A80EE010A0130C0B219F8001001EE10
:104A3000102AB8EE411A40F2EC16A1F13002C2F28F
:104A40000006092A30EE018A86ED018A17D848440B
:104A50006546421E0020002400EB800001EB400070
:104A600091783038A1F1300301340A2B02F10102B0
:104A7000F2D301F006F941EC190BAC4602E09FEDD0
:104A8000149B00246746200600F02181012000BF0E
:104A9000013C00EB800021064FEA4000F8D101F014
:104AA000F0F89FED0D0B53EC102B01F009F841ECE1
:104AB000100B0EE12020FFF7A6BB00BF0000000096
:104AC0000AD7233C17B7D1380000704200BF00BF9F
:104AD00000000000000000000000000000004E4048
:104AE0000020002100EE100A481CC1B219F8010094
:104AF00040F2EC14A0F13002B8EE408AC2F2000499
:104B0000092A84ED068A1FD84944664601390022E5
:104B1000002500BF02EB820200EB4200A0F1300250
:104B200088780135A0F130030A2B01F10101F1D39E
:104B300000EE102AB8EE400A10EE100A01F0AEF8AE
:104B400041EC190BB44602E09FEDE59B002566465B
:104B5000280600F0D7800120013D00EB80002906E7
:104B60004FEA4000F8D101F08CF841EC100BCBE09B
:104B70000020002100EE100A481CC1B219F80120E3
:104B800040F2EC10A2F13003B8EE400AC2F200008D
:104B9000092B80ED0B0A16D849444B1E0027002133
:104BA00007EB870702EB4702A2F130079A78013141
:104BB000A2F130060A2E03F10103F1D301EE107ABF
:104BC000B8EE411A02E09FEDCC1A00210A0600F06F
:104BD000AE800122013902EB82020B064FEA42024B
:104BE000F8D102EE102AB8EE422AA2E000200021FD
:104BF00000EE100A481CC1B219F8012040F2EC1076
:104C0000A2F13003B8EE400AC2F20000092B80ED99
:104C1000090A16D849444B1E0027002107EB8707D5
:104C200002EB4702A2F130079A780131A2F1300677
:104C30000A2E03F10103F1D301EE107AB8EE411A06
:104C400002E09FEDAD1A00210A067CD0012200BFD0
:104C5000013902EB82020B064FEA4202F8D102EE62
:104C6000102AB8EE422A70E0B7EE002A81EE021A4E
:104C700031EE000A80ED0A0A4FF40050FFF7C3BA84
:104C8000B7EE002A81EE021A31EE000A80ED080A22
:104C90004FF40040FFF7B7BA9FED950B51EC190B9D
:104CA00053EC102B00F07EFF044618EE100A0D4660
:104CB00000F0F4FF02460B462046294600F059FE5C
:104CC00000F0FFFF30600120BC46FFF79CBA9FED6B
:104CD000880B51EC190B53EC102B00F063FF0446CA
:104CE00018EE100A0D4600F0D9FF02460B4620468A
:104CF000294600F03EFE00F0E4FF70600220BC4652
:104D0000FFF781BA9FED780B51EC190B53EC102B88
:104D100000F048FF00F0D5FF00EE100A38EE000A60
:104D200084ED060A4FF48070B446FFF76CBAB7EE14
:104D3000002A81EE021A31EE000A80ED0B0A4FF4D0
:104D40008050FFF760BAB7EE002A81EE021A31EE0A
:104D5000000A80ED090A4FF40060FFF754BA0322FD
:104D6000FFF7E6BA002100200230C0B200EE101AB0
:104D700019F80010B8EE408AA1F13002092A40F279
:104D8000EC12C2F2000282ED028A43D84844654622
:104D9000421E0020002400EB800001EB40009178CF
:104DA0003038A1F1300301340A2B02F10102F2D3B1
:104DB00000F067FF41EC190BAC462EE00021002209
:104DC000501CC0B200EE101A19F80010B8EE408A5C
:104DD000A1F13002092A40F2EC12C2F2000282ED87
:104DE000028A2BD848446546421E0020002400EB6E
:104DF000800001EB400091783038A1F1300301349C
:104E00000A2B02F10102F2D300F03BFF41EC190B37
:104E1000AC4616E09FED329B00246646200621D06A
:104E2000012000BF013C00EB800021064FEA40005A
:104E3000F8D100F026FF41EC100B15E09FED289B08
:104E400000246646200626D0012000BF013C00EB6E
:104E5000800021064FEA4000F8D100F012FF41EC3B
:104E6000100B1AE09FED200B51EC190B53EC102B9B
:104E700000F098FE044618EE100A0D4600F00EFFF2
:104E800002460B462046294600F073FD00F019FF4C
:104E900080F0004015E09FED140B51EC190B53EC22
:104EA000102B00F07FFE044618EE100A0D4600F0AD
:104EB000F5FE02460B462046294600F05AFD00F05A
:104EC00000FF00EE100A40F2EC10C2F2000080ED8C
:104ED000020A1020B446FFF796B900BF00BF00BF1A
:104EE0000000000000000000000000000000F03F93
:104EF0000000000000004E40000000002447504722
:104F000047410000244750524D430000244750477A
:104F1000534100002447504753560000A0F1300190
:104F2000CAB20A2A10D3A0F14101C9B205299EBF15
:104F3000A0F13701C8B27047A0F16101CAB20021E7
:104F4000062A38BFA0F15701C8B27047B0B540F289
:104F5000C81140F2CC12C2F20001C2F2000209688C
:104F60001268914255D190F81C1149B100F1F40238
:104F70001368DB7D002B4CD0013902F10402F7D11C
:104F800040F2EC11C2F200010A6840F2E91C026032
:104F90004A68C2F2000C42608A898B688281836011
:104FA000D1F80E200546C0F80E204A8A42828A8A2D
:104FB0008B6982828A7D836182750A7F02770A6AA1
:104FC00002624A6A4262D1E90A32C0E90A3291F8C1
:104FD000302080F83020D1F83120D1F83940D1F894
:104FE0003530C0F83940C0F83530C0F8312091F87C
:104FF0003D20002480F83D2000F13E023E31104665
:1050000090228CF8004000F092FC204685F8F24097
:10501000B0BD40F2E911C2F200010978012914BFC4
:105020000124022480F8F2402046B0BD0A78002A0C
:1050300004BF0120704710F8013B01319A421CBFA8
:1050400000207047F2E700BF00220A6090F800C01D
:10505000ACF13003092B18D880B5D1F800E0013845
:10506000002200BF0EEB8E030CEB4303A3F1300EC6
:10507000C1F800E090F802C00132ACF130030A2B15
:1050800000F10100EED3BDE88040D0B270470000CF
:1050900010B504460020C4E90010C4E90202C4E9C6
:1050A00004000A20607442B9084602F09BF8E060F0
:1050B00048B1207C40F002002074207C40F00100C8
:1050C0002074002010BD00202060012010BD00BF12
:1050D000002808BF7047017C890708D510B5C16852
:1050E0000446084602F056F82046BDE8104000216C
:1050F00001740160704700BF2DE9F04105460028AA
:105100004FF0000008BFBDE8F0811446A2B3D5E916
:105110000002824224BF00226A60D5E901239A1A64
:10512000034688BF134638BF13185A1EA24201D245
:1051300014461AB36A68EB68871A2646A74238BF36
:105140003E4698183246884600F0F1FB6868BC423B
:105150003044686009D90020A71B6860E86808EB44
:1051600006013A4600F0E3FB6F60D5E90001814299
:1051700024BF002068602046BDE8F0810020BDE823
:10518000F08100BF002804BF00207047D0E9012350
:10519000934208BF01689A1A88BF11463CBF006855
:1051A0008118481E704700BF00284FF0000318BF49
:1051B000002A01D118467047D0E900C3634524BFD7
:1051C000002343608368634524BF0023836010B5D8
:1051D000D0E9013EBEEB030E634688BF734638BF7D
:1051E0000EEB0C03013B934201D21A469BB192B1E4
:1051F000A1F1010C134600BF8168002908BF0168B6
:10520000013981601CF803E0C468013B04F801E047
:10521000F2D1134600E00023BDE810401846704765
:105220002DE9F041054600284FF0000008BFBDE819
:10523000F0811446BAB32868AA68824224BF0022CB
:10524000AA60D5E90137DA1B38BF00229F4203EB81
:10525000000688BFF21BA24201D214462AB3D5E948
:1052600002232646871A1A44A74238BF3E4688467C
:1052700008461146324600F05AFBA868BC4230444A
:10528000A86009D9A71B0020E968A86008EB060000
:105290003A4600F04CFBAF602868A968814224BF01
:1052A0000020A8602046BDE8F0810020BDE8F08124
:1052B000014600284FF000000AD0D1E901C3BCEB41
:1052C000030224BF104670470868ACEB0301084492
:1052D000704700BF00281CBF0021C0E901117047C2
:1052E000002804BF4FF0FF307047B0B5D0E901236C
:1052F000B2EB030E38BF4FF0000E03D20468D21A8F
:1053000002EB040EBEF1000F12D0D0F800C0D0E9BD
:1053100002230024002000BF624528BF22469D5C76
:105320008D4208BFB0BD0130864502F10102F3D1C4
:105330004FF0FF30B0BD00BF002804BF4FF0FF307A
:1053400070472DE9F04F81B08446D0E90103C51ABA
:1053500038BF002503D2DCF80070C01AC519954289
:105360004FF0FF3045D3002D43D0DCF800E0DCE9FE
:10537000023C11F8019B901E00904FF0000A4FF084
:10538000000B002006E028446E1C641B964230D0BF
:10539000254664B3734528BF53461CF803400133C8
:1053A0004C4508BF4FF0010B6C1E5FEA0B6600F125
:1053B0000100EDD0022A4FF00106E7D3002CE5D022
:1053C000009E023DB54228BF35466E1C002500BF39
:1053D000734528BF53461CF8037011F805804745F4
:1053E000D1D10135AE4203F10103F1D1CCE74FF049
:1053F000FF3001B0BDE8F08F2DE9F04381B00446E5
:105400000846894600F0A5FA002C4FF0000618BFA8
:10541000002835D0D4E900720646BA4224BF0022E3
:105420006260D4E9012339469B1A88BF194638BF08
:10543000D9194B1E834201D21E462BB3E068BD1A18
:105440003746B54238BF2F46104449463A4600F029
:105450006EFA6068AE42384460600BD90020A6EB5B
:1054600007086060E06809EB0701424600F05FFA58
:10547000C4F80480D4E90001814224BF00206060A8
:10548000304601B0BDE8F0830026F9E72DE9F04F82
:1054900083B000284ED08246D0E90103834208BF82
:1054A000DAF800C0181A88BF84463CBFDAF800302A
:1054B00003EB000CDAE90104B0EB040E38BF4FF047
:1054C000000E04D2DAF80030001B00EB030EBEF130
:1054D000000F4FF0000600F08780DAE90103C41ADC
:1054E00028BF264603D2DAF80040C01A0619D6B102
:1054F0009AF81190DAF80000DAF80C404FF0000842
:10550000002700BF834228BF4346E55C4D4506D0D7
:105510000137BE4203F10103F4D14FF0FF37F80F1A
:10552000964503D308E00120964505D220B1BCF191
:10553000010F01D0002657E0501E4FF000034FF03E
:10554000000601904BD000BFDAF800B0DAF808008E
:105550000C46584528BFCAF80830DAE90109B0EB13
:10556000090838BF9846814500EB0B0188BFA1EBC5
:105570000908B8F1000F31D0DAF80C50BBEB09077D
:1055800018BF012705EB09010DF10B003A4600F0A9
:10559000CEF9002309EB0700CB45CAF8080007D174
:1055A000CAF8083028788DF80B000120CAF80800E6
:1055B000DAF808002146584528BFCAF80830B8F183
:1055C000000F0CD09DF80B0088559AF811209042DE
:1055D00005D001980136B042B6D100E021460198CD
:1055E000864218BF01368B55304603B0BDE8F08FB8
:1055F000002804BF00207047B0B583684FF0000C4E
:1056000081B1D0F804E09E450CD00468002500BFAD
:1056100001330CF1010CA34228BF2B468C4501D26B
:105620009E45F5D18C451CBF0020B0BDC068C05C54
:1056300010700120B0BD000000F00AF9FDF7D6FAA5
:1056400040F2A804C2F2000420464FF4E131FDF715
:10565000FBFF44F20040C4F2000000214FF4E132AD
:105660000025FDF7D3FB44A120460722FEF7C4F92D
:1056700040F2A001C2F20001086041A120460122CF
:10568000FEF7BAF940F27801C2F2000108603EA1CB
:1056900020460122FEF7B0F940F27C01C2F200017F
:1056A000086040F21030C2F2000040F2793840F257
:1056B000783947F2B94747F260464FF0000A056073
:1056C000C2F20008C2F20009C0F60007C0F60006E8
:1056D0002FA505E0022089F80000284601F0B8FD5A
:1056E0002046FDF7E7FF88F8000068B199F8001040
:1056F000022801D10229EDD10128F1D101291CBFD5
:10570000012089F80000EBE7207F89F800A060B352
:1057100027A001F09DFD384601F09AFD2EA001F072
:1057200097FD94F81C0188B14FF0000B04EB8B003F
:10573000D0F8F4103046CA7901F1080300F06AFC91
:1057400094F81C010BF1010B8345EFD340F2A0004C
:10575000C2F2000001683046CA7901F1080300F086
:1057600059FC384601F074FDBAE747F28D40C0F6A7
:10577000000001F06DFDB3E7244750524D43000097
:10578000244750474C4C00002447504753410000E9
:1057900057616974696E6720666972737420646109
:1057A00074612066726F6D20475053210000000025
:1057B0004E657720726563656976656420646174FF
:1057C0006120686176652076616C6964204750537A
:1057D000207369676E616C00437573746F6D20731D
:1057E000746174656D656E747320646566696E6559
:1057F0006420627920757365723A000081B044F2CA
:105800000041C4F200018DF80300CA68920408D573
:105810000A681206FCD59DF803204A600A68120641
:10582000FCD501B070470000704700BFFEE700BF25
:10583000FEE700BFFEE700BFFEE700BF704700BF06
:10584000704700BF704700BF704700BFFDF77CBACC
:105850004EF68850CEF2000001684FF0000C41F483
:105860007001016043F60001C4F202010A6842F0CF
:1058700001020A60C1F808C00B684FF6FF72CFF64C
:10588000F6621A400A6043F21002C2F200424A6015
:105890000A6822F480220A60C1F80CC04FF000614F
:1058A00040F8801C704700BF80B543F60400C4F286
:1058B0000200416801F00C0242F20041082AC0F2E5
:1058C000F40106D0042A20D141F20021C0F27A016D
:1058D0001BE0D0F800C00368026803F03F03C2F386
:1058E000881E5FEA4C2241F20022C0F27A0258BFC1
:1058F0000A46B2FBF3F102680223C2F301420EFB37
:1059000001F103EB4202B1FBF2F140F21002C2F2EC
:1059100000021160406847F24041C0F30310C0F636
:105920000001085C116821FA00F0106080BD40EAB7
:1059300001039B0703D009E008C9121F08C0042A0D
:10594000FAD203E011F8013B00F8013B521EF9D2F4
:105950007047421C10F8011B0029FBD1801A7047C8
:10596000034611F8012B00F8012B002AF9D1184643
:1059700070472DE9FE4F804681EA0300C00F0C46B8
:10598000009021F0004123F00045B8EB0200A9414E
:1059900005D24046214690461C460B46024623F05F
:1059A0000040104347D0270DC7F30A00C3F30A5144
:1059B0000290401A019040286BDAC3F3130040F4C0
:1059C000801B0098924620B10023D2EB030A63EBC0
:1059D0000B0B01985946C0F14002504600F0A3F964
:1059E00006460D4650465946019A00F0ABF910EBB9
:1059F00008006141002487EA115284EAE7731A43E0
:105A000040D0009A62B3019A012A4FEA075215DC8E
:105A1000001B61EB02014FF0004202EA0752CDE9A0
:105A20000042001C41F5801132462B4600F0E2F99D
:105A300003B0BDE8F08F40462146F9E7001B61EB5B
:105A40000201001C41F5801300185B412018A2F5EB
:105A5000001747EB030140EAD570B6196D4111E01C
:105A60006D084FEA360645EAC0754FEA0752001B3B
:105A700061EB0201001C41F5801149084FEA30003A
:105A80000019514132462B4603B0BDE8F04F00F0FB
:105A9000A2B90098012240000023D0EB020263EB80
:105AA000E073009821464FEAE074B8EB000061EB28
:105AB0000401E9E783F000435BE781F0004158E728
:105AC0002DE9FE4F81EA030404F0004421F0004177
:105AD00000944FF0000B23F0004350EA01045ED025
