:020000040800F2
:10000000400A0020AD0100086B120008251000080E
:100010006912000883020008B920000800000000EF
:100020000000000000000000000000004115000872
:1000300085020008000000003F1500084315000875
:10004000C7010008C7010008C7010008C701000870
:10005000C7010008C701000889020008FD02000866
:10006000110300082503000839030008C701000830
:10007000C7010008C7010008C7010008C701000840
:10008000C7010008C7010008C70100080000000000
:100090000000000000000000000000004D03000808
:1000A000C7010008C7010008C7010008C701000810
:1000B000C7010008C7010008C7010008C701000800
:1000C000C7010008C7010008C7010008C7010008F0
:1000D000C70100084120000865200008000000005A
:1000E0009D020008C7010008C701000800000000C9
:1000F000000000000000000000000000C701000830
:1001000000000000C7010008C7010008C70100087F
:1001100000000000000000000000000000000000DF
:10012000C7010008C7010008C7010008C70100088F
:10013000C7010008000000000000000000000000EF
:10014000000000000000000000000000C7010008DF
:10015000C7010008C7010008C70100088D2000087A
:10016000C7010008C70100080000000000000000EF
:10017000000000000000000000000000000000007F
:1001800000000000C701000800000000000000009F
:10019000C7010008C7010008DFF80CD000F03CF8E8
:1001A0000048004769210008400A002006488047AF
:1001B00006480047FEE7FEE7FEE7FEE7FEE7FEE74C
:1001C000FEE7FEE7FEE7FEE7491500089901000893
:1001D00040EA01039B0703D009E008C9121F08C0C9
:1001E000042AFAD203E011F8013B00F8013B521E49
:1001F000F9D27047D2B201E000F8012B491EFBD2C0
:1002000070470022F6E710B513460A460446194621
:10021000FFF7F0FF204610BD1CB5094800900948C3
:1002200001900546009C06E0E06840F0010394E878
:10023000070098471034AC42F6D3FFF7B1FF000037
:100240005C2A00087C2A000830B58C1810F8012BB5
:1002500012F00F0301D110F8013B120906D110F87A
:10026000012B03E010F8015B01F8015B5B1EF9D183
:1002700001E001F8013B521EFBD1A142E6D3002070
:1002800030BDFEE77047000043480168C90708BF5A
:10029000704701210160012001F0FAB910B53E4C10
:1002A0002068400503D54FF4806001F008F820680D
:1002B000000503D54FF4006001F001F82068C00488
:1002C00003D54FF4805000F0FAFF2068800403D576
:1002D0004FF4005000F0F3FF2068400403D54FF4C2
:1002E000804000F0ECFF2068000458BF10BD4FF4C0
:1002F00000402060BDE8104001F0CAB926480168FE
:10030000890758BF704702210160022001F0C0B97F
:1003100021480168490758BF704704210160042043
:1003200001F0B6B91C480168090758BF7047082199
:100330000160082001F0ACB917480168C90658BF30
:10034000704710210160102001F0A2B910B5124CC5
:100350002068800602D5202000F0B1FF206840060A
:1003600002D5402000F0ABFF2068000602D58020B7
:1003700000F0A5FF2068C00503D54FF4807000F0A1
:100380009EFF2068800558BF10BD4FF400702060AC
:10039000BDE8104001F07CB9143C0140EFF3058149
:1003A00031B1074950B10A68D20300EBE270F9E7B6
:1003B00006494A684B689B1A8342FBD3704700BFCB
:1003C00010E000E001484068704700BF5001002085
:1003D00090F83D20202A1CBF0220704724224DF8AF
:1003E00008ED00F077FF5DF808EB23F0100353628F
:1003F000536A4DF808ED00F048FF5DF808EB7047D0
:10040000006C704760B3F8B5044690F83D0028B919
:10041000002084F83C00204600F022FB01F00BF89D
:1004200000F060FC26494FF49675264F4FF47A761B
:10043000B0FBF1F3D4E900125D434B60BA4228BF30
:10044000B5FBF6F301330B621F4B9A420AD85200F8
:10045000B0FBF2F040F6FC72104208BF042016E038
:1004600001207047A36843B119235A43B0FBF2F04F
:1004700002050BD040F4804005E002EB4202B0FBE5
:10048000F2F0020502D040F4004000E00120C86113
:1004900004F10C05D4E90702104308602DCD104388
:1004A000886045EA0300C86001F00FF800202021B1
:1004B000206484F83D10206384F83E00F8BD00BF3E
:1004C00040420F00A1860100A08601002DE9FE4FE9
:1004D0001D4690460E4600F07FFF074600F00AFFDB
:1004E0000AD13E49204601221923009700F019FE47
:1004F00010B901F020F803D102252846BDE8FE8F8F
:1005000000F0FCFE01D100F040FF016806F0FE099A
:100510004FF0010AA0264FF0200B21F4006101608A
:10052000242084F83D00002020642D48E0622068EB
:1005300000222B46016800F018FF002844D12068F3
:10054000C0F81090FFF73EFF0746206843694269F4
:1005500094F83D109B070DD412F480620AD1A029B3
:1005600008D025B1FFF72EFFC01BA842EDD984F8B3
:100570003D60EAE784F83DB04169026842F40072E8
:100580008907026011D46FF480610122192341614F
:1005900012492046009700F0C4FDA8B90AF10100F5
:1005A000C2458246C3D3012510E00025012219234C
:1005B0000295416902910949806902900298009769
:1005C000204600F0AEFD08B1032596E7002084F830
:1005D0003C00202084F83D008FE700BF020010009F
:1005E0000000FFFF2DE9FE4F1D461746884600F02C
:1005F000F3FE814600F07EFE0DD1DA4E2046012248
:100600001923CDF8009006F5702100F08AFD10B98D
:1006100000F091FF02D10220BDE8FE8F0120B2461A
:1006200084F83C0020680168C90701D100F0ADFEE4
:1006300001680C9E21F400610160222100F024FF7A
:1006400051466585AAF10211E1626762618D2185DB
:10065000E16A026842F4806211F5803F026018BFCF
:10066000012929D1016841F48071016020464FF0D1
:10067000011100223346CDF80090002500F051FD15
:10068000E0BB2069B0F5804F1CD148F00100C0B23A
:10069000226851464B4610612046324600F072FDFA
:1006A00058BB208D022857D0012847D0002856D1AA
:1006B00000210291216845E00429D3D0216B112942
:1006C000D0D0D3E70620216832464B46574600EA91
:1006D000D81B0BF1F00008610AF10601204600F07A
:1006E00051FD50B920685FFA88F132464B460161EE
:1006F0002046394600F046FD40B1206C84F83C505D
:1007000000F0A2FE08BF0120BDE8FE8F00200022FD
:1007100033460290206841690291816902910299F1
:10072000016841F48071016020464FF0011100F032
:10073000F9FD0028E2D14BF0F100A9E7216800F0B3
:100740009DFE02924A6902928A690292029A0A689E
:1007500042F400720A600EE000F041FE03E02168FE
:100760000A6842F480620A60002202924A69029298
:100770008969029102990AF10207010436D080B218
:10078000032809D8022821D0012816D12046314655
:1007900000F0A0FE18B331E02046314600F09AFE8A
:1007A00060BB616A20684A1C62620069087000F0E0
:1007B0001FFEE2D500F0D3FD15E0204639460022A9
:1007C000334600F0AFFD00BB00F06EFE2046394618
:1007D0000022334600F0A6FDB8B900F039FE616A88
:1007E000206800F07AFE00F0C9FDC6E7202084F8FA
:1007F0003D00002000F0CEFDBDE8FE8F216C012001
:10080000202908BF0320BDE8FE8F0320BDE8FE8F2E
:100810002DE9FC471F461646894600F0DDFD82465D
:1008200000F068FD0DD14F4D204601221923CDF86F
:1008300000A005F5702100F074FC10B900F07BFEFB
:1008400002D10220BDE8FC8700F058FD01D100F084
:100850009CFD0168DDF8288021F400610160212100
:1008600000F012FEA5F102116785E1626662618DFA
:100870002185E16A11F5803F18BF012914D1016873
:1008800041F48071016020464FF00111002243467F
:10089000CDF800A0002600F044FC28BB2069B0F58C
:1008A000804F07D1FE2013E00429E8D0216B1229E4
:1008B000E5D0E8E7062021684246534600EAD91011
:1008C000F0300861A91D204600F05CFC58B9FF20FB
:1008D000216800EA0900424653460861204629463D
:1008E00000F050FC40B1206C84F83C6000F0ACFD9E
:1008F00008BF0120BDE8FC870020019000F014FE35
:10090000208D60B320464146524600F092FCC8B9A3
:1009100000F045FD228D531E2385466976070AD5D2
:100920001B0408D08B1C636249780161901E2085EE
:10093000608D0138608520464146524600F0D6FB66
:100940000028DDD0206C042811BF03202068016836
:1009500041F4007104BF01600120BDE8FC8700F094
:10096000CDBD00BF020001002DE9FC4799461646A7
:100970000F4600F031FD054600F0BCFC0AD13649B7
:10098000204601221923009500F0CBFB10B900F09E
:10099000D2FD02D10220BDE8FC8701220DF128081A
:1009A00000F07AFD01D100F09DFD00F0A0FD2122B4
:1009B0004B4600F037FD29493246E1626062394614
:1009C000608D20852046CDE9008500F03FFB38B1E1
:1009D00084F83CA000F038FD08BF0120BDE8FC878A
:1009E000218D080422D0204641462A4600F021FCF1
:1009F00010BB626A2068511C616211780161618DCF
:100A000001396185238D591E218546697607E8D510
:100A100009044FF00001E4D0911C6162517801613A
:100A2000991E2185608D01386085DAE720464146B0
:100A30002A4600F05BFB60B1206C042811BF032044
:100A40002068016841F4007104BF01600120BDE825
:100A5000FC8700F053BD00BF020010000000FFFF44
:100A600070470000B0B5184C6068013060602068C5
:100A700010B1206801382060217A00258D421ED2F5
:100A800004EB8500C068C0B10278920715D5826872
:100A900012B1013A826010D1D0E90321904720467B
:100AA00010F8081F00EB85004068426882600278F9
:100AB000D30704BF02F0FC0202700135DEE7BDE897
:100AC000B04000F0B3BD00BF5001002080B50B481E
:100AD000016841F400710160016841F480610160C6
:100AE000016841F480710160032000F04FF80F208D
:100AF00000F006F800F016F8002080BD003C02402F
:100B000010B504467C484FF47A710068B0FBF1F0F0
:100B100000F074FA4FF0FF302146002200F010F888
:100B2000002010BD70470000002805D4734600F077
:100B30009DFB9E46014A8850704700BF80E200E05E
:100B4000F0B5184B4FF0FF361C68C4F30224E51EC5
:100B500084F0070438BF002506FA05F7BA43042CD1
:100B600028BF042406FA04F4A14300F00F04A940AE
:100B7000043C1143044A234409010244002848BFAD
:100B800003F10C021170F0BD00E400E005494FF6DE
:100B9000FF030A681A4060F30A2203481043086002
:100BA000704700BF0CED00E00000FA052DE9F041B0
:100BB0004A4F04460D46D7F8000400F00F00884263
:100BC00004D287F8005400F05AFB3BD1206881071B
:100BD00005D5A168BA6822F0F0021143B960C007D8
:100BE00029D100F04CFB04D987F8005400F047FBF2
:100BF00028D12068410705D5E168BA6822F4E0529F
:100C00001143B960000706D52069B96821F4604135
:100C100041EAC000B86000F075F8B968304AC1F325
:100C20000311515CC840344908600F20FFF768FF8A
:100C30000020BDE8F0816068811E022905D2396874
:100C4000890107D40120BDE8F081012842D139682B
:100C50008903F7D5B96821F003010843B860FFF7AD
:100C6000B1FB0646606841F2883801282CD0022882
:100C70001ED003280BD1B86800F00C000C28B0D0AF
:100C8000FFF7A0FB811B03204145F4D9D1E7B868E9
:100C900010F00C0FA5D0FFF795FB811B03204145F9
:100CA000F5D9C6E7FFF78EFB811B03204145C0D86D
:100CB000B86800F00C000828F4D192E7FFF782FB37
:100CC000811B03204145B4D8B86800F00C0004280B
:100CD000F4D186E739688907B4D5BBE7003802400C
:100CE000D622000804480549054A00680968C1F38E
:100CF0008221515CC84070474401002008380240FE
:100D0000E62200081049486800F00C020F48082A43
:100D100003D0042A17D10E4870470A680B685B029B
:100D20000B4B58BF034602F03F000A680968B3FB4B
:100D3000F0F0C2F38812C1F301415043022202EBEA
:100D40004101B0FBF1F07047043802400024F40088
:100D500000127A002DE9FC4104460078A44EC00739
:100D600009D0B06800F00C0004285DD13068800321
:100D700001D5606830B32078800716D5B06810F0D0
:100D80000C0F05D000F0D2FA64D17068400261D433
:100D90003068800702D5E068012813D120693168E6
:100DA00021F0F80141EAC0003060207800070CD43F
:100DB000207840071CD4A769002F00F0F78000F0CE
:100DC000B5FA78D10120BDE8FC816069002861D0C6
:100DD00088480121C0F8801EFFF7F4FA0546706FBD
:100DE0008007E5D4FFF7EEFA401B0228F7D9BBE0F5
:100DF0000020814F0190306C40F080503064306CA6
:100E000000F0805001900198386840F4807038609C
:100E1000FFF7D8FA05463868C0052DD4FFF7D2FA97
:100E2000401B0228F7D99FE000F080FA02D17068D9
:100E300040029BD430686168B1F5803F06D0B1F5BF
:100E4000A02F64D140F480203060306840F48030BE
:100E5000306065E0E1686748002949D00121016000
:100E6000FFF7B0FA05463068800797D4FFF7AAFA73
:100E7000401B0228F7D977E0306FA168012905D01F
:100E800005295AD140F004003067306F40F001006E
:100E900030675BE057480021C0F8801EFFF792FAE8
:100EA0000546706F80077FF583AFFFF78BFA401B15
:100EB0000228F6D958E04F49002088460866FFF717
:100EC00081FA0546022F09D1306880014FD5FFF71E
:100ED00079FA411B03200229F6D987E030688001A6
:100EE00064D5FFF76FFA411B03200329F6D37DE099
:100EF00000210160FFF766FA0546306880077FF53C
:100F000054AFFFF75FFA401B0228F6D92CE020F41B
:100F1000803000293060306820F48020306048D074
:100F2000FFF750FA0546306880033FF524AFFFF71E
:100F300049FA401B6428F6D916E020F00100002988
:100F40003067306F20F00400306740D0FFF73AFA86
:100F5000054641F28837306F80073FF52CAFFFF729
:100F600031FA401BB842F6D90320BDE8FC811C349D
:100F70001FCC0843D90340EA82104FF6FF72914319
:100F800040EA0460A1F58031084370600120C8F890
:100F90006000FFF717FA04463068800106D4FFF7B7
:100FA00011FA011B03200229F6D91FE00020BDE839
:100FB000FC81FFF707FA0546306880037FF5DBAE5A
:100FC000FFF700FA411B03206429F5D90EE0FFF773
:100FD000F9F9054641F28837306F80077FF5EBAEAF
:100FE000FFF7F0F9411B0320B942F5D9BDE8FC81B8
:100FF000003802400000474200700040411E0020BF
:10100000B0EB116F1CBF01207047044AF023516000
:1010100003490B70072190601160704710E000E0F9
:1010200023ED00E0FEE70268516949054FF0000139
:1010300009D56FF48063536104220264724600F0A4
:101040007AF9964601210846704700002DE9FE43D3
:10105000044600680E460A9D0B9F99469046002262
:1010600001682B4600F081F910B10320BDE8FE8332
:10107000206806F0FE012A463B4601611A492046D7
:1010800000F080F830B1216C0320042908BF012052
:10109000BDE8FE8300203A46029020684169029133
:1010A0002946806902900298204600F0C2F830B1CB
:1010B000206C0428D9D100F030FABDE8FE83206806
:1010C000B9F1010F0AD04FEA18213A4601612046D2
:1010D000294600F0AEF80028EAD120685FFA88F1CE
:1010E00001610020BDE8FE8302000100F8B515464D
:1010F0000E4604464F1C20684069400744BF00204C
:10110000F8BD2046FFF78FFF48B9002FF3D026B176
:10111000FFF758F9401BB042EDD900F0F6B80120B6
:10112000F8BD2DE9F047044601F47F001827DDF8EB
:1011300020909A4690468EB2B0F5803F08BF1427A3
:101140005D1C2068C0593040801BB0FA80F0400917
:10115000404514D1002DF4D0BAF1000F05D0FFF7AF
:1011600031F9A0EB09005045EBD900202021206384
:1011700084F83D1000F00EF90320BDE8F087002050
:10118000BDE8F0872DE9F0419846164604468FB237
:10119000551C206841693940B9420DD04169490563
:1011A0000DD4002DF5D02EB1FFF70CF9A0EB0800FF
:1011B000B042EED903200CE00020BDE8F0810168C8
:1011C00041F4007101606FF480614161042020648A
:1011D00001200021216384F83C10202184F83D1077
:1011E000BDE8F08170B515460E4604462068416999
:1011F000490644BF002070BD4169C9060BD426B121
:10120000FFF7E0F8401BB042F0D9206C40F020001E
:101210002064032006E06FF010014161002020648B
:1012200020630120002184F83C10202184F83D1027
:1012300070BDF8B515460E4604464F1C206840693F
:10124000000644BF0020F8BD2046FFF7ECFE48B979
:10125000002FF3D026B1FFF7B5F8401BB042EDD90F
:1012600000F053B80120F8BDFEE770471C210122B1
:1012700001EAD00100F01F0002FA00F07047D7F831
:10128000000400F00F00A842704719435162116832
:1012900041F001011160202180F83D1000207047CD
:1012A000BDF80C10B8EEC33A0ABAC9BA120C02EE75
:1012B000101A704704200121CDE90010704720600A
:1012C00000F0E6B9284678210022704728463946C2
:1012D0000122584780F83D200268136823F001037B
:1012E0001360536A704794F84410284670472046AC
:1012F000FFF786B894F83D0020287047012084F855
:101300003C0020680168C9077047206C40F020004D
:1013100020640020206384F83C00202084F83D00F5
:101320000320F8BDCDF80090FFF7FBBEB06800F0D9
:101330000C0008287047016380F83C10202180F8D9
:101340003D107047BDF80E20B8EEC22A20EE022AEA
:1013500013BAD2BA704700902046FFF759BA606AB4
:10136000421C626209690170704741F4807101603A
:1013700020464FF001110097FFF7D3BE208D0138B2
:101380002085618D013961857047016841F0010157
:101390000160704784F83C0084F83E007047616A41
:1013A00020684A1C62620A780261628D013A628595
:1013B000704701BAC0BA090C03EE100A002070474A
:1013C00030462946224601230097FFF70BB92846ED
:1013D00078210022002330470446FEF7F3BF21683E
:1013E0000A6822F480620A600A6842F40062704768
:1013F000608D01386085208D2168013820854A691B
:10140000520770479DF8030094F844107047304627
:10141000294601230097FFF7FBB9284678210022CF
:101420002023304784F83D20402284F83E20C4F831
:1014300040A061857047242084F83D002068016841
:1014400021F00101016070470320216C04297047DD
:101450002068616A026842F4007202604A1C62629B
:1014600000690870608D01386085208D0138208505
:101470007047284678210022102330470A6822F45A
:1014800080620A600022704784F83D10102184F8C1
:101490003E1000212164704784F83C20226898E8BF
:1014A00003011368DB0770472068616A026822F451
:1014B000806202604A1C626200690870208D0138F7
:1014C0002085608D013860857047086840F0010014
:1014D000086070474A46FFF785BE4A1C6262006991
:1014E00008707047136843F0010313607047136876
:1014F0004FF0000A23F4006313607047206801680E
:1015000041F400710160202084F83D00002084F83F
:101510003C0084F83E00BDE8FC872068016841F487
:101520000071016001207047206841690191806964
:1015300001900198704794F83C000128704770476B
:101540007047FFF78FBA000010B50E480F4CD0F867
:10155000801041F47001C0F880100B490A6842F015
:1015600001020A6000228A600B6823400B60084B6E
:101570004B600B6823F480230B60CA604FF000615E
:10158000016010BD08ED00E000380240FFFFF6FEEC
:101590001030002460B1D0E90123934208BF0168F4
:1015A0009A1A88BF11463CBF00688118481E7047D0
:1015B000002070472DE9F843A0B3164692B3D0E956
:1015C0000047054688462846A74224BF00276F608B
:1015D000FFF7E0FFB04201D2064618B3E868414683
:1015E0003844E71B3446B74238BF3C462246FEF734
:1015F000EFFD6868BE4200EB0409C5F804900BD902
:101600000020A6EB040908EB04016860E8684A467C
:10161000FEF7DEFDC5F804902868814524BF002050
:10162000686000E000263046BDE8F883704700009F
:101630000C48016821F080710160016841F08071FF
:1016400001600948016821F001010160016841F071
:101650000101016000214160416800BF00BF406896
:10166000401A7047FCED00E0001000E01CB5074C8C
:101670000320002101220023CDE900102021204673
:1016800000F04EF84FF40010A0611CBD00000240B5
:10169000704700002DE9F84FC0F38724DFF87CB0D5
:1016A000A2F1010A00264FF001084FF00309009350
:1016B00084F0800E0024102C08BFBDE8F88F08FAD3
:1016C00004F70F4227D03BF81E500A9B09FA06FC8C
:1016D0003D432BF81E5003FA06F5C36823EA0C03BA
:1016E0002B43C36002FA06F3056825EA0C052B4379
:1016F000BAF1010F03600ED845686FEA0C03BD43D1
:10170000009FA740BFB23D4345600B9D8768B54031
:101710003B402B43836002360134CCE77401002048
:1017200091B1FEB5274E0127DDE9085C0644C6F3FA
:101730008F2607FA06F6244F3C6834433C60CDE917
:10174000005CFFF7A7FFFEBD704700BFC1B32DE9E6
:10175000FE4F96461B4A0124DDF8348000F1200B31
:1017600000274FF00F096FF0030A0244C2F38F22E3
:1017700004FA02F2144C25682A4300252260102D39
:1017800015D021FA05F2D2070ED00AEA550607F065
:101790001C025BF806C009FA02F408FA02F22CEA0D
:1017A000040422434BF8062004370135E7E70C9A7E
:1017B000CDE9003202227346FFF76CFFBDE8FE8FD1
:1017C000704700BF0000FE03303802402DE9F041B1
:1017D00086B01446AE4A90421BD0AE4A904230D1F9
:1017E000AE4D2860002004904D480029026842F464
:1017F00080020260006800F480000490049847D0E2
:10180000022938D0052940F07480A04800F5806096
:101810006CE0A14D28600020039041480029026837
:1018200042F400020260006800F400000390039894
:1018300034D0012924D005295BD1944800F50060FB
:1018400054E0914D28600020059035480529026834
:1018500042F400120260006800F400100590059840
:1018600047D8DFE801F0033630464642FFF722FD55
:101870008648C02132E0FFF71DFD8448302104E096
:10188000FFF718FDDF484FF4C07100F5E43027E0A2
:10189000FFF710FDDB484FF440611FE0D94E4FF0D9
:1018A000040801274FF4807101220123CDE900785B
:1018B00006F5D630FFF74AFFCDE9007806F5DA30B5
:1018C0004FF400710CE0FFF7F5FCCE484FF41071B7
:1018D00004E0FFF7EFFCCB484FF4407100F5D8303F
:1018E00001220123FFF732FF03E0C648042100F084
:1018F00019F800204FF48041C5E90140C5E9030112
:10190000C5E90500C5E907002846FEF77BFD284626
:101910000021FEF75DFD002006B0BDE8F08100BFAC
:101920004038024070470000D14A90420AD0584ADD
:10193000904205D0574A904214BF0020574802E019
:10194000554800E0504880B502220523FEF7BEFD51
:10195000002818BF012080BDFEB50D46DA491C469F
:101960008DF80B2088420AD04949884205D0494960
:10197000884214BF0026494E02E0474E00E0424E26
:101980004FF47A770DF10B02FFF741FD10B9FFF725
:1019900017FD20B13046FEF733FD0120FEBD0020CB
:1019A000FEBD00BFFEB50D46C7491C468DF80B2095
:1019B00088420AD03649884205D03649884214BF49
:1019C0000026364E02E0344E00E02F4E4FF47A7778
:1019D0000DF10B02FFF71BFD38B9089B3046294675
:1019E00022460097FEF7FEFD20B13046FEF708FDC7
:1019F0000120FEBD0020FEBD1CB5B34CA0420AD0A4
:101A0000234CA04205D0234CA04214BF0024234CF9
:101A100002E0214C00E01C4C4FF47A708DF8073046
:101A20008DF806200DF106020223FFF794FC18B191
:101A3000FFF75DFC01201CBD00201CBDBFB5A24C02
:101A4000089DA0420AD0124CA04205D0114CA042E1
:101A500014BF0024114C02E00F4C00E00A4C4FF47C
:101A60007A70CDE90035012302902046FF2A88BF15
:101A70001023FEF779FF18B1FFF739FC012000E0D1
:101A8000002004B0B0BD00BF48000020005400405A
:101A9000005C004000580040F00000209C00002046
:101AA0002DE9F8430446182084F8450041F0D000A1
:101AB00084F84400FFF7BCFD834D534A00212846BB
:101AC000FFF784FEFFF70FFCFFF72EFF00286AD117
:101AD00094F844100DF1030328467522FFF73CFFEC
:101AE0009DF8030071285ED194F84410DFF8E89463
:101AF00028466B220023C8476420FEF74FFCFFF7FF
:101B0000F2FB6B220123C847C820FEF747FCFFF712
:101B1000EAFB1A2203234FF00308C847FFF7E3FB51
:101B200019220423C8470DF1030694F84410374FD7
:101B300028461B223346B847FFF764FC1B2200F0FF
:101B4000E50328468DF80330C847FFF7CCFB1C227D
:101B50003346B847FFF756FC1C2200F0E70328463F
:101B60008DF80330C847FFF7BEFB1D223346B84748
:101B7000FFF748FC1D2268F303008DF8030000F016
:101B8000F3032846C847FFF7AEFB37222223C84796
:101B9000FFF7A9FB38220123C84794F845102846CF
:101BA000FFF7C2FE18B102263046BDE8F88394F86C
:101BB000451028460A2200230026C847144F0A2051
:101BC000B84794F8451028460A220F23C8470A2030
:101BD000B84794F8451028460A220023C8470A202F
:101BE000B84794F8451028460A221223C8470A200D
:101BF000B847084808494FF06252C4E90E212064F2
:101C0000D2E700BF00540040801A060059190008AE
:101C10009D03000800E0BF3F0000FA3B1FB50446EB
:101C200090F8441006200DF10A033B220090E94889
:101C3000FFF7B8FEBDF80A0094ED0E0AFFF7B9FBF6
:101C4000A184FFF72DFBE284FFF77CFB84ED012AE2
:101C500001EE102A1B0CB8EEC11A238520EE011AE2
:101C600020EE030A84ED000A84ED021A04B010BDD0
:101C7000005400401FB5044690F8441006200DF1B2
:101C80000A0343220090D348FFF78CFEBDF80A00F8
:101C900094ED0F0AFFF78DFB6185FFF701FBA2852D
:101CA000FFF750FB84ED042A01EE102A1B0CB8EE5E
:101CB000C11AE38520EE011A20EE030A84ED030A1F
:101CC00084ED051A04B010BD0054004070B592B008
:101CD00000251E48012402260195016841F080512B
:101CE0000160006800F08050019001980D9518483F
:101CF000016841F440410160006800F440400D90EB
:101D000008950494029501960D98079607200C906B
:101D100004200B904FF4C8700A901020099001A87D
:101D2000FFF718F878B94FF48050CDE90E6511959A
:101D3000062110900F200D900DA8FEF737FF0446E6
:101D4000002818BF0124204612B070BD4038024060
:101D5000007000407F2898BF3F2900D9704770B5B8
:101D60000C4E01F0070301F03801012440EA011094
:101D7000974904FA03F336780C5CB6FA86F67609CE
:101D800024EA0305964208BF44EA03050D54BDE862
:101D900070407047D801002080B5024600288C486A
:101DA0004FF4806118BFFF22FEF724FA80BD00BF08
:101DB000684A51801080704770B5FFF739FC854D37
:101DC0003F4A002100242846FFF700FD28467821DD
:101DD000FFF7AAFD002871D16420FEF7DFFA7E4EDE
:101DE000FFF770FAAE23B047FFF717FBFFF741FB91
:101DF000FFF768FAB023B047FFF764FAC823B0478B
:101E0000FFF7E5FAFFF735FBFFF75CFA4023B04731
:101E1000FFF758FA8123B047FFF754FAFF23B04782
:101E2000FFF750FAA123B047FFF74CFAA623B047BB
:101E3000FFF748FAA823B047FFF744FA3F23B0471B
:101E4000FFF740FAA423B047FFF73CFAD323B0478B
:101E5000FFF7BDFAFFF736FAD523B047FFF732FA9E
:101E6000F023B047FFF72EFAD923B047FFF72AFA3D
:101E70002223B047FFF726FADA23B047FFF722FA0A
:101E80001223B047FFF71EFADB23B047FFF7C5FA6E
:101E9000FFF718FA8D23B047FFF714FA1423B04761
:101EA000FFF710FAAF23B04749484FF48061FEF7BF
:101EB000A8F900F065F8274804600124204670BDA9
:101EC000801A06002DE9F84FDFF888A00E46337817
:101ED000BAF8001019447F2906D89346BAF80220B0
:101EE00071780A443F2A02D90020BDE8F88FA0F19A
:101EF0002009BBFA8BF4002700908F4221D2726830
:101F000009FB01F14FF0000802EB410131F81750D5
:101F1000984513D205FA08F05A46000458BF6209E2
:101F2000BAF80210BAF800003944404489B280B2CD
:101F3000FFF710FF337808F10108E9E771780137FE
:101F4000DBE7BAF8001051FA83F0AAF80000009815
:101F5000BDE8F88F7001002070B514460D460646A6
:101F6000307850B129462246FFF7ACFF014616F8FB
:101F7000010B814218BF70BDF2E7002070BD000068
:101F80002DE9FC41124C134D134F00264FF08008F1
:101F9000082E08BFBDE8FC8146F0B0007821002281
:101FA000C3B22846B8472846782100220023B84704
:101FB0002846782100221023B8472846782140225D
:101FC0002346CDF80080FFF739FD80340136DFE786
:101FD000DC01002000540040F919000881B0124AC9
:101FE0001060002200920368009343680093009BF6
:101FF00000920368009343680093009B009203687B
:10200000009343680093009B009203680093436829
:102010000093009B00920268009240680090009834
:10202000084601B0FEF780BDDC050020E0B58DF864
:1020300007100DF107010122FFF7BCFA8CBD00006B
:1020400010B5074C2068800604D56068C1B21948F5
:10205000FFF7ECFF20462521BDE81040FFF7BEBF8B
:102060000010014010B5084C2068800605D51148C5
:1020700061681830C9B2FFF7D9FF20462621BDE8B4
:102080001040FFF7ABBF00BF0044004010B5084C44
:102090002068800605D5074861683030C9B2FFF76F
:1020A000C5FF20464721BDE81040FFF797BF00BF9E
:1020B0000014014000000020FEE70000FEB50A7891
:1020C0001AB100F8012B0131F9E79FED261AB5EEA0
:1020D000400AB6EE002AF1EE10FABEBF2D2100F83C
:1020E000011BB1EE400A00EE012ABCEEC20A10EE5E
:1020F000101A642903D2302200F8012B1AE064225E
:102100000A246B46B1FBF2F500228DB1B5FBF4F663
:1021100006EB8607A5EB470557B2013245F03005BF
:10212000DD553546F1E7013A54B21C5D00F8014B2C
:102130001406F8D10022C2702E2202706422B1FB74
:10214000F2F303FB12110A23CAB2B2FBF3F242F01C
:10215000300302EB8202A1EB4201437041F03001F7
:102160008170FEBD0000C84286B0FFF7AFFDFEF7EC
:10217000ADFCFFF75DFAFFF779FA4FF49670FEF7C2
:102180000DF9FFF719FEA0B13B4C00212046FFF7E7
:1021900087FCB8B10020FFF7FFFD00201421FFF7F6
:1021A00007FE3A4935A00122FFF7D6FEFFF7E8FE09
:1021B000FEE7374C206880F0200020605020FEF7BA
:1021C000EDF8F7E732482021DFF8CC90DFF8CCA01B
:1021D0002E4FDFF8CCB036A60FF2D808416001AD23
:1021E0002046FFF71BFD2046FFF744FD0020FFF7C8
:1021F000D3FD94ED000A284626A1C84700200021FF
:10220000D047FFF763F894ED010A284625A1C84797
:1022100000200A21D047FFF759F894ED020A28461A
:1022200021A1C84700201421D047FFF74FF894EDB3
:10223000030A28461DA1C84700201E21D047FFF7EA
:1022400045F894ED040A28463146C8470020282165
:10225000D047FFF73BF894ED050A28464146C847AA
:1022600000203221D047FFF731F8FFF789FE6420C4
:10227000FEF794F8B4E700BF900100204D505539A7
:10228000323530204641494C000000004801002012
:102290001400024041783A00BD200008B11D00083A
:1022A000591F000841793A00417A3A0047783A00CC
:1022B00047793A00477A3A0002E008C8121F08C17D
:1022C000002AFAD170477047002001E001C1121FB7
:1022D000002AFBD17047000000000000000001024E
:1022E00003040607080900000000010203040000BF
:1022F00000000000000000000000000000000000DE
:10230000000000100010001000100010001000006D
:102310000010000000000028002800280000000035
:102320000000000000000000000000240024007CE9
:1023300000240048007C00480048000000000038ED
:1023400000540050003800140054005400380010AD
:1023500000000020005400580030002800540014F1
:1023600000080000000000100028002800100034C1
:102370000048004800340000000000100010001069
:102380000000000000000000000000000000000845
:10239000001000200020002000200020002000105D
:1023A00000080020001000080008000800080008CD
:1023B0000008001000200010003800100028000065
:1023C00000000000000000000000000000000010FD
:1023D0000010007C00100010000000000000000051
:1023E00000000000000000000000000000100010CD
:1023F0000010000000000000000000000038000095
:1024000000000000000000000000000000000000CC
:10241000000000000010000000000008000800108C
:102420000010001000100020002000000000003804
:1024300000440044005400440044004400380000BC
:1024400000000010003000500010001000100010BC
:1024500000100000000000380044004400040008A0
:1024600000100020007C0000000000380044000440
:1024700000180004000400440038000000000008B8
:102480000018002800280048007C00080008000010
:102490000000007C0040004000780004000400447C
:1024A000003800000000003800440040007800447C
:1024B00000440044003800000000007C00040008D4
:1024C0000010001000200020002000000000003854
:1024D0000044004400380044004400440038000038
:1024E00000000038004400440044003C0004004464
:1024F0000038000000000000000000100000000094
:1025000000000000001000000000000000000000BB
:10251000001000000000000000100010001000007B
:102520000000000C003000400030000C00000000F3
:102530000000000000000000007C0000007C0000A3
:10254000000000000000000000000060001800040F
:102550000018006000000000000000380044000483
:1025600000080010001000000010000000000038FB
:102570000044004C0054005C004000400038000063
:10258000000000100028002800280028007C0044DB
:10259000004400000000007800440044007800443B
:1025A000004400440078000000000038004400406F
:1025B000004000400040004400380000000000706F
:1025C00000480044004400440044004800700000FB
:1025D0000000007C00400040007C004000400040C3
:1025E000007C00000000007C0040004000780040BB
:1025F000004000400040000000000038004400405F
:102600000040005C0044004400380000000000442A
:1026100000440044007C00440044004400440000A6
:102620000000003800100010001000100010001012
:10263000003800000000000400040004000400044E
:10264000000400440038000000000044004800502E
:1026500000600050004800480044000000000040B6
:10266000004000400040004000400040007C00006E
:1026700000000044006C006C00540044004400441E
:102680000044000000000044006400640054005452
:10269000004C004C0044000000000038004400449E
:1026A000004400440044004400380000000000786A
:1026B0000044004400440078004000400040000016
:1026C000000000380044004400440044004400542A
:1026D0000038000400000078004400440044007802
:1026E000004800480044000000000038004400405A
:1026F0000030000800040044003800000000007CA6
:102700000010001000100010001000100010000059
:1027100000000044004400440044004400440044DD
:102720000038000000000044004400440028002855
:102730000028001000100000000000440044005475
:1027400000540054006C00280028000000000044E1
:102750000028002800100010002800280044000075
:102760000000004400440028002800100010001061
:10277000001000000000007C0004000800100010A1
:1027800000200040007C0000000000180010001035
:1027900000100010001000100010001000180020A1
:1027A00000200010001000100010000800080000B9
:1027B0000000003000100010001000100010001089
:1027C0000010001000300010002800280044000015
:1027D00000000000000000000000000000000000F9
:1027E00000000000000000000000000000FE0020CB
:1027F00000100000000000000000000000000000C9
:1028000000000000000000380044003C0044004C80
:102810000034000000000040004000580064004404
:102820000044006400580000000000000000003870
:102830000044004000400044003800000000000454
:1028400000040034004C00440044004C00340000FC
:1028500000000000000000380044007C00400044FC
:10286000003800000000000C0010007C0010001078
:1028700000100010001000000000000000000034F4
:10288000004C00440044004C003400040078004038
:10289000004000580064004400440044004400002C
:1028A0000000001000000070001000100010001068
:1028B0000010000000000010000000700010001068
:1028C000001000100010001000E000400040004820
:1028D00000500060005000480044000000000070FC
:1028E0000010001000100010001000100010000078
:1028F0000000000000000078005400540054005410
:102900000054000000000000000000580064004473
:1029100000440044004400000000000000000038B3
:10292000004400440044004400380000000000005F
:102930000000005800640044004400640058004057
:102940000040000000000034004C00440044004CF3
:10295000003400040004000000000058006400403F
:10296000004000400040000000000000000000386F
:10297000004400300008004400380000000000203F
:102980000020007800200020002000200018000017
:102990000000000000000044004400440044004CDB
:1029A0000034000000000000000000440044002843
:1029B0000028002800100000000000000000005463
:1029C00000540054006C00280028000000000000A3
:1029D00000000044002800100010002800440000FF
:1029E00000000000000000440044002800280010FF
:1029F00000100010006000000000007C00080010C3
:102A000000200040007C00000000001800100010B2
:102A1000001000200020001000100010001800100E
:102A20000010001000100010001000100010001026
:102A30000010003000100010001000080008001006
:102A40000010001000300000000000000074004C76
:102A50000000000000000000000000007C2A0008C8
:102A6000000000205001000048020008B02A0008C1
:102A700050010020F0080000C8220008C22077E0C2
:102A8000050020000AD22076060020000AC2208716
:102A900020060020000A045254004004525800400E
:102AA00004525C00403624F400070A15EE220008A8
:04000005080001AD41
:00000001FF
