:020000040800F2
:10000000D00F0020AD0200087D2D00085D2B0008F8
:10001000792D000831150008414900080000000052
:10002000000000000000000000000000852D000816
:100030003515000800000000812D0008892D0008FA
:10004000C7020008C7020008C7020008C70200086C
:10005000C7020008C702000839150008C9150008C2
:10006000E5150008011600081D160008C702000863
:10007000C7020008C7020008C7020008C70200083C
:10008000C7020008C7020008C702000800000000FD
:100090000000000000000000000000003916000809
:1000A000C7020008C7020008C7020008C70200080C
:1000B000C7020008C7020008C7020008C7020008FC
:1000C000C7020008C7020008C7020008C7020008EC
:1000D000C7020008F147000861480008000000005E
:1000E00055150008C7020008C702000800000000FC
:1000F000000000000000000000000000C70200082F
:1001000000000000C7020008C7020008C70200087C
:1001100000000000000000000000000000000000DF
:10012000C7020008C7020008C7020008C70200088B
:10013000C7020008000000000000000000000000EE
:10014000000000000000000000000000C7020008DE
:10015000C7020008C7020008C7020008D14800080B
:10016000C7020008C70200080000000000000000ED
:10017000000000000000000000000000000000007F
:1001800000000000C702000800000000000000009E
:10019000C7020008C702000800F002F800F077F874
:1001A00014A696E8000CB244B344DA4501D100F03D
:1001B0006EF8BAE80F000FA696E83000A5EB04052C
:1001C00004EB0607AAEB0704A7F101074FEA151590
:1001D0004FEA3414A4F10104AC4201D300F057F803
:1001E00013F0010F18BFFB1A43F0010300F001F8F0
:1001F000DBE7184778720000987200000A4410F894
:10020000014B14F00F0508BF10F8015B240908BF6B
:1002100010F8014B6D1E05D010F8013B6D1E01F862
:10022000013BF9D1641E03D0641E01F8015BFBD1D0
:100230009142E4D37047000070470000002300247F
:1002400000250026103A28BF78C1FBD8520728BFE6
:1002500030C148BF0B607047662906F07A840020E1
:1002600070471FB506F063FC9DE8030000F004FA38
:1002700000F0A6FC04000020002105F083FEE060F1
:1002800000F0B8FD1FBD10B500F01DFE10BD00F060
:1002900055FE1146FFF7E5FF04F01EFC00F034FFA9
:1002A00003B4FFF7F0FF03BC00F0E0FF094880470C
:1002B00009480047FEE7FEE7FEE7FEE7FEE7FEE748
:1002C000FEE7FEE7FEE7FEE704480549054A064B60
:1002D000704700008D2D000899010008D00700200C
:1002E000D00F0020D00B0020D00B002070B50646A8
:1002F00000F0A6F9056806F10B0020F00704B442EF
:100300009CBF002070BD2B466A68BAB11068A0423D
:1003100010D304F1080188423CBF5068586007D3ED
:100320005168101941601168091B01605860146020
:10033000101D70BD13465268002AE7D12146284699
:1003400000F086F90028DED170BD70B50446051FA7
:1003500000F076F90068002C14BF446870BD002CD2
:1003600018BFAC423CBF20466468F8D301680A1845
:10037000AA4218BF456003D12A68054611440160AE
:1003800028684119A1421CBF6C6070BD616869603A
:1003900021680844286070BD0FB41CB50C0007AA82
:1003A000009007D04142A14202D32044401E01E008
:1003B0004FF0FF30074B7B4469460190069800F0F0
:1003C000AEFB0020002C01D0009908701CBC5DF829
:1003D00014FB00008B0700002DE9F0474FF0000AE6
:1003E00089460446C0F820A02046E16888470028D6
:1003F00076D0252806D0D4E901219047206A401CF8
:100400002062F1E7E168204600258847C4F81CA077
:1004100006460027C4F818A02A2E09D0304605F059
:100420005FFD38B304EB8708303EC8F8186019E068
:1004300059F8041B204604EB87029161E168884764
:10044000012F064618D1E069002820DA25F02005A2
:100450001DE0D8F8180000EB800006EB40003038B3
:10046000C8F818002046E1688847064605F038FDC0
:100470000028EED1012F0AD02E2E08D12046E168A7
:1004800088477F1C0646022F45F02005C4DBA06983
:10049000002803DA404245F00105A061E80701D0D9
:1004A00025F01005B6B1A6F14100192802D8203672
:1004B00045F400654A463146204625604D46FFF723
:1004C000CBFE58B1012806D0ED1D25F0070000F144
:1004D000080989E704E005F1040985E730468AE761
:1004E000206ABDE8F087000010B5044603E004F080
:1004F000DDFA401C09D014F8010B05490028F6D19B
:10050000BDE810400A2004F0D1BA4FF0FF3010BD12
:10051000B401002010B5431C02E010F8011B71B1BA
:100520008107FAD14FF0013202C88C1A8C4314EAC9
:10053000C211F9D0C01A0A0603D0C01E10BDC01ADD
:1005400010BD0A0401D0801E10BD0902FCD0401E5F
:1005500010BD032A40F2308010F0030C00F015802B
:1005600011F8013BBCF1020F624498BF11F801CBB6
:1005700000F8013B38BF11F8013BA2F1040298BF1B
:1005800000F801CB38BF00F8013B11F0030300F085
:10059000E182083AC0F0088051F8043B083A51F86B
:1005A00004CBA0E80810F5E7121D5CBF51F8043B2E
:1005B00040F8043BAFF30080D20724BF11F8013BA1
:1005C00011F801CB48BF11F8012B24BF00F8013B03
:1005D00000F801CB48BF00F8012B704702F0FF0381
:1005E00043EA032242EA024200F002B84FF000025E
:1005F00000B5134694469646203922BFA0E80C5019
:10060000A0E80C50B1F12001BFF4F7AF090728BFF3
:10061000A0E80C5048BF0CC05DF804EB890028BF6F
:1006200040F8042B08BF704748BF20F8022B11F098
:10063000804F18BF00F8012B704770477047704714
:100640000048704764020020704770477047704749
:1006500038B504460A4600206946AFF300800028FA
:1006600008BF38BD02460099204600F0B1FA0120CB
:1006700038BD012000F05ABCF8B5AFF30080054644
:1006800000200C460C2000BF0646A819A0420DD938
:10069000324669460020AFF30080070008BF00F033
:1006A00045FC0098A04218BF0546C419FFF7C8FFD3
:1006B00005600746F01D20F007004619284600F0A7
:1006C0000AF8B44208BFF8BDA21B31463868BDE83D
:1006D000F84000F07DBA00210160416070470C20B5
:1006E000704710B500F070FA006810BD10B50446F0
:1006F00000F06AFA046010BD2DE9FF4F0C461E465B
:100700004FF0FF378BB0D2E90001DDF860800A902E
:100710008A46C1F30A5505B93D46002108464FF007
:100720000000BAF1000F00F4400005DA00EB800091
:100730004FF4400101EA50004FEA9059B9F1010F1E
:1007400000DDB9460A9850EA4A000ED044F610502F
:10075000A5F2FF3545432F14B8F1000F1ED07542A6
:10076000291E1EDDC9F100021CE0B8F1010F4FF097
:10077000000001D0302103E0F24305E02154401C89
:10078000B042FBDB30460022002121540B99C1F816
:100790000880C1E900200FB0BDE8F08FBD1B6D1CC3
:1007A000DEE74A4600DA694206A800F0B1FA06AB75
:1007B00093E8070003AB83E8070050460A9904F06A
:1007C000C3FA8DE80700A0F500501F380090039889
:1007D000002D0ADD42F21F014A460844002303A906
:1007E0000390684604F02CFD09E0A0F500504A464D
:1007F0001F38002303A90390684604F036FD8DE8F6
:1008000007000004000C03D04FF0FF30410800E067
:100810001046B8F1000F03D00022009215461EE0EA
:10082000751E05D400F0EEF9303262556D1EF9D513
:10083000B3460122084302D000227F1C04E0207846
:10084000302801D100227F1E002A099784D01DE0A4
:10085000112D07DA00F0D6F9303262556D1C50EADE
:100860000102F5D1084302D00098C8B10EE0002182
:10087000681E05E0235C625C63542254401E491CE0
:100880008142F7DBAB46A81B401E0990002004F80C
:100890000B000B98099AC0F80880C0E9002B7AE792
:1008A00011264FF0000857E72DE9F04F884604461F
:1008B000D21D22F0070191B0D1E90001CDE90A0172
:1008C00004F00AFE02460B98C00F01D02D2007E06D
:1008D0002068810701D52B2002E0202101EAC00019
:1008E000032A099001D0072A05DB0346414620462A
:1008F00000F0CEF90BE12078800601D5E06900E038
:100900000620B8F1650F814606D0B8F1660F18D001
:10091000B8F1670F70D131E00020B9F1110F0090EC
:1009200001DB112301E009F101030AAA01A90CA8C6
:10093000FFF7E2FEDDE90C70002609F101058346B0
:1009400047E001204B4600904FF000470AAA01A95A
:100950000CA8FFF7D1FEDDE90DB00C995D4600262D
:1009600010B909F101000D18B9EB050003D4C0F16D
:10097000FF3609F10105A5EB09002BE0B9F1010FE4
:1009800001DA4FF001090020B9F1110F009048463B
:1009900001DD112300E003460AAA01A90CA8FFF714
:1009A000ABFEDDE90C704D4600268346207800073B
:1009B0000AD4AB4500DA5D4601A8012D04DD4119DA
:1009C00011F8011C302907D04F4502DA17F1040F46
:1009D00004DA012082460FE06D1EEEE7002F02DCF4
:1009E000ED1B3E4403E0781CA84200DD7D1CB81BD3
:1009F00000F1010A4FF000472078000703D4AA4510
:100A000001DB4FF0FF3A0021B7F1004F0DF1430831
:100A10008DF8431024D002202B23002F01DA7F42CF
:100A20002D230A21021EA0F1010000DC5FB197FB1B
:100A3000F1FC97FBF1F201FB1C7C17460CF1300C2A
:100A400008F801CDEEE7A8F101000370218809053F
:100A500001D5452100E06521A0F1010800F8011C45
:100A600009980FA9A1EB0807FF1D00B1012041194A
:100A700001EBEA70A1693844081A401EA061207891
:100A8000C00602D42046AFF30080099828B1D4E90B
:100A900001219047206A401C20622078C00622D5A0
:100AA0002046AFF300801EE0002E04DBB34502DDDC
:100AB00001A8805D00E03020D4E901219047206A40
:100AC000401C2062761CAAF101005FEA000A0AD1EC
:100AD00000F076F8C0680168405CD4E901219047D5
:100AE000206A401C2062281EA5F10105DCDC07E01D
:100AF000D4E9012118F8010B9047206A401C2062BC
:100B0000381EA7F10107F3DC2046AFF30080032075
:100B100011B041E601694A1C02610878704700B5CE
:100B20008FB0CDE901310021059105497944CDE926
:100B3000031011466846FFF74FFC0FB000BD0000E0
:100B4000E5FFFFFFD1E900239A4202D2531C0B605C
:100B50001070704710B5203AC0F00B80B1E8185003
:100B6000A0E81850B1E81850A0E81850203ABFF497
:100B7000F5AF5FEA027C24BFB1E81850A0E8185036
:100B800044BF18C918C0BDE810405FEA827C24BF8A
:100B900051F8043B40F8043B08BF7047D20728BF18
:100BA00031F8023B48BF11F8012B28BF20F8023B67
:100BB00048BF00F8012B7047004870475C020020D6
:100BC000004870477C020020004870475C0200200B
:100BD000034640688C46002818BF88423CBF034645
:100BE0004068F8D318681844884207D00CF1030015
:100BF00020F00700001D411A521A0146081D0A6024
:100C0000FFF7A3BB30B5B0F10A0271F100034FEA60
:100C1000900E4EEA817EB0EB0E0061EB91014FEA3F
:100C2000101E4EEA017E10EB0E0041EB11114FEA4F
:100C3000102E4EEA016E10EB0E0041EB11214FEA2F
:100C4000104E4EEA014E10EB0E0041EB11414018E0
:100C500041F100014FEAD00040EA41704FEAD10172
:100C60004FEA810444EA907410EB800544EB0104E0
:100C70006D1944EB0404521BA3414FF0000348BF1D
:100C80000A3200D530BD401C41F1000130BD0000EA
:100C90002DE9F0411F46044603260168072A01F4A6
:100CA000006004DB08B116A505E016A503E008B155
:100CB00015A500E015A521F010002060A069C01E58
:100CC000A0610FB1401EA0612046AFF300804FB17C
:100CD000D4E9012138469047206A401C2062C01C9C
:100CE000206206E0206AFAE7D4E9012115F8010B39
:100CF0009047761EF8D22046AFF30080BDE8F08121
:100D00004E414E006E616E00494E4600696E6600AF
:100D10002DE9F047814616468AB0354878440DC81B
:100D20008DE80D0032487844801C03AC0DC884E87F
:100D30000D0041F69B300844372190FBF1F290FB07
:100D4000F1F5A5F1800501FB12041B3C02D56442BC
:100D5000012000E00020DFF898A080460027FA4438
:100D6000AAF1BE0A0EE0E0070AD03246684607EB59
:100D7000470101230AEB810104F077FA8DE80700AF
:100D800064107F1C002CEED1194F7F44AE3F19E058
:100D9000E80715D007EB04100DF1180A90E80E00D3
:100DA0008AE80E00C068F04201D1981908903246D6
:100DB000012306A903A804F058FA03AB83E807004F
:100DC0006D10641C002DE3D14FF0010332466946DB
:100DD000B8F1000F03A802D004F032FA01E004F0E9
:100DE00044FAC9E90001C9F808200AB0BDE8F08753
:100DF000A45F000010B542485421FFF7F7FB4148BB
:100E00005421FFF7F3FB40485421FFF7EFFB3F4924
:100E10003B483C4A3F4B08603D490A603A491960EB
:100E2000531C0365481C1065012008653B48344A83
:100E300039A1784400F0CAF820B9384878440A3813
:100E400000F070F937482F4A35A1784400F0BEF819
:100E500020B9344878440A3800F064F932482A4A04
:100E60002FA1784400F0B2F820B92F4878440A380E
:100E700000F058F940232248DC000021224600F00F
:100E800082F820B125487844543800F04BF91D48C9
:100E900022464023002100F076F820B12148784412
:100EA000543800F03FF9184822461023002100F082
:100EB0006AF8002806D01C487844BDE8104056382F
:100EC00000F030B910BD104870B5006D20F001047D
:100ED0000B4800F0F3F80B4800F0F0F80A4800F077
:100EE000EDF809E0206D20F00105204600F0E6F85D
:100EF0002046FFF72AFA2C46002CF3D170BD0000E3
:100F000060010020B4010020080200200000002041
:100F1000040000200800002072000000A65E00000F
:100F200077000000925E00007E5E000010B500F0C9
:100F300001F9BDE8104000F0F0B870477546FFF7C2
:100F40003BFEAE4605006946534620F00700854645
:100F500018B020B5FFF7B8F9BDE820404FF0000603
:100F60004FF000074FF000084FF0000BAC46ACE824
:100F7000C009ACE8C009ACE8C009ACE8C00921F080
:100F800007018D46704770B5C468A50713D0650288
:100F900011D4B2F5807F09D0B2F5007F06D0B2F54A
:100FA000806F08D1012300F1240106E05D1E6FF07F
:100FB0007F46B54201D3012070BD0161C36141602C
:100FC00024F470611143C160002070BD2DE9F0412F
:100FD0000C461646070047D0104600F06FF8207800
:100FE000611C61280AD0722802D077283CD102E027
:100FF0000125002405E00225042402E0082448F22B
:10100000020511F8010B2B2806D0622809D011F82F
:10101000010C74280AD00BE045F0030544F00204EB
:10102000EFE745F0040544F00104EAE744F010045A
:101030003846214600F0E6F8411C15D00021316108
:1010400071604FF40071F560F1617061200704D5A3
:1010500030460222002100F00FF9306D40F001000F
:1010600030653046BDE8F0810020FBE72DE9F04116
:101070000D460646104C206DC10704D0410804D02F
:1010800020F00104F7E722460EE05420FFF72EF986
:1010900007000ED0206D47F0010108435421206560
:1010A0003846FFF7A3FA3A4629463046BDE8F041F4
:1010B0008CE70020D6E70000600100202DE9F04712
:1010C00004464FF0FF380026C568D4E90497A80706
:1010D00018D0204600F08CF9384600F09DF8002822
:1010E00000DA4646280502D54846FFF72EF94C217E
:1010F0002046FFF77BFA206D20F001002065304686
:10110000BDE8F0874046FBE710B50446AFF300802A
:101110002046BDE81040FFF7C3B8002801D000F01A
:10112000A5B8704710B500F0C1F9BDE81040FFF751
:10113000F4BF000010B5012805D0002103A000F085
:101140009BF9012010BD09A1F8E70000534947525F
:10115000544D454D3A204F7574206F662068656187
:1011600070206D656D6F7279000000003A2048654F
:101170006170206D656D6F727920636F727275702A
:10118000746564000000000030B44FF0013C50F87A
:10119000042B51F8043BCCFA52F4D51A20D1FCB9F7
:1011A00050F8042B51F8043BCCFA52F4D51A17D15D
:1011B000B4B950F8042B51F8043BCCFA52F4D51AC8
:1011C0000ED16CB950F8042B51F8043BCCFA52F410
:1011D000D51A05D1002CDAD030BC4FF00000704792
:1011E00029BAB1FA81F111F01801D1F1200084403F
:1011F000F2D1CA40CB4012F0FF0213F0FF0330BC23
:10120000D01A70470EB5CDE90001FFF783F90290BF
:1012100069460120ABBE0EBD08B5694600900220AC
:10122000ABBE08BD1FB58DE8070069460520ABBE03
:1012300004B010BD1FB58DE80F0069460620ABBE97
:10124000F6E708B5694600900920ABBE08BD1CB59D
:10125000CDE9000169460A20ABBE1CBD704708B548
:10126000694600900C20ABBE08BD00000149182063
:10127000ABBEFEE7260002002DE9F041044616460B
:101280000D464769007B80072ED03846FFF7D9FF0F
:1012900050BB3EB3012E02D0022E25D104E02046E1
:1012A00000F025F905441DE03846FFF7D8FFE16856
:1012B000002841F01001E16005DA204600F058F8FE
:1012C0000120BDE8F081C9030BD56268E16A914253
:1012D00000D81146A26911442269891A814200DDB1
:1012E00008460544002D01DA0220EAE7E16A606859
:1012F000E268814206D29103E06203D522F4003114
:1013000041F01002A6690027AE4213DCE16A814277
:1013100001D90B4600E0034603EB060C2369ACEB56
:10132000030CAC4506DD814201D98C4600E08446C1
:101330009C4505D1A760276042F02000A5620DE022
:10134000AD1BE669AE1B8142A66000D90846C01AF3
:10135000281A20605819606022F0200003490840D4
:10136000E060002084F84870ABE70000BFCFD7FFF3
:10137000C16821F4001141F08001C1600021816049
:10138000016070472DE9F74F15460C464FF0FF3BC3
:101390003848D768D2F814A0074209D05046A96946
:1013A000FFF755FF002819DB3248C0430740EF60C4
:1013B0004FF000496FF000484C4501D3464600E02D
:1013C000264600993B4650463246FFF72BFFA96957
:1013D00020F00042B21A1144A96128B12846FFF753
:1013E000C7FF5846BDE8FE8FA41BE5D10020F9E7F2
:1013F00070B504460569C06A6168884200D808462D
:10140000E16821F42011E160C90312D5A84208D097
:101410002246411B2846FFF7B5FF10B14FF0FF30C1
:1014200070BD0020E562C4E90150E06820F480301E
:10143000E060002070BD10B50446C06820F02000B8
:10144000E060A16AA06988420DD02046FFF7D0FF76
:10145000E06820F4405040F01000E060A06AA06115
:101460002069E062606044F24001E0688843E06027
:1014700010BD00001000020070B505460C460A20A1
:1014800000E06D1C00F02CF835B128780028F8D168
:1014900002E0641C00F024F814B120780028F8D190
:1014A000BDE870400A2000F01BB8000010B50146EE
:1014B00002A0FFF7E1FF012010BD00005349475291
:1014C000545245443A2052656469726563743A2007
:1014D00063616E2774206F70656E3A200000000013
:1014E00008B569468DF800000320ABBE08BD10B5F5
:1014F0000146C268900703D0900607D5886A0AE0C3
:10150000FFF762FB01210160881E10BD8B694868EE
:1015100018440B69C01A91F848301BB191F8491072
:10152000401A10BD1103FCD50028FADD401E10BD85
:10153000FEE700007047000043F61441C4F20101C9
:101540000868C00708BF7047012201200A6001F047
:1015500091BF000010B543F61444C4F201042068A2
:10156000400504D54FF48060206001F083FF2068BF
:10157000000504D54FF40060206001F07BFF206877
:10158000C00404D54FF48050206001F073FF206840
:10159000800404D54FF40050206001F06BFF2068F8
:1015A000400404D54FF48040206001F063FF2068C0
:1015B000000458BF10BD4FF400414FF400402160BB
:1015C000BDE8104001F056BF43F61441C4F20101DA
:1015D0000868800758BF7047022202200A6001F0A5
:1015E00049BF000043F61441C4F2010108684007F6
:1015F00058BF7047042204200A6001F03BBF00007E
:1016000043F61441C4F201010868000758BF70474F
:10161000082208200A6001F02DBF000043F61441A3
:10162000C4F201010868C00658BF7047102210209C
:101630000A6001F01FBF000010B543F61444C4F265
:1016400001042068800603D52020206001F012FFED
:101650002068400603D54020206001F00BFF206881
:10166000000603D58020206001F004FF2068C0053B
:1016700004D54FF48070206001F0FCFE20688005E6
:1016800058BF10BD4FF400714FF400702160BDE8E9
:10169000104001F0EFBE0000EFF3058169B10028B2
:1016A00008BF70474EF21001CEF200010A68D20363
:1016B00000EBE2700028F9D108E040F26871C2F254
:1016C00000010A680B689B1A8342FBD37047000035
:1016D00040F26870C2F200000068704790F83D2048
:1016E000202A1CBF02207047242280F83D20026877
:1016F000136823F001031360536A23F0100353624D
:10170000536A19435162116841F0010111602021AF
:1017100080F83D1000207047006C7047002804BF1F
:101720000120704710B5044690F83D0028B900200C
:1017300084F83C00204600F05BFE242084F83D0045
:101740002068016821F00101016000F0FFFF4DF603
:101750008361C4F21B31A0FB011E4FEA9E424FF48D
:10176000967102FB01FC48F63811C0F24101ACFB56
:101770000113D4E9001C4A6048F2A162C0F20102E0
:10178000944538BF4FEA9E435A1C48F2A063C0F20A
:1017900001039C450A6209D84FEA4C02B0FBF2F003
:1017A00040F6FC72104208BF04201BE0A368192217
:1017B000002B08BF03220CFB02F2B0FBF2F2120571
:1017C00008D04BB119220CFB02F2B0FBF2F040F44E
:1017D000804005E0012005E00CEB4C02B0FBF2F08C
:1017E00040F40040C861D4E9070210430860D4E91E
:1017F00003C2D4E9053042EA0C0218438A60C8608B
:10180000086840F00100086000202021206484F86E
:101810003D10206384F83E0010BD00002DE9F04F1C
:1018200083B01D46914688460446FFF751FF94F861
:101830003D10202918D107462068806986070FD5FA
:10184000FFF746FFC01B1A28F6D300202021002EE8
:10185000206384F83D1084F83E0084F83C0003D4F3
:1018600094F83C00012803D1022003B0BDE8F08FBA
:101870004FF0010B206884F83CB00168C90703D120
:10188000016841F0010101600168B9F1010F21F423
:10189000006101604FF0240084F83D004FF000002B
:1018A000206440F20000CFF6FF70E06208F0FE0016
:1018B000019098BFD946CDF8009005F101094FF08D
:1018C000A00805E0009883450BF1010B00F09A8019
:1018D0002068016841F480710160406910F00100E6
:1018E00022D180F00106B24607E000BF20684069BF
:1018F00010F0010080F0010A16D1B9F1000FF5D007
:101900002DB1FFF7E5FEC01BA842EFD900E0B246BB
:1019100000212020216384F83D005FEACA7084F82A
:101920003E1084F83C1069D1206801990161FFF7ED
:10193000CFFE216807464B694A6994F83D109B0722
:101940001CD412F4806019D1A02917D045B1FFF73B
:10195000BFFEC01BA84288BF84F83D8002E000BFE4
:1019600084F83D8020684269416994F83D009207FF
:1019700004D411F4806101D1A028E7D1202084F89B
:101980003D00206841690268890742F400720260E4
:1019900019D46FF4806141612068806986077FF502
:1019A00091AFFFF795FEC01B1A28F5D30020202128
:1019B000002E206384F83D1084F83E0084F83C003B
:1019C0007FF580AF1AE000210291416902918069A0
:1019D0000290029820688069850715D5FFF778FE88
:1019E000C01B1A28F6D300202021002D206384F884
:1019F0003D1084F83E0084F83C0006D5032003B077
:101A0000BDE8F08F012000E00020202184F83D1087
:101A1000002184F83C1003B0BDE8F08F2DE9F04FB1
:101A200081B09A46164688460446FFF751FE94F860
:101A30003D1020291AD1DDF82890054620688069DC
:101A400087070FD5FFF744FE401B1A28F6D3002066
:101A50002021002F206384F83D1084F83E0084F894
:101A60003C0003D494F83C00012803D1022001B0CB
:101A7000BDE8F08F0121206884F83C100168C90797
:101A800003D1016841F001010160016821F40061A6
:101A90000160222184F83D10102184F83E100021BD
:101AA00021640021CFF6FF716662A4F82AA0E162EA
:101AB000618D2185E16A026811F5803F42F4806200
:101AC000026018BF012947D1016841F480710160AB
:101AD000406910F0010021D1B9F1000F80F001063A
:101AE00010D009F1010706E02068406910F00100FC
:101AF00080F0010612D1002FF6D0FFF7E9FD401B60
:101B00004845F1D900202021206384F83D10F107D9
:101B100084F83E0084F83C0040F0B5802069B0F5C0
:101B2000804F03D148F00100C1B27DE0062000EAF9
:101B3000D81A20680AF1F00101614169090721D42E
:101B40004169490500F18E80B9F1000F00F09380E2
:101B500019F1010706D00FE00429B5D0216B112936
:101B6000B2D0B5E7206800BF416909070AD44169CE
:101B7000490577D4002FF7D0FFF7AAFD401B484551
:101B8000F0D978E020685FFA88F10161416989073E
:101B900017D44169490565D4B9F1000F6BD019F12B
:101BA000010708D12068416989070AD441694905BC
:101BB00058D4002FF7D0FFF78BFD401B4845F1D9D3
:101BC00059E00020009020684169009181690091EE
:101BD0000099016841F480710160406910F00100D2
:101BE00020D1B9F1000F80F0010710D009F10106F2
:101BF00006E02068406910F0010080F0010711D173
:101C0000002EF6D0FFF764FD401B4845F1D90020B7
:101C10002021206384F83D10F90784F83E0084F801
:101C20003C0030D14AF0F101206801614169890727
:101C300034D44169490515D4B9F1000F1BD019F10D
:101C4000010609D1206800BF4169890726D441698E
:101C5000490507D4002EF7D0FFF73AFD401B484551
:101C6000F0D908E0016841F4007101606FF480610F
:101C700041610420206400202021206384F83D106D
:101C800084F83C00206C216C002084F83C00032088
:101C9000042908BF012001B0BDE8F08F208D022883
:101CA00017D0012804D0E8B900200090206806E091
:101CB0002068016821F48061016000210091416980
:101CC0000091816900910099016841F400710160FF
:101CD00014E02068016821F480610160016841F42A
:101CE000006103E02068016841F480610160002127
:101CF000009141690091806900900098208D002832
:101D000000F012814FF0010A09F101074FF00008BD
:101D10000EE0B3462020C4F8308084F83D005FEA2E
:101D2000CB7084F83E8084F83C8000F0DD800EE1CA
:101D3000042819D202282BD0012846D120684169F5
:101D40004E0600F1E1804169C9067BD4B9F1000F6C
:101D500004D0FFF7BDFC401B4845EFD9206C40F094
:101D60002000206475E000BF206841694E0656D40B
:101D70004169C90644D4B9F1000F04D0FFF7A8FCAB
:101D8000401B4845F0D9206C40F0200020643EE024
:101D90002068406910F004008AEA9006B34609D032
:101DA000A2E000BF2068406910F004008AEA900BAE
:101DB00040F09A80002FF5D0B9F1000FA9D0FFF7BD
:101DC00087FC401B4845EDD9A4E72068406910F026
:101DD00004008AEA900B5E4607D04EE02068406916
:101DE00010F004008AEA900647D1002FF6D0B9F12E
:101DF000000F36D0FFF76CFC401B4845EED931E0B0
:101E00006FF010014161C4F84080C4F83080202098
:101E1000002E84F83D0084F83C8040F190802068DA
:101E2000616A00694A1C62620870208D0138208551
:101E3000608D0138608520684169490770D5006967
:101E4000616A64E06FF010014161C4F84080C4F839
:101E500030802020002E84F83D0084F83C8053D44C
:101E60006DE05E462020C4F8308084F83D00F00725
:101E700084F83E8084F83C8069D12068616A0268F9
:101E800022F48062026000694A1C62620870208D40
:101E900001382085608D013860852068406910F028
:101EA000040021D18AEA900B5E4606E02068406972
:101EB00010F004008AEA900616D1002FF6D0B9F18E
:101EC000000F05D0FFF704FC401B4845EED900E0A9
:101ED0005E462020C4F8308084F83D0084F83E80BF
:101EE000F00784F83C8032D12068616A026842F4CD
:101EF0000072026000694A1C62620870208D01381D
:101F00002085608D013860852068616A00694A1CFF
:101F100062620870208D01382085608D01386085EF
:101F2000208D00287FF404AF202084F83D0000209D
:101F300084F83E0084F83C0001B0BDE8F08F216CCD
:101F40000120202908BF032001B0BDE8F08F032045
:101F500001B0BDE8F08F00002DE9F04782B09A464D
:101F6000164688460446FFF7B3FB94F83D10202937
:101F70001AD1DDF8289005462068806987070FD5BB
:101F8000FFF7A6FB401B1A28F6D300202021002FC4
:101F9000206384F83D1084F83E0084F83C0003D4AC
:101FA00094F83C00012803D1022002B0BDE8F0877C
:101FB0000121206884F83C100168C90703D1016839
:101FC00041F001010160016821F4006101602121FB
:101FD00084F83D10102184F83E1000212164002176
:101FE000CFF6FF716662A4F82AA0E162618D2185B7
:101FF000E16A11F5803F18BF012944D1016841F41D
:1020000080710160406910F0010021D1B9F1000F29
:1020100080F0010610D009F1010706E02068406950
:1020200010F0010080F0010612D1002FF6D0FFF76A
:102030004FFB401B4845F1D900202021206384F844
:102040003D10F10784F83E0084F83C0040F0D48055
:102050002069B0F5804F01D1FE212BE0062000EA77
:10206000D8112068F03101614169090721D4416923
:10207000490500F1B080B9F1000F00F0B58019F109
:10208000010606D00FE00429B8D0216B1229B5D083
:10209000B8E72068416909070BD44169490500F197
:1020A0009A80002EF6D0FFF713FB401B4845F0D96D
:1020B0009AE0FF21206801EA08010161416989076E
:1020C0001AD44169490500F18680B9F1000F00F08A
:1020D0008B8019F1010609D1206800BF4169890789
:1020E0000AD44169490576D4002EF7D0FFF7F0FAFB
:1020F000401B4845F0D977E00020019021684A69EB
:102100000192896901910199218D002954D009F129
:10211000010600BF216851F8142F12060FD40A6877
:10212000520574D4002EF5D0B9F1000F74D0FFF72A
:10213000CFFA0146491B00204945EBD96CE0626AA1
:10214000D4F800E0511C61621178CEF81010618D56
:1021500001396185B4F828C07146ACF101072785C3
:1021600051F8143F5B070CD53B040AD0931C636203
:102170005278CEF81020628D013A6285ACF10202ED
:1021800022850A6803E000BF216851F8142F520726
:102190000FD40A6852053AD4002EF5D0B9F1000FD9
:1021A0003AD0FFF795FA0146491B00204945EBD983
:1021B00032E0218D0029ADD121680A6842F4007215
:1021C0000A60202184F83D1084F83E0084F83C0029
:1021D00002B0BDE8F087016841F4007101606FF45E
:1021E000806141610420206400202021206384F864
:1021F0003D1084F83C00206C216C002084F83C00E9
:102200000320042908BF012002B0BDE8F0876FF465
:1022100080600860042002E0206C40F02000206410
:1022200000202021206384F83D1084F83C00206CBD
:10223000042808D12068016841F400710160012080
:1022400002B0BDE8F087032002B0BDE8F0870000CF
:102250002DE9F04F83B0994692460F460446FFF7AA
:1022600037FA94F83D1020291CD1DDF83880DDF8CC
:1022700030B005462068806986070FD5FFF728FA39
:10228000401B1A28F6D300202021002E206384F85A
:102290003D1084F83E0084F83C0003D494F83C00E0
:1022A000012803D1022003B0BDE8F08F012120688E
:1022B00084F83C1001684646C90703D1016841F023
:1022C0000101016001684FF0000821F40061016024
:1022D000212084F83D00402084F83E000D98C4F889
:1022E0004080C4F824B060850020CFF6FF70E06223
:1022F000608D39462085204652464B46CDE9006523
:1023000000F02EFC48B1216C032084F83C800429A5
:1023100008BF012003B0BDE8F08F208DB04688B320
:1023200008F10106206850F8141F09060DD4016851
:1023300049053DD4002EF5D0B8F1000F3DD0FFF790
:10234000C7F9401B4045EDD937E0606A2168421C5F
:10235000626202780A61228D531E2385678D013FD8
:1023600067854F697F070AD51B0408D0831C636209
:1023700040780861901E2085608D01386085208D31
:102380000028CFD1204641462A4600F0C1FCF8B9CA
:102390002068016841F400710160202084F83D004C
:1023A000002084F83E0084F83C0003B0BDE8F08FC4
:1023B0006FF480610160042002E0206C40F0200096
:1023C000206400202021206384F83D1084F83C0024
:1023D000206C042808D12068016841F40071016074
:1023E000012003B0BDE8F08F032003B0BDE8F08FFB
:1023F0007047000040F26870C2F2000001680131CD
:10240000016040F26C70C2F20000016811B1016815
:102410000139016070B540F2BC24C2F2000420789A
:1024200018B3002504E000BF2078013585421CD296
:1024300004EB850670680028F6D001788907F3D58B
:10244000816800291CBF0139816081680029EBD1B6
:10245000D0E903219047706801784268CB07826019
:1024600004BF01F0FC010170DEE7BDE8704000F040
:10247000A5BE000080B543F60040C4F2020001682A
:1024800041F400710160016841F4806101600168FC
:1024900041F480710160032000F088F80F2000F003
:1024A00005F800F01BF8002080BD000010B540F2D8
:1024B0000811C2F20001096844F6D352C1F2620267
:1024C000A1FB02120446900900F000FB4FF0FF3020
:1024D0002146002200F03EF8002010BD70470000A9
:1024E000002848BF704700F01F01012202FA01F1E5
:1024F0001C2202EAD0004EF28022CEF2000281506D
:1025000070470000002848BF704700F01F010122FB
:1025100002FA01F11C2202EAD0004EF28012CEF241
:1025200000028150BFF34F8FBFF36F8F70470000E1
:10253000002848BF704700F01F01012202FA01F194
:102540001C2202EAD0004EF20012CEF200028150AC
:102550007047000010B54EF60C5CCEF2000CDCF8B3
:102560000030C3F3022E8EF00704042C28BF04248D
:10257000BEF103034FF0FF3E0EFA04F438BF002310
:10258000A14399400EFA03F39A43114300F16042CC
:1025900000F00F03090102F56442043B6344002884
:1025A00048BF03F10C02117010BD00004EF60C5133
:1025B000CEF200010A684FF6FF031A4060F30A22C8
:1025C00042F0806040F0FD70086070472DE9F041F6
:1025D00043F60807C4F20207D7F8F8230D4602F0C5
:1025E0000F01A942044607D287F8F853D7F8F80339
:1025F00000F00F00A8425AD12068810705D539683C
:10260000A26821F0F00111433960C00735D1D7F835
:10261000F80300F00F00A84207D987F8F853D7F85D
:10262000F80300F00F00A84241D12068410705D50A
:102630003968E26821F4E05111433960000706D59A
:102640003868216920F4604040EAC100386000F039
:10265000A5F8396846F6E842C1F30311C0F6000256
:10266000515CC84040F20811C2F2000108600F201E
:10267000FFF71CFF0020BDE8F0816068811E022981
:1026800007D257F8081C89015CBF0120BDE8F08122
:1026900010E0012807D157F8081C89035CBF01200E
:1026A000BDE8F08106E057F8081C890702D4012034
:1026B000BDE8F081396821F0030108433860FFF775
:1026C00007F861680646012941F2883837D00229A7
:1026D00027D003290ED100BF386800F00C000C2869
:1026E00095D0FEF7F5FF801B40454FF00300F3D96E
:1026F000C1E700BF386810F00C0F3FF488AFFEF759
:10270000E7FF801B40454FF0030088BFBDE8F08124
:10271000F0E700BFFEF7DCFF801B40454FF00300F1
:10272000A9D8386800F00C000828F3D16FE700BF83
:10273000FEF7CEFF801B40454FF003009BD8386862
:1027400000F00C000428F3D161E7000040F208100B
:1027500043F60801C2F20000C4F2020100680968F1
:1027600046F6F842C1F38221C0F60002515CC8402F
:102770007047000040F2081043F60801C2F2000062
:10278000C4F202010068096846F6F842C1F342311A
:10279000C0F60002515CC8407047000043F60401D7
:1027A000C4F20201486800F00C0242F20040082A1C
:1027B000C0F2F40007D0042A18BF704747F6400063
:1027C000C0F27D107047D1F800C00B680A685B0248
:1027D00047F640030CF03F0CC0F27D1358BF034690
:1027E000B3FBFCF00968C2F388125043C1F3014106
:1027F000022202EB4101B0FBF1F07047F0B581B06D
:102800000446007843F60006C007C4F2020644D02E
:10281000B06800F00C00042805D1306880033CD576
:102820006068D0BB64E0B06800F00C00082802D1FA
:1028300070684002F1D465683068B5F5A02F05D006
:10284000B5F5803F09D140F480300CE040F48020A1
:102850003060306840F4803005E020F48030306033
:10286000306820F480203060FEF732FF002D0546EE
:1028700010D000BF306880030FD4FEF729FF401B43
:102880006428F7D9EFE000BFFEF722FF401B642861
:1028900000F2E98030688003F6D42078800718D5EC
:1028A000B06810F00C0F07D0B06800F00C000828DA
:1028B00057D17068400254D43068800702D5E06870
:1028C000012815D13068216920F0F80040EAC100E4
:1028D0003060207800070ED42078400721D4A56905
:1028E000002D00F0EF80B06800F00C0008286BD1DC
:1028F000012001B0F0BD6069002851D00020C4F271
:1029000047200121C0F8801EFEF7E2FE054600BF09
:10291000706F8007E0D4FEF7DBFE401B0228F7D97A
:10292000A1E000200090306C47F2000740F080509A
:102930003064306CC4F2000700F0805000900098C2
:10294000386840F480703860FEF7C2FE054600BF6C
:102950003868C0051BD4FEF7BBFE401B0228F7D920
:1029600081E0E068002840F20000C4F247204CD02B
:1029700001210160FEF7ACFE054600BF306880070C
:10298000A0D4FEF7A5FE401B0228F7D96BE0A5688E
:10299000306F052D48D0012D4DD140F0010050E0A1
:1029A0000020C4F247200021C0F8801EFEF790FEF0
:1029B000054600BF706F80077FF58EAFFEF788FE7B
:1029C000401B0228F6D94EE00027C4F2472700201A
:1029D0003866FEF77DFE022D05460BD1306880017A
:1029E0004FD5FEF775FE401B02284FF00300F5D9C6
:1029F00066E000BF3068800164D5FEF769FE401BC9
:102A000003284FF00300F5D35AE000210160FEF7E0
:102A10005FFE0546306880077FF55BAFFEF758FE26
:102A2000401B0228F6D91EE040F004003067306FEA
:102A300040F0010005E020F001003067306F20F029
:102A400004003067FEF744FE002D054641F288374A
:102A500013D000BF306F80073FF541AFFEF738FE5F
:102A6000401BB842F6D9032001B0F0BDFEF730FE9E
:102A7000401BB8424FF0030022D8306F8007F5D4D6
:102A80002DE704F11C052FCD084340EA8210D9033D
:102A90004FF6FF729143A1F5803140EA056008438B
:102AA000706001203866FEF713FE0446306880012E
:102AB00008D4FEF70DFE001B02284FF00300F5D9E5
:102AC00001B0F0BD002001B0F0BD0000411E0020AB
:102AD000B0EB116F1CBF012070474EF21002CEF216
:102AE000000251604EF62351CEF20001F0230B702C
:102AF0000721906011607047002804BF01207047D3
:102B000010B5044690F8390028B9002084F8380040
:102B1000204600F021F8242084F839002068C1689C
:102B200021F40051C160204601F036FD20680169A2
:102B300021F490410161416921F02A014161C1689C
:102B400041F40051C16000202021E06384F8391075
:102B500084F83A1010BD000070470000FEE7000046
:102B60002DE9F04F83B00446006801939146026856
:102B7000DDF834A042F48072026040690C9E10F0CF
:102B800001000F4624D180F0010B06F101085D46DB
:102B900007E000BF2068406910F0010080F00105E7
:102BA00016D1B8F1000FF5D036B1FEF791FDA0EBCC
:102BB0000A00B042EED900E05D46002020212063EB
:102BC00084F83D10E90784F83E0084F83C000DD1FC
:102BD000206807F0FE010161416989072AD4416933
:102BE00049056AD4751C23D026B11BE0032003B02D
:102BF000BDE8F08F00202021206384F83D1084F888
:102C00003C00216C0320042908BF012003B0BDE86B
:102C1000F08F00BF416989070CD4416949054CD444
:102C2000002DF7D0FEF754FDA0EB0A00B042E1D82A
:102C30002068EFE700200290206850F8141F0291EE
:102C40004168029102990168090613D4751C04E0D9
:102C5000206850F8141F09060CD40168490536D4C1
:102C6000002DF5D02EB3FEF733FDA0EB0A00B042E5
:102C7000EED91EE001992068012942D04FEA1921BE
:102C8000016150F8141F09063AD4751C05E000BF15
:102C9000206850F8141F090632D40168490516D47B
:102CA000002DF5D02EB1FEF713FDA0EB0A00B042C7
:102CB000EED9206C40F020000DE0016841F4007175
:102CC00001606FF4806141610420206492E76FF439
:102CD000806101600420206400202021206384F8AA
:102CE0003D1084F83C00206C04287FF47FAF2068FE
:102CF000016841F400710160012003B0BDE8F08F6C
:102D000020685FFA89F10161002003B0BDE8F08F0F
:102D1000F0B581B004460068154650F8143F5A07D4
:102D200018D40E464F1C04E0206850F8141F4907C1
:102D300010D40168490510D4002FF5D026B1FEF754
:102D4000C7FC401BB042EFD9206C40F0200020644B
:102D5000032008E0002001B0F0BD6FF48061016045
:102D600004202064012000212022216384F83D20DA
:102D700084F83C1001B0F0BDFEE700007047000091
:102D80007047000070470000FFF734BB4EF68850D4
:102D9000CEF2000001684FF0000C41F470010160B8
:102DA00043F60001C4F202010A6842F001020A601F
:102DB000C1F808C00B684FF6FF72CFF6F6621A40F2
:102DC0000A6043F21002C2F200424A600A6822F42A
:102DD00080220A60C1F80CC04FF0006140F8801CEE
:102DE00070470000B7EE002A82EE000A4FF07E51D5
:102DF000002280ED031AC0ED040AC0E90512C0E903
:102E0000072280ED090A704710B52DED108B90ED6B
:102E1000064A90ED075A90ED086A90ED053A25EEC6
:102E2000607A64EE003A37EE637A66EE013A37EE86
:102E3000637A65EE013A63EE004A74EEA33A66EEF9
:102E4000204A73EEE43A64EE014A63EE205A24EE1F
:102E5000204A23EE011A75EEE44A26EE006A31EEAE
:102E6000041A25EE000A36EE246A31EE400AB6EE68
:102E7000001AF5EE401A044627EE01BA23EE819AB5
:102E800026EE018AF1EE10FA20EE01AA0AD1B5EE83
:102E9000402AF1EE10FA05D1F5EE402AF1EE10FAD3
:102EA00000F0D08022EE020A21EEA11A31EE000AD3
:102EB00022EEA21A31EE001AB1EEC10AB4EE400AB7
:102EC000F1EE10FA80F11D81B7EE00CA8CEE003AE7
:102ED00094ED055A94ED077AF1EE000A94ED066A36
:102EE000F2EE008A23EE211A23EE020A23EE224A92
:102EF00037EE073A65EE201A67EE072A61EE033ACD
:102F000061EEA24A74EEA33A66EE064A61EEA41A96
:102F100071EEA31AF8EE003A94ED082A66EE235AF1
:102F200065EE806A36EEA1DA62EE231A66EE203A8A
:102F300062EE026A61EE217A23EEA6EA7EEE277A3D
:102F400025EE05EA2EEE20FA2FEE06EA35EE055ABA
:102F50007EEE277A25EE00EA77EECE7A26EE286A14
:102F600077EEE37A26EE24EA7EEE277A26EE226AD0
:102F700036EE276A63EE843A33EE86EA25EE015A8E
:102F80002FEE076A36EE055A27EE286A27EE207ADA
:102F900067EE263A33EE855A61EE801A31EE855A95
:102FA00035EE475A66EE241A31EE855A26EE226A2D
:102FB00036EE055A27EE044A34EE05FA24EEA04A0E
:102FC00021EE251A24EE024A34EE011A22EEA04A1E
:102FD00024EE022A32EE011A23EE000A71EE408A34
:102FE0002EEE0E0A2DEE0D1A31EE000A2FEE0F1AFC
:102FF00031EE000A28EEA81A31EE001AB1EEC10A2D
:10300000B4EE400AF1EE10FA80F18C808CEE000AEA
:1030100094ED044A20EE0D1A20EE0E2A24EE011A39
:1030200020EE0F3A20EE280A3BEE41BA24EE021AB7
:1030300039EE419A24EE031A24EE000A38EE418A52
:103040003AEE40AA94ED093A94ED050A94ED061A79
:103050002BEE035A94ED072A35EE005A29EE030AA7
:1030600094ED084A30EE016A28EE030A30EE022A97
:103070002AEE030A30EE043A26EE060A25EE051A79
:1030800031EE000A22EE021A31EE000A23EE031A94
:1030900031EE001AB1EEC10A84ED055A84ED066ADC
:1030A00084ED072A84ED083AB4EE400AF1EE10FAF6
:1030B00022D6B7EE001A81EE000A94ED051A94EDBF
:1030C000062A94ED073A94ED084A204621EE001AAC
:1030D00020EE022A20EE033A20EE040A84ED051ABF
:1030E00084ED062A84ED073A84ED080ABDEC108BC6
:1030F000BDE8104001F026BCB0EE410A02F020FE0F
:10310000D7E7B0EE410AB0EE62CAB0EE42EAB0EEE6
:1031100061DA02F015FEF0EE4D1AB0EE4E2AF0EE36
:103120004C2AD1E6B0EE410A02F00AFE6EE700003A
:103130002DE9F041054600284FF0000008BFBDE82A
:10314000F0811446A2B3D5E90002824224BF0022D6
:103150006A60D5E901239A1A034688BF134638BF2F
:1031600013185A1EA24201D214461AB36A68EB68B9
:10317000871A2646A74238BF3E46981832468846E8
:10318000FDF7E7F96868BC423044686009D900205F
:10319000A71B6860E86808EB06013A46FDF7D9F915
:1031A0006F60D5E90001814224BF0020686020469D
:1031B000BDE8F0810020BDE8F0810000704700000C
:1031C0004EF6FC50CEF20000016821F080710160E3
:1031D000016841F08071016041F20000CEF2000010
:1031E000016821F001010160016841F00101016005
:1031F00000214160416800BF00BF4068401A70472D
:1032000010B582B00024C4F202044FF0030C4FF05A
:10321000000E2046202101220023CDE900EC00F021
:1032200045F94FF40010A06102B010BD2DE9F04F38
:1032300083B093460C46064611B1601E204213D05F
:103240000027012504E000BF0137102F00F00581A1
:1032500005FA07F02042F7D081B230465A46FFF710
:10326000E5FF0028F0D00BE043F60847C4F2010761
:1032700057F8080C204203D157F8040C204203D021
:10328000012003B0BDE8F08FFF2C4FF0010000F3E8
:103290004B80611E3F2900F26A804FF00608DFE88C
:1032A00011F06A004000DD00E300DD00DD00DD001C
:1032B000E600DD00DD00DD00DD00DD00DD00DD001D
:1032C000E000DD00DD00DD00DD00DD00DD00DD0013
:1032D000DD00DD00DD00DD00DD00DD00DD00DD0006
:1032E0006800DD00DD00DD00DD00DD00DD00DD006B
:1032F000DD00DD00DD00DD00DD00DD00DD00DD00E6
:10330000DD00DD00DD00DD00DD00DD00DD00DD00D5
:10331000DD00DD00DD00DD00DD00DD00DD00DD00C5
:1033200068004FF0070826E0B4F5805F09DAB4F5CD
:10333000806F10DAB4F5807F1BD0B4F5007F18D011
:103340008CE0B4F5804F0BDAB4F5805F0CD0B4F5A7
:10335000005F09D082E007D0B4F5006F04D07DE0B3
:1033600002D0B4F5004F79D14FF0280803E0802C4B
:1033700074D14FF01708BBFA8BF040095D4643F655
:103380000C4ABBF1010F18BF45004FF0000C30464E
:10339000214600220023C4F2010ACDE9005C00F0BE
:1033A00085F8204600F06EF88146304600F076F849
:1033B00043F64401C4F202010A6809F0FC0342F436
:1033C00080424FF600460A600C213B44CFF6FF7660
:1033D00001EA89010F229D598A4025EA02029A5189
:1033E000C0B29A5988401043985157F8080C5FFAB8
:1033F00089F2A04347F8080C57F8040CBBF1010F01
:1034000020EA040047F8040C57F8080C40EA0400CE
:1034100047F8080CDAF8000020EA0400CAF80000B7
:10342000386820EA0400386005D1DAF8000020434B
:10343000CAF800000AE0BBF1000F04D0DAF800007F
:103440002043CAF800003868204338604046032112
:10345000FFF780F84046FFF76BF8002003B0BDE8A7
:10346000F08F4FF00A0886E74FF0080883E74FF027
:10347000090880E71420C4F20200016881F02001ED
:10348000016070470021022805D300BF01310328E5
:103490004FEA5000FAD888B27047000000F100707F
:1034A00000F1FF70C0F38F20704700002DE9F04F4E
:1034B00081B00029009351D000F1007743F6300627
:1034C00007F1FF77C4F20206C7F38F274FF0010818
:1034D000356808FA07F72F433760C0F3872740F2B3
:1034E000D42B87F0800EA2F1010A0027C2F2000B54
:1034F000002604E00136102E07F102072ED008FA4C
:1035000006F40C42F6D03BF81E50032325432BF85B
:103510001E50C56803FA07FC0A9B25EA0C0503FA4E
:1035200007F945EA0905C560056802FA07F325EAC7
:103530000C052B43BAF1010F0360DBD843686FEA37
:103540000C05A343009CB440A4B2234343608368AA
:103550002B400B9DBD402B438360CBE701B0BDE802
:10356000F08F0000002908BF70472DE9F04F00F1EF
:10357000007443F6300604F1FF74C4F20206C4F38B
:103580008F240125376805FA04F4DDF828E03C4370
:10359000346000F1200A00266FF003084FF00F0995
:1035A000002404E00134102C06F1040614D021FAA2
:1035B00004F5ED07F6D008EA54055AF805B006F010
:1035C0001C0709FA07FC2BEA0C0C0EFA07F747EA6E
:1035D0000C074AF80570E5E7C0F3872740F2D42CC2
:1035E00087F0800E00244FF0010AC2F2000C002781
:1035F00005E000BF0137102F04F102042CD00AFAB5
:1036000007F50D42F6D03CF81E6003FA04F82E438D
:103610002CF81E60D0F80CB0032606FA04F92BEA49
:10362000090B4BEA0806C660066826EA0908022666
:10363000A64046EA08060660466826EA050502FA3C
:1036400007F6B6B2354345608568099E25EA090547
:10365000A64035438560CDE7BDE8F04F70470000D8
:1036600045F20041C4F20001884216D045F60041FF
:10367000C4F2000188420BD045F60001C4F20001FB
:10368000884212BF002040F26000C2F20000704782
:1036900040F2B400C2F20000704740F20C00C2F2E7
:1036A000000070472DE9F04186B0164645F2004211
:1036B000C4F2000245F6004445F600039042C4F20D
:1036C0000004C4F200030ED0A04207D0984212BFFB
:1036D000002540F26005C2F2000508E040F2B405A2
:1036E000C2F2000503E040F20C05C2F20005A04260
:1036F000286044D0984222D0904240F0BE80002002
:10370000059043F64000C4F202000268052942F425
:1037100000120260006800F400100590059800F2A5
:10372000AC80DFE801F0039187AAAAA140F2004033
:103730004FF0040C0124C4F20200C0218DE00020EF
:10374000049043F64000C4F202000268052942F4E6
:1037500080020260006800F48000049004984AD05F
:1037600002293DD0002940F0888040F200404FF00F
:10377000040C0124C4F202004FF440616DE000200B
:10378000039043F64000C4F202000268052942F4A7
:1037900000020260006800F400000390039842D029
:1037A00001292FD0002968D140F20044C4F202045C
:1037B000A4F580604FF0040801274FF480710122C6
:1037C0000123CDE90078FFF7CDFE04F580604FF4CA
:1037D000007101220123CDE90078FFF7C3FE4CE020
:1037E00040F20040C4F2020000F5C0504FF0040C5B
:1037F0000124302131E040F20040C4F20200A0F583
:10380000D63037E040F20040C4F2020000F5C0506C
:10381000042701244FF4C07101220123CDE90047A0
:10382000FFF7A0FE29E040F20040C4F20200A0F53C
:10383000D4301FE040F200404FF0040C0124C4F2E9
:1038400002004FF4107108E040F200404FF0040C09
:103850000124C4F202004FF4407101220123CDE99A
:10386000004CFFF77FFE08E040F20040C4F2020087
:10387000A0F5D830042100F017F800204FF4804163
:10388000C5E90160C5E90301C5E90500C5E907000F
:103890002846FDF743FF28460021FDF71FFF0020C3
:1038A00006B0BDE8F08100007047000045F200421C
:1038B000C4F20002904216D045F60042C4F2000263
:1038C00090420BD045F60002C4F20002904212BFB3
:1038D000002040F26000C2F2000008E040F2B400B4
:1038E000C2F2000003E040F20C00C2F2000080B51A
:1038F00002220523FDF792FF002818BF012080BD9A
:10390000F0B583B00D4645F20041C4F200011C46FB
:1039100088428DF80B2016D045F60041C4F2000114
:1039200088420BD045F60001C4F20001884212BF64
:10393000002640F26006C2F2000608E040F2B4063B
:10394000C2F2000603E040F20C06C2F200064FF499
:103950007A770DF10B023046294601230097FEF7D6
:10396000FBFA38B930462946224601230097FEF774
:1039700055F828B13046FDF7CFFE012003B0F0BD69
:10398000002003B0F0BD0000F0B583B00D4645F255
:103990000041C4F200011C4688428DF80B2016D06D
:1039A00045F60041C4F2000188420BD045F6000103
:1039B000C4F20001884212BF002640F26006C2F243
:1039C000000608E040F2B406C2F2000603E040F24E
:1039D0000C06C2F200064FF47A770DF10B02304666
:1039E000294601230097FEF7B7FA38B9089B3046FD
:1039F000294622460097FEF711F828B13046FDF718
:103A00008BFE012003B0F0BD002003B0F0BD00002C
:103A100010B582B045F20044C4F20004A04216D0B2
:103A200045F60044C4F20004A0420BD045F6000461
:103A3000C4F20004A04212BF002440F26004C2F2AB
:103A4000000408E040F2B404C2F2000403E040F2D3
:103A50000C04C2F200048DF806208DF807304FF4F4
:103A60007A7C0DF1060220460223CDF800C0FEF755
:103A700073FA28B12046FDF74FFE012002B010BDB9
:103A8000002002B010BD000010B584B045F2004423
:103A9000DDF818C0C4F20004A04216D045F6004478
:103AA000C4F20004A0420BD045F60004C4F20004A6
:103AB000A04212BF002440F26004C2F2000408E0F9
:103AC00040F2B404C2F2000403E040F20C04C2F27B
:103AD00000044FF47A700093029001232046FF2ADD
:103AE00088BF1023CDF804C0FEF7B2FB28B12046F2
:103AF000FDF712FE012004B010BD002004B010BD7F
:103B000080B582B090F8441045F20040C4F2000045
:103B10000DF107033A22FFF7F3FE9DF8070001219C
:103B200021EA000002B080BDF0B581B0044641F04A
:103B3000D00045F2004584F844001820C4F2000586
:103B400084F84500FFF73CFB41F68022C0F20602F4
:103B500028460121FFF7A6FD94F844102846FFF7F8
:103B6000A5FE002840F0808094F844100DF1030376
:103B700028467522FFF7C4FE9DF80300712873D113
:103B800094F8441028466B220023FFF741FF64207D
:103B9000FDF782FD94F8441028466B220123FFF7BD
:103BA00037FFC820FDF778FD94F8441028461A2204
:103BB00003230327FFF72CFF94F84410284619220B
:103BC0000423FFF725FF94F844100DF1030628465F
:103BD0001B223346FFF794FE9DF8030094F844102F
:103BE00000F0E50328461B228DF80330FFF710FF95
:103BF00094F8441028461C223346FFF781FE9DF8B6
:103C0000030094F8441000F0E70328461C228DF8C6
:103C10000330FFF7FDFE94F8441028461D2233467A
:103C2000FFF76EFE9DF8030094F8441067F303005D
:103C30008DF8030000F0F30328461D22FFF7E8FE8D
:103C400094F84410284637222223FFF7E1FE94F827
:103C50004410284638220123FFF7DAFE94F8451075
:103C60002846FFF723FE10B1022001B0F0BD94F802
:103C7000451028460A220023FFF7CAFE0A20FDF756
:103C80000BFD94F8451028460A220F23FFF7C0FECB
:103C90000A20FDF701FD94F8451028460A2200236A
:103CA000FFF7B6FE0A20FDF7F7FC94F8451028460A
:103CB0000A221223FFF7ACFE0A20FDF7EDFC4FF0BD
:103CC000625100224EF2000304F1380C0020C3F6CA
:103CD000FA32C3F6BF738CE80E0001B0F0BD0000ED
:103CE00010B584B0044690F8441045F200404FF0FF
:103CF000060CC4F200000DF10A033B22CDF800C00F
:103D0000FFF742FEBDF80A00BDF80C20C1BA00BAA8
:103D1000000CA084D0BA12BABDF80E30120CE284A6
:103D2000DABA00EE101A94ED0E1A02EE100A03EE43
:103D3000102A1BBAB8EEC00AB8EEC22AB8EEC33ACF
:103D40001B0C21EE000A21EE022A21EE031A238524
:103D500084ED000A84ED012A002084ED021A04B0EB
:103D600010BD000010B584B0044690F8441045F230
:103D700000404FF0060CC4F200000DF10A0343228C
:103D8000CDF800C0FFF700FEBDF80A00BDF80C201A
:103D9000C1BA00BA000C6085D0BA12BABDF80E30B4
:103DA000120CA285DABA00EE101A94ED0F1A02EE88
:103DB000100A03EE102A1BBAB8EEC00AB8EEC22AE7
:103DC000B8EEC33A1B0C21EE000A21EE022A21EEC6
:103DD000031AE38584ED030A84ED042A002084EDB0
:103DE000051A04B010BD0000B0B584B045F200451E
:103DF00090F84510C4F20005044602AB28460222A2
:103E0000FFF77EFD9DF80800C00716D094F8451016
:103E10004FF0070C0DF1090328460322CDF800C02E
:103E2000FFF7B2FD9DF80F00000706D4BDF80900AA
:103E3000DDF80B102086C4F83210002004B0B0BDAD
:103E400070B592B0002543F640000195C4F202001F
:103E50000168022641F0805101600068012400F0F1
:103E600080500190019847F200000195C4F20000D3
:103E7000016841F440410160006800F44040019055
:103E800001984FF4803002904FF480000890082091
:103E900009904FF4B470CDE90A0607200C9001A8F0
:103EA000019404950796FEF7A9FC78B90F200D90B0
:103EB0004FF48050CDE910050DA80621CDE90E651F
:103EC000FEF784FB0446002818BF0124204612B0E8
:103ED00070BD000080B50246002840F26830C2F292
:103EE00000004FF4806118BFFF22FCF777FB80BD14
:103EF00040F26032C2F20002108040F26230C2F240
:103F00000000018070470000F0B581B045F2004428
:103F1000C4F20004FFF754F92046FFF7A1FB90F824
:103F20003D0038B941F68022C0F206022046012148
:103F3000FFF7B8FB20467821FFF7B8FC10B100204E
:103F400001B0F0BD6420FDF7A7FB204678210022D8
:103F5000AE230026FFF75CFD2046782100222023B7
:103F6000FFF756FD2046782100221023FFF750FD71
:103F7000204678210022B023FFF74AFD2046782111
:103F80000022C823FFF744FD2046782100220023A9
:103F9000FFF73EFD2046782100221023FFF738FD71
:103FA0002046782100224023FFF732FD2046782169
:103FB00000228123FFF72CFD204678210022FF23D9
:103FC000FFF726FD204678210022A123FFF720FDE0
:103FD000204678210022A623FFF71AFD20467821EB
:103FE0000022A823FFF714FD2046782100223F235A
:103FF000FFF70EFD204678210022A423FFF708FDDD
:10400000204678210022D323FFF702FD20467821A5
:1040100000220023FFF7FCFC204678210022D52354
:10402000FFF7F6FC204678210022F023FFF7F0FC92
:10403000204678210022D923FFF7EAFC2046782188
:1040400000222223FFF7E4FC204678210022DA2315
:10405000FFF7DEFC2046782100221223FFF7D8FC70
:10406000204678210022DB23FFF7D2FC204678216E
:1040700000222023FFF7CCFC2046782100228D234C
:10408000FFF7C6FC2046782100221423FFF7C0FC6E
:10409000204678210022AF23FFF7BAFC40F26835B2
:1040A000C2F2000528464FF48061FCF79FFA802792
:1040B00046F0B000C3B2204678210022FFF7A8FCEA
:1040C0002046782100220023FFF7A2FC2046782119
:1040D00000221023FFF79CFC2046782140222B462B
:1040E0000097FFF7D1FC0136082E05F18005DFD1DE
:1040F00040F26030C2F200000021018040F26230E4
:10410000C2F200000180012001B0F0BD2DE9F04FA6
:1041100085B040F26033C2F200031B880F7804922E
:104120001F447F2F09D840F26232C2F20002178882
:104130004A7802973A443F2A03D9002005B0BDE8E7
:10414000F08F00904878002864D040F26437C2F2C3
:1041500000073F78009AB7FA87F7203A01927A0968
:10416000049F40F26835002F18BF012757404FF0D9
:10417000000BC2F20005039705E000BF48780BF181
:10418000010B834546D20F78002FF7D0019E4F6870
:10419000704307EB400030F81B700298012458442C
:1041A00000F0070604FA06FC4FF68076C0F20F0610
:1041B00006EA00186FEA0C094FF0000A80B209E025
:1041C0003F2898BFBEF17F0F1AD90E780AF1010A75
:1041D000B245D3D203EB0A0607FA0AF424041FFA05
:1041E00086FEEDD53F2898BFBEF17F0FEDD8049C29
:1041F000A24208D108EB0E06AC5D44EA0C0407E0CD
:10420000039C002CF6D108EB0E06AC5D04EA090411
:10421000AC55DAE7087840F260311844C2F2000188
:1042200008805DF8140BBDE8F08F00000378002BC8
:1042300004BF0020704770B514460D46461C00BFF1
:10424000D8B229462246FFF761FF16F8011C8842C2
:1042500004D116F8013B002BF2D10021BDE87040DB
:1042600008467047F0B581B040F2683445F2004529
:104270000026C2F20004C4F20005802746F0B00018
:10428000C3B2284678210022FFF7C2FB28467821D6
:1042900000220023FFF7BCFB2846782100221023D0
:1042A000FFF7B6FB28467821402223460097FFF708
:1042B000EBFB0136082E04F18004DFD101B0F0BD24
:1042C00070B582B003283CD8DFE800F0022C0B2147
:1042D00000204FF0070C0324C4F202004FF4C06129
:1042E00029E00024C4F202040725032620464FF4E7
:1042F000007100220123CDE90065FFF733F904F5D1
:104300008060802100220123CDE9006517E00020B4
:10431000C4F20200A0F57040072102B0BDE8704071
:1043200000F038B90020C4F2020000F580604FF0C0
:10433000070C0324C02100220123CDE9004CFFF724
:1043400011F902B070BD00002DE9F04F93B044F2B6
:10435000004AC4F2000A43F62406984691468B466A
:1043600004465045C4F202061DD041F20000C4F2DA
:10437000010084423DD100200390306A40F01000DB
:104380003062306A00F0100003900398306840F00B
:1043900010003060306820F0100030605846FFF7A1
:1043A0008FFF252538E000200390F069BBF1030F53
:1043B00040F40030F061F06900F40030039003989D
:1043C00056F8040C40F4003046F8040C56F8040C7F
:1043D00020F4003046F8040C19D0BBF1010F0AD0CC
:1043E000BBF1000F17D10AF5DE30072703250C219A
:1043F00006E0252510E00AF5E430072703256021B3
:1044000000220123CDE90057FFF7ACF803E0504646
:10441000072100F0BFF826250AF55047BC4229D1F4
:1044200000200390306ABBF1030F40F0200030629F
:10443000306A00F0200003900398306840F02000BC
:104440003060306820F0200030600ED0BBF1000FEB
:104450000FD10AF5E23008260325C02100220123EE
:10446000CDE90056FFF77EF803E03846082100F05A
:1044700091F847250C20089000200790CDE9050011
:104480000A902846CDE90349CDF82480FEF73AF892
:10449000A4EB0A00B0FA80F0420928460621BC428B
:1044A00008BF0622FEF756F82846FEF741F82846D0
:1044B000FEF716F803A8FEF71FFBE06840F02000A7
:1044C000E06013B0BDE8F08F70B590B044F20044E6
:1044D000C4F20004A04253D041F20043C4F20103ED
:1044E000984246D041F20003C4F2010398423ED103
:1044F000002543F624000095C4F20200036A164624
:1045000043F010030362036A03F010030093009B5F
:10451000036843F010030360036823F01003036093
:104520000846FFF7CDFE04F54C40CDE900060C200F
:10453000CDE9045025200695CDE902550795FDF7F4
:10454000E1FF252006210022FEF704F82520FDF7D3
:10455000EFFF2520FDF7C4FF6846FEF7CDFA41F2D4
:104560000C00C4F20100016841F02001016010B0AC
:1045700070BD41F20C00C4F2010000F57D7003E053
:1045800044F20040C4F20000002310B0BDE87040C7
:10459000FFF7DABE704700002DE9F04381B0044612
:1045A0000068D4E90212E369076948F21F5827F44A
:1045B00040573A430261C26849F20C67BA43D4E9F2
:1045C00004761143394331431943C1604169A269FB
:1045D00021F440711143416141F20041B3F5004FB4
:1045E000C5F2EB1840F48060C4F2010138D1884272
:1045F0006ED1FEF7BFF86168192778434900B0FB18
:10460000F1F0A0FB08016FF00F0000EA5106FEF781
:10461000B1F8616878434900B0FBF1F5FEF7AAF8FC
:10462000616878434900B0FBF1F04FF06409A0FBEA
:104630000801480900FB1950322101EBC000A0FB22
:1046400008014FF4F87000EA11100644FEF792F8E2
:10465000616878434900B0FBF1F5FEF78BF86DE037
:10466000884278D1FEF786F8616819277843890077
:10467000B0FBF1F0A0FB08016FF00F0000EA51065B
:10468000FEF778F8616878438900B0FBF1F5FEF732
:1046900071F8616878438900B0FBF1F04FF064096C
:1046A000A0FB0801480900FB1950322101EB001062
:1046B000A0FB0801F02000EA51100644FEF75AF86A
:1046C000616878438900B0FBF1F5FEF753F877E0B5
:1046D000FEF73CF86168192778434900B0FBF1F018
:1046E000A0FB08016FF00F0000EA5106FEF72EF85C
:1046F000616878434900B0FBF1F5FEF727F861687F
:1047000078434900B0FBF1F04FF06409A0FB0801C9
:10471000480900FB1950322101EBC000A0FB080141
:104720004FF4F87000EA11100644FEF70FF86168C4
:1047300078434900B0FBF1F5FEF708F8616878436B
:104740004900B0FBF1F0A0FB0801480900FB19503B
:104750000721C00040E0FDF7F9FF616819277843A1
:104760008900B0FBF1F0A0FB08016FF00F0000EA38
:104770005106FDF7EBFF616878438900B0FBF1F566
:10478000FDF7E4FF616878438900B0FBF1F04FF07A
:104790006409A0FB0801480900FB1950322101EB14
:1047A0000010A0FB0801F02000EA51100644FDF7BC
:1047B000CDFF616878438900B0FBF1F5FDF7C6FFD6
:1047C000616878438900B0FBF1F0A0FB080148095B
:1047D00000FB19500F2100013230A0FB080201EA52
:1047E000521021683043886001B0BDE8F0830000BA
:1047F00010B582B041F20004C4F2010420688006C2
:104800000AD5606801A98DF8040040F21410C2F2C4
:1048100000000122FEF78CFC00200190216801912C
:10482000616801910199019021680191616801918C
:1048300001990190216801916168019101990190AC
:1048400021680191616801910199019020680190AE
:104850006068019001982520FDF742FE02B010BD6E
:1048600010B582B044F20044C4F20004206880060F
:104870000AD5606801A98DF8040040F22C10C2F23C
:1048800000000122FEF754FC0020019021680191F4
:10489000616801910199019021680191616801911C
:1048A000019901902168019161680191019901903C
:1048B000216801916168019101990190206801903E
:1048C0006068019001982620FDF70AFE02B010BD35
:1048D00010B582B041F20044C4F2010420688006A1
:1048E0000AD5606801A98DF8040040F24410C2F2B4
:1048F00000000122FEF71CFC0020019021680191BC
:1049000061680191019901902168019161680191AB
:1049100001990190216801916168019101990190CB
:1049200021680191616801910199019020680190CD
:104930006068019001984720FDF7D2FD02B010BDDC
:10494000FEE7000010B52DED088B90ED050A90ED07
:1049500007AA90ED081A90ED069A2AEE011A20EEA9
:10496000090A30EE010A044610EE100A02F06EF851
:1049700029EE090AB6EE009A39EE400A2AEE0A1A22
:1049800030EE410A41EC180B10EE100A02F05EF80E
:1049900041EC110BB0EE480AF0EE680A01F0D0F8D5
:1049A00051EC100B01F010FB94ED050A94ED061A82
:1049B00094ED072A94ED083A22EE000A21EE031A3C
:1049C00030EE410A30EE000A206010EE100A02F0CC
:1049D0003DF841EC100B00F097FD51EC100B01F08D
:1049E000F3FA94ED050A94ED061A94ED08AA94EDF5
:1049F00007BA20EE0A0A21EE0B1A31EE000A6060B7
:104A000010EE100A02F022F82BEE0B0A39EE400AE3
:104A10002AEE0A1A30EE410A41EC180B10EE100A89
:104A200002F014F841EC110BB0EE480AF0EE680AFF
:104A300001F086F851EC100B01F0C6FA94ED001A63
:104A40009FED173A00EE100A94ED034A21EE031A87
:104A500020EE030A84ED001A9FED131A94ED012A4B
:104A600030EE440AB4EE410A22EE032AF1EE10FAC7
:104A700084ED012A84ED020A02DA9FED0A1A06E0AB
:104A80009FED082AB4EE420AF1EE10FA05DD30EE91
:104A9000010A30EE010A84ED020ABDEC088B10BD5C
:104AA000E12E654200003443000034C381B044F27B
:104AB0000041C4F200018DF80300CA68920408D5D1
:104AC0000A681206FCD59DF803204A600A6812069F
:104AD000FCD501B070470000CEB044F20045C4F2EE
:104AE0000005FFF7ADF9FDF7C5FCFEF769FBFEF722
:104AF00087FB284600214FF46122FFF7E5FC40F2D6
:104B00001834C2F2000420460021FFF70DF820B14E
:104B100070A0FBF7E9FC00BFFEE7142671A0C4F209
:104B20000206FBF7E1FC05F5DE3001210022FEF76D
:104B30007DFB40F2F0209FED700A9FED701AC2F2EB
:104B40000000F6EE000AFEF74DF9FFF7DDF9002848
:104B500000F0B880202040F20C1870600DF58377CB
:104B600035AE0DF1A205C2F200080DF1700A0DF18B
:104B70003E090DF10C0B00BF2046FEF7C1FF0028D7
:104B8000FAD12046FFF7ACF82046FFF7EBF82046B5
:104B9000FFF72AF904F10C00D4EC031A90EC030A95
:104BA00040F2F020C2F20000FEF72EF90020FFF7DD
:104BB00091F9206801F04AFF41EC100B3846322190
:104BC0004FA28DED000BFBF7E7FB606801F03EFFA5
:104BD00041EC100B304632214CA28DED000BFBF75F
:104BE000DBFBA06801F032FF41EC100B28463221BC
:104BF00049A28DED000BFBF7CFFB0A200421FFF744
:104C000077F9384641460122FFF710FB08201921A9
:104C1000FFF76EF9304641460122FFF707FB0F20F0
:104C20002D21FFF765F9284641460122FFF7FEFADC
:104C3000E06801F00BFF41EC100B5046322139A225
:104C40008DED000BFBF7A8FB206901F0FFFE41ECA6
:104C5000100B4846322136A28DED000BFBF79CFB72
:104C6000606901F0F3FE41EC100B5846322133A28B
:104C70008DED000BFBF790FB14200421FFF738F9B2
:104C8000504641460122FFF7D1FA12201921FFF7C1
:104C90002FF9484641460122FFF7C8FA19202D2175
:104CA000FFF726F9584641460122FFF7BFFAFFF702
:104CB000D9FA6420FCF7F0FCFFF7D4FA6420FCF783
:104CC000EBFC59E7306880F0200030603220FCF7C0
:104CD000E3FCF7E7446576696365206572726F727D
:104CE000210D000044657669636520636F6E6E6513
:104CF00063746564210D000000007A440000000028
:104D00004163636558203D252E326600416363652B
:104D100059203D252E326600416363655A203D25AA
:104D20002E32660047797258203D252E32660000EB
:104D300047797259203D252E326600004779725A14
:104D4000203D252E326600005FEA400C08BF91F03E
:104D5000000F4FEA8C234FEAC12243EA51514FEA38
:104D60001C5018BF00F5F0404FEA300018BF41F06A
:104D700000415FEA6C5C00F02980BCF1FF3F08BF96
:104D800040F080407047130C06BF12044FF0100C27
:104D90004FF0000C130E04BF12020CF1080C130F9D
:104DA00004BF12010CF1040C930F04BF92000CF12C
:104DB000020CD30F04BF52000CF1010C11464FF04E
:104DC0000002A0F11F00A0EB0C00704711F0004F93
:104DD00008BF704731F000413FF4D5AF0B0C06BF60
:104DE00009044FF0100C4FF0000C0B0E04BF090229
:104DF0000CF1080C0B0F04BF09010CF1040C8B0F14
:104E000004BF89000CF1020CCB0F04BF49000CF168
:104E1000010CCCF1200322FA03F341EA030102FA68
:104E20000CF2A0EB0C0000F10100704723F07F476B
:104E300020F07F4C80EA030000F00040ACEB070359
:104E400003F57C5303F1FF032DE9804909B44FEAD0
:104E5000144324EA03484FEA154B25EA0B4E0FF2A0
:104E6000042606EB13273E7803FB0667C7F5000709
:104E700007FB06F64FEAD64606F102064FEA54371C
:104E800007FB066CCCF1005C4FEA1C472CEA074C90
:104E90000CFB06F507FB06F404EB15464FEA9616E5
:104EA00049085FEA320234BF00204FF000404FEA69
:104EB000D13706FB07FC4FEA1C4C0CFB0BF7D21B4F
:104EC00003FB0CF761EB07010CFB0EF7B0EB07409F
:104ED00072EB17420CFB08F734BFA2EB0742B2EBB0
:104EE000074261EB17414FEA0C444FEA910706FB7A
:104EF00007FC4FEA1C4C0CFB0BF7B0EBC74072EB06
:104F0000573203FB0CF734BFA2EBC742B2EBC742E8
:104F100061EB57310CFB0EF7B0EBC70072EB577229
:104F20000CFB08F734BFA2EBC702B2EBC70261EB80
:104F300057714FEA816141EA92114FEA826242EA77
:104F400090124FEA806004EBCC04039F4FEAD13704
:104F500006FB07FC4FEA1C4C0CFB0BF7D21B03FBB8
:104F60000CF761EB07010CFB0EF7B0EB074072EB9F
:104F700017420CFB08F734BFA2EB0742B2EB074223
:104F800061EB17414FEA8C5504EB9C244FEA9107E3
:104F900006FB07FC4FEA1C4C0CFB0BF7B0EBC740C1
:104FA00072EB573203FB0CF734BFA2EBC742B2EBF4
:104FB000C74261EB57310CFB0EF7B0EBC70072EB49
:104FC00057720CFB08F734BFA2EBC702B2EBC70263
:104FD00061EB57714FEA816141EA92114FEA8262B7
:104FE00042EA90124FEA806015EB4C2544F1000430
:104FF0004FEAD13706FB07FC4FEA1C4C0CFB0BF7C2
:10500000D21B03FB0CF761EB07010CFB0EF7B0EBB7
:10501000074072EB17420CFB08F734BFA2EB0742C4
:10502000B2EB074261EB17414FEA813141EA92410D
:105030004FEA823242EA90424FEA80304FEA0C76E1
:1050400015EB1C1544F1000448EA03434EEA0B48F3
:105050004FF0000EB2EB080C71EB030724BF624661
:1050600039464EEB0E0E4FF0000B001852414941ED
:105070004BEB0B0BB2EB080C71EB03077BF1000B56
:1050800024BF624639464EEB0E0E4FF0000B00185F
:10509000524149414BEB0B0BB2EB080C71EB030790
:1050A0007BF1000B24BF624639464EEB0E0E51EAEF
:1050B000020718BF46F0010616EB0E7655F1000206
:1050C00054F1000103D5BDE88901BDE80088BDE8C1
:1050D0008901BDE80048B619524141EB0101A3F135
:1050E0000103704780807F7E7D7C7B7A797877763C
:1050F00076757473727171706F6E6E6D6C6C6B6AB5
:105100006A69686867666665646463636261616052
:10511000605F5F5E5E5D5D5C5C5B5B5A5A595958CF
:105120005857575656555555545453535252525139
:10513000515050504F4F4F4E4E4D4D4D4C4C4C4B8F
:105140004B4B4A4A4A4949494848484747474746D6
:105150004646454545444444444343434342424212
:10516000424141419C46002B30D477002BD04FEA7E
:1051700037071CB503B44FF010004FF01001BAF11F
:10518000000F06D0BCF1000FDCBF40F0080040F07B
:1051900008014FF000000FBCBDE810400BF1010BFF
:1051A000BBF1010F08BF5FEA170722BF12F101022E
:1051B00011F101014FF0004143F1000300F0004004
:1051C00043EA00007047F9D35708D0E746EA06469D
:1051D0004FEA164613F1400F1FDD13F1200FDFBF1A
:1051E00016430A46002120335B42BED0C3F120079C
:1051F00046EA06464FEA164602FA07F746EA070667
:1052000022FA03F2C3F1200701FA07F742EA070284
:1052100021FA03F14FF00003A7E746EA020646EA47
:1052200006464FEA164646EA0106BCBF46EA06466F
:10523000360C4FF000034FF000024FF0000194E7EE
:105240002DE9804C70B49A46934691E8380007C81F
:1052500031EA400C48BF34EA430C03D5FFF7E6FDC2
:10526000FFF780FFF0BCBDE8008C2DE9804C70B4E6
:105270009A46934691E8380007C810F0804F08BF5F
:1052800013F0804F03D100F005F8FFF76BFFF0BC7F
:10529000BDE8008C20F07F4723F07F4C80EA0300BC
:1052A00000F0004007EB0C03A3F57C53A3F1FE03D1
:1052B00092F0000F00F0B38095F0000F00F07780BF
:1052C0002DE901494FEA114021EA00484FEA14460E
:1052D00024EA064700FB06FC08FB06F607FB08F875
:1052E00018EB06484CEB164C00FB07F718EB074889
:1052F0004CEB17404FEA124B22EA0B4E4FEA154691
:1053000025EA06470BFB06FC0EFB06F607FB0EFE26
:105310001EEB064E4CEB164C0BFB07F71EEB074E35
:105320004CEB174B18EB0B0840F1000018EB0E0B81
:1053300058EB000840F100008F1A4FF000014FF0C9
:1053400000063CBFC943661B14BFB5EB040C00212B
:105350003CBFC943F61B4FEA174427EA04454FEA0E
:105360001C472CEA074C04FB076205FB07F70CFB04
:1053700005F616EB074642EB174204FB0CFC16EB56
:105380000C4642EB1C421BEB060658EB0202414165
:105390004EEA8E0E46EA9E0601D5BDE80189B61991
:1053A000524141EB0101A3F10103BDE801894FEA3C
:1053B000144524EA05464FEA114721EA074C05FB4C
:1053C00007F406FB07F70CFB06F111EB074144EB72
:1053D000174405FB0CFC11EB0C4144EB1C444FEA59
:1053E000124722EA074C05FB07F206FB07F70CFB06
:1053F00006F616EB074642EB174205FB0CFC16EBD4
:105400000C4642EB1C456A1854F1000148BF704736
:10541000B619524141EB0101A3F10103704795F028
:10542000000F37D04FEA114221EA02464FEA1447F3
:1054300024EA074C02FB07F106FB07F70CFB06F416
:1054400014EB074441EB174102FB0CFC14EB0C443A
:1054500041EB1C414FEA154725EA074C02FB07F5D3
:1054600006FB07F70CFB06F616EB074645EB174560
:1054700002FB0CFC16EB0C4645EB1C42121951F1D9
:10548000000148BF7047B619524141EB0101A3F139
:10549000010370474FEA144524EA05464FEA1147D5
:1054A00021EA074C05FB07F106FB07F70CFB06F2A8
:1054B00012EB074241EB174105FB0CFC12EB0C42CF
:1054C00051EB1C414FF0000648BF7047921841EB6A
:1054D0000101A3F10103704703B401984100009852
:1054E00050EAC12018BF04204A0D18BF40F0010047
:1054F00040F2FF72B2EB515F08BF40F0020001289A
:1055000008BF052002B0704770B5C1482DED020BF1
:105510002DED0E8B82B0119D25F000449FEDBEDB7A
:105520009FEDBFEB84423EDBA4F140511098A1F106
:105530007F6108430FD0BC48844202DC28D1109818
:1055400030B39DED100B02B0BDEC0E8B02B0BDE888
:10555000704000F08EBC9DED100B53EC1D2B51ECF8
:10556000100B00F0AFFF9DED100B41EC180B53EC4E
:105570001E2B51EC100B00F0A5FF53EC182B00F084
:1055800055FD41EC100B02B0BDEC0E8B02B070BDAE
:105590000120FBF7ABF802B0BDEC0E8B02B0BDE80A
:1055A000704000F07DBCA1489FEDA18B844256DA8B
:1055B0009DED100BB4F1795F0ADA51EC100BFFF797
:1055C0008BFF042808BF00F07BFC9DED100BDAE791
:1055D00053EC102B51EC100B00F074FF41EC190B45
:1055E00095480621B0EE490AF0EE690A784400F0C9
:1055F000C4FB53EC192B51EC100B00F063FF41EC92
:105600001A0B8E48B0EE490AF0EE690A042178447C
:1056100000F0B3FB53EC192B51EC100B00F052FFD0
:1056200053EC182B00F002FD41EC100B51EC1A0B5F
:1056300053EC102B00F0AEFDCDE900019DED000B09
:1056400053EC102B9DED100B51EC100B00F03AFFBA
:105650009DED101B53EC112B00F0E8FCD2E09DED0A
:10566000100B51EC100B00F04AFC53EC182B01F01E
:1056700027F89FED730BCDE9000153EC102B9DED46
:10568000000B51EC100B00F01DFF41EC190B6E48A4
:105690000621B0EE490AF0EE690A784400F06DFB8D
:1056A00053EC192B51EC100B00F00CFF41EC1B0BD1
:1056B0006648B0EE490AF0EE690A0421784400F029
:1056C0005CFB53EC192B51EC100B00F0FBFE53EC80
:1056D000182B00F0ABFC41EC1C0B51EC190B00F04B
:1056E0001AFC41EC180B5A489FED5BABA04222DC40
:1056F00053EC1C2B51EC1B0B00F04CFDCDE90001D1
:105700009DED000B51EC180B53EC102B00F0DAFE62
:1057100053EC182B00F08AFC53EC1A2B00F0D2FE4D
:1057200053EC1D2B01F0A4F853EC1E2B00F0C8FF26
:1057300041EC100B5FE08DED008B002000909DEDA3
:10574000000B51EC180B53EC102B00F06FFC9DED8F
:10575000000B41EC1E0B53EC102B51EC100B00F026
:10576000B1FE53EC192B00F0ABFF53EC1E2B00F0F5
:1057700011FD41EC190B53EC1C2B51EC1B0B00F0F1
:1057800009FD41EC1B0B53EC1A2B51EC190B00F0EB
:1057900099FE53EC1D2B00F093FF41EC190B53ECD9
:1057A0001A2B51EC180B00F08DFE53EC1B2B00F064
:1057B00089FE53EC192B01F05BF89DED000B41ECD9
:1057C000180B53EC1A2B51EC100B00F07BFE9FEDE5
:1057D000249B53EC192B00F073FF41EC100B51ECA0
:1057E000180B53EC102B01F043F853EC192B00F07D
:1057F00067FF41EC100B002D3FF7C5AE51EC100BCD
:1058000000F0D6FB41EC100BBDE6000000000000EC
:105810000000F03F00000000075C143326A6913C16
:10582000182D4454FB21F93F0000F07F0000E03FB9
:10583000000000000000F03F681500007615000031
:10584000000000000000E03FBA140000C81400008F
:105850003333EF3F00000000000000000000004074
:10586000182D4454FB21E93F70B59B482DED020BE8
:105870002DED068B079D25F00044A04218DC9748CB
:10588000844202DC0AD1069840B19DED060BBDECC6
:10589000068B02B0BDE8704000F0EBBA002DCCBF23
:1058A0009FED8F0B9FED900BBDEC068B02B070BD92
:1058B0008F48A04215DD8F48A042D8BF4FF0FF347B
:1058C00058DD9DED060B51EC100BFFF705FE04288B
:1058D00008BF00F0F5FA9DED060BBDEC068B02B09B
:1058E00070BD9DED060B51EC100B00F008FBCDE9EF
:1058F000060181489FED828BA0423CDD8248A04298
:105900001FDD00249FED82AB9DED060B53EC1A2B9F
:1059100051EC100B00F08AFB9DED060B41EC190BCE
:1059200053EC1A2B51EC100B00F0CCFD53EC182B60
:1059300000F09EFF53EC192B00F02CFCCDE9060182
:1059400049E09DED060B012453EC182B51EC100B94
:1059500000F06CFB9DED060B41EC190B53EC182B82
:1059600051EC100B00F084FF53EC192B00F012FCEB
:10597000CDE906012FE06848A0421FDD02249FED1B
:10598000689B9DED060B53EC192B51EC100B00F0AE
:1059900099FD53EC182B00F049FB9DED060B41ECF3
:1059A000180B53EC192B51EC100B00F061FF53EC6A
:1059B000182B00F0EFFBCDE906010CE09DED060B86
:1059C000032453EC102B9FED580B51EC100B00F0FF
:1059D000E1FBCDE906019DED060B53EC102B51ECDC
:1059E000100B00F06FFD41EC180B53EC182B00F07E
:1059F00069FD41EC190B4E480621B0EE490AF0EE64
:105A0000690A784400F0B9F953EC182B51EC100BEB
:105A100000F058FD41EC180B4648B0EE490AF0EE94
:105A2000690A0521784400F0A8F953EC192B51ECD0
:105A3000100B00F047FD41EC100B51EC180B53EC30
:105A4000102B002C0EDA00F0F1FA9DED061B53EC42
:105A5000112B00F037FD9DED061B53EC112B00F0D0
:105A60002FFE35E000F0E2FA9DED061B53EC112B02
:105A700000F028FD41EC100B2F48784400EBC400E7
:105A800090ED001B51EC100B53EC112B00F0F0FECD
:105A90009DED061B53EC112B00F0EAFE41EC100BC0
:105AA0002648784400EBC40090ED001B51EC100B2D
:105AB00053EC112B00F004FE41EC100B002DA2BFA3
:105AC000BDEC068B02B070BD51EC100B00F070FA0B
:105AD00041EC100B01E70000000010440000F07FD3
