:020000040800F2
:10000000E0150020AD010008715F0008755F000871
:10001000795F00087D5F0008815F00080000000034
:10002000000000000000000000000000855F0008E4
:10003000895F0008000000008D5F0008955F0008E0
:10004000C7010008C7010008C7010008C701000870
:10005000C7010008C7010008C7010008C701000860
:10006000C7010008C7010008C7010008C701000850
:10007000C7010008C7010008C7010008C701000840
:10008000C7010008C7010008C70100080000000000
:10009000000000000000000000000000C701000890
:1000A000C7010008C7010008C7010008C701000810
:1000B000C7010008C7010008C7010008C701000800
:1000C000C7010008C7010008C7010008C7010008F0
:1000D000C70100085D5D0008CD5D0008000000005C
:1000E000C7010008C7010008C701000800000000A0
:1000F000000000000000000000000000C701000830
:1001000000000000C7010008C7010008C70100087F
:1001100000000000000000000000000000000000DF
:10012000C7010008C7010008C7010008C70100088F
:10013000C7010008000000000000000000000000EF
:10014000000000000000000000000000D94B000883
:10015000C7010008C7010008C70100083D5E00088C
:10016000C7010008C70100080000000000000000EF
:10017000000000000000000000000000000000007F
:1001800000000000C701000800000000000000009F
:10019000C7010008C7010008DFF80CD006F00CFE0C
:1001A00000480047AD5E0008E01500200648804783
:1001B00006480047FEE7FEE7FEE7FEE7FEE7FEE74C
:1001C000FEE7FEE7FEE7FEE7995F000899010008F9
:1001D00080B543F60040C4F20200016841F40071AA
:1001E0000160016841F480610160016841F480713F
:1001F0000160032000F0DEF80F2000F005F800F0A9
:100200004BFF002080BD00BF10B540F20C01C2F2D0
:100210000001096844F6D352C1F26202A1FB021246
:100220000446900900F03EF94FF0FF3021460022CD
:1002300000F0D0F8002010BD704700BF80B543F635
:100240001000C4F202004FF0FF3100220161026190
:100250004161426101600260416042608160826090
:1002600000F01CFF002080BD704700BF40F6DC504E
:10027000C2F20000016801310160704740F6DC50B5
:10028000C2F2000000687047B0B582B0019004F07F
:1002900007FC019904464D1C28BF4FF0FF3500BFF5
:1002A00004F0FEFB001BA842FAD302B0B0BD00BFB1
:1002B0004EF21000CEF20000016821F00201016050
:1002C000704700BF4EF21000CEF20000016841F00E
:1002D00002010160704700BF40F20010C0F2071039
:1002E000704700BF42F20000CEF204000068000C2C
:1002F000704700BF42F20000CEF2040000686FF3C6
:100300001F30704742F20400CEF20400016841F051
:1003100001010160704700BF42F20400CEF2040008
:10032000016821F001010160704700BF42F2040042
:10033000CEF20400016841F002010160704700BF85
:1003400042F20400CEF20400016821F002010160D3
:10035000704700BF42F20400CEF20400016841F091
:1003600004010160704700BF42F20400CEF20400B5
:10037000016821F004010160704700BF40F20040B5
:10038000C4F2272001210160704700BF40F2004005
:10039000C4F2272000210160704700BF47F61021FA
:1003A000C1F6FF710A6802604A684260896881602C
:1003B000704700004EF60C51CEF200010A684FF66D
:1003C000FF031A4060F30A2242F0806040F0FD70A3
:1003D0000860704710B54EF60C5CCEF2000CDCF8ED
:1003E0000030C3F3022E8EF00704042C28BF04242F
:1003F000BEF103034FF0FF3E0EFA04F438BF0023B2
:10040000A14399400EFA03F39A43114300F160426D
:1004100000F00F03090102F56442043B6344002825
:1004200048BF03F10C02117010BD00BF002848BF87
:10043000704700F01F01012202FA01F11C2202EABA
:10044000D0004EF20012CEF200028150704700BF81
:10045000002848BF704700F01F01012202FA01F195
:100460001C2202EAD0004EF28012CEF2000281502D
:10047000BFF34F8FBFF36F8F704700BF00F000F8DE
:100480004EF60C50BFF34F8FCEF2000001680422ED
:1004900001F4E061C0F2FA5211430160BFF34F8FE3
:1004A00000BFFDE7411E0020B0EB116F1CBF012013
:1004B00070474EF21002CEF2000251604EF6235108
:1004C000CEF20001F0230B7007219060116070479D
:1004D0004EF62450BFF35F8FCEF20000016821F486
:1004E0008031016000210167704700BF4EF6245142
:1004F00040F00100CEF200010867086840F4803047
:100500000860BFF34F8FBFF36F8F7047F0B502786D
:100510004EF69C5C4378CEF2000C4CF8043CF2B1F1
:100520004368CCF80030037BC17A90F80AE042EAD5
:100530000372447B42EA0161857B41EACE41C67B7E
:1005400041EA8441477A41EA4541007A41EA06415D
:1005500041EA072141EA4000CCF80400F0BD002048
:10056000CCF80000CCF80400F0BD00BF4EF60C50F3
:10057000CEF200000068C0F30220704710B500F111
:10058000604C4EF614540CF5644C00F00F0ECEF295
:10059000000401F00701002848BF0EEB040C9CF892
:1005A00000E081F00704042C4FEA1E1C28BF04243D
:1005B000033938BF00212CFA01F04FF0FF3C0CFA50
:1005C00004F4A04310600CFA01F0C04300EA1E10CE
:1005D000186010BD002848BF704700F01F010122BD
:1005E00002FA01F11C2202EAD0004EF20022CEF201
:1005F00000028150704700BF002844BF00207047B0
:100600001C214EF2002201EAD001CEF200028958EC
:1006100000F01F0021FA00F000F00100704700BF59
:10062000002848BF704700F01F01012202FA01F1C3
:100630001C2202EAD0004EF28022CEF2000281504B
:10064000704700BF002844BF002070471C214EF2B5
:10065000003201EAD001CEF20002895800F01F00FA
:1006600021FA00F000F00100704700BF4EF21001C7
:10067000CEF200010A68042822F0040208BF043206
:100680000A607047AFF30080704700002DE9F04129
:10069000044604F005FAC4B10546002084F834008D
:1006A000022084F835002068016821F00101016012
:1006B00020680168C9070BD004F0F2F9401B052837
:1006C000F6D90321202203207AE00120BDE8F08141
:1006D000016848F23F02CFF21002D4E9013501EA85
:1006E000020ED4E9032143EA0E032B43D4E9056C3F
:1006F0001A43D4E907781143314341EA0702616A9A
:1007000042EA0802042942EA0C0303D1D4E90B2788
:100710003A43134303604269042922F0070241EA85
:1007200002012DD1D4E90A5341EA050143B3BCF5D6
:10073000005F08D0BCF1000F12D1022D16D0012DA0
:1007400007D09DB119E0032D17D8DFE805F00B0F96
:100750000B02A3F1C072B2FA82F252094AB90FE059
:10076000032D02D2012222B90AE006D1C3F30062AE
:1007700032B101214022012022E00022002AF8D1DA
:1007800000F0F8024AF6AB23103ACAF6AA23A2FBFD
:10079000033746F6847341613909C0F60003595C9A
:1007A00040F2FF3398435F2A4FF03F0288BF043086
:1007B000C4E9160102FA01F1816000220121002042
:1007C000626584F83510BDE8F08100BF002804BFE1
:1007D0000120704790F83510022904BF02207047AD
:1007E000B0B501684AF6AB2201F0F803D1F800C0B9
:1007F000A3F11005CAF6AA22A5FB022E2CF00102D5
:100800000A600022212346F684740A604A608A60E6
:10081000CA600A614B614FEA1E13C0F60004E35C34
:1008200040F2FF34A1435F2D4FF03F0588BF0431F4
:10083000C0E9161305FA03F38B60426580F8352092
:1008400080F834200020B0BD90F834C0BCF1010F16
:1008500031D04FF0010C80F834C090F835C0BCF1B5
:10086000010F25D110B54FF0020C80F835C0844639
:100870000020CCF85400DCF800E0DCF808C0DEF81A
:100880000040BCF1400F24F48024CEF80040CEF8A4
:1008900004300B4604BF13460A46CEF80830CEF8A3
:1008A0000C20DEF8001041F00101CEF8001010BD60
:1008B000002180F834100220704700BF90F834C047
:1008C000BCF1010F04BF0220704770B54FF0010C5E
:1008D00080F834C0D0F858E090F835C0BCF1010F72
:1008E0003DD14FF0020C80F835C04FF0000CC0F83D
:1008F00054C0D0F800C08468056CC06DDCF800609E
:10090000402C26F48026CCF80060CCF804300B464E
:1009100004BF13460A463F2101FA00F0CCF8083024
:10092000CCF80C20CEF80800DCF8000040F01600EF
:10093000CCF80000DCF8140040F08000CCF8140083
:100940002DB1DCF8000040F00800CCF80000DCF825
:10095000000040F00100CCF80000002070BD002134
:1009600080F83410022070BD70B5866D044604F026
:1009700097F894F83510022928D105462068216C93
:10098000026822F016020260426922F0800242618F
:1009900009B9A16C19B1016821F008010160016871
:1009A00021F00101016000BF20680068C00714D079
:1009B00004F076F8401B0628F6D32020606500205E
:1009C00084F83400032084F8350070BD8020606511
:1009D000002084F83400012070BDE06D3F2101FA51
:1009E00000F0B0600020012184F8340084F8351054
:1009F00070BD00BF90F83510022909D1052180F89B
:100A000035100068016821F0010101600020704785
:100A100080214165012070472DE9F04F81B0924659
:100A20000F46044604F03CF894F83510022926D10C
:100A3000814620680068C00527D4D4E916B010218B
:100A40000097002F08BF2021DBF8002001FA00F8F2
:100A500012EA080F20D0606D00281CBF606D5FEAAD
:100A6000C07057D10099E06D002965D0102101FABE
:100A700000F0CBF80800002001B0BDE8F08F802026
:100A80006065002084F8340002E04FF480706065F7
:100A9000012001B0BDE8F08F0127C0F280070AF104
:100AA00001064FF0080CFD1C03E000BF10EA080F20
:100AB000D1D1606DC007CED156B1BAF1000F49D087
:100AC00003F0EEFFA0EB09004FF0080C504541D8B1
:100AD000DBF80000E16D0CFA01F2024205D0636D13
:100AE00043F001036365CBF8082007FA01F20242E4
:100AF00005D0636D43F002036365CBF8082005FA67
:100B000001F10142D2D0626D42F004026265CBF87D
:100B10000810CBE72046FFF727FFE06D302101FAF0
:100B200000F0CBF80800002084F83400012084F89D
:100B3000350001B0BDE8F08F302101FA00F0CBF8AC
:100B400008000020012184F8340084F8351001B039
:100B5000BDE8F08F20206065002084F8340001207B
:100B600084F83500032001B0BDE8F08FF0B581B006
:100B70000021009140F20C01C2F200010B68D0E9A3
:100B8000166148F2B51537680822C1F64E358A401D
:100B90003A42A3FB05350CD003681C68640708D5EE
:100BA0001C6824F004041C60B260426D42F0010233
:100BB00042650122C0F2800202FA01F33B4208D0F2
:100BC00004686469240604D5B360436D43F00203EE
:100BD000436503328A403A4208D003681B689B078A
:100BE00004D5B260426D42F00402426510228A4090
:100BF0003A4216D001680B681B0712D5B2600B6829
:100C00000A685B0306D4D20506D40A6822F00802FB
:100C10000A6001E011033FD4016C11B1044688471A
:100C20002046C26D202101FA02F33B4241D0016807
:100C30000F68FF063DD5B36090F835700B68052F3F
:100C40001AD123F016030B604B6923F080034B612C
:100C5000036C0BB9836C1BB10B6823F008030B60AA
:100C60003F219140B160002180F83410012180F8CB
:100C70003510016DE1BB3FE00A685B0310D4D2057B
:100C800012D40A6822F010020A60002180F83410A1
:100C9000012180F8351007E0816C0029BED1C0E742
:100CA000110301D4416C00E0C16B11B104468847C7
:100CB0002046416D01B3416DC90717D0052180F869
:100CC00035100168AA0A0B6823F001030B6000BF0E
:100CD000009B01339342009302D80B68DB07F7D1E6
:100CE000002180F83410012180F83510C16C19B151
:100CF00001B0BDE8F040084701B0F0BD90F83430D5
:100D0000012B04BF022070474FF0010C80F834C063
:100D100090F83530012B08D14FF0000C05299EBF0B
:100D200001F03F0100EB8101CA63002180F834101B
:100D30006046704790F83420012A04BF02207047B3
:100D4000012280F8342090F83530012B1FD106297C
:100D50001DD8DFE801F004100A0D0713150000226A
:100D6000C26314E00022C26411E0002242640EE07B
:100D7000002282640BE00022026408E0002205E009
:100D80000022C0E90F22C0E91122C26402650021DD
:100D900080F834101046704790F83500704700BF57
:100DA000406D70472DE9F04F83B000F1200200F153
:100DB0003E4741F20005019207F1FF77C4F20205B8
:100DC00007224FEAB726A84208BF0422042E38BFE4
:100DD0004FEAB7224FF0010E00274FF000084FF006
:100DE000000900920AE000BF09F1010908F10408B6
:100DF000B9F1100F07F1020700F099800D680EFAA3
:100E000009FA15EA0A0CEFD04D6845F01005122DCD
:100E100014D16FF00302019E02EA590508F01C028A
:100E20000F2356F805B003FA02F40B692BEA040409
:100E300003FA02F222434FF0010E725102680323BB
:100E4000D1F804B0BB40DD439A430BF00303BB4031
:100E50001A43BBF1120F026013D80EFA0BF212F014
:100E6000061F0ED08268CB682A40BB401A438260BE
:100E70004268CBF3001322EA0A0203FA09F31A4389
:100E80004260C2688B682A40BB401A435FEACB03CA
:100E9000C260A9D5002243F644030292C4F20203C1
:100EA0001A6843F6004642F480421A601A68C4F297
:100EB000010602F480420292029A29F003024FF6E0
:100EC000084A3244CFF6FF7A52F80A3008F00C0490
:100ED0000F25A540AB43009D05FA04F4234342F8D7
:100EE0000A3032684B6842EA0C04DD0358BF22EA3C
:100EF0000C04346072689D0342EA0C0458BF22EA75
:100F00000C047460B268DD0242EA0C0443F60C453E
:100F100058BF22EA0C04B460C4F201052A689B029F
:100F200042EA0C0458BF22EA0C042C605CE703B0D0
:100F3000BDE8F08F2DE9F04F82B000F13E4241F262
:100F4000000702F1FF72C4F20207072601914FEA7F
:100F5000B223B84208BF042643F60041042B38BF31
:100F60004FEAB226C4F2010100F1200900960024E4
:100F7000002600254FF00F0806E000BF01350236BD
:100F8000102D04F104044FD0012202FA05FC019A4D
:100F90001CEA020EF2D002680323B3409A436FF0BA
:100FA0000307026007EA550A04F01C0259F80AB068
:100FB00008FA02F22BEA020249F80A2082689A43F0
:100FC0008260426822EA0C024260C2689A43C260B0
:100FD000A1F57E7325F003029F5804F00C0208FA75
:100FE00002FC07EA0C0A009F07FA02F29245C5D1FB
:100FF000AA0853F8227027EA0C0743F822700A68FF
:1010000043F60C4322EA0E020A604A68C4F2010366
:1010100022EA0E024A608A6822EA0E028A601A6890
:1010200022EA0E021A60A9E702B0BDE8F08F00BF05
:101030000069084018BF0120704700BF002A08BFA0
:1010400009048161704700BF4269514041617047A6
:1010500081B04FF480320092009A0A430092009AC5
:10106000C261C1610099C161C1690091C06901217A
:1010700000F4803081EA104001B0704743F614411B
:10108000C4F201010A68024214BF0860704700F010
:1010900001B800BF70470000704700BF704700BF35
:1010A000704700BF704700002DE9F04F8DB0002859
:1010B0004FF001057BD00446032084F8B903204695
:1010C00004F0DAFF206802F07DF9206804F11C0BBF
:1010D0000C90606804F1080E0B90D4E90C109BE8AA
:1010E000800F9EE84C50CDE9081003A880E88007E7
:1010F000DDE90B108DE84050CDF81CB002F004F98A
:1011000020680021002602F065F90020002100BFC0
:1011100022181C3082F83810D187B0F5D27F01F147
:10112000010182F8395082F83B60C2E91066D6644A
:10113000EED12068002100F582700022002300BF5C
:10114000A7181C3287F8F91187F8F831FB8787F860
:10115000FB11C7E98011C7F80C1240F82310B2F553
:10116000D27F03F10103EBD12068271D0C90D4E955
:101170000C5004F1140E04F1240A8ECF9EE840585E
:101180009AE80007CDE9085002A880E800580C98BA
:10119000CDE90076CDE90589CDF81CA002F030F943
:1011A000012084F8B903206802F0AEFD002528462E
:1011B0000DB0BDE8F08F00BF704700BF002804BF2E
:1011C0000120704710B50446032084F8B90394F851
:1011D000B80301280ED02068012184F8B81302F06A
:1011E000F1F8206802F042FD206802F08DFD002039
:1011F00084F8B803204604F047FF002084F8B903C0
:1012000010BD00BF90F8B813012904BF0220704739
:1012100010B50168012280F8B8230446084602F0A0
:10122000D1F8206802F022FD206802F06DFD002058
:1012300084F8B80310BD00BF704700BF90F8B81322
:10124000012904BF0220704710B50168012280F80F
:10125000B8230446084602F04BFD206802F0AAF8C5
:10126000002084F8B80310BD2DE9F04F87B0D0F806
:1012700000A08146504602F083FD10B107B0BDE8E2
:10128000F08FD9F8000002F04BFD0028F6D0D9F815
:10129000000002F045FD800705D5D9F8000041693E
:1012A00001F002014161D9F8000002F039FD0003AC
:1012B00057D5D9F8000002F037FD002851D0064676
:1012C00009F56F700AF5306409F5047B4FF00008EA
:1012D00006900BE0E80644BF1020A06008F101086A
:1012E000760804F120040BF11C0B3CD0F007F5D07C
:1012F000D9F800005FFA88F7394602F025FD054667
:10130000C0071BD00120A060D9F8100001280AD125
:1013100020695BE904126FF3DF40081ACBF8000084
:1013200050184BF80C0C4846394604F0C7FED9F863
:101330001000012808BFB8F1000F07D02807C9D551
:10134000484604F0B3FE0820A060C3E7D9F80C02B9
:101350000028F3D1D9F80000069A012102F030FDEF
:10136000ECE74FF00008D9F8000002F0D9FC400388
:1013700040F1C680D9F8000002F0DEFC002800F041
:10138000BD80064609F138000AF51064059009F59C
:101390006F704FF000080290CDE9034A0DE000BFE6
:1013A000B9F1000FD146DDE9034A00F0938000BF98
:1013B000760808F1010800F0A380F007F8D0D9F80A
:1013C00000005FFA88F1069102F0C6FC0546C007EE
:1013D00022D0DAF83408012202FA08F18843CAF868
:1013E000340804EB48108260D9F81000012808D1B5
:1013F0000599C8EBC80001EB8000D0E90212114446
:10140000C1600699484604F065FED9F8100001282D
:1014100008BFB8F1000F66D0280742BF04EB4810A0
:1014200008218160E80642BF04EB4810102181606A
:10143000680642BF04EB481040218160A80742BF04
:1014400004EB4810022181602806B1D50599C8EB4C
:10145000C80001EB8004D9F80050D4E90501CA4660
:10146000D4F80890401A05EB4811484538BF81462A
:10147000D1F8180909F1030280B2B0EB920F8FD9AD
:10148000D4E9050282428BD201F5106BD4E90291B6
:10149000801A48459AF8107038BF8146069A1FFA9C
:1014A00089F32846009702F0F1FAE068A169484400
:1014B000E06001EB0900A061DBF8180009F103010D
:1014C00080B2B0EB910F7FF66BAFD4E90502824298
:1014D000DCD365E7D5F83408012101FA08F1884327
:1014E000C5F8340864E7D9F84C00002894D1D9F83D
:1014F0000000029A012102F063FC8DE74FF0000822
:10150000D9F8000002F00CFCB0F1FF3F0EDCDAF875
:10151000040820F00100CAF80408484604F0FEFD63
:10152000D9F80000416901F000414161D9F800009B
:1015300002F0F6FB00050CD5DAF80808C00702D067
:10154000484604F0E7FDD9F80000416901F4006164
:101550004161D9F8000002F0E3FBC00444D5DAF899
:101560000408102120F00100CAF80408D9F800008E
:101570000AF5006401F0F8FFD9F8040048B10AF553
:101580001061FF228A60C1F80822013801F12001B0
:10159000F8D14FF0FF30A061E069842240F00110E3
:1015A000E061D9F83010D9F80000002908BF1422F2
:1015B000A3584FF0440143F00B0308BF1021A35080
:1015C000625842F00B026250216809F56F7221F4F3
:1015D000FE61216099F8101002F0F2FBD9F80000CA
:1015E000416901F480514161D9F8000002F098FB93
:1015F000800440F1B280D9F8000002F0C5FBD9F8B0
:101600000000C16821F47051C16001F0CFFFC0B18A
:101610000320C9F80C004020C9F8140000F0B8FD00
:1016200045F24031CFF6277143F2FF420144C0F248
:101630000C02914213D8D9F80000C16841F47051EE
:1016400081E00020C9F80C004FF40070D9F80010B8
:10165000C9F81400C86840F41050C86074E041F63E
:101660004061CFF61B7144F23F220144C0F20F02E9
:10167000914205D8D9F80000C16841F4605162E098
:10168000A0F5740144F67F72A1F51051C0F2120268
:10169000914205D8D9F80000C16841F4505152E098
:1016A000A0F183714DF21F62A1F5E741C0F2130270
:1016B000914205D8D9F80000C16841F4405142E098
:1016C0004BF26061CFF6E5614EF25F320144C0F249
:1016D0001602914205D8D9F80000C16841F4305192
:1016E00031E04DF20031CFF6CE6147F23F72014456
:1016F000C0F21B02914205D8D9F80000C16841F43C
:10170000205120E045F6C031CFF6B36149F2BF1257
:101710000144C0F22102914205D8D9F80000C16805
:1017200041F410510FE0A0F1B77147F21F52A1F53B
:101730005851C0F23802914200F2A380D9F800005B
:10174000C16841F40051C160484604F0D1FCD9F8A9
:101750000000416901F400514161D9F8000002F034
:10176000DFFAC00636D5D9F80000816921F01001F2
:101770008161DAF8205005F00F00C0EBC00009EBE2
:101780008001C5F34340062801F5FC7411D00228FE
:101790001AD147F6F07015EA000615D0E168350950
:1017A00050462A4602F00AFAE06800EB1610E060A4
:1017B00007E009F56F715046082202F0FFF9C5F302
:1017C0000A15A0692844A061D9F80000816941F098
:1017D00010018161D9F8000002F0A2FA000708D5D3
:1017E000484604F081FCD9F80000416901F0080185
:1017F0004161D9F8000002F093FAC0020AD55FFAFD
:1018000088F1484604F092FCD9F80000416901F4DF
:1018100080114161D9F8000002F082FA80020AD5F5
:101820005FFA88F1484604F07DFCD9F80000416970
:1018300001F400114161D9F8000002F071FA400092
:1018400008D5484604F076FCD9F80000416901F05B
:1018500080414161D9F8000002F062FA40077FF54B
:101860000DADD9F800004468600702D5484604F081
:1018700065FCD9F8000041682143416007B0BDE82C
:10188000F08F45F2E042D9F80010CFF6596249F6E0
:10189000DF430244C868C0F241039A428CBF40F45F
:1018A000C05040F4E050D8E6704700BF704700BF1A
:1018B000704700BF704700BF704700BF704700BF50
:1018C000704700BF704700BF704700BF704700BF40
:1018D000704700BF90F8B813012904BF0220704779
:1018E00010B50168012280F8B8230446084602F0CA
:1018F000FFF9002084F8B80310BD00BF90F8B813BA
:10190000012904BF0220704710B50168012280F848
:10191000B8230446084602F0F7F9002084F8B8031B
:1019200010BD00BF90F8B823012A04BF0220704701
:1019300010B50268012380F8B8330446104602F05F
:10194000C5F9002084F8B80310BD00BFB0B501F0A0
:101950007F0E8C4611F08004CEEBCE0100EB8101AE
:10196000CCEBCC0501F1380100EB850508BF05F58E
:10197000FC714FEADC15002C81F800E04D708A60A4
:10198000CB7018BFA1F806E0022B04BF00220A7139
:1019900090F8B823012A04BF0220B0BD02680123D9
:1019A00080F8B8330446104601F020FE002084F889
:1019B000B803B0BD10B501F07F0C0A46CCEBCC01EA
:1019C00000EB8101C2EBC203383100EB830E13063A
:1019D00058BF0EF5FC7190F8B833D209012B81F88D
:1019E00000C04A7004BF022010BD0268012380F8C5
:1019F000B8330446104601F09FFE002084F8B80377
:101A000010BD00BF10B501F07F0CCCEBCC0100EB9A
:101A1000810E0024CEE9833403690EF5FC71CEF803
:101A200004228EF8F941012B8EF8F8C108BF0A6133
:101A30000068DAB2BCF1000F03D001F035FF0020DE
:101A400010BD02F037F8002010BD00BF01F00F01FB
:101A5000C1EBC10100EB8100B0F81002704700BF7C
:101A600080B501F07F0CCCEBCC0100EB810101F8DB
:101A700038CF4FF0000EC1E9053E03694FF0010E6B
:101A8000CA60012B81F801E008BF0A610068DAB280
:101A9000BCF1000F03D001F007FF002080BD02F071
:101AA00009F8002080BD00BFB0B501F07F050A46EF
:101AB000044648B2C5EBC50104EB8103C2EBC20189
:101AC00004EB810101F5FC71002848BF03F13801E6
:101AD00094F8B8030123D20901288B700D704A7065
:101AE00004BF0220B0BD206884F8B83302F076F855
:101AF0002DB92068217C04F56F7202F061F9002095
:101B000084F8B803B0BD00BFB0B501F07F030A464A
:101B10004FFA81FCC3EBC30100EB8104C2EBC201AD
:101B200000EB810101F5FC71BCF1000F48BF04F12D
:101B300038010B7090F8B8330024D209012B8C7057
:101B40004A7004BF0220B0BD0268012380F8B83398
:101B50000546104602F062F8204685F8B843B0BD4D
:101B600010B5044690F8B803012804BF022010BD48
:101B70004BB220680122B3F1FF3F84F8B82302DDA5
:101B800001F004FD03E001F07F0101F0EDFC002015
:101B900084F8B80310BD00BF0068D0F80818C90762
:101BA00005D0D0F8041841F00101C0F80418002055
:101BB000704700BF0168D1F8040820F0010200203E
:101BC000C1F80428704700BF90F8B90370470000BF
:101BD000B0B5D0F800E0DEF82400C1B1DEF828305E
:101BE000B1F1010C00EB134309D00EF580704942AE
:101BF00050F8044F01314D1C03EB1443F8D143EA74
:101C000002400EEB8C01C1F804010020B0BD40EA97
:101C10000240CEF828000020B0BD00BF02680020BE
:101C200051627047704700BFF0B581B0044600783C
:101C300043F60006C007C4F2020644D0B06800F0C4
:101C40000C00042805D1306880033CD56068D0BB07
:101C500064E0B06800F00C00082802D1706840020F
:101C6000F1D465683068B5F5A02F05D0B5F5803F93
:101C700009D140F480300CE040F4802030603068BE
:101C800040F4803005E020F480303060306820F48B
:101C90008020306002F004FF002D054610D000BF08
:101CA000306880030FD402F0FBFE401B6428F7D994
:101CB000EFE000BF02F0F4FE401B642800F2E98070
:101CC00030688003F6D42078800718D5B06810F00B
:101CD0000C0F07D0B06800F00C00082857D17068CE
:101CE000400254D43068800702D5E068012815D13D
:101CF0003068216920F0F80040EAC10030602078A7
:101D000000070ED42078400721D4A569002D00F0EB
:101D1000EF80B06800F00C0008286BD1012001B002
:101D2000F0BD6069002851D00020C4F24720012195
:101D3000C0F8801E02F0B4FE054600BF706F800739
:101D4000E0D402F0ADFE401B0228F7D9A1E000204C
:101D50000090306C47F2000740F080503064306CE7
:101D6000C4F2000700F0805000900098386840F4FA
:101D70008070386002F094FE054600BF3868C005E8
:101D80001BD402F08DFE401B0228F7D981E0E068E9
:101D9000002840F20000C4F247204CD0012101602D
:101DA00002F07EFE054600BF30688007A0D402F036
:101DB00077FE401B0228F7D96BE0A568306F052D30
:101DC00048D0012D4DD140F0010050E00020C4F278
:101DD00047200021C0F8801E02F062FE054600BFC9
:101DE000706F80077FF58EAF02F05AFE401B02280D
:101DF000F6D94EE00027C4F247270020386602F0EB
:101E00004FFE022D05460BD1306880014FD502F000
:101E100047FE401B02284FF00300F5D966E000BFE3
:101E20003068800164D502F03BFE401B03284FF070
:101E30000300F5D35AE00021016002F031FE0546AF
:101E4000306880077FF55BAF02F02AFE401B022856
:101E5000F6D91EE040F004003067306F40F001001A
:101E600005E020F001003067306F20F0040030679B
:101E700002F016FE002D054641F2883713D000BF50
:101E8000306F80073FF541AF02F00AFE401BB842B9
:101E9000F6D9032001B0F0BD02F002FE401BB842AB
:101EA0004FF0030022D8306F8007F5D42DE704F1FE
:101EB0001C052FCD084340EA8210D9034FF6FF726C
:101EC0009143A1F5803140EA05600843706001202C
:101ED000386602F0E5FD04463068800108D402F05F
:101EE000DFFD001B02284FF00300F5D901B0F0BD63
:101EF000002001B0F0BD00BF2DE9F04143F6080716
:101F0000C4F20207D7F8F8230D4602F00F01A942E8
:101F1000044607D287F8F853D7F8F80300F00F000B
:101F2000A8425AD12068810705D53968A26821F0F6
:101F3000F00111433960C00735D1D7F8F80300F03C
:101F40000F00A84207D987F8F853D7F8F80300F034
:101F50000F00A84241D12068410705D53968E268E1
:101F600021F4E05111433960000706D53868216932
:101F700020F4604040EAC100386000F07DF8396824
:101F800046F66C72C1F30311C0F60002515CC84002
:101F900040F20C01C2F2000108600F20FEF734F994
:101FA0000020BDE8F0816068811E022907D257F841
:101FB000081C89015CBF0120BDE8F08110E0012808
:101FC00007D157F8081C89035CBF0120BDE8F081E8
:101FD00006E057F8081C890702D40120BDE8F0810B
:101FE000396821F003010843386002F059FD616847
:101FF0000646012941F2883837D0022927D0032923
:102000000ED100BF386800F00C000C2895D002F00B
:1020100047FD801B40454FF00300F3D9C1E700BFE7
:10202000386810F00C0F3FF488AF02F039FD801BC8
:1020300040454FF0030088BFBDE8F081F0E700BFE6
:1020400002F02EFD801B40454FF00300A9D83868F0
:1020500000F00C000828F3D16FE700BF02F020FD6C
:10206000801B40454FF003009BD8386800F00C00FF
:102070000428F3D161E700BF43F60401C4F2020172
:10208000486800F00C0242F20040082AC0F2F40056
:1020900007D0042A18BF704741F20020C0F27A002E
:1020A0007047D1F800C00B680A685B0241F2002358
:1020B0000CF03F0CC0F27A0358BF0346B3FBFCF0B0
:1020C0000968C2F388125043C1F30141022202EBB6
:1020D0004101B0FBF1F0704770B586B043F63006B1
:1020E000002840F2000014460D46C4F20206C4F275
:1020F00002004FF000011FD00191326800F500602E
:1021000042F004023260326802F004020192019A45
:102110004FF400720192022202920322CDE90312CF
:10212000059101A9FEF73EFE56F8280C20F07840F4
:1021300040EAC40028431BE00191326842F00102EA
:102140003260326802F001020192019A4FF480720B
:102150000192022202920322CDE90312059101A904
:10216000FEF720FE56F8280C20F0EC6028432043B0
:1021700046F8280C06B070BD4C20C4F2472001215F
:10218000016070474C20C4F2472000210160704775
:1021900040F20C00C2F200000068704740F20C00F0
:1021A00043F60801C2F20000C4F2020100680968A7
:1021B00046F67C72C1F38221C0F60002515CC84031
:1021C000704700BF40F20C0043F60801C2F2000065
:1021D000C4F202010068096846F67C72C1F342311C
:1021E000C0F60002515CC840704700BF43F60001D2
:1021F0000F22C4F2020102600A68520306D40A6880
:10220000D20354BF00224FF4803201E04FF4A022E9
:1022100042600A6802F00102C2600A68C2F3C402A6
:1022200002610A6F520705D40A6FD2070CBF002261
:10223000012200E0052282604A6F4FF4C02302F0C1
:10224000010242610A68D2014FF0020258BF012226
:1022500082614A6802F48002C2614A6802F03F0269
:1022600002624A68C2F3881242624A6803EA420282
:1022700002F50032120C82624968C1F30361C16247
:10228000704700BF0F22026043F60802C4F2020248
:10229000136803F003034360136803F0F0038360E3
:1022A000136803F4E053C360D2F800C04FF4E05366
:1022B00003EADC030361D2F8F80300F00F000860C2
:1022C000704700BF10B543F60C04C4F20204206846
:1022D000000658BF10BD00F003F88020A07010BDAC
:1022E00070470000002804BF0120704710B5044665
:1022F00090F8390028B9002084F83800204600F012
:1023000021F8242084F839002068C16821F40051A4
:10231000C160204600F018F82068016921F490415E
:102320000161416921F02A014161C16841F4005114
:10233000C16000202021E06384F8391084F83A104D
:1023400010BD00BF704700BF2DE9F04381B00446C7
:102350000068D4E90212E369076948F21F5827F4BC
:1023600040573A430261C26849F20C67BA43D4E964
:1023700004761143394331431943C1604169A2696D
:1023800021F440711143416141F20041B3F5004F26
:10239000C5F2EB1840F48060C4F2010138D18842E4
:1023A0006ED1FFF70FFF6168192778434900B0FB32
:1023B000F1F0A0FB08016FF00F0000EA5106FFF7F3
:1023C00001FF616878434900B0FBF1F5FFF7FAFEC1
:1023D000616878434900B0FBF1F04FF06409A0FB5D
:1023E0000801480900FB1950322101EBC000A0FB95
:1023F00008014FF4F87000EA11100644FFF7E2FEFE
:10240000616878434900B0FBF1F5FFF7DBFE6DE052
:10241000884278D1FFF7D6FE616819277843890092
:10242000B0FBF1F0A0FB08016FF00F0000EA5106CD
:10243000FFF7C8FE616878438900B0FBF1F5FFF74C
:10244000C1FE616878438900B0FBF1F04FF0640988
:10245000A0FB0801480900FB1950322101EB0010D4
:10246000A0FB0801F02000EA51100644FFF7AAFE85
:10247000616878438900B0FBF1F5FFF7A3FE77E0D0
:10248000FFF78CFE6168192778434900B0FBF1F033
:10249000A0FB08016FF00F0000EA5106FFF77EFE77
:1024A000616878434900B0FBF1F5FFF777FE61689A
:1024B00078434900B0FBF1F04FF06409A0FB08013C
:1024C000480900FB1950322101EBC000A0FB0801B4
:1024D0004FF4F87000EA11100644FFF75FFE6168E0
:1024E00078434900B0FBF1F5FFF758FE6168784387
:1024F0004900B0FBF1F0A0FB0801480900FB1950AE
:102500000721C00040E0FFF749FE616819277843C2
:102510008900B0FBF1F0A0FB08016FF00F0000EAAA
:102520005106FFF73BFE616878438900B0FBF1F587
:10253000FFF734FE616878438900B0FBF1F04FF09B
:102540006409A0FB0801480900FB1950322101EB86
:102550000010A0FB0801F02000EA51100644FFF72C
:102560001DFE616878438900B0FBF1F5FFF716FEA8
:10257000616878438900B0FBF1F0A0FB08014809CD
:1025800000FB19500F2100013230A0FB080201EAC4
:10259000521021683043886001B0BDE8F08300BF6D
:1025A000002804BF0120704710B5044690F8390098
:1025B00028B9002084F838002046FFF7C3FE242005
:1025C00084F839002068C16821F40051C1602046B8
:1025D000FFF7BAFE2068016921F490410161416969
:1025E00021F022014161416941F008014161C16866
:1025F00041F40051C16000202021E06384F83910CB
:1026000084F83A1010BD00BF002804BF01207047B5
:10261000B0B5044690F839000D4628B9002084F87A
:1026200038002046FFF78EFE242084F83900206809
:10263000C16821F40051C1602046FFF785FE206883
:10264000016921F400610161416921F02A014161C0
:10265000016941F480410161016921F020010161BA
:10266000016929430161C16841F40051C160002042
:102670002021E06384F8391084F83A10B0BD00BF1F
:10268000002804BF0120704770B5044690F8390057
:1026900015460E4628B9002084F838002046FFF77A
:1026A00051FE242084F839002068C16821F40051CB
:1026B000C1602046FFF748FE2068016921F490417F
:1026C0000161416921F02A014161016921F00F0195
:1026D0000161016931430161C16821F40061C16098
:1026E000C1682943C160C16841F40051C160002044
:1026F0002021E06384F8391084F83A1070BD00BFDF
:10270000002804BF0120704710B5242180F839103B
:10271000044600F009F80020E06384F8390084F8EA
:102720003A0084F8380010BD704700BF2DE9F04131
:10273000044690F8390020280CD10F4600294FF0AC
:10274000010018BF002A01D1BDE8F08194F83800DB
:10275000012802D10220BDE8F081012084F8380070
:102760000020E06321201D4684F83900164602F05F
:1027700097F9A684E684E18C8046002943D06E1C3C
:1027800006E000BF17F8010B21684860E08CD0B369
:10279000E08C0138E0842068A1680068B1F5805FB2
:1027A00004D1000616D496B15DB934E00006E9D430
:1027B0003EB305BB2FE000BF016809060AD4002E16
:1027C000FAD002F06DF9A0EB0800A84223D82068E7
:1027D000F2E700BF3888216922686FF35F20002983
:1027E000506014BF01370237D0E700BF0168090607
:1027F000C8D4002EFAD002F053F9A0EB0800A8428A
:1028000009D82068F2E720680068400620D415B196
:102810006E1C10D015E02068C16821F4D071C16031
:10282000416921F001014161202084F8390084F8D8
:102830003A00032010E020680168490608D4002E01
:10284000FAD002F02DF9A0EB0800A842F3D9E2E794
:10285000202084F839000020002184F83810BDE8D9
:10286000F08100BF2DE9F04381B0044690F83A00B2
:1028700020280DD10E4600294FF0010018BF002A74
:1028800002D101B0BDE8F08394F83800012803D1EB
:10289000022001B0BDE8F083012084F838004FF039
:1028A000000822201D46C4F83C8084F83A001746F0
:1028B00002F0F6F8A785E785E18D00294BD0814627
:1028C0006F1C0AE0206821694068002918BF00F0E9
:1028D0007F0006F8010BE08DE8B3E08D0138E0855C
:1028E0002068A1680068B1F5805F05D1800617D423
:1028F0009FB165B931E000BF8006E3D44FB315BB8B
:102900002BE000BF016889060AD4002FFAD002F03C
:10291000C7F8A0EB0900A8421FD82068F2E700BF63
:1029200020682169406819B1C0B226F8010BD2E7CE
:102930006FF35F2026F8020BCDE700BF0168890620
:10294000C0D4002FFAD002F0ABF8A0EB0900A842E7
:1029500003D82068F2E700200CE02068C16821F469
:10296000D071C160416921F001014161202084F8EA
:1029700039000320202184F83A1084F8388001B00F
:10298000BDE8F08390F83930202B0BD100294FF0AF
:10299000010318BF002A01D11846704790F838305B
:1029A000012B02D102231846704701620023212126
:1029B0008284C284C36380F83910016880F838309B
:1029C000C86840F08000C86018467047034690F819
:1029D0003A0020280AD100294FF0010018BF002A30
:1029E00000D1704793F83800012801D102207047C8
:1029F0009962002022219A85DA85D86383F83A10FB
:102A0000196883F838004A6942F001024A61CA68CD
:102A100042F49072CA60704790F83930202B1CBF86
:102A200002207047B0B5964600294FF0010218BF4A
:102A3000BEF1000F03D1BDE8B0401046704790F8DA
:102A40003820012A01D10222F5E7012280F838203E
:102A5000002221230162A0F824E0A0F826E0C2634E
:102A600080F83930D0F830C042F6B12442F6D9258A
:102A7000C0F60004C0F600050368CCE90F4542F635
:102A8000E124C0F60004CCE913421A1D0446604656
:102A90007346FDF713FF206800226FF040010160CC
:102AA00084F83820416941F080014161C3E700BFEB
:102AB0000168806B0968C90548BF00F0A3BB00210D
:102AC000C1840068416921F080014161C16841F021
:102AD0004001C160704700BF806B00F095BB00BF34
:102AE000806B01684A6990F83930212B0BD112F0C4
:102AF000800208D00022C284CA6822F0C002CA60E4
:102B0000202280F839204A6990F83A30222B0FD1E0
:102B100012F040020CD00022C285CA6822F49072E2
:102B2000CA604A6922F001024A61202180F83A1005
:102B3000C16B41F01001C16300F062BB90F83A3004
:102B4000202B1CBF02207047B0B582B096460A46C3
:102B500000294FF0010118BFBEF1000F04D102B0EF
:102B6000BDE8B0400846704790F83810012901D1FF
:102B70000221F4E7012180F838100021222382622B
:102B8000A0F82CE0C16380F83A30D0F834C042F6A7
:102B9000ED3442F62545C0F60004C0F60005036892
:102BA000CCE90F4542F6E124C0F60004CCE913411C
:102BB000191D044660467346FDF780FE0021019111
:102BC00020680268019242680192019A84F83810E4
:102BD000C26842F48072C260426942F001024261FE
:102BE000426942F040024261B9E700BF0168806B70
:102BF0000968C90548BF00F009BB0021C18501680B
:102C0000CA6822F48072CA604A6922F001024A61ED
:102C10004A6922F040024A61202180F83A1000F00F
:102C2000F5BA00BF806B00F0F3BA00BF90F838101F
:102C3000012904BF022070470122016880F8382072
:102C40004A6990F83930212B06D112F0800203D066
:102C50004A6922F080024A614A6990F83A30222B90
:102C60000ED112F040020BD0CA6822F48072CA6002
:102C70004A6922F001024A614A6922F040024A612F
:102C8000002180F838100020704700BF90F83810FD
:102C9000012904BF02207047012180F8381090F804
:102CA0003910212904D101684A6942F080024A6141
:102CB00090F83A10222915D181B0002100910168C5
:102CC0000A6800924A680092009ACA6842F48072C8
:102CD000CA604A6942F001024A614A6942F0400210
:102CE0004A6101B0002180F838100020704700BF11
:102CF00010B504460068416994F83920212A13D19F
:102D000011F0800110D0416921F080014161206BF8
:102D1000002818BFFDF728FE2068C16821F0C00117
:102D2000C160202084F839002068416994F83A2075
:102D3000222A17D111F0400114D0416921F040013D
:102D40004161606B002818BFFDF70EFE2068C16866
:102D500021F49071C160416921F00101416120209D
:102D600084F83A00002010BD10B504460068C16820
:102D700021F4F071C160416921F0010141614169B3
:102D8000090609D5416921F080014161206B18B124
:102D900000210165FDF7E8FD20684169490609D574
:102DA000416921F040014161606B18B1002101656A
:102DB000FDF7DAFD00202021E084E085E06384F85F
:102DC0003A1084F8391010BD10B504460068C16887
:102DD00021F0C001C1604169090609D5416921F0AE
:102DE00080014161206B18B100210165FDF7BCFD38
:102DF00000202021E08484F8391010BD10B504466D
:102E00000068C16821F49071C160416921F001013D
:102E100041614169490609D5416921F0400141619B
:102E2000606B18B100210165FDF79EFD0020202197
:102E3000E08584F83A1010BD10B501680446006BB7
:102E4000CA6822F4F072CA604A6922F001024A613B
:102E500040B14A6942F6E1631206C0F6000303EA94
:102E6000E2720265626B4AB14B694FEA436C42F60B
:102E70000973C0F6000303EAEC7313654A6912068E
:102E80000BD54A6922F080024A6130B1FDF7B2FDEC
:102E90004FF0000110B1206B0165012120684269EB
:102EA00052060DD5426922F040024261606B38B192
:102EB000FDF7A0FD4FF0000110B1606B016501212D
:102EC00059B10020E084E085E063202084F83900D7
:102ED00084F83A00204600F02BF8002010BD00BF17
:102EE000806B0021D0E90C3219651AB1126D002AED
:102EF00018BF7047C184C185C163202180F8391093
:102F000080F83A1000F014B8806B0021D0E90C234F
:102F100019651AB1126D002A18BF7047C184C185A6
:102F2000C163202180F8391080F83A10AFF3008097
:102F3000704700BF10B50168CA6822F0C002CA60BD
:102F40004A69120614D54A6922F080024A61016B6F
:102F500071B1044642F68570C0F600000865084667
:102F6000FDF748FD58B1206B016D8847002010BD6A
:102F70000021C184202180F8391000F00BF80020D6
:102F800010BD00BF806B0021C184202180F8391062
:102F9000AFF30080704700BF10B50168CA6822F423
:102FA0009072CA604A6922F001024A614A69520677
:102FB00014D54A6922F040024A61416B71B104465E
:102FC00042F6F170C0F6000008650846FDF712FDF4
:102FD00058B1606B016D8847002010BD0021C1858C
:102FE000202180F83A1000F00BF8002010BD00BF3F
:102FF000806B0021C185202180F83A10AFF300805A
:10300000704700BFB0B501680A68CC684B6902F030
:103010002F05202D04F0200503D115B1BDE8B040E7
:10302000B0E05FEA027C1EBF03F0010E04F490736F
:1030300013EB0E0329D1130616D514F0800313D019
:1030400090F83920212A31D18368026AB3F5805F74
:1030500023D113886FF35F234B600369002B14BFE8
:103060000132023202621CE052061FD514F0400207
:1030700008BFB0BDCA6822F04002CA60202180F8B3
:103080003910BDE8B04000F0BDB8D10718BF14F446
:1030900080710CD1510710D416E0531C03621278D2
:1030A0004A60C28C013A1304C2845DD0B0BDC16BCA
:1030B00041F00101C163510706D5BEF1000F03D0F5
:1030C000C16B41F00201C163910706D5BEF1000F4B
:1030D00003D0C16B41F00401C163BCF1000F06D500
:1030E000BEF1000F03D0C16B41F00801C163C16B99
:1030F0000029DBD0910604D51DB1044600F042F84A
:10310000204601684A69C36B02F0400203F00803DD
:10311000D21823D0CA6822F49072CA604A6922F099
:1031200001024A61202280F83A204A69520624D5D9
:103130004A6922F040024A61416BF1B143F2F51253
:10314000C0F60002044608460A65FDF753FC002855
:10315000ACD0606B016DBDE8B0400847044600F09C
:103160004FF80020E063B0BDC86820F08000C86060
:10317000C86840F04000C860B0BDBDE8B04000F095
:103180003FB800BF90F83A10222918BF70478168F5
:10319000B1F5805F08D102680369816A52687BB12A
:1031A000D2B221F8012B0FE0016802694968002AB8
:1031B000826A18BF01F07F01531C8362117004E022
:1031C0006FF35F2221F8022B8162C18D01390A045D
:1031D000C18500D070470168CA6822F49072CA6045
:1031E0004A6922F001024A61202180F83A1000F079
:1031F0000DB800BF806B0021C185C184AFF3008092
:10320000704700BF704700BF704700BF704700BFE6
:10321000704700BF90F83810012904BF02207047A2
:10322000242180F839100168CA6842F00102CA609E
:10323000202180F83910002180F8381000207047D4
:1032400090F83810012904BF02207047242180F82B
:1032500039100168CA6842F00202CA60202180F871
:103260003910002180F838100020704790F838108D
:10327000012904BF02207047242180F83910016819
:10328000CA6822F00202CA60202180F839100021A9
:1032900080F838100020704790F8381001294FF05E
:1032A00002010DD0242280F839200268D36861F32E
:1032B00083032021D36080F83910002180F8381072
:1032C0000846704790F83810012904BF0220704763
:1032D000242180F8391001680123CA6863F383024E
:1032E000CA60202180F83910002180F838100020B1
:1032F000704700BF90F8391090F83A000843C0B208
:10330000704700BFC06B7047029ADDF800C0012A09
:1033100040F64152C0F2030226D1836B4FF6BF71D3
:1033200023F480338363C368CFF6BD711940C16055
:10333000C168099B21F44011012BC16003D1C16810
:1033400041F48011C1601346013B26D00169B1F1FF
:10335000FF3FF9DC016941F001010161013A1CD034
:103360000169C907FAD118E0C168134641F040016C
:10337000C16000BF013B0DD00169B1F1FF3FF9DC35
:10338000016941F001010161013A1CBF01695FEA75
:10339000C171F9D14FF480318163BCF1010F07D1C4
:1033A000816841F006018160816841F020018160FF
:1033B000002070470146806840F0010200208A60CA
:1033C000704700BF0146806820F0010200208A603B
:1033D000704700BFC268012922F0C042C26003D01A
:1033E00039B94FF0804101E04FF00051C2681143FC
:1033F000C16080B5322001F037FB002080BD00BFE6
:103400002DE9F041DDF834E0876B4FF40026BEF182
:10341000000F08BF4FF40016374387630027089A50
:10342000C0F8007ED0F80078012AC0F8007806D1F4
:10343000D0F80048002B18BF44F0010403E0D0F896
:10344000002842F0030440F64152DDF824C0DDF8C4
:103450001880C0F20302C0F800484FF4846404618D
:10346000144600BF013C02D00569AD06FAD4102411
:10347000046100BF013A02D00469E406FAD40022D4
:103480004FF0FF34C0F81028C0F81428C0F81848CE
:10349000C0F81C2801B300F510644FF09045FF26DA
:1034A0000F4600BF2368013F05EAE37323602261F2
:1034B000A66004F12004F5D100F530624FF090448D
:1034C0000025FF261368013904EAE37313601561D0
:1034D000966002F12002F5D1D0F81018B8F1010F72
:1034E00021F48071C0F810180FD140F20011C0F221
:1034F0008001C0F83018D0F8301841F4803141F024
:103500000301C0F83018D0F83018002181616FF045
:103510008041B8F1000F416103D1816941F0100190
:103520008161816943F60002C8F23C021143BCF19B
:10353000000F816103D0816941F008018161BEF112
:10354000010F05D1816941F0804141F004018161A1
:103550000020BDE8F08100BF0246D0F8000801431A
:103560000020C2F80018704789012031016140F63F
:103570004151C0F2030100BF013904BF032070476D
:10358000026992065CBF00207047F5E710210161D7
:1035900040F64151C0F20301013904BF03207047D6
:1035A0000269D2065CBF00207047F5E7D0F8081822
:1035B00011F0060F04BF00207047D0F8081801F082
:1035C0000601022905D0D0F8081801F006010629E5
:1035D00001D103207047D0F8080800F00600043835
:1035E000B0FA80F040094000704700BF80B54B78CA
:1035F0000A78012B1DD1012303FA02FCD0F81CE844
:103600001FFA8CF343EA0E03C0F81C3800EB42109B
:10361000D0F800391B042BD48B6800F5106091F8AA
:1036200003C001686FF3DF2343EA8C4341EA825110
:1036300018E04FF4803CD0F81CE80CFA02F343EA9F
:103640000E03C0F81C3800EB4210D0F8002B120417
:103650000ED48A6800F53060C9786FF3DF22036802
:1036600042EA8141194341F0805141F40041016037
:10367000002080BD70B504464B780878012B4FEAD6
:1036800040132ED104F5106E5EF8032048F2000CB2
:103690001204C1F2000C0ED48A68CD7853F80E6083
:1036A0006FF3DF2242EA854246EA80552A4342EA26
:1036B0000C0243F80E2040F2B8738A68C2F200038D
:1036C000C9781E686FF3DF2242EA814146EA8052E0
:1036D000114341EA0C011960012101FA00F080B2A6
:1036E00022E004F5306C53F80C20120418D403EBDC
:1036F0000C028B68C9786FF3DF2343EA814141EA0A
:103700008051136801F500410B43136040F2B87318
:10371000C2F20003C3F800C01A601A6811431960AE
:103720004FF4803101FA00F0D4F83C180143002036
:10373000C4F83C1870BD00BF10B54A7891F800C0BD
:1037400040F64153C0F20303012A4FEA4C1125D140
:103750004418D4F800E904F510612EF40042C4F8CE
:1037600000294FF00062C4F800294FF08042C4F8ED
:1037700000291A46013A39D08C686400FAD44FF413
:1037800084610161013B02D001698906FAD40121FB
:1037900001FA0CF189B200F5006222E04218D2F879
:1037A000004B02F5306124F40044C2F8004B4FF0A6
:1037B0000064C2F8004B4FF08044C2F8004B00BFD9
:1037C000013B13D08A68D206FAD4D0F8041800F569
:1037D000006241F48061C0F804184FF4803000FAB0
:1037E0000CF1D0698843D061002010BD032010BDCA
:1037F00010B54A7891F800C040F64153C0F2030377
:10380000012A4FEA4C1125D14418D4F800E904F5F7
:1038100010612EF40042C4F800294FF00062C4F891
:1038200000294FF08042C4F800291A46013A39D0E5
:103830008C686400FAD44FF484610161013B02D0CA
:1038400001698906FAD4012101FA0CF189B200F567
:10385000006222E04218D2F8004B02F5306124F4F5
:103860000044C2F8004B4FF00064C2F8004B4FF028
:103870008044C2F8004B00BF013B13D08A68D206D7
:10388000FAD4D0F8041800F5006241F48061C0F861
:1038900004184FF4803000FA0CF1D0698843D061ED
:1038A000002010BD032010BDB0B54B78012B3BD1DB
:1038B0000B78D1F814C000EB431EDEF81039BCF1D0
:1038C000000F0EF5106E5BD06FF31203CEF81030C0
:1038D000DEF810306FF3DC43CEF810308B68DEF882
:1038E00010500CEB0304013CB4FBF3F30024C1F6CD
:1038F000F87404EAC3432B43CEF810306346DEF875
:1039000010406FF3DF432343CEF81030CB78012B08
:1039100046D1DEF8103023F0C043CEF81030DEF888
:10392000103043F0005339E00B7800EB4313D3F829
:10393000105B6FF31205C3F8105BD3F8105B6FF3E5
:10394000DC45C3F8105BD1F814E0D1F808C0BEF133
:10395000000F03F530635FD00EEB0C05013DB5FBA6
:10396000FCF50024C1F6F87404EAC54E1C69ADB23A
:1039700005FB0CFC44EA0E046FF3DF4C1C6153E0C2
:103980006FF3DC43CEF81030DEF8103043F4002340
:10399000CEF81030DEF810306FF31203CEF810308E
:1039A000012A06D10B780D6900EB4313C3F81459B3
:1039B0000EE0BCF1000F0BD0CB78012B08D00B78B8
:1039C0000125D0F8344805FA03F32343C0F834380E
:1039D000CB78012B10D1D0F808580C78ED0500EB0E
:1039E0004414D4F800E94FF0805558BF4FF000550B
:1039F00045EA0E05C4F8005991F800E0012B00EBF0
:103A00004E14D4F8005945F00445C4F8005908BFD5
:103A1000002A25D00020B0BD1D696FF3DF4C45EAB8
:103A20000C051D614FF4002C1D69012A45EA0C05A7
:103A30001D6104BFCA685A61C97801290AD1D0F84A
:103A400008081968C0054FF0805058BF4FF000506B
:103A500008431860186840F0044018600020B0BDAA
:103A60004FF6FF721CEA020FD4D0CB68032111FA83
:103A70008CF1890800F580504FEA0E32043B00BFFC
:103A800053F8045F01391550FAD1C3E7DDF800C0DF
:103A9000BCF1000F0CD15BB103339B0800F5805CD7
:103AA0001203043951F8040F013B42F80C00F9D11C
:103AB00000207047B0B54B7840F2000E4FF6FF7C07
:103AC000CFF6F87E012BCEF2070C21D10B784C6992
:103AD00000EB4313D3F81059002C03F5106344D0C6
:103AE00005EA0E051D611D6905EA0C051D618D685D
:103AF000AC4288BF4D611D690CF1005445F40025AE
:103B00001D61D1F814E01D6904EA0E042C4336E06F
:103B10000B780CF1005500EB4310D0F8103B03EA92
:103B20000E03C0F8103BD0F8103B03EA0C03C0F8BA
:103B3000103B4B6900F53060002B1CBF8B684B615C
:103B40000369012A43F4002303618B68046903EAD3
:103B5000050343EA0403036104BFC96841610168C6
:103B600041F0044101600020B0BD05EA0C051D6173
:103B70001D6945F400251D611D6905EA0E041C61DF
:103B80000B78012A00EB4314D4F8005945F00445A2
:103B9000C4F8005905D1086904F510614861002096
:103BA000B0BD49690029DED00121D0F83428994000
:103BB0001143C0F834180020B0BD00BF5AB1033221
:103BC000920804394FF4805C50F80C30013A41F807
:103BD000043FF9D104310846704700BF4A7809789C
:103BE000012A4FEA4111084407D1D0F80019B1F178
:103BF000FF3F00F5106106DC09E0D0F8001B00294A
:103C000000F5306103D4086820F08040086008683F
:103C100040F4001200200A60704700BF4A780B7819
:103C2000012A4FEA431210440DD1D0F8002922F4A2
:103C30000012C0F80029C97801F0FE01022913D151
:103C400000F510600CE0D0F8002B22F40012C0F850
:103C5000002BC97801F0FE01022905D100F5306082
:103C6000016841F080510160002070474FF62061EB
:103C7000CFF6FF71FF2200BF43182031C3F8E82AB6
:103C8000C3F8E82CF8D14FF0FF3240F64151C0F8AC
:103C900018280022C0F20301C0F81028C0F8142828
:103CA000C0F81C28102202610A4600BF013A02D067
:103CB0000369DB06FAD44FF484620261013902D051
:103CC00002699206FAD40020704700BF0246D0F87D
:103CD000000801F07F0120F4FE60C2F80008D2F86D
:103CE000000840EA01110020C2F80018704700BF28
:103CF00080B5D0F8041821F00201C0F804180320A0
:103D000000F0B2FE002080BD80B5D0F8041841F06C
:103D10000201C0F80418032000F0A6FE002080BDB8
:103D20004169806908407047D0F81818D0F81C081D
:103D30000840000C704700BFD0F81818D0F81C08D5
:103D4000084080B2704700BF00EB4111D1F8081B5A
:103D5000D0F8140808407047D0F81028D0F834384C
:103D600000EB4110CB40DB01DBB2D0F8080943EA9D
:103D700002010840704700BF42691143416170472A
:103D8000406900F0010070470146D0F8000940F298
:103D9000FF729043C1F80009D1F8080800F006004E
:103DA000042805D1D1F8000940F00300C1F800094A
:103DB000D1F8040840F480720020C1F8042870474C
:103DC0000023C0F8103BD0F8103B012943F4002336
:103DD000C0F8103BD0F8103B43F01803C0F8103B7C
:103DE000D0F8103B43F0C043C0F8103B02BFC0F80E
:103DF000142B4FF08021C0F8001B0020704700BF3B
:103E0000B0B582B004460020C4F8000EA06B032BAE
:103E100020F48020A063A06B069D20F40020A06306
:103E2000A06B40F40010A063D4F8001440F6415099
:103E300021F004010B4608BF0433C0F20300B4F1C3
:103E4000A04F08BF0B464FF48461C4F800342161D1
:103E5000014600BF013902D023699B06FAD4102124
:103E6000216100BF013802D02169C906FAD45AB1D4
:103E700004F5A0604FF0FF31002300BF8160C360F4
:103E8000013A00F12000F9D1D4F8400401900198E2
:103E900020F02E0001900198C00404D4019840F451
:103EA0008050C4F840040198C82000F0DDFD0020D7
:103EB000A0614FF0FF30B4F1A04F60611BD04FF410
:103EC0000070606240F20020C0F20010A06240F278
:103ED0000030C0F2E000C4F800011DB9A06940F054
:103EE0001000A061A0690821CAF22031014300201E
:103EF000A16102B0B0BD2420C5F2000080210160A4
:103F00008021C0F260014160E021C0F24001C0F8B0
:103F1000DC10002DE6D1E1E781B0D0F84024012982
:103F20000092009A22F02E020092009A08BF12F42A
:103F3000805204D1009A42F48052C0F84024009A82
:103F400039B912F4805104D0009921F48051C0F89D
:103F50004014002001B07047D0F8002401F00303A2
:103F600022F00302C0F80024D0F80024012942EA1C
:103F70000302C0F8002404D0022906D141F2707176
:103F800001E04BF68031C0F804140020704700BFF8
:103F900010B582B00446D0F840040190019820F09A
:103FA0002E000190019840F48070C4F840040A206B
:103FB00000F05AFD019820F480710020C4F84014EC
:103FC00002B010BD81B0D0F8400400900098C0F35A
:103FD000414001B0704700BFD0F8080480B270477C
:103FE0002DE9F041DDE9068E089C00EB411606F54F
:103FF000A06C4FF0FF37BEF1030FC6F808752AD842
:10400000DFE80EF0020F021B40F29D47664655B2F4
:10401000002D46F80C7F19D4B0F1A04F1BD06027BB
:1040200016E040F22525664657B2B7F1FF3F46F845
:104030000C5F10DC4FF4C0770AE040F29D656646E5
:1040400057B2B7F1FF3F46F80C5F04DC4FF48077BE
:1040500035683D4335600125D0F8186405FA01F153
:104060003143C0F818148169B8F1020F41F00071B2
:1040700081614FEAC22047F6000140EA8350C1F651
:10408000C07100EA010002F0800140EA012008BF8F
:1040900000F500300EF0030140EA81406FF3DF24A9
:1040A0002044BEF1030FCCF8000005D1DCF800007D
:1040B00040F00050CCF800000020BDE8F08100BFC7
:1040C000F0B5B0F1A04F02D00B79002B5ED00B6998
:1040D0007BB1B1F808C06344013BB3FBFCF39CB275
:1040E000B4F5807F82BF4FEA0C230B614FF48073DD
:1040F00000E00123CE781EB10C899DB265430D61AD
:10410000D1F810E00024C1F6F874754604EAC34300
:104110008C7A6FF3DF4591F801C02B4404F003045F
:1041200043EA447400EB4C15C5F8104505F5A0634F
:10413000002A1CBFCC685C61D0F808441D6832437B
:1041400025F000551D604FF000551F6825EA4474A6
:1041500044EA07041C601C684FF0020565F39F7475
:104160001C604ED1BEF1000F4BD0CA79032A33D860
:10417000DFE802F002240224C36A0EF10302C2F354
:104180008F029BB29A4227D9202222E0012A3DD0F9
:10419000002A9CD14B79012B35D14978022200EBC2
:1041A00041100021C8F20801C0F81015D0F8001520
:1041B00062F39F71C0F800150020F0BDD0F81034F4
:1041C0000EF10302C2F38F029BB29A4204D94FF060
:1041D000806283691A4382614FF6FF721EEA020F02
:1041E0000FD00322CB6812FA8EF2920800F58050AD
:1041F0004FEA0C31043B00BF53F8047F013A0F50E3
:10420000FAD10020F0BD012A7FF461AF4B7800EBBA
:104210004313D3F80C4524F06004C3F80C45002385
:104220004B7154E700EB41110020C8F20800C1F8BF
:104230001005D1F80025022060F39F720020C1F81C
:1042400000257047D0F8140480B2704700F5A062D2
:104250004901535813F4402F05D08B5803F44023E1
:10426000B3F5002F1AD18B5843F080438B50C36AAB
:10427000885813F47F0F1AD120F000405050505846
:1042800040F00040505040F2E93000BF013803D008
:104290005358B3F1FF3FF9DD002070478B5843F0CE
:1042A00080438B50D0F8103488581B0404D040F061
:1042B000004050500020704720F0004050505058AF
:1042C00040F00040505040F2E93000BF0138E3D0E8
:1042D0005358B3F1FF3FF9DDDEE700BF8168844644
:1042E00040F6415021F00101C0F20300CCF8081063
:1042F0004FF48461CCF81010014600BF013903D09F
:10430000DCF810209206F9D41021CCF8101000BF70
:10431000013803D0DCF81010C906F9D4F0B547F61F
:10432000FF7EC3F6FF7E0CF5A0620020115801EA63
:104330000E0101F1804111502030B0F5007FF5D120
:10434000002340F2E931002004E000BF2846013399
:10435000102B12D05C01155905EA0E0505F14045F8
:104360001551451C8D4298BF0D466E1E8642EDD0FC
:10437000A7580130002FF9D4E9E74FF0FF30CCF80F
:104380001404CCF81400DCF8080040F0010100200F
:10439000CCF80810F0BD000070B592B0002543F6CF
:1043A00040000195C4F202000168012441F08051EF
:1043B00001600068022600F080500190019847F2E9
:1043C00000000195C4F20000016841F44041016021
:1043D000006800F44040019001984FF48030029052
:1043E0004FF480000890082009904FF4C0700A90A4
:1043F00004200B9007200C9001A8019404950796C7
:10440000FDF712FC78B90F200D904FF48050CDE9E4
:1044100010050DA80621CDE90E65FDF76DFD0446DA
:10442000002818BF0124204612B070BD2DE9F04FBE
:1044300081B00029009351D000F1007743F6300697
:1044400007F1FF77C4F20206C7F38F274FF0010888
:10445000356808FA07F72F433760C0F3872740F223
:10446000003B87F0800EA2F1010A0027C2F2000B88
:10447000002604E00136102E07F102072ED008FABC
:1044800006F40C42F6D03BF81E50032325432BF8CC
:104490001E50C56803FA07FC0A9B25EA0C0503FABF
:1044A00007F945EA0905C560056802FA07F325EA38
:1044B0000C052B43BAF1010F0360DBD843686FEAA8
:1044C0000C05A343009CB440A4B22343436083681B
:1044D0002B400B9DBD402B438360CBE701B0BDE873
:1044E000F08F00BF00F1007043F6300200F1FF7062
:1044F000C4F20202C0F38F200121136801FA00F018
:1045000018431060704700BF2DE9F04F81B0C0F331
:10451000872740F2003B87F0800CA2F1010A0026B9
:104520004FF00108C2F2000B0025009305E000BF28
:104530000135102D06F102062ED008FA05F70F42BC
:10454000F6D03BF81C4003233C432BF81C40C468C6
:1045500003FA06FE0A9B24EA0E0403FA06F944EA6B
:104560000904C460046802FA06F324EA0E04234333
:10457000BAF1010F0360DBD84368009CBB43AC4039
:10458000A4B22343436083686FEA0E073B400B9F4E
:10459000B7403B438360CBE701B0BDE8F08F00BF7D
:1045A000002908BF70472DE9F04F00F1007443F671
:1045B000300604F1FF74C4F20206C4F38F2401250F
:1045C000376805FA04F4DDF828E03C43346000F174
:1045D000200A00266FF003084FF00F09002404E0C2
:1045E0000134102C06F1040614D021FA04F5ED076D
:1045F000F6D008EA54055AF805B006F01C0709FA87
:1046000007FC2BEA0C0C0EFA07F747EA0C074AF8EE
:104610000570E5E7C0F3872740F2003C87F0800E85
:1046200000244FF0010AC2F2000C002705E000BF91
:104630000137102F04F102042CD00AFA07F50D42BD
:10464000F6D03CF81E6003FA04F82E432CF81E60E6
:10465000D0F80CB0032606FA04F92BEA090B4BEA52
:104660000806C660066826EA09080226A64046EA49
:1046700008060660466826EA050502FA07F6B6B29D
:10468000354345608568099E25EA0905A6403543FE
:104690008560CDE7BDE8F04F704700BF2DE9F041E0
:1046A000C0F3872240F2003882F0800200234FF0EE
:1046B000010C4FF0030EC2F20008002507E000BF16
:1046C0000135102D03F1020308BFBDE8F0810CFA9B
:1046D00005F60E42F4D007680EFA03F43C4304607A
:1046E00038F81240B44328F81240E9E700F10070AE
:1046F00000F1FF70C0F38F20704700BF10B54FF07E
:10470000000E4FF0030C002306E000BF0133102B16
:104710000EF1020E08BF10BD21FA03F2D207F5D048
:1047200002680CFA0EF4A2430260EFE7B0B5002273
:104730004FF0030C4FF0010E002305E00133102B66
:1047400002F1020208BFB0BD21FA03F4E407F5D07C
:1047500004680CFA02F5AC430EFA02F52C4304602F
:10476000ECE700BF10B54FF0000E4FF0030C002334
:1047700006E000BF0133102B0EF1020E08BF10BD82
:1047800021FA03F2D207F5D002680CFA0EF42243A4
:104790000260EFE7B0B500224FF0030C4FF0020EBD
:1047A000002305E00133102B02F1020208BFB0BD67
:1047B00021FA03F4E407F5D004680CFA02F5AC43DF
:1047C0000EFA02F52C430460ECE700BFB0B54FF0E1
:1047D000000E4FF0030C002306E000BF0133102B46
:1047E0000EF1020E08BFB0BD21FA03F4E407F5D0C4
:1047F000C4680CFA0EF5AC4302FA0EF52C43C46003
:10480000ECE700BF01F58032C261C161C261C169DC
:10481000C06970470021022805D300BF0131032879
:104820004FEA5000FAD888B2704700BF00F100701C
:1048300043F6300200F1FF70C4F20202C0F38F2091
:104840000121136801FA00F023EA000010607047AC
:1048500000F1007000F1FF7040F20031C0F38F20D2
:10486000C2F2000131F81000704700BF00F1007083
:1048700000F1FF7040F20031C0F38F20C2F200015E
:1048800031F810004FF6FF71484070474EF6FC506B
:10489000CEF20000016821F080710160016841F0F2
:1048A0008071016041F20000CEF20000016821F049
:1048B00001010160016841F00101016000214160D6
:1048C000416800BF00BF4068401A70472DE9F043BF
:1048D00081B040F2E818C2F2000898F80040042CB9
:1048E0001ED806461420994615460F4602F002FBD4
:1048F000B0B10899027807F0010302F0FC0265F3F9
:104900004103C0E90391611C1A4488F8001008EBC8
:1049100084010270C0E90166486001B0BDE8F0831F
:10492000002001B0BDE8F08370B540F2E81CC2F28F
:10493000000C9CF8004084B1002100220CEB8103A4
:104940005B6883420ED00132A24201F10101F5D32E
:1049500023461146A34204D007E000230021A342CE
:1049600003D170BD1346A342FBD00CEB810040681D
:10497000EFF31086EFF3108172B69CF80010013946
:1049800099420ADD0CEB8302141D224652F8045FA3
:104990000133256099421446F8DC8CF8001002F0CF
:1049A00081FA002E18BF70BD62B670BD017801F0AB
:1049B000FD010170704700BF017841F002010170F4
:1049C000704700BF41688160704700BF02780029CE
:1049D00018BF012102F0FE0211440170704700BFB0
:1049E00041607047704700BF40F21C30C2F20000C7
:1049F00001680131016040F22030C2F2000001681C
:104A000011B101680139016070B540F2E814C2F2D9
:104A10000004207818B3002504E000BF2078013599
:104A200085421CD204EB850670680028F6D0017818
:104A30008907F3D5816800291CBF0139816081682D
:104A40000029EBD1D0E903219047706801784268D2
:104A5000CB07826004BF01F0FC010170DEE7BDE816
:104A60007040FFF7BFBF00BFEFF3058169B10028B9
:104A700008BF70474EF21001CEF200010A68D2035F
:104A800000EBE2700028F9D108E040F21C31C2F2DC
:104A900000010A680B689B1A8342FBD3704700BF72
:104AA00040F21C30C2F200000068704710B582B0BE
:104AB00040F60044C4F202044FF0030C4FF0000E25
:104AC00020464FF4704101220023CDE900ECFFF7AE
:104AD000ADFC4FF07040A06102B010BD80B582B057
:104AE00000204FF0000C4FF0020EC4F20200012132
:104AF00000220023CDE900ECFFF798FC02B080BD56
:104B00001020C4F20200006840F21A31C007C2F25D
:104B1000000102BF0020087070470878002812BF0B
:104B200000200120087070471020C4F202000068C5
:104B300040F21A31C007C2F2000107D108780028FC
:104B40004FF0000008BF7047012201E00022012061
:104B5000087010467047000000207047F0B583B021
:104B60000024C4F202040A25032620464FF4D05143
:104B700000220023CDE900650027FFF711FD204644
:104B80004FF4806101220123CDE90065FFF708FDA4
:104B900043F64400C4F2020050F8101C002241F019
:104BA000800140F8101C0297016841F480410160C7
:104BB0000068012100F48040029002984320FBF736
:104BC00009FC4320FBF732FC002003B0F0BD00BF1E
:104BD00001207047704700BF40F6EC10C2F20000A1
:104BE000FCF742BB10F0FD0F01D00020704780B5EC
:104BF00040F2C870C2F2000001F0B6FBBDE8804090
:104C00000020704710F0FD0F01D00020704780B5E4
:104C100040F2C870C2F2000001F0ACFBBDE8804079
:104C200000207047411E02290BD346F68C71C0F656
:104C3000000151F8200090F8FC01032804BF002077
:104C400070470120704700BF46F68C71C0F6000126
:104C500051F820007047000040F288101222C2F282
:104C600000000A80704700BF40F29C100422C2F28C
:104C700000000A80704700BF10B540F2B864C2F26D
:104C800000040A4602A0214601F072FE204610BD33
:104C900053544D6963726F656C656374726F6E69AE
:104CA0006373000010B50A4610A140F2B86406A371
:104CB000002808BF1946C2F200040846214601F048
:104CC00057FE204610BD00BF53544D333220566965
:104CD000727475616C20436F6D506F727420696ED1
:104CE000204853204D6F64650000000053544D333D
:104CF00032205669727475616C20436F6D506F720B
:104D00007420696E204653204D6F646500000000DA
:104D100070B547F61020C1F6FF70026883684FF047
:104D20001A0CD218A1F800C031D0406840F2A01C83
:104D30006FF00101C2F2000C4FF0370E002300BFEC
:104D40000CEB01050EEB1276B2F1204F01F10201DE
:104D50004FEA127438BF04F1300612010E292E7189
:104D60006B71EDD10CF1100104224FF0370C0023D0
:104D70000CEB1075B0F1204F4FEA107638BF06F1FA
:104D8000300501F8025F0001013A4B70F0D140F2AA
:104D9000A010C2F2000070BD10B540F2B864C2F2BB
:104DA00000040A4602A0214601F0E2FD204610BDA3
:104DB00056435020436F6E666967000010B540F29D
:104DC000B864C2F200040A4602A0214601F0D0FDF8
:104DD000204610BD56435020496E7465726661636B
:104DE0006500000010F0FD0F01D00020704710B5E5
:104DF00040F2C874C2F2000440F2BC11C2F20001D9
:104E00002046002201F04AFA40F25801C2F20001A5
:104E1000204601F087FA40F26811C2F200012046F4
:104E200001F016FF40F2846040F28442C2F20000BA
:104E3000C2F200024FF4807100F046F940F29C602B
:104E400040F28452C2F20000C2F200024FF48071BC
:104E500000F03AF9BDE810400020704710B510F09E
:104E6000FD0F00D010BD0020FFF7EEFE0446D0F885
:104E70001802D0F81402002818BF10BD40F29C6040
:104E800040F22431C2F20000C2F200014FF48072FD
:104E900000F0E2F90104E5D040F2243182B2C2F21E
:104EA0000001204601F0DCFE2046BDE8104001F084
:104EB000E5BE00BFB0B582B0054640F29C608DF8FB
:104EC0000710C2F200000DF1070101220024002D9D
:104ED00018BF204600F02CF928B315F0FD0F21D1A2
:104EE0000020FFF7B1FED0F81812D1F81412C9B99A
:104EF000044640F29C6040F22431C2F20000C2F24B
:104F000000014FF4807200F0A7F901040AD040F2CA
:104F1000243182B2C2F20001204601F0A1FE2046F7
:104F200001F0ACFE0124204602B0B0BD70B540F2E5
:104F30009C660546C2F20006002808460C4618BFCB
:104F4000002601F032FF02463046214600F0F0F81C
:104F500015F0FD0F84B209D144B10020FFF774FEB3
:104F60000546D0F81802D0F8140208B1204670BDEA
:104F700040F29C6040F22431C2F20000C2F2000113
:104F80004FF4807200F068F90104EFD040F2243150
:104F900082B2C2F20001284601F062FE284601F00A
:104FA0006DFE204670BD00BFB0B5044640F29C6067
:104FB000C2F20000002C18BF002000F0B9F814F075
:104FC000FD0F84B209D144B10020FFF73DFE054634
:104FD000D0F81802D0F8140208B12046B0BD40F253
:104FE0009C6040F22431C2F20000C2F200014FF492
:104FF000807200F031F90104EFD040F2243182B226
:10500000C2F20001284601F02BFE284601F036FED0
:105010002046B0BD80B540F28462C2F20002002892
:1050200018BF00221046012200F016F9002818BF10
:10503000012080BD80B540F28463C2F200030028E5
:1050400018BF0023184600F03DFA80B280BD00BFB3
:1050500080B540F28463C2F20003002818BF002329
:10506000184600F0F9F880B280BD00BF40F2D810B9
:10507000C2F200000B680268934211D191F805C09A
:1050800083799C450CD191F806C043799C4507D1A2
:1050900091F804C003799C4502BF0020C871704795
:1050A0000A600279837940794B71887101200A7115
:1050B000C87170470078002818BF704740F28460BC
:1050C000C2F2000000F034B810B504460020C4E974
:1050D0000010C4E90202C4E904000A20607442B965
:1050E000084601F007FFE06048B1207C40F0020074
:1050F0002074207C40F001002074002010BD0020AE
:105100002060012010BD00BF002808BF7047017C4F
:10511000890708D510B5C1680446084601F0C2FEEB
:105120002046BDE81040002101740160704700BFB7
:105130002DE9F041054600284FF0000008BFBDE80A
:10514000F0811446A2B3D5E90002824224BF0022B6
:105150006A60D5E901239A1A034688BF134638BF0F
:1051600013185A1EA24201D214461AB36A68EB6899
:10517000871A2646A74238BF3E46981832468846C8
:1051800001F001FE6868BC423044686009D9002023
:10519000A71B6860E86808EB06013A4601F0F3FDDA
:1051A0006F60D5E90001814224BF0020686020467D
:1051B000BDE8F0810020BDE8F08100BF002804BFF9
:1051C00000207047D0E90123934208BF01689A1A72
:1051D00088BF11463CBF00688118481E704700BF59
:1051E00000284FF0000318BF002A01D1184670476D
:1051F000D0E900C3634524BF00234360836863454F
:1052000024BF0023836010B5D0E9013EBEEB030E3E
:10521000634688BF734638BF0EEB0C03013B9342D5
:1052200001D21A469BB192B1A1F1010C134600BF05
:105230008168002908BF0168013981601CF803E01A
:10524000C468013B04F801E0F2D1134600E00023FA
:10525000BDE81040184670472DE9F041054600288A
:105260004FF0000008BFBDE8F0811446BAB32868CB
:10527000AA68824224BF0022AA60D5E90137DA1B5E
:1052800038BF00229F4203EB000688BFF21BA242F8
:1052900001D214462AB3D5E902232646871A1A44B6
:1052A000A74238BF3E46884608461146324601F0BE
:1052B0006AFDA868BC423044A86009D9A71B002039
:1052C000E968A86008EB06003A4601F05CFDAF60B3
:1052D0002868A968814224BF0020A8602046BDE854
:1052E000F0810020BDE8F081014600284FF0000069
:1052F0000AD0D1E901C3BCEB030224BF10467047BA
:105300000868ACEB03010844704700BF00281CBFCD
:105310000021C0E901117047002804BF4FF0FF30A1
:105320007047B0B5D0E90123B2EB030E38BF4FF0A0
:10533000000E03D20468D21A02EB040EBEF1000F75
:1053400012D0D0F800C0D0E902230024002000BF12
:10535000624528BF22469D5C8D4208BFB0BD01302A
:10536000864502F10102F3D14FF0FF30B0BD00BF1E
:10537000002804BF4FF0FF3070472DE9F04F81B097
:105380008446D0E90103C51A38BF002503D2DCF8F2
:105390000070C01AC51995424FF0FF3045D3002D5B
:1053A00043D0DCF800E0DCE9023C11F8019B901EE0
:1053B00000904FF0000A4FF0000B002006E0284458
:1053C0006E1C641B964230D0254664B3734528BFDB
:1053D00053461CF8034001334C4508BF4FF0010B06
:1053E0006C1E5FEA0B6600F10100EDD0022A4FF05F
:1053F0000106E7D3002CE5D0009E023DB54228BF50
:1054000035466E1C002500BF734528BF53461CF867
:10541000037011F805804745D1D10135AE4203F143
:105420000103F1D1CCE74FF0FF3001B0BDE8F08FC0
:105430002DE9F04381B004460846894601F0B5FCE9
:10544000002C4FF0000618BF002835D0D4E90072B8
:105450000646BA4224BF00226260D4E901233946DD
:105460009B1A88BF194638BFD9194B1E834201D2F7
:105470001E462BB3E068BD1A3746B54238BF2F46EB
:10548000104449463A4601F07EFC6068AE4238441A
:1054900060600BD90020A6EB07086060E06809EBAC
:1054A0000701424601F06FFCC4F80480D4E9000112
:1054B000814224BF00206060304601B0BDE8F08327
:1054C0000026F9E72DE9F04F83B000284ED0824640
:1054D000D0E90103834208BFDAF800C0181A88BF78
:1054E00084463CBFDAF8003003EB000CDAE9010433
:1054F000B0EB040E38BF4FF0000E04D2DAF80030E3
:10550000001B00EB030EBEF1000F4FF0000600F091
:105510008780DAE90103C41A28BF264603D2DAF8E5
:105520000040C01A0619D6B19AF81190DAF80000B6
:10553000DAF80C404FF00008002700BF834228BF74
:105540004346E55C4D4506D00137BE4203F10103F9
:10555000F4D14FF0FF37F80F964503D308E0012050
:10556000964505D220B1BCF1010F01D0002657E0CD
:10557000501E4FF000034FF0000601904BD000BFCB
:10558000DAF800B0DAF808000C46584528BFCAF827
:105590000830DAE90109B0EB090838BF98468145BF
:1055A00000EB0B0188BFA1EB0908B8F1000F31D067
:1055B000DAF80C50BBEB090718BF012705EB09010E
:1055C0000DF10B003A4601F0DEFB002309EB07006A
:1055D000CB45CAF8080007D1CAF8083028788DF8FA
:1055E0000B000120CAF80800DAF8080021465845E7
:1055F00028BFCAF80830B8F1000F0CD09DF80B0096
:1056000088559AF81120904205D001980136B04291
:10561000B6D100E021460198864218BF01368B556D
:10562000304603B0BDE8F08F002804BF002070476B
:10563000B0B583684FF0000C81B1D0F804E09E450E
:105640000CD00468002500BF01330CF1010CA3420B
:1056500028BF2B468C4501D29E45F5D18C451CBFF9
:105660000020B0BDC068C05C10700120B0BD00005B
:1056700070B590B044F20044C4F20004A04253D08C
:1056800041F20043C4F20103984246D041F20003C4
:10569000C4F2010398423ED1002543F62400009550
:1056A000C4F20200036A164643F010030362036A61
:1056B00003F010030093009B036843F010030360A2
:1056C000036823F010030360084600F0ADFA04F508
:1056D0004C40CDE900060C20CDE90450252006956C
:1056E000CDE902550795FAF7B3FE252006210022E1
:1056F000FAF770FE2520FAF799FE2520FAF790FFB9
:105700006846FCF7EFFD41F20C00C4F201000168AD
:1057100041F02001016010B070BD41F20C00C4F2F4
:10572000010000F57D7003E044F20040C4F2000087
:10573000002310B0BDE8704000E000BF2DE9F04F3D
:1057400093B044F2004AC4F2000A43F62406984695
:1057500091468B4604465045C4F202061DD041F2E4
:105760000000C4F2010084423DD100200390306A61
:1057700040F010003062306A00F01000039003988F
:10578000306840F010003060306820F01000306069
:10579000584600F049FA252538E000200390F069CA
:1057A000BBF1030F40F40030F061F06900F4003009
:1057B0000390039856F8040C40F4003046F8040CAB
:1057C00056F8040C20F4003046F8040C19D0BBF154
:1057D000010F0AD0BBF1000F17D10AF5DE30072701
:1057E00003250C2106E0252510E00AF5E430072703
:1057F0000325602100220123CDE90057FEF7D0FEEA
:1058000003E05046072100F0FDF926250AF5504730
:10581000BC4229D100200390306ABBF1030F40F055
:1058200020003062306A00F0200003900398306856
:1058300040F020003060306820F0200030600ED052
:10584000BBF1000F0FD10AF5E23008260325C02175
:1058500000220123CDE90056FEF7A2FE03E0384600
:10586000082100F0CFF947250C2008900020079070
:10587000CDE905000A902846CDE90349CDF82480FA
:10588000FAF7E6FDA4EB0A00B0FA80F042092846D8
:105890000621BC4208BF0622FAF79CFD2846FAF70B
:1058A000C5FD2846FAF7BCFE03A8FCF71BFDE0681F
:1058B00040F02000E06013B0BDE8F08FF0B591B08B
:1058C00044F20044C4F20004A04254D041F2004526
:1058D000C4F20105A84247D041F20005C4F2010517
:1058E000A8423FD1002643F624000196C4F20200EC
:1058F000056A174645F010050562056A05F01005B2
:105900000195019D056845F010050560056825F0C5
:105910001005056008461D4600F086F904F54C4068
:10592000CDE901070C20CDE9056025200795CDE9DB
:1059300003660896FAF78CFD252006210022FAF767
:1059400049FD2520FAF772FD2520FAF769FE01A826
:10595000FCF7C8FC41F20C00C4F20100016841F000
:105960002001016011B0F0BD41F20C00C4F2010051
:1059700000F57D7003E044F20040C4F2000011B075
:10598000BDE8F040DAE600BF80B582B040F2280101
:1059900040F2100344F20042C2F20001C2F20003DE
:1059A000C4F20002904208BF0B4602F5504140F29B
:1059B0004002C2F20002884218BF1A460DF10701E8
:1059C00010460122FFF748FC9DF80710002808BF89
:1059D0000146C8B202B080BD80B540F2280E40F248
:1059E000100C44F20043C2F2000EC2F2000CC4F2EA
:1059F0000003984208BFF44603F5504E40F24003BE
:105A0000C2F20003704518BF63461846FFF75AFDFF
:105A100080B280BD0A7800BF002A08BF704700BF6F
:105A200003681B06FCD5426002681206FCD511F81B
:105A3000012FF1E7002A08BF704700BF03681B066B
:105A4000FCD50B78013A436003681B06FCD5002A9D
:105A500001F10101F2D1704780B540F2280C40F20B
:105A6000100344F20042C2F2000CC2F20003C4F27E
:105A70000002904208BF634602F5504C40F24002DB
:105A8000C2F20002604518BF1A461046FFF744FCF8
:105A900000B280BDB0B50C4640F2280140F21002C1
:105AA00044F20043C2F20001C2F20002C4F2000359
:105AB000984208BF0A4603F5504140F24005C2F241
:105AC00000058842204618BF154601F06EF90246CF
:105AD00028462146FFF74CFC00B2B0BD80B540F22D
