:020000040800F2
:1000000030090020AD010008017B0008057B0008D5
:10001000097B00080D7B0008117B00080000000030
:10002000000000000000000000000000157B000838
:10003000197B0008000000001D7B0008257B0008DC
:10004000C7010008C7010008C7010008C701000870
:10005000C7010008C7010008C7010008C701000860
:10006000C7010008C7010008C7010008C701000850
:10007000C7010008C7010008C7010008C701000840
:10008000C7010008C7010008C70100080000000000
:10009000000000000000000000000000C701000890
:1000A000C7010008C7010008C7010008C701000810
:1000B000C7010008C7010008C7010008C701000800
:1000C000C7010008C7010008C7010008C7010008F0
:1000D000C7010008A55000081551000800000000E5
:1000E000C7010008C7010008C701000800000000A0
:1000F000000000000000000000000000C701000830
:1001000000000000C7010008C7010008C70100087F
:1001100000000000000000000000000000000000DF
:10012000C7010008C7010008C7010008C70100088F
:10013000C7010008000000000000000000000000EF
:10014000000000000000000000000000C7010008DF
:10015000C7010008C7010008C70100088551000851
:10016000C7010008C70100080000000000000000EF
:10017000000000000000000000000000000000007F
:1001800000000000C701000800000000000000009F
:10019000C7010008C7010008DFF80CD007F04CFDCC
:1001A00000480047697A0008300900200648804767
:1001B00006480047FEE7FEE7FEE7FEE7FEE7FEE74C
:1001C000FEE7FEE7FEE7FEE7297B0008990100084D
:1001D00080B543F60040C4F20200016841F40071AA
:1001E0000160016841F480610160016841F480713F
:1001F0000160032000F0DEF80F2000F005F800F0A9
:100200004BFF002080BD00BF10B540F21001C2F2CC
:100210000001096844F6D352C1F26202A1FB021246
:100220000446900900F03EF94FF0FF3021460022CD
:1002300000F0D0F8002010BD704700BF80B543F635
:100240001000C4F202004FF0FF3100220161026190
:100250004161426101600260416042608160826090
:1002600000F01CFF002080BD704700BF40F22C1042
:10027000C2F20000016801310160704740F22C10A9
:10028000C2F2000000687047B0B582B0019004F07F
:1002900037FB019904464D1C28BF4FF0FF3500BFC6
:1002A00004F02EFB001BA842FAD302B0B0BD00BF81
:1002B0004EF21000CEF20000016821F00201016050
:1002C000704700BF4EF21000CEF20000016841F00E
:1002D00002010160704700BF40F20010C0F2071039
:1002E000704700BF42F20000CEF204000068000C2C
:1002F000704700BF42F20000CEF2040000686FF3C6
:100300001F30704742F20400CEF20400016841F051
:1003100001010160704700BF42F20400CEF2040008
:10032000016821F001010160704700BF42F2040042
:10033000CEF20400016841F002010160704700BF85
:1003400042F20400CEF20400016821F002010160D3
:10035000704700BF42F20400CEF20400016841F091
:1003600004010160704700BF42F20400CEF20400B5
:10037000016821F004010160704700BF40F20040B5
:10038000C4F2272001210160704700BF40F2004005
:10039000C4F2272000210160704700BF47F61021FA
:1003A000C1F6FF710A6802604A684260896881602C
:1003B000704700004EF60C51CEF200010A684FF66D
:1003C000FF031A4060F30A2242F0806040F0FD70A3
:1003D0000860704710B54EF60C5CCEF2000CDCF8ED
:1003E0000030C3F3022E8EF00704042C28BF04242F
:1003F000BEF103034FF0FF3E0EFA04F438BF0023B2
:10040000A14399400EFA03F39A43114300F160426D
:1004100000F00F03090102F56442043B6344002825
:1004200048BF03F10C02117010BD00BF002848BF87
:10043000704700F01F01012202FA01F11C2202EABA
:10044000D0004EF20012CEF200028150704700BF81
:10045000002848BF704700F01F01012202FA01F195
:100460001C2202EAD0004EF28012CEF2000281502D
:10047000BFF34F8FBFF36F8F704700BF00F000F8DE
:100480004EF60C50BFF34F8FCEF2000001680422ED
:1004900001F4E061C0F2FA5211430160BFF34F8FE3
:1004A00000BFFDE7411E0020B0EB116F1CBF012013
:1004B00070474EF21002CEF2000251604EF6235108
:1004C000CEF20001F0230B7007219060116070479D
:1004D0004EF62450BFF35F8FCEF20000016821F486
:1004E0008031016000210167704700BF4EF6245142
:1004F00040F00100CEF200010867086840F4803047
:100500000860BFF34F8FBFF36F8F7047F0B502786D
:100510004EF69C5C4378CEF2000C4CF8043CF2B1F1
:100520004368CCF80030037BC17A90F80AE042EAD5
:100530000372447B42EA0161857B41EACE41C67B7E
:1005400041EA8441477A41EA4541007A41EA06415D
:1005500041EA072141EA4000CCF80400F0BD002048
:10056000CCF80000CCF80400F0BD00BF4EF60C50F3
:10057000CEF200000068C0F30220704710B500F111
:10058000604C4EF614540CF5644C00F00F0ECEF295
:10059000000401F00701002848BF0EEB040C9CF892
:1005A00000E081F00704042C4FEA1E1C28BF04243D
:1005B000033938BF00212CFA01F04FF0FF3C0CFA50
:1005C00004F4A04310600CFA01F0C04300EA1E10CE
:1005D000186010BD002848BF704700F01F010122BD
:1005E00002FA01F11C2202EAD0004EF20022CEF201
:1005F00000028150704700BF002844BF00207047B0
:100600001C214EF2002201EAD001CEF200028958EC
:1006100000F01F0021FA00F000F00100704700BF59
:10062000002848BF704700F01F01012202FA01F1C3
:100630001C2202EAD0004EF28022CEF2000281504B
:10064000704700BF002844BF002070471C214EF2B5
:10065000003201EAD001CEF20002895800F01F00FA
:1006600021FA00F000F00100704700BF4EF21001C7
:10067000CEF200010A68042822F0040208BF043206
:100680000A607047AFF30080704700002DE9F04129
:10069000044604F035F9C4B10546002084F834005E
:1006A000022084F835002068016821F00101016012
:1006B00020680168C9070BD004F022F9401B052807
:1006C000F6D90321202203207AE00120BDE8F08141
:1006D000016848F23F02CFF21002D4E9013501EA85
:1006E000020ED4E9032143EA0E032B43D4E9056C3F
:1006F0001A43D4E907781143314341EA0702616A9A
:1007000042EA0802042942EA0C0303D1D4E90B2788
:100710003A43134303604269042922F0070241EA85
:1007200002012DD1D4E90A5341EA050143B3BCF5D6
:10073000005F08D0BCF1000F12D1022D16D0012DA0
:1007400007D09DB119E0032D17D8DFE805F00B0F96
:100750000B02A3F1C072B2FA82F252094AB90FE059
:10076000032D02D2012222B90AE006D1C3F30062AE
:1007700032B101214022012022E00022002AF8D1DA
:1007800000F0F8024AF6AB23103ACAF6AA23A2FBFD
:10079000033747F65C5341613909C0F60003595CE1
:1007A00040F2FF3398435F2A4FF03F0288BF043086
:1007B000C4E9160102FA01F1816000220121002042
:1007C000626584F83510BDE8F08100BF002804BFE1
:1007D0000120704790F83510022904BF02207047AD
:1007E000B0B501684AF6AB2201F0F803D1F800C0B9
:1007F000A3F11005CAF6AA22A5FB022E2CF00102D5
:100800000A600022212347F65C540A604A608A602D
:10081000CA600A614B614FEA1E13C0F60004E35C34
:1008200040F2FF34A1435F2D4FF03F0588BF0431F4
:10083000C0E9161305FA03F38B60426580F8352092
:1008400080F834200020B0BD90F834C0BCF1010F16
:1008500031D04FF0010C80F834C090F835C0BCF1B5
:10086000010F25D110B54FF0020C80F835C0844639
:100870000020CCF85400DCF800E0DCF808C0DEF81A
:100880000040BCF1400F24F48024CEF80040CEF8A4
:1008900004300B4604BF13460A46CEF80830CEF8A3
:1008A0000C20DEF8001041F00101CEF8001010BD60
:1008B000002180F834100220704700BF90F834C047
:1008C000BCF1010F04BF0220704770B54FF0010C5E
:1008D00080F834C0D0F858E090F835C0BCF1010F72
:1008E0003DD14FF0020C80F835C04FF0000CC0F83D
:1008F00054C0D0F800C08468056CC06DDCF800609E
:10090000402C26F48026CCF80060CCF804300B464E
:1009100004BF13460A463F2101FA00F0CCF8083024
:10092000CCF80C20CEF80800DCF8000040F01600EF
:10093000CCF80000DCF8140040F08000CCF8140083
:100940002DB1DCF8000040F00800CCF80000DCF825
:10095000000040F00100CCF80000002070BD002134
:1009600080F83410022070BD70B5866D044603F027
:10097000C7FF94F83510022928D105462068216C5C
:10098000026822F016020260426922F0800242618F
:1009900009B9A16C19B1016821F008010160016871
:1009A00021F00101016000BF20680068C00714D079
:1009B00003F0A6FF401B0628F6D320206065002028
:1009C00084F83400032084F8350070BD8020606511
:1009D000002084F83400012070BDE06D3F2101FA51
:1009E00000F0B0600020012184F8340084F8351054
:1009F00070BD00BF90F83510022909D1052180F89B
:100A000035100068016821F0010101600020704785
:100A100080214165012070472DE9F04F81B0924659
:100A20000F46044603F06CFF94F83510022926D1D6
:100A3000814620680068C00527D4D4E916B010218B
:100A40000097002F08BF2021DBF8002001FA00F8F2
:100A500012EA080F20D0606D00281CBF606D5FEAAD
:100A6000C07057D10099E06D002965D0102101FABE
:100A700000F0CBF80800002001B0BDE8F08F802026
:100A80006065002084F8340002E04FF480706065F7
:100A9000012001B0BDE8F08F0127C0F280070AF104
:100AA00001064FF0080CFD1C03E000BF10EA080F20
:100AB000D1D1606DC007CED156B1BAF1000F49D087
:100AC00003F01EFFA0EB09004FF0080C504541D881
:100AD000DBF80000E16D0CFA01F2024205D0636D13
:100AE00043F001036365CBF8082007FA01F20242E4
:100AF00005D0636D43F002036365CBF8082005FA67
:100B000001F10142D2D0626D42F004026265CBF87D
:100B10000810CBE72046FFF727FFE06D302101FAF0
:100B200000F0CBF80800002084F83400012084F89D
:100B3000350001B0BDE8F08F302101FA00F0CBF8AC
:100B400008000020012184F8340084F8351001B039
:100B5000BDE8F08F20206065002084F8340001207B
:100B600084F83500032001B0BDE8F08FF0B581B006
:100B70000021009140F21001C2F200010B68D0E99F
:100B8000166148F2B51537680822C1F64E358A401D
:100B90003A42A3FB05350CD003681C68640708D5EE
:100BA0001C6824F004041C60B260426D42F0010233
:100BB00042650122C0F2800202FA01F33B4208D0F2
:100BC00004686469240604D5B360436D43F00203EE
:100BD000436503328A403A4208D003681B689B078A
:100BE00004D5B260426D42F00402426510228A4090
:100BF0003A4216D001680B681B0712D5B2600B6829
:100C00000A685B0306D4D20506D40A6822F00802FB
:100C10000A6001E011033FD4016C11B1044688471A
:100C20002046C26D202101FA02F33B4241D0016807
:100C30000F68FF063DD5B36090F835700B68052F3F
:100C40001AD123F016030B604B6923F080034B612C
:100C5000036C0BB9836C1BB10B6823F008030B60AA
:100C60003F219140B160002180F83410012180F8CB
:100C70003510016DE1BB3FE00A685B0310D4D2057B
:100C800012D40A6822F010020A60002180F83410A1
:100C9000012180F8351007E0816C0029BED1C0E742
:100CA000110301D4416C00E0C16B11B104468847C7
:100CB0002046416D01B3416DC90717D0052180F869
:100CC00035100168AA0A0B6823F001030B6000BF0E
:100CD000009B01339342009302D80B68DB07F7D1E6
:100CE000002180F83410012180F83510C16C19B151
:100CF00001B0BDE8F040084701B0F0BD90F83430D5
:100D0000012B04BF022070474FF0010C80F834C063
:100D100090F83530012B08D14FF0000C05299EBF0B
:100D200001F03F0100EB8101CA63002180F834101B
:100D30006046704790F83420012A04BF02207047B3
:100D4000012280F8342090F83530012B1FD106297C
:100D50001DD8DFE801F004100A0D0713150000226A
:100D6000C26314E00022C26411E0002242640EE07B
:100D7000002282640BE00022026408E0002205E009
:100D80000022C0E90F22C0E91122C26402650021DD
:100D900080F834101046704790F83500704700BF57
:100DA000406D70472DE9F04F83B000F1200200F153
:100DB0003E4741F20005019207F1FF77C4F20205B8
:100DC00007224FEAB726A84208BF0422042E38BFE4
:100DD0004FEAB7224FF0010E00274FF000084FF006
:100DE000000900920AE000BF09F1010908F10408B6
:100DF000B9F1100F07F1020700F099800D680EFAA3
:100E000009FA15EA0A0CEFD04D6845F01005122DCD
:100E100014D16FF00302019E02EA590508F01C028A
:100E20000F2356F805B003FA02F40B692BEA040409
:100E300003FA02F222434FF0010E725102680323BB
:100E4000D1F804B0BB40DD439A430BF00303BB4031
:100E50001A43BBF1120F026013D80EFA0BF212F014
:100E6000061F0ED08268CB682A40BB401A438260BE
:100E70004268CBF3001322EA0A0203FA09F31A4389
:100E80004260C2688B682A40BB401A435FEACB03CA
:100E9000C260A9D5002243F644030292C4F20203C1
:100EA0001A6843F6004642F480421A601A68C4F297
:100EB000010602F480420292029A29F003024FF6E0
:100EC000084A3244CFF6FF7A52F80A3008F00C0490
:100ED0000F25A540AB43009D05FA04F4234342F8D7
:100EE0000A3032684B6842EA0C04DD0358BF22EA3C
:100EF0000C04346072689D0342EA0C0458BF22EA75
:100F00000C047460B268DD0242EA0C0443F60C453E
:100F100058BF22EA0C04B460C4F201052A689B029F
:100F200042EA0C0458BF22EA0C042C605CE703B0D0
:100F3000BDE8F08F2DE9F04F82B000F13E4241F262
:100F4000000702F1FF72C4F20207072601914FEA7F
:100F5000B223B84208BF042643F60041042B38BF31
:100F60004FEAB226C4F2010100F1200900960024E4
:100F7000002600254FF00F0806E000BF01350236BD
:100F8000102D04F104044FD0012202FA05FC019A4D
:100F90001CEA020EF2D002680323B3409A436FF0BA
:100FA0000307026007EA550A04F01C0259F80AB068
:100FB00008FA02F22BEA020249F80A2082689A43F0
:100FC0008260426822EA0C024260C2689A43C260B0
:100FD000A1F57E7325F003029F5804F00C0208FA75
:100FE00002FC07EA0C0A009F07FA02F29245C5D1FB
:100FF000AA0853F8227027EA0C0743F822700A68FF
:1010000043F60C4322EA0E020A604A68C4F2010366
:1010100022EA0E024A608A6822EA0E028A601A6890
:1010200022EA0E021A60A9E702B0BDE8F08F00BF05
:101030000069084018BF0120704700BF002A08BFA0
:1010400009048161704700BF4269514041617047A6
:1010500081B04FF480320092009A0A430092009AC5
:10106000C261C1610099C161C1690091C06901217A
:1010700000F4803081EA104001B0704743F614411B
:10108000C4F201010A68024214BF0860704700F010
:1010900001B800BF70470000704700BF704700BF35
:1010A000704700BF70470000704700BFF0B581B0C7
:1010B0000446007843F60006C007C4F2020644D096
:1010C000B06800F00C00042805D1306880033CD5DE
:1010D0006068D0BB64E0B06800F00C00082802D162
:1010E00070684002F1D465683068B5F5A02F05D06E
:1010F000B5F5803F09D140F480300CE040F4802009
:101100003060306840F4803005E020F4803030609A
:10111000306820F48020306003F0F2FB002D05469B
:1011200010D000BF306880030FD403F0E9FB401BF0
:101130006428F7D9EFE000BF03F0E2FB401B64280E
:1011400000F2E98030688003F6D42078800718D553
:10115000B06810F00C0F07D0B06800F00C00082841
:1011600057D17068400254D43068800702D5E068D7
:10117000012815D13068216920F0F80040EAC1004B
:101180003060207800070ED42078400721D4A5696C
:10119000002D00F0EF80B06800F00C0008286BD143
:1011A000012001B0F0BD6069002851D00020C4F2D8
:1011B00047200121C0F8801E03F0A2FB054600BFB6
:1011C000706F8007E0D403F09BFB401B0228F7D927
:1011D000A1E000200090306C47F2000740F0805002
:1011E0003064306CC4F2000700F08050009000982A
:1011F000386840F48070386003F082FB054600BF19
:101200003868C0051BD403F07BFB401B0228F7D9CC
:1012100081E0E068002840F20000C4F247204CD092
:101220000121016003F06CFB054600BF30688007B8
:10123000A0D403F065FB401B0228F7D96BE0A5683A
:10124000306F052D48D0012D4DD140F0010050E008
:101250000020C4F247200021C0F8801E03F050FB9C
:10126000054600BF706F80077FF58EAF03F048FB27
:10127000401B0228F6D94EE00027C4F24727002081
:10128000386603F03DFB022D05460BD13068800126
:101290004FD503F035FB401B02284FF00300F5D972
:1012A00066E000BF3068800164D503F029FB401B75
:1012B00003284FF00300F5D35AE00021016003F04A
:1012C0001FFB0546306880077FF55BAF03F018FB16
:1012D000401B0228F6D91EE040F004003067306F52
:1012E00040F0010005E020F001003067306F20F091
:1012F0000400306703F004FB002D054641F28837F7
:1013000013D000BF306F80073FF541AF03F0F8FA0C
:10131000401BB842F6D9032001B0F0BD03F0F0FA4B
:10132000401BB8424FF0030022D8306F8007F5D43D
:101330002DE704F11C052FCD084340EA8210D903A4
:101340004FF6FF729143A1F5803140EA05600843F2
:1013500070600120386603F0D3FA044630688001DB
:1013600008D403F0CDFA001B02284FF00300F5D992
:1013700001B0F0BD002001B0F0BD00BF2DE9F0418B
:1013800043F60807C4F20207D7F8F8230D4602F027
:101390000F01A942044607D287F8F853D7F8F8039B
:1013A00000F00F00A8425AD12068810705D539689E
:1013B000A26821F0F00111433960C00735D1D7F898
:1013C000F80300F00F00A84207D987F8F853D7F8C0
:1013D000F80300F00F00A84241D12068410705D56D
:1013E0003968E26821F4E05111433960000706D5FD
:1013F0003868216920F4604040EAC100386000F09C
:101400007DF8396847F64452C1F30311C0F6000273
:10141000515CC84040F21001C2F2000108600F2088
:10142000FEF7F2FE0020BDE8F0816068811E02290F
:1014300007D257F8081C89015CBF0120BDE8F08184
:1014400010E0012807D157F8081C89035CBF012070
:10145000BDE8F08106E057F8081C890702D4012096
:10146000BDE8F081396821F003010843386003F0DA
:1014700047FA61680646012941F2883837D00229C7
:1014800027D003290ED100BF386800F00C000C28CB
:1014900095D003F035FA801B40454FF00300F3D997
:1014A000C1E700BF386810F00C0F3FF488AF03F0BD
:1014B00027FA801B40454FF0030088BFBDE8F0814C
:1014C000F0E700BF03F01CFA801B40454FF003001B
:1014D000A9D8386800F00C000828F3D16FE700BFE6
:1014E00003F00EFA801B40454FF003009BD838688C
:1014F00000F00C000428F3D161E700BF43F60401BB
:10150000C4F20201486800F00C0242F20040082ACE
:10151000C0F2F40007D0042A18BF704741F200203F
:10152000C0F27A007047D1F800C00B680A685B020D
:1015300041F200230CF03F0CC0F27A0358BF03467F
:10154000B3FBFCF00968C2F388125043C1F30141B8
:10155000022202EB4101B0FBF1F0704770B586B09A
:1015600043F63006002840F2000014460D46C4F24F
:101570000206C4F202004FF000011FD00191326850
:1015800000F5006042F004023260326802F00402AA
:101590000192019A4FF400720192022202920322F8
:1015A000CDE90312059101A9FFF7FCFB56F8280CC1
:1015B00020F0784040EAC40028431BE001913268E3
:1015C00042F001023260326802F001020192019A97
:1015D0004FF480720192022202920322CDE903129B
:1015E000059101A9FFF7DEFB56F8280C20F0EC600E
:1015F0002843204346F8280C06B070BD4C20C4F2A6
:1016000047200121016070474C20C4F2472000218F
:101610000160704740F21000C2F20000006870479D
:1016200040F2100043F60801C2F20000C4F20201C9
:101630000068096847F65452C1F38221C0F60002DF
:10164000515CC840704700BF40F2100043F60801EB
:10165000C2F20000C4F202010068096847F6545261
:10166000C1F34231C0F60002515CC840704700BF70
:1016700043F600010F22C4F2020102600A6852031D
:1016800006D40A68D20354BF00224FF4803201E02E
:101690004FF4A02242600A6802F00102C2600A68A8
:1016A000C2F3C40202610A6F520705D40A6FD2075F
:1016B0000CBF0022012200E0052282604A6F4FF435
:1016C000C02302F0010242610A68D2014FF0020217
:1016D00058BF012282614A6802F48002C2614A68EE
:1016E00002F03F0202624A68C2F3881242624A680C
:1016F00003EA420202F50032120C82624968C1F329
:101700000361C162704700BF0F22026043F6080206
:10171000C4F20202136803F003034360136803F08A
:10172000F0038360136803F4E053C360D2F800C091
:101730004FF4E05303EADC030361D2F8F80300F04E
:101740000F000860704700BF10B543F60C04C4F2E8
:1017500002042068000658BF10BD00F003F8802086
:10176000A07010BD70470000002804BF0120704722
:1017700010B590F8511031B9002180F8501004468E
:1017800000F03AF82046022180F8511090E80E103F
:101790001A430C6842EA0C0224F040040C6003690E
:1017A0001A43D0E9053442EA030C04F40073C26919
:1017B00043EA0C0343EA020C036A826A43EA0C031D
:1017C00013430B604FF0040C436A0CEA14442343A8
:1017D0004B60B2F5005F04BFC26A0A61CA6922F4B5
:1017E0000062CA6100210122416580F85120BDE8F4
:1017F00010400846704700BF704700BF002804BF74
:101800000120704710B5022180F85110016804468C
:101810000A6822F040020A6000F008F800206065C3
:1018200084F8510084F8500010BD00BF704700BF1D
:101830002DE9F04383B0044690F85000012803D10D
:10184000022003B0BDE8F0834FF001081D460F46AB
:10185000164684F8508003F053F894F8511001298B
:101860005CD18146002F4FF0010018BF002E56D0EA
:10187000032084F85100002060652763A686E68671
:10188000A063A087E087A1682064B1F5004F606481
:1018900004D12068016841F480410160A06AB0F57C
:1018A000005F09D120684DF6FF72016811400160A8
:1018B000016841F40051016020680168490603D4C1
:1018C000016841F040010160E2686168B2F5006FB3
:1018D0002DD111B1E18E012905D137F8021BC1606C
:1018E000E08E0138E086E08E002845D06E1C07E0CF
:1018F00037F8021BC160E08E0138E086E08ED8B375
:10190000206881688907F3D4002EF7D0EDB302F088
:10191000F7FFA0EB0900A842F0D336E00220002137
:1019200084F8518084F8501003B0BDE8F08311B101
:10193000E18E012905D117F8011B0173E08E0138F2
:10194000E086E08EC0B16E1C08E000BF17F8011BF6
:101950000173E08E0138E086E08E68B1206881680E
:101960008907F3D4002EF7D07DB102F0C9FFA0EBB8
:101970000900A842F0D308E02046022101222B46AC
:10198000CDF8009000F02CF808B10320C7E72046FE
:10199000802100222B46CDF8009000F021F838B1CC
:1019A000606D40F020006065202060650120B6E792
:1019B000A06838B9002002902068C1680291806850
:1019C00002900298A06AB0F5005F04D12068016817
:1019D00041F480510160606D002818BF01209EE72E
:1019E0002DE9F04381B08146006880680840401AC4
:1019F000B0FA80F04009904203D1002001B0BDE868
:101A0000F0831F46C3B1DDF8208015460E467C1CCE
:101A10000CD1D9F8000000BF81683140891BB1FAB0
:101A200081F14909A942E8D0002CF5D002F068FF05
:101A3000A0EB0800B842ECD3D9E900014268B1F547
:101A4000827F22F0E00242600BD1D9F80810B1F594
:101A5000004F02D0B1F5806F03D1016821F0400141
:101A60000160D9F82810B1F5005F08D101684DF682
:101A7000FF7211400160016841F4005101600120D2
:101A800089F85100002089F85000032001B0BDE81A
:101A9000F08300BF2DE9F04383B004460020ADF889
:101AA0000A0060681D461746B0F5827F0E4602D1D7
:101AB000A06800286ED094F85000012803D10220BD
:101AC00003B0BDE8F0834FF0010984F8509002F0B4
:101AD00017FF94F85110012953D18046002E4FF082
:101AE000010018BF002F4DD0042084F851000020C1
:101AF0006065A663A787E7872063A086E086A16A62
:101B00002064B1F5005F60640CD120684DF6FF726F
:101B1000016811400160016841F400510160E08FEB
:101B20000138E087A068B0F5004F04D12068016853
:101B300021F48041016020680168490603D40168EE
:101B400041F040010160E168E08F81B3002847D097
:101B50006F1C07E0C06826F8020BE08F0138E087B1
:101B6000E08FE8B320688168C907F3D1002FF7D070
:101B7000002D5ED002F0C4FEA0EB0800A842EFD317
:101B800057E00220002184F8519084F8501003B0EF
:101B9000BDE8F083042084F85100204631463246E7
:101BA0003B46009500F06EF803B0BDE8F083B8B195
:101BB0006F1C07E0007B06F8010BE08F0138E0871F
:101BC000E08F68B120688168C907F3D1002FF7D092
:101BD0007DB302F095FEA0EB0800A842F0D328E008
:101BE000A06AB0F5005F2CD12068012201682B4665
:101BF00041F48051016020460121CDF80080FFF7BB
:101C0000EFFEB0B9E1682068B1F5006F02D1C0689D
:101C1000308001E0007B30702046012101222B46FC
:101C2000CDF80080FFF7DCFE28B1606D40F00200C7
:101C300060650320A6E72068C068ADF80A00BDF81B
:101C40000A006068B0F5827F0BD1A068B0F5004F44
:101C500002D0B0F5806F04D12068016821F0400106
:101C6000016020688168C90606D5616D41F00201F6
:101C700061654FF6EF718160606D002818BF01202B
:101C800080E700BF2DE9F04784B004460020ADF89E
:101C90000E0094F85000012803D1022004B0BDE8E2
:101CA000F08701201D4616468A4684F8500002F04F
:101CB00027FE94F85110814601297ED1BAF1000F18
:101CC0004FF0010018BF002E00F0FA80002D00F048
:101CD000F78094F85100012804BF052084F85100D2
:101CE00000206065A663E587A587C4F830A0E58677
:101CF000A16AA586B1F5005F2064606409D12068FF
:101D00004DF6FF72016811400160016841F4005115
:101D1000016020680168490603D4016841F0400170
:101D20000160E268DDF830806168B2F5006F53D180
:101D300011B1E18E012905D13AF8021BC160E08E94
:101D40000138E086012708F1010500BFE08E18B9CF
:101D5000E08F002800F08380C7B1E08E18B12068C2
:101D60008168890701D4012711E03AF8021BC1609C
:101D7000E18E0139E186E18E41B9A16AB1F5005FDA
:101D800004D1016841F48051016000BF0027E08F59
:101D900050B120688168C90706D0C068012726F8BD
:101DA000020BE08F0138E087002DCFD002F0A8FDB4
:101DB000A0EB09004045C9D381E06068B0F5827F9F
:101DC00008D104294FF002007AD1A16800293FF41C
:101DD00075AF75E0022073E011B1E18E012905D1E4
:101DE0001AF8011B0173E08E0138E086012708F123
:101DF000010500BFE08E08B9E08F80B3C7B1E08E67
:101E000018B120688168890701D4012711E01AF808
:101E1000011B0173E08E0138E086E08E40B9A06AB4
:101E2000B0F5005F04D12068016841F48051016081
:101E30000027E08F50B120688168C90706D0C068CC
:101E4000012706F8010BE08F0138E087002DD1D083
:101E500002F056FDA0EB09004045CBD32FE0A06A6D
:101E6000B0F5005F14D12046012101224346CDF890
:101E70000090FFF7B5FD28B1606D40F0020060658D
:101E800003201DE02068C068ADF80E00BDF80E000C
:101E900020688168C90601D4002507E0616D01252D
:101EA00041F0020161654FF6EF7181602046022129
:101EB00001224346CDF80090FFF792FD48B1032080
:101EC000012184F85110002184F8501004B0BDE8BD
:101ED000F0872046802100224346CDF80090FFF78E
:101EE0007FFD38B1606D40F02000606520206065A6
:101EF0000120E5E7A06838B9002002902068C16899
:101F000002918068029002982846D9E790F85030F4
:101F1000012B04BF022070470123002980F85030B4
:101F200018BF002A04D1002180F8501018467047CD
:101F300090F85130012B44D180B5032380F8513003
:101F40000023436501638286C28683638387C387D8
:101F5000D0E902E241F6C97141F6FD7CC0F600010C
:101F6000002AC0F6000C08BF6146BEF5004FC0E96C
:101F7000103104D101680A6842F480420A60816A23
:101F8000B1F5005F09D101684DF6FF730A681A4088
:101F90000A600A6842F400520A600268A02351688D
:101FA000BEF1000F08BF8023194351601168490634
:101FB00003D4116841F0400111600023BDE8804066
:101FC000B1E70223AFE700BF026B016832F8023BC2
:101FD000CB600263C28E013AC286C28E002A18BF4D
:101FE0007047826AB2F5005F18BF01F079B80A68DD
:101FF00042F480520A6001F073B800BF016B0268BE
:102000004B1C036309781173C18E0139C186C18EDF
:10201000002918BF7047816AB1F5005F18BF01F051
:102020005FB801680A6842F480520A6001F058B84B
:1020300080B5836894466BB94268B2F5827F09D156
:102040004FF0040E0A46634680F851E0BDE8804038
:1020500000F05CB890F85020012A04BF022080BD37
:10206000012280F8502090F85120012A47D1002900
:102070004FF0010218BFBCF1000F41D0042280F8DC
:102080005120002242658163A0F83CC0A0F83EC008
:1020900002638286C286D0F80CE042F2012142F24D
:1020A000492CC0F60001BEF1000FC0F6000C08BFBD
:1020B0006146B3F5004FC0E9101204D101680A6807
:1020C00022F480420A60816AB1F5005F09D101689B
:1020D0004DF6FF730A681A400A600A6842F400521B
:1020E0000A6001684A6842F060024A600A68520663
:1020F00003D40A6842F040020A60002200E0022293
:10210000002180F85010104680BD00BF90F850C0EC
:10211000BCF1010F04BF0220704780B54FF0010CE5
:1021200080F850C090F851C0BCF1010F4FD1002988
:102130004FF0010C18BF002A5BD0002B59D090F84B
:1021400051C0BCF1010F04BF4FF0050C80F851C025
:102150004FF0000CC0F854C001638386C3868263CD
:102160008387C387C36842F2213C42F29522C0F6BE
:10217000000CC0F60002816A002B42F2D92308BF8E
:10218000624642F2653CC0F60003C0F6000C08BF90
:102190006346B1F5005FC0E9102309D101684DF62F
:1021A000FF730A681A400A600A6842F400520A6023
:1021B00001684A6842F0E0024A600A68520603D4A5
:1021C0000A6842F040020A604FF0000C11E0D0F8BB
:1021D00004E0BEF5827F0AD1BCF1040F4FF0020C7F
:1021E00007D1D0F808E0BEF1000FA0D001E04FF019
:1021F000020C002180F85010BDE880406046704716
:102200000168826BCB6822F8023B8263C28F013A7D
:10221000C287C28F012A07D1826AB2F5005F03D15B
:102220000A6842F480520A60C18F002918BF7047C3
:10223000816AB1F5005F18BF00F00CBF43F2C10125
:10224000C0F60001016470470168097B826B531C72
:1022500083631170C18F0139C187C18F012908D1F2
:10226000816AB1F5005F04D101680A6842F48052C6
:102270000A60C18F002918BF7047816AB1F5005FFD
:1022800018BF00F0E7BE43F23D01C0F60001016453
:10229000704700BF0168826BCB6822F8023B826303
:1022A000C28F013AC287C28F002A18BF7047826A64
:1022B000B2F5005F05D143F21D01C0F600010164D3
:1022C00070474A6822F040024A60C18E002908BF68
:1022D00000F00ABE704700BF026B016832F8023B93
:1022E000CB600263C28E013AC286C28E002A18BF3A
:1022F0007047826AB2F5005F08D1086840F48050E8
:102300000860486820F08000486070474A6822F002
:1023100080024A60C18F002908BF00F0E5BD704708
:102320000168097B826B531C83631170C18F013973
:10233000C187C18F002918BF7047816AB1F5005F5E
:1023400005D142F6C161C0F6000101647047016821
:102350004A6822F060024A60C18E002908BF00F07E
:10236000C3BD7047016B02684B1C0363097811738E
:10237000C18E0139C186C18E002918BF7047826A9B
:102380000168B2F5005F08D1086840F48050086029
:10239000486820F08000486070474A6822F0800258
:1023A0004A60C18F002908BF00F09EBD704700BF82
:1023B00090F85030012B04BF02207047012380F8B1
:1023C000503090F85130012B59D100294FF00103C2
:1023D00018BF002A54D0032380F8513000234365EE
:1023E00001638286C2868363C0E910338387C38713
:1023F0008268B2F5004F04D10268136843F4804349
:10240000136010B5826AB2F5005F09D102684DF61B
:10241000FF74136823401360136843F40053136080
:10242000D0F848C042F28D4342F29544C0F6000312
:10243000C0F60004CCE90F4342F25D53C0F600033E
:1024400000240268CCE91334C38E0C320446604683
:10245000FEF734FA216820460A68520603D40A6857
:1024600042F040020A604A68002342F020024A60BB
:102470004A6842F002024A60BDE8104000E00223D0
:10248000002180F850101846704700BF806B00F0A4
:102490000BBD00BFB0B582B0846B054602F030FAC8
:1024A00029680968C90553D405462068416821F0A8
:1024B000020141608068000633D502F021FA411B19
:1024C00020686429F6D3416821F0E0014160616829
:1024D000B1F5827F0AD1A168B1F5004F02D0B1F504
:1024E000806F03D1016821F040010160A16AB1F55C
:1024F000005F08D101684DF6FF721140016001686C
:1025000041F400510160012084F85100002084F85A
:102510005000606D40F020006065606D40F020006C
:102520006065A06838B9002001902068C1680191F9
:102530008068019001980020E086012084F8510015
:10254000606D28B1204602B0BDE8B04000F0A4BCE8
:10255000204602B0BDE8B04000F0A0BC806B01682E
:102560004A6822F003024A60416D41F01001416562
:10257000012180F8511000F08FBC00BF10B58368B6
:1025800094460A4663B94168B1F5827F08D10424B4
:102590001146634680F85140BDE8104000F06CB829
:1025A00090F85010012904BF022010BD012180F8CD
:1025B000501090F85110012957D1002A4FF0010115
:1025C00018BFBCF1000F51D0042180F85110002138
:1025D000B3F5004F41658263A0F83CC0A0F83EC04F
:1025E000C0E910118186C18604D101680B6823F40B
:1025F00080430B60816AB1F5005F09D101684DF637
:10260000FF740B6823400B600B6843F400530B60AE
:10261000D0F84CC042F2A17342F2A974C0F6000394
:10262000C0F60004CCE90F4342F25D53C0F600034C
:1026300000240168CCE91334C38F0C310446604692
:10264000FEF73CF9216820460A68520603D40A685E
:1026500042F040020A604A6842F020024A604A683A
:1026600042F001024A60002100E00221002280F8CD
:102670005020084610BD00BFB0B590F85050012D55
:1026800004BF0220B0BD012580F8505090F8515091
:10269000012D71D100294FF0010C18BF002A7AD00A
:1026A000002B78D090F851500024012D04BF05254F
:1026B00080F85150446501638386C38682638387B3
:1026C000C387816A0464B1F5005F446409D101687D
:1026D0004DF6FF750B682B400B600B6843F40053FD
:1026E0000B6090F8511042F2A17342F6A505C0F6B6
:1026F0000003C0F60005042908BF1D4642F6AD03DD
:1027000042F2A971C0F60003C0F6000108BF0B46F3
:10271000D0F84CC00168CCE90F3542F25D53C0F6E9
:102720000003CCE91334C38F0C3105466046FEF735
:10273000C5F82A68296BA86C536843F001035360FD
:10274000C0E90F44C0E91344EB8E0C32FEF7B6F833
:10275000296828460A68520603D40A6842F04002F3
:102760000A604A684FF0000C42F020024A604A6852
:1027700042F002024A600EE04468B4F5827F08D15C
:10278000042D4FF0020C06D18568002D3FF482AF76
:1027900001E04FF0020C002180F850106046B0BDFF
:1027A000806B00F083BB00BFB0B582B00546846B80
:1027B0000020ADF8060002F0A3F829680968C905F1
:1027C0006AD40546A06AB0F5005F3AD1206800BF20
:1027D0008068C0072FD102F093F8411B206864295C
:1027E000F6D3416821F0E00141606168B1F5827F74
:1027F0000AD1A168B1F5004F02D0B1F5806F03D1C5
:10280000016821F040010160A16AB1F5005F08D1C3
:1028100001684DF6FF7211400160016841F40051FA
:102820000160012084F85100002084F85000606DA0
:1028300040F0020060652068C068ADF80600BDF891
:102840000600D4E900014268B1F5827F22F003025C
:1028500042600AD1A168B1F5004F02D0B1F5806F96
:1028600003D1016821F0400101600021E1870121CD
:1028700084F851108168C90606D5616D41F00201E6
:1028800061654FF6EF718160606D28B1204602B03E
:10289000BDE8B04000F000BB204602B0BDE8B0404B
:1028A00000F0FEBA806B00F003BB00BFB0B582B091
:1028B0000546846B0020ADF8060002F021F8296877
:1028C0000968C90500F194800546A06AB0F5005F6B
:1028D00039D120688068C0072FD102F011F8411B60
:1028E00020686429F6D3416821F0E0014160616805
:1028F000B1F5827F0AD1A168B1F5004F02D0B1F5E0
:10290000806F03D1016821F040010160A16AB1F537
:10291000005F08D101684DF6FF7211400160016847
:1029200041F400510160012084F85100002084F836
:102930005000606D40F0020060652068C068ADF82E
:102940000600BDF8060020688068000633D501F057
:10295000D7FF411B20686429F6D3416821F0E001CC
:1029600041606168B1F5827F0AD1A168B1F5004F7D
:1029700002D0B1F5806F03D1016821F04001016000
:10298000A16AB1F5005F08D101684DF6FF721140F0
:102990000160016841F400510160012084F8510098
:1029A000002084F85000606D40F020006065606D8C
:1029B00040F0200060652068416821F0030141601B
:1029C0000021E186E187012184F851108168C90660
:1029D00006D5616D41F0020161654FF6EF718160CE
:1029E000606D28B1204602B0BDE8B04000F054BA96
:1029F000204602B0BDE8B04000F054BA10B584B033
:102A000040F21001C2F20001096841F6F112C0F271
:102A10007652A1FB02120446500A642148430390F7
:102A200020684168090642BF42F6CD21C0F6000188
:102A300061644168490642BF42F6E121C0F60001E7
:102A40002164416821F0200141604168890702D476
:102A50004068C00725D0A06CA0B100210165FDF73A
:102A600083FF2068416821F00201416003994A1EFA
:102A7000039219B181688907F8D503E0606D40F0D1
:102A800020006065E06C60B100210165FDF76CFF1E
:102A90002068016821F040010160416821F00101D6
:102AA00041600020E087E086606502902168CA6886
:102AB00002928A680292029A01908868012101902C
:102AC0000198002084F8511004B010BD00684168DE
:102AD00021F0E0014160016821F040010160704790
:102AE00082B00021019140F21001C2F20001096898
:102AF00041F6F112C0F27652A1FB0212510A642291
:102B00005143009100994A1E009221B101688968E1
:102B10008907F7D503E0416D41F020014165006868
:102B2000016821F040010160416821F0E00141604D
:102B3000C0680190019802B0704700BFB0B582B084
:102B4000016804464868000642BF42F6CD20C0F640
:102B5000000060644868400642BF42F6E120C0F6CB
:102B600000002064486820F020004860A06C40B15C
:102B70004A6842F63D439207C0F6000303EAE27258
:102B80000265E26C4AB14B6842F6B54503F00103B9
:102B90005B42C0F600052B4013654A68920714D5C6
:102BA0004968C90711D030B1FDF724FF4FF0000587
:102BB00010B1A06C05650125E06C38B1FDF71AFF76
:102BC0004FF0000510B1E06C0565012520684068F4
:102BD00080070AD5A06C40B1FDF70CFF00284FF02C
:102BE00000001ABFA16C0865002520684068C00776
:102BF0000AD0E06C40B1FDF7FDFE00284FF0000068
:102C00001ABFE16C08650025A5B10020E087E086C9
:102C1000606501902168CA6801928A680192019AF0
:102C20000090886800900098012084F851002046A8
:102C300000F074F8002002B0B0BD00BF82B040F2D6
:102C40001001C2F20001096841F6F112C0F2765299
:102C5000A1FB0212510A642251430191806B0023AF
:102C6000826C016813654A6822F002024A6000BF64
:102C7000019A531E01931AB18A689207F8D503E0AE
:102C8000416D41F020014165C16C21B1096D002900
:102C90001CBF02B070470021C187C1864165009109
:102CA0000168896800910099012180F8511002B0F3
:102CB00000F034B880B582B0806B4FF0000C036830
:102CC000D0E9122E196821F040011960CEF850C0E9
:102CD000596821F00101596022B1116D00291CBF12
:102CE00002B080BDA0F83EC0A0F836C0C0F854C005
:102CF000CDF804C00168CA68019289680191019900
:102D0000CDF800C00168896800910099012180F820
:102D1000511002B0BDE88040AFF30080704700BFA3
:102D200090F85010012904BF0220704701684A68DA
:102D300022F003024A60002180F850100020704702
:102D400090F85010012904BF0220704701684A68BA
:102D500042F003024A60002180F8501000207047C2
:102D600010B50446806C002818BFFDF7FDFDE06C2F
:102D7000002818BFFDF7F8FD2068416821F0030125
:102D800041600121002084F8511010BDB0B582B01F
:102D900001684A688B6803F04105012D04D112F0E7
:102DA000400501D0016C05E09D0707D512F08005B4
:102DB00004D0416C02B0BDE8B040084713F4B07FC6
:102DC00018BF12F0200501D102B0B0BD5D0617D5C5
:102DD00090F85150032D08D100200190C86801904F
:102DE00088680190019802B0B0BD456D45F00405BA
:102DF000456500250195CD6801958D680195019D7A
:102E00009D060CD5456D45F00105456500250195EC
:102E10008D6801950D6825F040050D60019DDB056D
:102E200008D5436D43F008034365002301938B6885
:102E30000193019B436D002BC6D04B68920723F092
:102E4000E0034B604FF0010380F8513018D04A681E
:102E500042F68D6422F003024A60C16CC0F60004A1
:102E600029B1054608460C65FDF7C4FD2846806C6F
:102E70000028A9D0046502B0BDE8B040FDF7BABD96
:102E800002B0BDE8B04000F007B800BF806B002181
:102E9000C187C186AFF30080704700BF704700BF95
:102EA000704700BF704700BF704700BF704700BF4A
:102EB000704700BF90F85100704700BF406D7047E9
:102EC00081B000218DF8031001680A7B8DF8032082
:102ED0009DF803204A6822F060024A60C18E0029F2
:102EE00001B018BF7047FFE7B0B582B040F21001E3
:102EF000C2F20001096841F6F112C0F27652A1FB5C
:102F000002120446500A64214843019001F0F8FC83
:102F1000216805464A6822F0200048600198421E58
:102F2000019220B188688007F8D588680DE0606D4F
:102F300040F020006065886807E000BF01F0E0FC19
:102F4000411B2068642903D280680006F6D42DE076
:102F5000416821F0E00141606168B1F5827F0AD1EA
:102F6000A168B1F5004F02D0B1F5806F03D10168BF
:102F700021F040010160A16AB1F5005F08D101684C
:102F80004DF6FF7211400160016841F4005101608B
:102F9000012084F85100002084F85000606D40F05A
:102FA00020006065606D40F020006065A06838B961
:102FB000002000902068C16800918068009000980F
:102FC00021688868C00606D4606DA0B10121204642
:102FD00084F851100AE0012084F85100606D4FF62A
:102FE000EF7240F00200606520468A6002B0BDE8E2
:102FF000B040FFF751BF94F851000121042820464A
:1030000084F8511004D102B0BDE8B040FFF748BFCA
:1030100002B0BDE8B040FFF745BF00BF81B000215E
:10302000ADF802100168CA68ADF80220BDF80220B0
:103030004A6822F040024A6001B055E781B00021A1
:103040008DF803100168097B8DF803109DF80310BB
:1030500001B0FFE781B0D0E900124B68B2F5827F82
:1030600023F060034B600AD18268B2F5004F02D0B2
:10307000B2F5806F03D10A6822F040020A608268CC
:1030800032B900220092CA6800928A680092009ABF
:10309000012280F851208B68426DDB0603D45AB1BF
:1030A00001B0FFF7F9BE42F0020242654FF6EF723F
:1030B0008A6001B0FFF7F0BE01B0FFF7F1BE00BFBC
:1030C00081B00021ADF802100168CA68ADF8022095
:1030D000BDF802204A6822F060024A6001B0B9E7F8
:1030E000B0B582B040F21001C2F20001096841F6A9
:1030F000F112C0F27652A1FB02120446500A64217A
:103100004843019001F0FCFB054600BF0198411EB9
:10311000019120B1206880688007F7D503E0606DD9
:1031200040F0200060652068416821F0A001416006
:103130008068000633D501F0E3FB411B2068642959
:10314000F6D3416821F0E00141606168B1F5827F0A
:103150000AD1A168B1F5004F02D0B1F5806F03D15B
:10316000016821F040010160A16AB1F5005F08D15A
:1031700001684DF6FF7211400160016841F4005191
:103180000160012084F85100002084F85000606D37
:1031900040F020006065606D40F020006065A06830
:1031A00038B9002000902068C168009180680090C4
:1031B0000098012084F85100606D28B1204602B0CB
:1031C000BDE8B040FFF768BE204602B0BDE8B040A1
:1031D000FFF764BE002804BF0120704710B5044605
:1031E00090F8390028B9002084F83800204600F013
:1031F00021F8242084F839002068C16821F40051A6
:10320000C160204600F018F82068016921F490415F
:103210000161416921F02A014161C16841F4005115
:10322000C16000202021E06384F8391084F83A104E
:1032300010BD00BF704700BF2DE9F04381B00446C8
:103240000068D4E90212E369076948F21F5827F4BD
:1032500040573A430261C26849F20C67BA43D4E965
:1032600004761143394331431943C1604169A2696E
:1032700021F440711143416141F20041B3F5004F27
:10328000C5F2EB1840F48060C4F2010138D18842E5
:103290006ED1FEF7D9F96168192778434900B0FB70
:1032A000F1F0A0FB08016FF00F0000EA5106FEF7F5
:1032B000CBF9616878434900B0FBF1F5FEF7C4F93A
:1032C000616878434900B0FBF1F04FF06409A0FB5E
:1032D0000801480900FB1950322101EBC000A0FB96
:1032E00008014FF4F87000EA11100644FEF7ACF93B
:1032F000616878434900B0FBF1F5FEF7A5F96DE090
:10330000884278D1FEF7A0F96168192778438900CF
:10331000B0FBF1F0A0FB08016FF00F0000EA5106CE
:10332000FEF792F9616878438900B0FBF1F5FEF78A
:103330008BF9616878438900B0FBF1F04FF06409C4
:10334000A0FB0801480900FB1950322101EB0010D5
:10335000A0FB0801F02000EA51100644FEF774F9C2
:10336000616878438900B0FBF1F5FEF76DF977E00D
:10337000FEF756F96168192778434900B0FBF1F070
:10338000A0FB08016FF00F0000EA5106FEF748F9B4
:10339000616878434900B0FBF1F5FEF741F96168D7
:1033A00078434900B0FBF1F04FF06409A0FB08013D
:1033B000480900FB1950322101EBC000A0FB0801B5
:1033C0004FF4F87000EA11100644FEF729F961681D
:1033D00078434900B0FBF1F5FEF722F961687843C4
:1033E0004900B0FBF1F0A0FB0801480900FB1950AF
:1033F0000721C00040E0FEF713F961681927784300
:103400008900B0FBF1F0A0FB08016FF00F0000EAAB
:103410005106FEF705F9616878438900B0FBF1F5C4
:10342000FEF7FEF8616878438900B0FBF1F04FF0D9
:103430006409A0FB0801480900FB1950322101EB87
:103440000010A0FB0801F02000EA51100644FEF72E
:10345000E7F8616878438900B0FBF1F5FEF7E0F822
:10346000616878438900B0FBF1F0A0FB08014809CE
:1034700000FB19500F2100013230A0FB080201EAC5
:10348000521021683043886001B0BDE8F08300BF6E
:10349000002804BF0120704710B5044690F8390099
:1034A00028B9002084F838002046FFF7C3FE242006
:1034B00084F839002068C16821F40051C1602046B9
:1034C000FFF7BAFE2068016921F49041016141696A
:1034D00021F022014161416941F008014161C16867
:1034E00041F40051C16000202021E06384F83910CC
:1034F00084F83A1010BD00BF002804BF01207047B7
:10350000B0B5044690F839000D4628B9002084F87B
:1035100038002046FFF78EFE242084F8390020680A
:10352000C16821F40051C1602046FFF785FE206884
:10353000016921F400610161416921F02A014161C1
:10354000016941F480410161016921F020010161BB
:10355000016929430161C16841F40051C160002043
:103560002021E06384F8391084F83A10B0BD00BF20
:10357000002804BF0120704770B5044690F8390058
:1035800015460E4628B9002084F838002046FFF77B
:1035900051FE242084F839002068C16821F40051CC
:1035A000C1602046FFF748FE2068016921F4904180
:1035B0000161416921F02A014161016921F00F0196
:1035C0000161016931430161C16821F40061C16099
:1035D000C1682943C160C16841F40051C160002045
:1035E0002021E06384F8391084F83A1070BD00BFE0
:1035F000002804BF0120704710B5242180F839103D
:10360000044600F009F80020E06384F8390084F8EB
:103610003A0084F8380010BD704700BF2DE9F04132
:10362000044690F8390020280CD10F4600294FF0AD
:10363000010018BF002A01D1BDE8F08194F83800DC
:10364000012802D10220BDE8F081012084F8380071
:103650000020E06321201D4684F83900164601F061
:103660004FF9A684E684E18C8046002943D06E1C85
:1036700006E000BF17F8010B21684860E08CD0B36A
:10368000E08C0138E0842068A1680068B1F5805FB3
:1036900004D1000616D496B15DB934E00006E9D431
:1036A0003EB305BB2FE000BF016809060AD4002E17
:1036B000FAD001F025F9A0EB0800A84223D8206831
:1036C000F2E700BF3888216922686FF35F20002984
:1036D000506014BF01370237D0E700BF0168090608
:1036E000C8D4002EFAD001F00BF9A0EB0800A842D4
:1036F00009D82068F2E720680068400620D415B198
:103700006E1C10D015E02068C16821F4D071C16032
:10371000416921F001014161202084F8390084F8D9
:103720003A00032010E020680168490608D4002E02
:10373000FAD001F0E5F8A0EB0800A842F3D9E2E7DF
:10374000202084F839000020002184F83810BDE8DA
:10375000F08100BF2DE9F04381B0044690F83A00B3
:1037600020280DD10E4600294FF0010018BF002A75
:1037700002D101B0BDE8F08394F83800012803D1EC
:10378000022001B0BDE8F083012084F838004FF03A
:10379000000822201D46C4F83C8084F83A001746F1
:1037A00001F0AEF8A785E785E18D00294BD0814671
:1037B0006F1C0AE0206821694068002918BF00F0EA
:1037C0007F0006F8010BE08DE8B3E08D0138E0855D
:1037D0002068A1680068B1F5805F05D1800617D424
:1037E0009FB165B931E000BF8006E3D44FB315BB8C
:1037F0002BE000BF016889060AD4002FFAD001F03F
:103800007FF8A0EB0900A8421FD82068F2E700BFAC
:1038100020682169406819B1C0B226F8010BD2E7CF
:103820006FF35F2026F8020BCDE700BF0168890621
:10383000C0D4002FFAD001F063F8A0EB0900A84231
:1038400003D82068F2E700200CE02068C16821F46A
:10385000D071C160416921F001014161202084F8EB
:1038600039000320202184F83A1084F8388001B010
:10387000BDE8F08390F83930202B0BD100294FF0B0
:10388000010318BF002A01D11846704790F838305C
:10389000012B02D102231846704701620023212127
:1038A0008284C284C36380F83910016880F838309C
:1038B000C86840F08000C86018467047034690F81A
:1038C0003A0020280AD100294FF0010018BF002A31
:1038D00000D1704793F83800012801D102207047C9
:1038E0009962002022219A85DA85D86383F83A10FC
:1038F000196883F838004A6942F001024A61CA68CF
:1039000042F49072CA60704790F83930202B1CBF87
:1039100002207047B0B5964600294FF0010218BF4B
:10392000BEF1000F03D1BDE8B0401046704790F8DB
:103930003820012A01D10222F5E7012280F838203F
:10394000002221230162A0F824E0A0F826E0C2634F
:1039500080F83930D0F830C043F6A11443F6C915C9
:10396000C0F60004C0F600050368CCE90F4543F635
:10397000D114C0F60004CCE913421A1D0446604677
:103980007346FCF79BFF206800226FF04001016046
:1039900084F83820416941F080014161C3E700BFEC
:1039A0000168806B0968C90548BF00F0A3BB00210E
:1039B000C1840068416921F080014161C16841F022
:1039C0004001C160704700BF806B00F095BB00BF35
:1039D000806B01684A6990F83930212B0BD112F0C5
:1039E000800208D00022C284CA6822F0C002CA60E5
:1039F000202280F839204A6990F83A30222B0FD1E2
:103A000012F040020CD00022C285CA6822F49072E3
:103A1000CA604A6922F001024A61202180F83A1006
:103A2000C16B41F01001C16300F062BB90F83A3005
:103A3000202B1CBF02207047B0B582B096460A46C4
:103A400000294FF0010118BFBEF1000F04D102B0F0
:103A5000BDE8B0400846704790F83810012901D100
:103A60000221F4E7012180F838100021222382622C
:103A7000A0F82CE0C16380F83A30D0F834C043F6A7
:103A8000DD2443F61535C0F60004C0F600050368D2
:103A9000CCE90F4543F6D114C0F60004CCE913413C
:103AA000191D044660467346FCF708FF002101918A
:103AB00020680268019242680192019A84F83810E5
:103AC000C26842F48072C260426942F001024261FF
:103AD000426942F040024261B9E700BF0168806B71
:103AE0000968C90548BF00F009BB0021C18501680C
:103AF000CA6822F48072CA604A6922F001024A61EF
:103B00004A6922F040024A61202180F83A1000F010
:103B1000F5BA00BF806B00F0F3BA00BF90F8381020
:103B2000012904BF022070470122016880F8382073
:103B30004A6990F83930212B06D112F0800203D067
:103B40004A6922F080024A614A6990F83A30222B91
:103B50000ED112F040020BD0CA6822F48072CA6003
:103B60004A6922F001024A614A6922F040024A6130
:103B7000002180F838100020704700BF90F83810FE
:103B8000012904BF02207047012180F8381090F805
:103B90003910212904D101684A6942F080024A6142
:103BA00090F83A10222915D181B0002100910168C6
:103BB0000A6800924A680092009ACA6842F48072C9
:103BC000CA604A6942F001024A614A6942F0400211
:103BD0004A6101B0002180F838100020704700BF12
:103BE00010B504460068416994F83920212A13D1A0
:103BF00011F0800110D0416921F080014161206BFA
:103C0000002818BFFCF7B0FE2068C16821F0C00191
:103C1000C160202084F839002068416994F83A2076
:103C2000222A17D111F0400114D0416921F040013E
:103C30004161606B002818BFFCF796FE2068C168E0
:103C400021F49071C160416921F00101416120209E
:103C500084F83A00002010BD10B504460068C16821
:103C600021F4F071C160416921F0010141614169B4
:103C7000090609D5416921F080014161206B18B125
:103C800000210165FCF770FE20684169490609D5ED
:103C9000416921F040014161606B18B1002101656B
:103CA000FCF762FE00202021E084E085E06384F8D8
:103CB0003A1084F8391010BD10B504460068C16888
:103CC00021F0C001C1604169090609D5416921F0AF
:103CD00080014161206B18B100210165FCF744FEB1
:103CE00000202021E08484F8391010BD10B504466E
:103CF0000068C16821F49071C160416921F001013F
:103D000041614169490609D5416921F0400141619C
:103D1000606B18B100210165FCF726FE0020202110
:103D2000E08584F83A1010BD10B501680446006BB8
:103D3000CA6822F4F072CA604A6922F001024A613C
:103D400040B14A6943F6D1531206C0F6000303EAB4
:103D5000E2720265626B4AB14B694FEA436C43F60B
:103D6000F953C0F6000303EAEC7313654A691206BF
:103D70000BD54A6922F080024A6130B1FCF73AFE65
:103D80004FF0000110B1206B0165012120684269EC
:103D900052060DD5426922F040024261606B38B193
:103DA000FCF728FE4FF0000110B1606B01650121A6
:103DB00059B10020E084E085E063202084F83900D8
:103DC00084F83A00204600F02BF8002010BD00BF18
:103DD000806B0021D0E90C3219651AB1126D002AEE
:103DE00018BF7047C184C185C163202180F8391094
:103DF00080F83A1000F014B8806B0021D0E90C2351
:103E000019651AB1126D002A18BF7047C184C185A7
:103E1000C163202180F8391080F83A10AFF3008098
:103E2000704700BF10B50168CA6822F0C002CA60BE
:103E30004A69120614D54A6922F080024A61016B70
:103E400071B1044643F67560C0F600000865084687
:103E5000FCF7D0FD58B1206B016D8847002010BDE4
:103E60000021C184202180F8391000F00BF80020D7
:103E700010BD00BF806B0021C184202180F8391063
:103E8000AFF30080704700BF10B50168CA6822F424
:103E90009072CA604A6922F001024A614A69520678
:103EA00014D54A6922F040024A61416B71B104465F
:103EB00043F6E160C0F6000008650846FCF79AFD8D
:103EC00058B1606B016D8847002010BD0021C1858D
:103ED000202180F83A1000F00BF8002010BD00BF40
:103EE000806B0021C185202180F83A10AFF300805B
:103EF000704700BFB0B501680A68CC684B6902F032
:103F00002F05202D04F0200503D115B1BDE8B040E8
:103F1000B0E05FEA027C1EBF03F0010E04F4907370
:103F200013EB0E0329D1130616D514F0800313D01A
:103F300090F83920212A31D18368026AB3F5805F75
:103F400023D113886FF35F234B600369002B14BFE9
:103F50000132023202621CE052061FD514F0400208
:103F600008BFB0BDCA6822F04002CA60202180F8B4
:103F70003910BDE8B04000F0BDB8D10718BF14F447
:103F800080710CD1510710D416E0531C03621278D3
:103F90004A60C28C013A1304C2845DD0B0BDC16BCB
:103FA00041F00101C163510706D5BEF1000F03D0F6
:103FB000C16B41F00201C163910706D5BEF1000F4C
:103FC00003D0C16B41F00401C163BCF1000F06D501
:103FD000BEF1000F03D0C16B41F00801C163C16B9A
:103FE0000029DBD0910604D51DB1044600F042F84B
:103FF000204601684A69C36B02F0400203F00803DF
:10400000D21823D0CA6822F49072CA604A6922F09A
:1040100001024A61202280F83A204A69520624D5DA
:104020004A6922F040024A61416BF1B144F2E50273
:10403000C0F60002044608460A65FCF7DBFC0028CF
:10404000ACD0606B016DBDE8B0400847044600F09D
:104050004FF80020E063B0BDC86820F08000C86061
:10406000C86840F04000C860B0BDBDE8B04000F096
:104070003FB800BF90F83A10222918BF70478168F6
:10408000B1F5805F08D102680369816A52687BB12B
:10409000D2B221F8012B0FE0016802694968002AB9
:1040A000826A18BF01F07F01531C8362117004E023
:1040B0006FF35F2221F8022B8162C18D01390A045E
:1040C000C18500D070470168CA6822F49072CA6046
:1040D0004A6922F001024A61202180F83A1000F07A
:1040E0000DB800BF806B0021C185C184AFF3008093
:1040F000704700BF704700BF704700BF704700BFE8
:10410000704700BF90F83810012904BF02207047A3
:10411000242180F839100168CA6842F00102CA609F
:10412000202180F83910002180F8381000207047D5
:1041300090F83810012904BF02207047242180F82C
:1041400039100168CA6842F00202CA60202180F872
:104150003910002180F838100020704790F838108E
:10416000012904BF02207047242180F8391001681A
:10417000CA6822F00202CA60202180F839100021AA
:1041800080F838100020704790F8381001294FF05F
:1041900002010DD0242280F839200268D36861F32F
:1041A00083032021D36080F83910002180F8381073
:1041B0000846704790F83810012904BF0220704764
:1041C000242180F8391001680123CA6863F383024F
:1041D000CA60202180F83910002180F838100020B2
:1041E000704700BF90F8391090F83A000843C0B209
:1041F000704700BFC06B704770B592B0002543F6A2
:1042000040000195C4F202000168012441F0805190
:1042100001600068022600F080500190019847F28A
:1042200000000195C4F20000016841F440410160C2
:10423000006800F44040019001984FF480300290F3
:104240004FF480000890082009904FF4C8700A903D
:1042500004200B9007200C9001A801940495079668
:10426000FCF724FF78B90F200D904FF48050CDE972
:1042700010050DA80621CDE90E65FDF77FF804466F
:10428000002818BF0124204612B070BD2DE9F04F60
:1042900081B00029009351D000F1007743F6300639
:1042A00007F1FF77C4F20206C7F38F274FF001082A
:1042B000356808FA07F72F433760C0F3872740F2C5
:1042C000800B87F0800EA2F1010A0027C2F2000BDA
:1042D000002604E00136102E07F102072ED008FA5E
:1042E00006F40C42F6D03BF81E50032325432BF86E
:1042F0001E50C56803FA07FC0A9B25EA0C0503FA61
:1043000007F945EA0905C560056802FA07F325EAD9
:104310000C052B43BAF1010F0360DBD843686FEA49
:104320000C05A343009CB440A4B2234343608368BC
:104330002B400B9DBD402B438360CBE701B0BDE814
:10434000F08F00BF00F1007043F6300200F1FF7003
:10435000C4F20202C0F38F200121136801FA00F0B9
:1043600018431060704700BF2DE9F04F81B0C0F3D3
:10437000872740F2800B87F0800CA2F1010A00260B
:104380004FF00108C2F2000B0025009305E000BFCA
:104390000135102D06F102062ED008FA05F70F425E
:1043A000F6D03BF81C4003233C432BF81C40C46868
:1043B00003FA06FE0A9B24EA0E0403FA06F944EA0D
:1043C0000904C460046802FA06F324EA0E042343D5
:1043D000BAF1010F0360DBD84368009CBB43AC40DB
:1043E000A4B22343436083686FEA0E073B400B9FF0
:1043F000B7403B438360CBE701B0BDE8F08F00BF1F
:10440000002908BF70472DE9F04F00F1007443F612
:10441000300604F1FF74C4F20206C4F38F240125B0
:10442000376805FA04F4DDF828E03C43346000F115
:10443000200A00266FF003084FF00F09002404E063
:104440000134102C06F1040614D021FA04F5ED070E
:10445000F6D008EA54055AF805B006F01C0709FA28
:1044600007FC2BEA0C0C0EFA07F747EA0C074AF890
:104470000570E5E7C0F3872740F2800C87F0800ED7
:1044800000244FF0010AC2F2000C002705E000BF33
:104490000137102F04F102042CD00AFA07F50D425F
:1044A000F6D03CF81E6003FA04F82E432CF81E6088
:1044B000D0F80CB0032606FA04F92BEA090B4BEAF4
:1044C0000806C660066826EA09080226A64046EAEB
:1044D00008060660466826EA050502FA07F6B6B23F
:1044E000354345608568099E25EA0905A6403543A0
:1044F0008560CDE7BDE8F04F704700BF2DE9F04182
:10450000C0F3872240F2800882F0800200234FF03F
:10451000010C4FF0030EC2F20008002507E000BFB7
:104520000135102D03F1020308BFBDE8F0810CFA3C
:1045300005F60E42F4D007680EFA03F43C4304601B
:1045400038F81240B44328F81240E9E700F100704F
:1045500000F1FF70C0F38F20704700BF10B54FF01F
:10456000000E4FF0030C002306E000BF0133102BB8
:104570000EF1020E08BF10BD21FA03F2D207F5D0EA
:1045800002680CFA0EF4A2430260EFE7B0B5002215
:104590004FF0030C4FF0010E002305E00133102B08
:1045A00002F1020208BFB0BD21FA03F4E407F5D01E
:1045B00004680CFA02F5AC430EFA02F52C430460D1
:1045C000ECE700BF10B54FF0000E4FF0030C0023D6
:1045D00006E000BF0133102B0EF1020E08BF10BD24
:1045E00021FA03F2D207F5D002680CFA0EF4224346
:1045F0000260EFE7B0B500224FF0030C4FF0020E5F
:10460000002305E00133102B02F1020208BFB0BD08
:1046100021FA03F4E407F5D004680CFA02F5AC4380
:104620000EFA02F52C430460ECE700BFB0B54FF082
:10463000000E4FF0030C002306E000BF0133102BE7
:104640000EF1020E08BFB0BD21FA03F4E407F5D065
:10465000C4680CFA0EF5AC4302FA0EF52C43C460A4
:10466000ECE700BF01F58032C261C161C261C1697E
:10467000C06970470021022805D300BF013103281B
:104680004FEA5000FAD888B2704700BF00F10070BE
:1046900043F6300200F1FF70C4F20202C0F38F2033
:1046A0000121136801FA00F023EA0000106070474E
:1046B00000F1007000F1FF7040F28001C0F38F2024
:1046C000C2F2000131F81000704700BF00F1007025
:1046D00000F1FF7040F28001C0F38F20C2F20001B0
:1046E00031F810004FF6FF71484070474EF6FC500D
:1046F000CEF20000016821F080710160016841F094
:104700008071016041F20000CEF20000016821F0EA
:1047100001010160016841F0010101600021416077
:10472000416800BF00BF4068401A70472DE9F04360
:1047300081B040F26808C2F2000898F80040042CEA
:104740001ED806461420994615460F4603F0C4FAB3
:10475000B0B10899027807F0010302F0FC0265F39A
:104760004103C0E90391611C1A4488F8001008EB6A
:1047700084010270C0E90166486001B0BDE8F083C1
:10478000002001B0BDE8F08370B540F2680CC2F2C1
:10479000000C9CF8004084B1002100220CEB810346
:1047A0005B6883420ED00132A24201F10101F5D3D0
:1047B00023461146A34204D007E000230021A34270
:1047C00003D170BD1346A342FBD00CEB81004068BF
:1047D000EFF31086EFF3108172B69CF800100139E8
:1047E00099420ADD0CEB8302141D224652F8045F45
:1047F0000133256099421446F8DC8CF8001003F070
:1048000043FA002E18BF70BD62B670BD017801F08A
:10481000FD010170704700BF017841F00201017095
:10482000704700BF41688160704700BF027800296F
:1048300018BF012102F0FE0211440170704700BF51
:1048400041607047704700BF40F2A000C2F2000014
:1048500001680131016040F2A400C2F20000016869
:1048600011B101680139016070B540F26804C2F20B
:104870000004207818B3002504E000BF207801353B
:1048800085421CD204EB850670680028F6D00178BA
:104890008907F3D5816800291CBF013981608168CF
:1048A0000029EBD1D0E90321904770680178426874
:1048B000CB07826004BF01F0FC010170DEE7BDE8B8
:1048C0007040FFF7BFBF00BFEFF3058169B100285B
:1048D00008BF70474EF21001CEF200010A68D20301
:1048E00000EBE2700028F9D108E040F2A001C2F22A
:1048F00000010A680B689B1A8342FBD3704700BF14
:1049000040F2A000C2F200000068704710B582B00B
:1049100040F60044C4F202044FF0030C4FF0000EC6
:1049200020464FF4704101220023CDE900ECFFF74F
:10493000ADFC4FF07040A06102B010BD80B582B0F8
:1049400000204FF0000C4FF0020EC4F202000121D3
:1049500000220023CDE900ECFFF798FC02B080BDF7
:104960001020C4F20200006840F29A01C007C2F2AF
:10497000000102BF0020087070470878002812BFAD
:1049800000200120087070471020C4F20200006867
:1049900040F29A01C007C2F2000107D1087800284E
:1049A0004FF0000008BF7047012201E00022012003
:1049B000087010467047000070B590B044F2004493
:1049C000C4F20004A04253D041F20043C4F20103F8
:1049D000984246D041F20003C4F2010398423ED10E
:1049E000002543F624000095C4F20200036A16462F
:1049F00043F010030362036A03F010030093009B6B
:104A0000036843F010030360036823F0100303609E
:104A1000084600F0ADFA04F54C40CDE900060C2044
:104A2000CDE9045025200695CDE902550795FBF701
:104A30000FFD252006210022FBF7CCFC2520FBF7EB
:104A4000F5FC2520FBF7ECFD6846FEF7C3FB41F2C1
:104A50000C00C4F20100016841F02001016010B0B7
:104A600070BD41F20C00C4F2010000F57D7003E05E
:104A700044F20040C4F20000002310B0BDE87040D2
:104A800000E000BF2DE9F04F93B044F2004AC4F2B9
:104A9000000A43F62406984691468B460446504544
:104AA000C4F202061DD041F20000C4F201008442AB
:104AB0003DD100200390306A40F010003062306A2F
:104AC00000F0100003900398306840F01000306050
:104AD000306820F010003060584600F049FA252573
:104AE00038E000200390F069BBF1030F40F4003080
:104AF000F061F06900F400300390039856F8040C5C
:104B000040F4003046F8040C56F8040C20F4003051
:104B100046F8040C19D0BBF1010F0AD0BBF1000F0D
:104B200017D10AF5DE30072703250C2106E02525DD
:104B300010E00AF5E4300727032560210022012355
:104B4000CDE90057FFF75CFC03E05046072100F079
:104B5000FDF926250AF55047BC4229D100200390D3
:104B6000306ABBF1030F40F020003062306A00F081
:104B7000200003900398306840F0200030603068D7
:104B800020F0200030600ED0BBF1000F0FD10AF5ED
:104B9000E23008260325C02100220123CDE900567A
:104BA000FFF72EFC03E03846082100F0CFF9472537
:104BB0000C20089000200790CDE905000A902846B7
:104BC000CDE90349CDF82480FBF742FCA4EB0A00B1
:104BD000B0FA80F0420928460621BC4208BF0622EE
:104BE000FBF7F8FB2846FBF721FC2846FBF718FDEE
:104BF00003A8FEF7EFFAE06840F02000E06013B091
:104C0000BDE8F08FF0B591B044F20044C4F2000466
:104C1000A04254D041F20045C4F20105A84247D059
:104C200041F20005C4F20105A8423FD1002643F637
:104C300024000196C4F20200056A174645F01005EB
:104C40000562056A05F010050195019D056845F0AE
:104C500010050560056825F01005056008461D462D
:104C600000F086F904F54C40CDE901070C20CDE9B0
:104C7000056025200795CDE903660896FBF7E8FB5C
:104C8000252006210022FBF7A5FB2520FBF7CEFB04
:104C90002520FBF7C5FC01A8FEF79CFA41F20C00A9
:104CA000C4F20100016841F02001016011B0F0BDC3
:104CB00041F20C00C4F2010000F57D7003E044F203
:104CC0000040C4F2000011B0BDE8F040DAE600BFD9
:104CD00080B582B040F22C0140F2140344F200424D
:104CE000C2F20001C2F20003C4F20002904208BF07
:104CF0000B4602F5504140F24402C2F200028842E3
:104D000018BF1A460DF107011046012202F0A0FC5F
:104D10009DF80710002808BF0146C8B202B080BD48
:104D200080B540F22C0E40F2140C44F20043C2F263
:104D3000000EC2F2000CC4F20003984208BFF44611
:104D400003F5504E40F24403C2F20003704518BF11
:104D50006346184602F0B2FD80B280BD0A7800BFFB
:104D6000002A08BF704700BF03681B06FCD54260DD
:104D700002681206FCD511F8012FF1E7002A08BFDE
:104D8000704700BF03681B06FCD50B78013A4360EF
:104D900003681B06FCD5002A01F10101F2D170471E
:104DA00080B540F22C0C40F2140344F20042C2F2EF
:104DB000000CC2F20003C4F20002904208BF634636
:104DC00002F5504C40F24402C2F20002604518BFA6
:104DD0001A46104602F09CFC00B280BDB0B50C46ED
:104DE00040F22C0140F2140244F20043C2F20001EE
:104DF000C2F20002C4F20003984208BF0A4603F55B
:104E0000504140F24405C2F200058842204618BFD6
:104E1000154602F00AFF02462846214602F0A4FC8D
:104E200000B2B0BD80B540F22C0140F2140244F251
:104E30000043C2F20001C2F20002C4F20003984231
:104E400008BF0A4640F2440103F55043C2F2000194
:104E5000984218BF1146084602F042FCB0FA80F0B2
:104E6000400980BD80B540F22C0140F2140244F2AA
:104E70000043C2F20001C2F20002C4F200039842F1
:104E800008BF0A4640F2440103F55043C2F2000154
:104E9000984218BF1146084602F08CFBB0FA80F029
:104EA000400980BD80B540F22C0140F2140244F26A
:104EB0000043C2F20001C2F20002C4F200039842B1
:104EC00008BF0A4640F2440103F55043C2F2000114
:104ED000984218BF1146084602F002FC80B280BD1D
:104EE00040F22C0140F2140244F20043C2F20001ED
:104EF000C2F20002C4F20003984208BF0A4640F220
:104F0000440103F55043C2F20001984218BF114614
:104F1000084602F0F7BB00BF40F22C0C40F214032D
:104F200044F20042C2F2000CC2F20003C4F20002DA
:104F3000904208BF634602F5504C40F24402C2F270
:104F40000002604518BF1A4651747047704700BF91
:104F5000704700BF704700BF704700BF704700BF79
:104F6000704700BF704700BF704700BF704700BF69
:104F700070B582B003283CD8DFE800F0022C0B218A
:104F800000204FF0070C0324C4F202004FF4C0616C
:104F900029E00024C4F202040725032620464FF42A
:104FA000007100220123CDE90065FFF729FA04F51D
:104FB0008060802100220123CDE9006517E00020F8
:104FC000C4F20200A0F57040072102B0BDE87040B5
:104FD000FFF7BCBF0020C4F2020000F580604FF074
:104FE000070C0324C02100220123CDE9004CFFF768
:104FF00007FA02B070BD00BF80B582B0032824D08C
:1050000001280FD000281CBF02B080BD44F2004030
:10501000C4F2000000F5DE304FF0070C4FF0030E35
:105020000C210AE044F20040C4F2000000F5E43034
:105030004FF0070C4FF0030E602100220123CDE951
:1050400000ECFFF7DDF902B080BD44F20040C4F28D
:105050000000072102B0BDE88040FFF777BF00BF26
:10506000032817D0002818BF704780B582B041F2DE
:105070000040C4F2010000F574404FF0080C4FF0FE
:10508000030EC02100220123CDE900ECFFF7B8F99F
:1050900002B080BD41F20040C4F201000821FFF7D8
:1050A00055BF00BF10B582B041F20004C4F2010444
:1050B000206880060AD5606801A98DF8040040F2D6
:1050C0001400C2F20000012202F02EFA002001902A
:1050D0002168019161680191019901902168019114
:1050E00061680191019901902168019161680191C4
:1050F00001990190216801916168019101990190E4
:10510000206801906068019001982520FBF788FADB
:1051100002B010BD10B582B044F20044C4F20004E5
:10512000206880060AD5606801A98DF8040040F265
:105130002C00C2F20000012202F0F6F900200190DA
:1051400021680191616801910199019021680191A3
:105150006168019101990190216801916168019153
:105160000199019021680191616801910199019073
:10517000206801906068019001982620FBF750FAA2
:1051800002B010BD10B582B041F20044C4F2010477
:10519000206880060AD5606801A98DF8040040F2F5
:1051A0004400C2F20000012202F0BEF9002001908A
:1051B0002168019161680191019901902168019133
:1051C00061680191019901902168019161680191E3
:1051D0000199019021680191616801910199019003
:1051E000206801906068019001984720FBF718FA49
:1051F00002B010BDF0B583B040F60044C4F2020422
:10520000002501262046802101220023CDE90065EA
:105210008027FFF73BF820464FF4807101220023DE
:10522000CDE90065FFF732F84FF08070A761A0610B
:1052300003B0F0BD2DE9F04F83B043F60847C4F248
:105240000007044607F5E43000F5FF660D4640F61A
:1052500018484FF0000A4FF0010930468021012222
:105260000023C4F20208CDE9009A4FF0800BFFF74B
:105270000DF830464FF4807101220023CDE9009AE9
:10528000FFF704F84FF08070C8F800B0C8F80000CD
:10529000A7F10800012101F0A3FC40F29B06202D9C
:1052A00028BF2025B4FA84F040F29C01C2F2000627
:1052B0004009C2F20001357040F29D0940F29E059E
:1052C0000870C2F200090320C2F2000589F800004C
:1052D00085F800A000F06CFA204600F0D7FE4FF4ED
:1052E00000013078C8F8001057F8081C49060ED5A0
:1052F00039688907FCD539680906F9D43121796004
:105300003968C907FCD039680906F9D4796857F8B3
:10531000081C49060FD500BF39688907FCD53968D4
:105320000906F9D4786000BF3968C907FCD039682C
:105330000906F9D479688021C8F800104FF40001FB
:10534000C8F8001057F8081C49060ED539688907B7
:10535000FCD539680906F9D4322179603968C90762
:10536000FCD039680906F9D4796857F8081C490651
:105370000FD500BF39688907FCD539680906F9D40B
:10538000786000BF3968C907FCD039680906F9D4CC
:1053900079688021C8F800104FF40001C8F80010A7
:1053A00057F8081C49060ED539688907FCD53968B5
:1053B0000906F9D4332179603968C907FCD0396806
:1053C0000906F9D4796857F8081C49060FD500BFBB
:1053D00039688907FCD539680906F9D4786000BFB7
:1053E0003968C907FCD039680906F9D47968802181
:1053F000C8F800104FF40001C8F8001057F8081C56
:1054000049060ED539688907FCD539680906F9D4EB
:10541000342179603968C907FCD039680906F9D4A4
:10542000796857F8081C49060FD500BF3968890705
:10543000FCD539680906F9D4786000BF3868C00720
:10544000FCD038680006F9D478688020C8F80000DD
:105450004FF400013078C8F8001057F8081C4906CE
:105460000FD500BF39688907FCD539680906F9D41A
:10547000352179603968C907FCD039680906F9D443
:10548000796857F8081C49060FD500BF39688907A5
:10549000FCD539680906F9D4786000BF3968C907B6
:1054A000FCD039680906F9D479688021C8F8001061
:1054B0004FF40001C8F8001057F8081C49060ED533
:1054C00039688907FCD539680906F9D4362179602D
:1054D0003968C907FCD039680906F9D4796857F8E2
:1054E000081C49060FD500BF39688907FCD5396803
:1054F0000906F9D4786000BF3868C007FCD0386866
:105500000006F9D478688020C8F80000287899F857
:10551000001000F037FE4FF40000C8F8000057F804
:10552000080C40060FD500BF38688007FCD53868E6
:105530000006F9D4202078603868C007FCD03868AD
:105540000006F9D4786857F8080C40060FD500BF5C
:1055500038688007FCD538680006F9D408207860E0
:105560003868C007FCD038680006F9D47868802015
:10557000C8F800004FF40000C8F8000057F8080C05
:1055800040060ED538688007FCD538680006F9D487
:10559000212078603868C007FCD038680006F9D44C
:1055A000786857F8080C40060FD500BF38688007A8
:1055B000FCD538680006F9D43F2078603868C00709
:1055C000FCD038680006F9D478688020C8F800005C
:1055D0004FF40000C8F8000057F8080C40060ED53C
:1055E00038688007FCD538680006F9D42220786036
:1055F0003868C007FCD038680006F9D4786857F8D6
:10560000080C40060FD500BF38688007FCD5386805
:105610000006F9D43F2078603868C007FCD03868AD
:105620000006F9D478688020C8F800004FF4000024
:10563000C8F8000057F8080C40060ED538688007F7
:10564000FCD538680006F9D4242078603868C00793
:10565000FCD038680006F9D4786857F8080C400682
:105660000FD500BF38688007FCD538680006F9D42C
:105670004F2078603868C007FCD038680006F9D43D
:1056800078688020C8F800004FF40000C8F80000D7
:1056900057F8080C40060ED538688007FCD53868E6
:1056A0000006F9D43C2078603868C007FCD0386820
:1056B0000006F9D4786857F8080C40060FD500BFEB
:1056C00038688007FCD538680006F9D40020786077
:1056D0003868C007FCD038680006F9D478688020A4
:1056E0004FF40001C8F80000C8F8001057F8082C63
:1056F00052060ED53A689207FCD53A681206F9D4DC
:10570000E1227A603A68D207FCD03A681206F9D4EE
:105710007A68C8F80000C8F8001057F8080C40066E
:105720000FD500BF38688007FCD538680006F9D46B
:10573000E22078603868C007FCD038680006F9D4E9
:1057400078688020C8F800004FF40000C8F8000016
:1057500057F8080C40060ED538688007FCD5386825
:105760000006F9D4272078603868C007FCD0386874
:105770000006F9D4786857F8080C40060FD500BF2A
:1057800038688007FCD538680006F9D47020786046
:105790003868C007FCD038680006F9D478688020E3
:1057A000C8F8000000F07CFD012003B0BDE8F08FD8
:1057B0002DE9F04182B040F61845C4F2020543F6E7
:1057C00008464FF40000C4F20006286056F8080CA2
:1057D00040060ED530688007FCD530680006F9D445
:1057E000202070603068C007FCD030680006F9D413
:1057F000706856F8080C40060FD500BF3068800767
:10580000FCD530680006F9D4082070603068C00705
:10581000FCD030680006F9D47068802028604FF40E
:105820000000286056F8080C40060ED53068800746
:10583000FCD530680006F9D4212070603068C007BC
:10584000FCD030680006F9D4706856F8080C4006A1
:105850000FD500BF30688007FCD530680006F9D44A
:105860003F2070603068C007FCD030680006F9D473
:105870007068802028604FF40000286056F8080CFB
:1058800040060ED530688007FCD530680006F9D494
:10589000222070603068C007FCD030680006F9D460
:1058A000706856F8080C40060FD500BF30688007B6
:1058B000FCD530680006F9D4032070603068C0075A
:1058C000FCD030680006F9D47068802028604FF45E
:1058D0000000286056F8080C40060ED53068800796
:1058E000FCD530680006F9D4232070603068C0070A
:1058F000FCD030680006F9D4706856F8080C4006F1
:105900000FD500BF30688007FCD530680006F9D499
:10591000032070603068C007FCD030680006F9D4FE
:105920007068802028604FF40000286056F8080C4A
:1059300040060ED530688007FCD530680006F9D4E3
:10594000242070603068C007FCD030680006F9D4AD
:10595000706856F8080C40060FD500BF3068800705
:10596000FCD530680006F9D4032070603068C007A9
:10597000FCD030680006F9D47068802028604FF4AD
:105980000000286056F8080C40060ED530688007E5
:10599000FCD530680006F9D4252070603068C00757
:1059A000FCD030680006F9D4706856F8080C400640
:1059B0000FD500BF30688007FCD530680006F9D4E9
:1059C000022070603068C007FCD030680006F9D44F
:1059D0007068802028604FF40000286056F8080C9A
:1059E00040060ED530688007FCD530680006F9D433
:1059F000262070603068C007FCD030680006F9D4FB
:105A0000706856F8080C40060FD500BF3068800754
:105A1000FCD530680006F9D40E2070603068C007ED
:105A2000FCD030680006F9D47068802028604FF4FC
:105A30000000286056F8080C40060ED53068800734
:105A4000FCD530680006F9D4272070603068C007A4
:105A5000FCD030680006F9D4706856F8080C40068F
:105A60000FD500BF30688007FCD530680006F9D438
:105A70000E2070603068C007FCD030680006F9D492
:105A80007068802028604FF40000286056F8080CE9
:105A900040060ED530688007FCD530680006F9D482
:105AA000282070603068C007FCD030680006F9D448
:105AB000706856F8080C40060FD500BF30688007A4
:105AC000FCD530680006F9D4002070603068C0074B
:105AD000FCD030680006F9D47068802028604FF44C
