:020000040800F2
:1000000018160020C1010008C54D0008C94D0008A0
:10001000CD4D0008D14D0008D54D0008000000006E
:10002000000000000000000000000000D94D0008A2
:10003000DD4D000800000000E14D0008E94D00081A
:10004000DB010008DB010008DB010008DB01000820
:10005000DB010008DB010008DB010008DB01000810
:10006000DB010008DB010008DB010008DB01000800
:10007000DB010008DB010008DB010008DB010008F0
:10008000DB010008DB010008DB010008DB010008E0
:10009000DB010008DB010008DB010008DB010008D0
:1000A000DB010008DB010008DB010008DB010008C0
:1000B000DB010008DB010008DB010008DB010008B0
:1000C000DB010008DB010008DB010008DB010008A0
:1000D000DB010008C9490008394A0008A94A00089C
:1000E000DB010008DB010008DB010008DB01000880
:1000F000DB010008DB010008DB010008DB01000870
:10010000DB010008DB010008DB010008DB0100085F
:10011000194B0008894B0008DB010008DB010008CF
:10012000DB010008DB010008DB010008DB0100083F
:10013000DB010008DB010008DB010008DB0100082F
:10014000DB010008DB010008DB010008DB0100081F
:10015000DB010008DB010008DB010008F94B0008A7
:10016000DB010008DB010008DB010008DB010008FF
:10017000DB010008DB010008DB01000800000000D3
:10018000DB010008DB010008694C0008D94C0008BD
:10019000DB010008DB010008DB010008DB010008CF
:1001A000DB010008DB010008DB010008DFF80CD0F0
:1001B00004F0F4FE00480047494D000818160020DE
:1001C0000648804706480047FEE7FEE7FEE7FEE7F1
:1001D000FEE7FEE7FEE7FEE7FEE7FEE7ED4D00087F
:1001E000AD01000880B543F60040C4F2020001688A
:1001F00041F400710160016841F4806101600168AF
:1002000041F480710160032000F024F90F2000F018
:1002100005F800F02BF8002080BD00BFB0B540F21B
:10022000CC02C2F2000240F208011278C2F20001D0
:100230004FF47A730968B3FBF2F20446B1FBF2F1B2
:10024000084600F07FF90F2C4FF001050CD858B983
:100250004FF0FF3021460022002500F00BF940F25C
:10026000D000C2F2000004602846B0BD704700BF55
:1002700080B543F61000C4F202004FF0FF310022B7
:10028000016102614161426101600260416042605E
:100290008160826000F002F8002080BD704700BFDE
:1002A00040F2CC0040F21421C2F20000C2F2000180
:1002B00000780A6810440860704700BF40F21420BC
:1002C000C2F200000068704740F2D000C2F20000A5
:1002D0000068704740F2CC02C2F2000213788342F9
:1002E00004BF00207047014640F2D000C2F2000077
:1002F00000681170FFF792BF40F2CC00C2F200001C
:1003000000787047B0B5044602F0C4FF054640F2DD
:10031000CC00C2F200000078611C18BF044400BF8A
:1003200002F0B8FF401BA042FAD3B0BD4EF210005D
:10033000CEF20000016821F002010160704700BFA9
:100340004EF21000CEF20000016841F0020101609F
:10035000704700BF40F20060C0F20710704700BF56
:1003600042F20000CEF204000068000C704700BFAB
:1003700042F20000CEF2040000686FF31F307047B5
:1003800042F20400CEF20400016841F00101016074
:10039000704700BF42F20400CEF20400016821F071
:1003A00001010160704700BF42F20400CEF2040078
:1003B000016841F002010160704700BF42F2040091
:1003C000CEF20400016821F002010160704700BF15
:1003D00042F20400CEF20400016841F00401016021
:1003E000704700BF42F20400CEF20400016821F021
:1003F00004010160704700BF40F20040C4F22720B2
:1004000001210160704700BF40F20040C4F2272084
:1004100000210160704700BF47F61020C1F6FF7051
:100420000068704747F61420C1F6FF7000687047F7
:1004300047F61820C1F6FF70006870472020C4F20C
:1004400027200121016070472020C4F227200021CD
:10045000016070474EF60C51CEF200010A684FF66B
:10046000FF031A4060F30A2242F0806040F0FD7002
:100470000860704710B54EF60C5CCEF2000CDCF84C
:100480000030C3F3022E8EF00704042C28BF04248E
:10049000BEF103034FF0FF3E0EFA04F438BF002311
:1004A000A14399400EFA03F39A43114300F16042CD
:1004B00000F00F03090102F56442043B6344002885
:1004C00048BF03F10C02117010BD00BF002848BFE7
:1004D000704700F01F01012202FA01F11C2202EA1A
:1004E000D0004EF20012CEF200028150704700BFE1
:1004F000002848BF704700F01F01012202FA01F1F5
:100500001C2202EAD0004EF28012CEF2000281508C
:10051000BFF34F8FBFF36F8F704700BF00F000F83D
:100520004EF60C50BFF34F8FCEF20000016804224C
:1005300001F4E061C0F2FA5211430160BFF34F8F42
:1005400000BFFDE7411E0020B0EB116F1CBF012072
:1005500070474EF21002CEF2000251604EF6235167
:10056000CEF20001F0230B700721906011607047FC
:100570004EF62450BFF35F8FCEF20000016821F4E5
:100580008031016000210167704700BF4EF62451A1
:1005900040F00100CEF200010867086840F48030A6
:1005A0000860BFF34F8FBFF36F8F7047F0B50278CD
:1005B0004EF69C5C4378CEF2000C4CF8043CF2B151
:1005C0004368CCF80030037BC17A90F80AE042EA35
:1005D0000372447B42EA0161857B41EACE41C67BDE
:1005E00041EA8441477A41EA4541007A41EA0641BD
:1005F00041EA072141EA4000CCF80400F0BD0020A8
:10060000CCF80000CCF80400F0BD00BF4EF60C5052
:10061000CEF200000068C0F30220704710B500F170
:10062000604C4EF614540CF5644C00F00F0ECEF2F4
:10063000000401F00701002848BF0EEB040C9CF8F1
:1006400000E081F00704042C4FEA1E1C28BF04249C
:10065000033938BF00212CFA01F04FF0FF3C0CFAAF
:1006600004F4A04310600CFA01F0C04300EA1E102D
:10067000186010BD002848BF704700F01F0101221C
:1006800002FA01F11C2202EAD0004EF20022CEF260
:1006900000028150704700BF002844BF002070470F
:1006A0001C214EF2002201EAD001CEF2000289584C
:1006B00000F01F0021FA00F000F00100704700BFB9
:1006C000002848BF704700F01F01012202FA01F123
:1006D0001C2202EAD0004EF28022CEF200028150AB
:1006E000704700BF002844BF002070471C214EF215
:1006F000003201EAD001CEF20002895800F01F005A
:1007000021FA00F000F00100704700BF4EF2100126
:10071000CEF200010A68042822F0040208BF043265
:100720000A607047AFF30080704700002DE9F04188
:10073000044602F0AFFDC4B10546002084F8340041
:10074000022084F835002068016821F00101016071
:1007500020680168C9070BD002F09CFD401B0528EA
:10076000F6D90321202203207AE00120BDE8F081A0
:10077000016848F23F02CFF21002D4E9013501EAE4
:10078000020ED4E9032143EA0E032B43D4E9056C9E
:100790001A43D4E907781143314341EA0702616AF9
:1007A00042EA0802042942EA0C0303D1D4E90B27E8
:1007B0003A43134303604269042922F0070241EAE5
:1007C00002012DD1D4E90A5341EA050143B3BCF536
:1007D000005F08D0BCF1000F12D1022D16D0012D00
:1007E00007D09DB119E0032D17D8DFE805F00B0FF6
:1007F0000B02A3F1C072B2FA82F252094AB90FE0B9
:10080000032D02D2012222B90AE006D1C3F300620D
:1008100032B101214022012022E00022002AF8D139
:1008200000F0F8024AF6AB23103ACAF6AA23A2FB5C
:10083000033745F2C00341613909C0F60003595C32
:1008400040F2FF3398435F2A4FF03F0288BF0430E5
:10085000C4E9160102FA01F18160002201210020A1
:10086000626584F83510BDE8F08100BF002804BF40
:100870000120704790F83510022904BF022070470C
:10088000B0B501684AF6AB2201F0F803D1F800C018
:10089000A3F11005CAF6AA22A5FB022E2CF0010234
:1008A0000A600022212345F2C0040A604A608A607F
:1008B000CA600A614B614FEA1E13C0F60004E35C94
:1008C00040F2FF34A1435F2D4FF03F0588BF043154
:1008D000C0E9161305FA03F3C0E90F22C0E911229B
:1008E000C0E913228B60426580F8352080F83420FF
:1008F0000020B0BD90F834C0BCF1010F31D04FF0F2
:10090000010C80F834C090F835C0BCF1010F25D13E
:1009100010B54FF0020C80F835C084460020CCF8AA
:100920005400DCF800E0DCF808C0DEF80040BCF160
:10093000400F24F48024CEF80040CEF804300B465B
:1009400004BF13460A46CEF80830CEF80C20DEF875
:10095000001041F00101CEF8001010BD002180F818
:1009600034100220704700BF90F834C0BCF1010F72
:1009700004BF0220704770B54FF0010C80F834C0FE
:10098000D0F858E090F835C0BCF1010F3DD14FF0E0
:10099000020C80F835C04FF0000CC0F854C0D0F8FD
:1009A00000C08468056CC06DDCF80060402C26F443
:1009B0008026CCF80060CCF804300B4604BF134608
:1009C0000A463F2101FA00F0CCF80830CCF80C20A0
:1009D000CEF80800DCF8000040F01600CCF800006B
:1009E000DCF8140040F08000CCF814002DB1DCF8E5
:1009F000000040F00800CCF80000DCF8000040F0F7
:100A00000100CCF80000002070BD002180F83410F7
:100A1000022070BD70B5866D044602F03BFC94F870
:100A20003510022928D105462068216C026822F081
:100A300016020260426922F08002426109B9A16C8B
:100A400019B1016821F008010160016821F001017C
:100A5000016000BF20680068C00714D002F01AFCD3
:100A6000401B0628F6D320206065002084F834005F
:100A7000032084F8350070BD80206065002084F874
:100A80003400012070BDE06D3F2101FA00F0B0603C
:100A90000020012184F8340084F8351070BD00BFB7
:100AA00090F83510022909D1052180F83510006829
:100AB000016821F00101016000207047802141653B
:100AC000012070472DE9F04F81B090460E46044654
:100AD00002F0E0FB94F83510022926D18146206807
:100AE0000068C00527D4D4E916A010210096002E76
:100AF00008BF2021DAF8002001FA00FB12EA0B0FF0
:100B000020D0606D00281CBF606D5FEAC07057D1B7
:100B10000099E06D002965D0102101FA00F0CAF8B3
:100B20000800002001B0BDE8F08F80206065002043
:100B300084F8340002E04FF480706065012001B059
:100B4000BDE8F08F08F101074FF0080C01260425DD
:100B500003E000BF10EA0B0FD3D1606DC007D0D106
:100B600067B1B8F1000F4BD002F094FBA0EB090085
:100B7000042501264FF0080C404541D8DAF8000062
:100B8000E16D0CFA01F2024205D0636D43F00103FE
:100B90006365CAF8082006FA01F2024205D0636DC7
:100BA00043F002036365CAF8082005FA01F1014227
:100BB000D0D0626D42F004026265CAF80810C9E73D
:100BC0002046FFF727FFE06D302101FA00F0CAF858
:100BD0000800002084F83400012084F8350001B0BA
:100BE000BDE8F08F302101FA00F0CAF808000020BB
:100BF000012184F8340084F8351001B0BDE8F08F8D
:100C000020206065002084F83400012084F835003D
:100C1000032001B0BDE8F08FF0B581B00021009154
:100C200040F20801C2F200010B68D0E9166148F2F7
:100C3000B51537680822C1F64E358A403A42A3FB03
:100C400005350CD003681C68640708D51C6824F0BF
:100C500004041C60B260426D42F001024265012250
:100C60008A403A4208D003685B691B0604D5B2602B
:100C7000426D42F00202426504228A403A4208D0A4
:100C800003681B689B0704D5B260426D42F0040202
:100C9000426510228A403A4216D001680B681B0751
:100CA00012D5B2600B680A685B0306D4D20506D47D
:100CB0000A6822F008020A6001E011033FD4016CC7
:100CC00011B1044688472046C26D202101FA02F383
:100CD0003B4241D001680F68FF063DD5B36090F8F4
:100CE00035700B68052F1AD123F016030B604B6982
:100CF00023F080034B61036C0BB9836C1BB10B6851
:100D000023F008030B603F219140B160002180F87F
:100D10003410012180F83510016DD9BB3EE00A681E
:100D20005B0310D4D20512D40A6822F010020A60C4
:100D3000002180F83410012180F8351007E0816C23
:100D40000029BED1C0E7110301D4416C00E0C16BA2
:100D500011B1044688472046416DF9B1416DC9077C
:100D600016D0052180F835100168AA0A0B6823F017
:100D700001030B60009B01339342009302D80B6880
:100D8000DB07F7D1002180F83410012180F83510FD
:100D9000C16C19B101B0BDE8F040084701B0F0BD29
:100DA00090F83430012B04BF022070474FF0010C43
:100DB00080F834C090F83530012B08D14FF0000C8A
:100DC00005299EBF01F03F0100EB8101CA630021AC
:100DD00080F834106046704790F83420012A04BF30
:100DE00002207047012280F8342090F83530012B22
:100DF0001FD106291DD8DFE801F004100A0D0713E2
:100E000015000022C26314E00022C26411E0002237
:100E100042640EE0002282640BE00022026408E0DB
:100E2000002205E00022C0E90F22C0E91122C264BD
:100E30000265002180F834101046704790F83500A4
:100E4000704700BF406D70472DE9F04F83B000F14F
:100E5000200200F13E4742F20045019207F1FF7780
:100E6000C4F202050A224FEAB726A84208BF0922A7
:100E7000092E38BF4FEAB7224FF0010E00274FF07E
:100E800000084FF0000900920AE000BF09F10109D3
:100E900008F10408B9F1100F07F1020700F099807A
:100EA0000D680EFA09FA15EA0A0CEFD04D6845F004
:100EB0001005122D14D16FF00302019E02EA5905AC
:100EC00008F01C020F2356F805B003FA02F40B6970
:100ED0002BEA040403FA02F222434FF0010E72518E
:100EE00002680323D1F804B0BB40DD439A430BF002
:100EF0000303BB401A43BBF1120F026013D80EFA72
:100F00000BF212F0061F0ED08268CB682A40BB405D
:100F10001A4382604268CBF3001322EA0A0203FA02
:100F200009F31A434260C2688B682A40BB401A43E7
:100F30005FEACB03C260A9D5002243F644030292C4
:100F4000C4F202031A6843F6004642F480421A6073
:100F50001A68C4F2010602F480420292029A29F051
:100F600003024FF6084A3244CFF6FF7A52F80A30AD
:100F700008F00C040F25A540AB43009D05FA04F4CE
:100F8000234342F80A3032684B6842EA0C04DD031E
:100F900058BF22EA0C04346072689D0342EA0C04D4
:100FA00058BF22EA0C047460B268DD0242EA0C0405
:100FB00043F60C4558BF22EA0C04B460C4F20105A4
:100FC0002A689B0242EA0C0458BF22EA0C042C60F7
:100FD0005CE703B0BDE8F08F2DE9F04F82B000F17F
:100FE0003E4202F1FF7742F200420191C4F2020256
:100FF0000A214FEAB726904208BF092100F1200ECE
:10100000092E38BF4FEAB7210024002700250091A0
:1010100024E000BF0268032101FA04F39A436FF051
:101020000301026001EA550607F01C0C5EF8061089
:101030000F2202FA0CF291434EF806108168994390
:101040008160416821EA0A014160C1689943C16039
:1010500001350437102D04F102043CD0012101FABE
:1010600005FA01991AEA010CF2D043F60041C4F2E4
:101070000101A1F57E7825F0030307F00C0B0F2189
:1010800058F8033001FA0BF9009903EA090301FA51
:101090000BF29342BED1AA0858F8223043F6004121
:1010A00023EA090348F82230C4F201010A6822EA5F
:1010B0000C020A604A6822EA0C024A608A6822EA44
:1010C0000C028A6043F60C41C4F201010A6822EA6C
:1010D0000C020A609EE702B0BDE8F08F006908408C
:1010E00018BF0120704700BF002A08BF09048161B2
:1010F000704700BF42690A408A4208BF0904816103
:10110000704700BF81B04FF480320092009A0A43CA
:101110000092009AC261C1610099C161C1690091E8
:10112000C069012100F4803081EA104001B07047AD
:1011300043F61441C4F201010A68024214BF086078
:10114000704700F001B800BF70470000B0B5A420A0
:10115000C4F20E200121016002F09CF847F2040560
:101160000446C4F2000500BF2868000707D402F057
:1011700091F8001BB0F57A7FF6D90320B0BD0020AE
:10118000B0BD00BFB0B5A420C4F20E2000210160A4
:1011900002F080F847F204050446C4F2000500BFDF
:1011A0002868000707D502F075F8001BB0F57A7FB4
:1011B000F6D90320B0BD0020B0BD00BF2420C4F28A
:1011C0000E200121016070472420C4F20E2000216E
:1011D0000160704747F20000C4F20000006800F4AC
:1011E000404070472DE9F04182B043F640060021AF
:1011F000C4F202060191326842F0805232603268D5
:1012000002F080520192019A56F8382C02F00C023A
:10121000082A03D1012002B0BDE8F08140F2600845
:10122000C4F247280446C8F8001002F033F8054617
:1012300056F8400C800105D502F02CF8401B02281E
:10124000F6D91FE047F200070020C4F20007009023
:10125000386820F4404020433860386800F440404B
:10126000009000980120C8F8000002F013F805462D
:1012700056F8404C02F00EF8A10104460CD4601B55
:101280000228F5D9032002B0BDE8F08102F002F88F
:10129000001BB0F57A7FF5D878684004F6D50020B9
:1012A00002B0BDE8F08100BF70B582B000200190AF
:1012B00043F64000C4F202000168402641F080512C
:1012C00001600068C4F20E2600F080500190019881
:1012D00047F204050120C4F20005306001F0DAFF96
:1012E000044600BF2868C00306D401F0D3FF001BEA
:1012F000B0F57A7FF6D90EE00120706001F0CAFFE8
:10130000044600BF2868800308D401F0C3FF001B17
:10131000B0F57A7FF6D9032002B070BD002002B08C
:1013200070BD00BF70B582B0002043F6400101904F
:10133000C4F202010A68402642F080520A6009683D
:10134000C4F20E2601F08051019147F20405019983
:10135000C4F20005706001F09DFF04462868800318
:1013600006D501F097FF001BB0F57A7FF6D90EE0A5
:101370000020306001F08EFF044600BF2868C003E3
:1013800008D501F087FF001BB0F57A7FF6D903205E
:1013900002B070BD002002B070BD00BF80B581B04A
:1013A0000022009243F64002C4F2020213684EF695
:1013B000105C43F080531360126847F2000302F0A0
:1013C00080520092009AC4F200035A68CEF2000CD8
:1013D00042F440225A601A68012942F440221A60FD
:1013E000D3F800E040F603422EEA020240EA02008F
:1013F0001860DCF8000040F00400CCF8000014BFD6
:1014000020BF30BFDCF8000020F004010020CCF841
:10141000001001B080BD000000207047002804BF0C
:10142000012070472DE9F04182B00446007843F670
:101430000006C007C4F2020649D0B06800F00C00F4
:10144000042809D13068800341D5606800283ED166
:10145000012002B0BDE8F081B06800F00C0008285F
:1014600002D170684002EDD465683068B5F5A02FF0
:1014700005D0B5F5803F09D140F480300CE040F450
:1014800080203060306840F4803005E020F4803007
:101490003060306820F48020306001F0FBFE002DC9
:1014A000054611D03068800311D401F0F3FE401BD3
:1014B0006428F7D9FAE000BF01F0ECFE401B642875
:1014C0004FF0030000F2B48030688003F4D4207839
:1014D000800718D5B06810F00C0F07D0B06800F086
:1014E0000C0008285DD1706840025AD4306880072B
:1014F00002D5E068012815D13068216920F0F80094
:1015000040EAC1003060207800070FD420784007FF
:1015100021D4A569002D00F00081B06800F00C0016
:10152000082871D1012002B0BDE8F081606900286F
:1015300056D00020C4F247200121C0F8801E01F0DF
:10154000A9FE0546706F8007E0D401F0A3FE401BA2
:101550000228F7D9AAE0306C5FEAC0080AD400205C
:101560000190306C40F080503064306C00F080505E
:101570000190019847F20007C4F200073868C005DF
:1015800025D4386840F48070386001F083FE054649
:101590003868C0051BD401F07DFE401B0228F7D936
:1015A00084E0E068002840F20000C4F247204ED0FA
:1015B0000121016001F06EFE054600BF3068800722
:1015C0009AD401F067FE401B0228F7D96EE0A568A7
:1015D000306F052D4CD0012D51D140F0010054E069
:1015E0000020C4F247200021C0F8801E01F052FE06
:1015F000054600BF706F80077FF588AF01F04AFE97
:10160000401B0228F6D951E00027C4F247270020EA
:10161000386601F03FFE022D05460DD1306880018D
:101620005BD501F037FE401B02284FF00300F5D9CF
:1016300002B0BDE8F08100BF306880016DD501F0D7
:1016400029FE401B03284FF00300F5D3F0E70021EB
:10165000016001F01FFE0546306880077FF553AF3B
:1016600001F018FE401B02284FF00300F4D9DFE719
:1016700040F004003067306F40F0010005E020F0DA
:1016800001003067306F20F00400306701F002FE87
:10169000002D054641F2883713D000BF306F800718
:1016A00012D401F0F7FD401BB842F7D9032002B075
:1016B000BDE8F08101F0EEFD401BB8424FF00300A1
:1016C000B6D8306F8007F5D4B8F1000F3FF521AFE1
:1016D000306C20F0805030641BE704F11C052FCDE6
:1016E000084340EA8210D9034FF6FF729143A1F5F7
:1016F000803140EA0560084370600120386601F0DF
:10170000C9FD04463068800107D401F0C3FD001B09
:1017100002284FF00300F5D98AE7002002B0BDE8A7
:10172000F08100BF002804BF012070472DE9F0417F
:1017300043F60808C4F202080446D8F8F8030D4638
:1017400000F00F00884207D288F8F853D8F8F80361
:1017500000F00F00A84271D12068810717D541071A
:1017600005D5D8F8001041F4E051C8F80010010781
:1017700005D5D8F8001041F46041C8F80010D8F839
:101780000010A26821F0F0011143C8F80010C00752
:101790003AD1D8F8F80300F00F00A84207D988F82A
:1017A000F853D8F8F80300F00F00A84246D120689B
:1017B000410707D5D8F80010E26821F4E051114341
:1017C000C8F80010000708D5D8F80000216920F4F7
:1017D000604040EAC100C8F8000000F04FF8D8F8B7
:1017E000001045F2A802C1F30311C0F60002515CDB
:1017F000C84040F20801C2F2000108600F20FEF765
:101800000DFD0020BDE8F0816068811E022907D22D
:1018100058F8081C89015CBF0120BDE8F08110E088
:10182000012807D158F8081C89035CBF0120BDE8D6
:10183000F08106E058F8081C890702D40120BDE8B1
:10184000F081D8F8001021F003010843C8F8000027
:1018500001F020FD064641F2883700BFD8F80000AD
:10186000616800F00C00B0EB810F92D001F012FD26
:10187000801BB842F2D90320BDE8F08110B543F6D1
:101880000404C4F20204606800F00C0142F200405B
:101890000829C0F2F40007D0042918BF10BD41F296
:1018A0000020C0F27A0010BD216801F03F022168DB
:1018B00023684902C3F3881105D4A1FB000100236A
:1018C00003F003FB06E041F20020C0F27A00484337
:1018D000B0FBF2F021680222C1F3014102EB4101A9
:1018E000B0FBF1F010BD00BF70B586B043F6300616
:1018F000002840F2000014460D46C4F20206C4F26D
:1019000002004FF000011FD00191326800F5006025
:1019100042F004023260326802F004020192019A3D
:101920004FF400720192022202920322CDE90312C7
:10193000059101A9FFF788FA56F8280C20F07840A5
:1019400040EAC40028431BE00191326842F00102E2
:101950003260326802F001020192019A4FF4807203
:101960000192022202920322CDE90312059101A9FC
:10197000FFF76AFA56F8280C20F0EC602843204361
:1019800046F8280C06B070BD4C20C4F24720012157
:10199000016070474C20C4F247200021016070476D
:1019A00040F20800C2F200000068704740F20800F0
:1019B00043F60801C2F20000C4F20201006809689F
:1019C00045F2B802C1F38221C0F60002515CC84062
:1019D000704700BF40F2080043F60801C2F2000061
:1019E000C4F202010068096845F2B802C1F342314D
:1019F000C0F60002515CC840704700BF43F60001CA
:101A00000F22C4F2020102600A68520306D40A6877
:101A1000D20354BF00224FF4803201E04FF4A022E1
:101A200042600A6802F00102C2600A68C2F3C4029E
:101A300002610A6F520705D40A6FD2070CBF002259
:101A4000012200E0052282604A6F4FF4C02302F0B9
:101A5000010242610A68D2014FF0020258BF01221E
:101A600082614A6802F48002C2614A6802F03F0261
:101A700002624A68C2F3881242624A6803EA42027A
:101A800002F50032120C82624968C1F30361C1623F
:101A9000704700BF0F22026043F60802C4F2020240
:101AA000136803F003034360136803F0F0038360DB
:101AB000136803F4E053C360D2F800C04FF4E0535E
:101AC00003EADC030361D2F8F80300F00F000860BA
:101AD000704700BF10B543F60C04C4F2020420683E
:101AE000000658BF10BD00F003F88020A07010BDA4
:101AF00070470000002804BF0120704710B504465D
:101B000090F8390028B9002084F83800204600F009
:101B100021F8242084F839002068C16821F400519C
:101B2000C160204600F018F82068016921F4904156
:101B30000161416921F02A014161C16841F400510C
:101B4000C16000202021E06384F8391084F83A1045
:101B500010BD00BF704700BF2DE9F04381B00446BF
:101B6000006804F108030ECB0769194327F44057B6
:101B70003A430261626949F20C671143E269C36842
:101B800048F21F58BB4319431143C1604169A3691F
:101B900021F440711943416141F20041B2F5004F17
:101BA000C5F2EB1840F48060C4F2010138D18842DC
:101BB0006ED1FFF70FFF6168192778434900B0FB2A
:101BC000F1F0A0FB08016FF00F0000EA5106FFF7EB
:101BD00001FF616878434900B0FBF1F5FFF7FAFEB9
:101BE000616878434900B0FBF1F04FF06409A0FB55
:101BF0000801480900FB1950322101EBC000A0FB8D
:101C000008014FF4F87000EA11100644FFF7E2FEF5
:101C1000616878434900B0FBF1F5FFF7DBFE6DE04A
:101C2000884278D1FFF7D6FE61681927784389008A
:101C3000B0FBF1F0A0FB08016FF00F0000EA5106C5
:101C4000FFF7C8FE616878438900B0FBF1F5FFF744
:101C5000C1FE616878438900B0FBF1F04FF0640980
:101C6000A0FB0801480900FB1950322101EB0010CC
:101C7000A0FB0801F02000EA51100644FFF7AAFE7D
:101C8000616878438900B0FBF1F5FFF7A3FE77E0C8
:101C9000FFF78CFE6168192778434900B0FBF1F02B
:101CA000A0FB08016FF00F0000EA5106FFF77EFE6F
:101CB000616878434900B0FBF1F5FFF777FE616892
:101CC00078434900B0FBF1F04FF06409A0FB080134
:101CD000480900FB1950322101EBC000A0FB0801AC
:101CE0004FF4F87000EA11100644FFF75FFE6168D8
:101CF00078434900B0FBF1F5FFF758FE616878437F
:101D00004900B0FBF1F0A0FB0801480900FB1950A5
:101D10000721C00040E0FFF749FE616819277843BA
:101D20008900B0FBF1F0A0FB08016FF00F0000EAA2
:101D30005106FFF73BFE616878438900B0FBF1F57F
:101D4000FFF734FE616878438900B0FBF1F04FF093
:101D50006409A0FB0801480900FB1950322101EB7E
:101D60000010A0FB0801F02000EA51100644FFF724
:101D70001DFE616878438900B0FBF1F5FFF716FEA0
:101D8000616878438900B0FBF1F0A0FB08014809C5
:101D900000FB19500F2100013230A0FB080201EABC
:101DA000521021683043886001B0BDE8F08300BF65
:101DB000002804BF0120704710B5044690F8390090
:101DC00028B9002084F838002046FFF7C3FE2420FD
:101DD00084F839002068C16821F40051C1602046B0
:101DE000FFF7BAFE2068016921F490410161416961
:101DF00021F022014161416941F008014161C1685E
:101E000041F40051C16000202021E06384F83910C2
:101E100084F83A1010BD00BF002804BF01207047AD
:101E2000B0B5044690F839000D4628B9002084F872
:101E300038002046FFF78EFE242084F83900206801
:101E4000C16821F40051C1602046FFF785FE20687B
:101E5000016921F400610161416921F02A014161B8
:101E6000016941F480410161016921F020010161B2
:101E7000016929430161C16841F40051C16000203A
:101E80002021E06384F8391084F83A10B0BD00BF17
:101E9000002804BF0120704770B5044690F839004F
:101EA00015460E4628B9002084F838002046FFF772
:101EB00051FE242084F839002068C16821F40051C3
:101EC000C1602046FFF748FE2068016921F4904177
:101ED0000161416921F02A014161016921F00F018D
:101EE0000161016931430161C16821F40061C16090
:101EF000C1682943C160C16841F40051C16000203C
:101F00002021E06384F8391084F83A1070BD00BFD6
:101F1000002804BF0120704710B5242180F8391033
:101F200001680446CA6822F40052CA6000F00AF848
:101F30000020E06384F8390084F83A0084F838001F
:101F400010BD00BF704700BF2DE9F041044690F876
:101F5000390020280CD10F4600294FF0010018BF8E
:101F6000002A01D1BDE8F08194F83800012802D19F
:101F70000220BDE8F081012084F838000020E063F1
:101F800021201D4684F83900164601F083F9A68405
:101F9000E684E18C8046002943D06E1C06E000BF39
:101FA00017F8010B21684860E08CD0B3E08C013851
:101FB000E0842068A1680068B1F5805F04D1000664
:101FC00016D496B15DB934E00006E9D43EB305BB42
:101FD0002FE000BF016809060AD4002EFAD001F0F4
:101FE00059F9A0EB0800A84223D82068F2E700BF07
:101FF0003888216922686FF35F200029506014BF80
:1020000001370237D0E700BF01680906C8D4002EA7
:10201000FAD001F03FF9A0EB0800A84209D82068E7
:10202000F2E720680068400620D415B16E1C10D07D
:1020300015E02068C16821F4D071C160416921F0C8
:1020400001014161202084F8390084F83A0003201E
:1020500010E020680168490608D4002EFAD001F08B
:1020600019F9A0EB0800A842F3D9E2E7202084F890
:1020700039000020002184F83810BDE8F08100BF4D
:102080002DE9F04381B0044690F83A0020280DD1A4
:102090000E4600294FF0010018BF002A02D101B0FE
:1020A000BDE8F08394F83800012803D1022001B084
:1020B000BDE8F083012084F838004FF000082220AA
:1020C0001D46C4F83C8084F83A00174601F0E2F857
:1020D000A785E785E18D00294BD081466F1C0AE07A
:1020E000206821694068002918BF00F07F0006F8C9
:1020F000010BE08DE8B3E08D0138E0852068A16830
:102100000068B1F5805F05D1800617D49FB165B92D
:1021100031E000BF8006E3D44FB315BB2BE000BF16
:10212000016889060AD4002FFAD001F0B3F8A0EBB9
:102130000900A8421FD82068F2E700BF2068216983
:10214000406819B1C0B226F8010BD2E76FF35F20E7
:1021500026F8020BCDE700BF01688906C0D4002F26
:10216000FAD001F097F8A0EB0900A84203D8206844
:10217000F2E700200CE02068C16821F4D071C16052
:10218000416921F001014161202084F839000320D8
:10219000202184F83A1084F8388001B0BDE8F0833B
:1021A00090F83930202B0BD100294FF0010318BFD4
:1021B000002A01D11846704790F83830012B02D11F
:1021C0000223184670470162002321218284C284C1
:1021D000C36380F83910016880F83830C86840F06F
:1021E0008000C86018467047034690F83A002028DF
:1021F0000AD100294FF0010018BF002A00D1704712
:1022000093F83800012801D102207047996200201C
:1022100022219A85DA85D86383F83A10196883F801
:102220003800CA6842F48072CA604A6942F001020A
:102230004A61CA6842F02002CA60704790F839309B
:10224000202B1CBF02207047B0B5964600294FF0E6
:10225000010218BFBEF1000F03D1BDE8B040104627
:10226000704790F83820012A01D10222F5E70122B7
:1022700080F83820002221230162A0F824E0A0F891
:1022800026E0C26380F83930D0F830C042F2D5245D
:1022900042F2FD25C0F60004C0F600050368CCE953
:1022A0000F4542F20534C0F60004CCE913421A1D72
:1022B000044660467346FEF757FB206800226FF025
:1022C0004001016084F83820416941F0800141619A
:1022D000C3E700BF0168806B0968C90548BF00F00B
:1022E000CBBB0021C1840068416921F080014161BC
:1022F000C16841F04001C160704700BF806B00F0D1
:10230000BDBB00BF806B01684A6990F83930212B52
:102310000BD112F0800208D00022C284CA6822F0D9
:10232000C002CA60202280F839204A6990F83A3009
:10233000222B0FD112F040020CD00022C285CA68B5
:1023400022F49072CA604A6922F001024A61202197
:1023500080F83A10C16B41F01001C16300F08ABBF4
:1023600090F83A30202B1CBF02207047B0B582B0E5
:1023700096460A4600294FF0010118BFBEF1000F32
:1023800004D102B0BDE8B0400846704790F838105C
:10239000012901D10221F4E7012180F83810002140
:1023A00022238262A0F82CE0C16380F83A30D0F892
:1023B00034C042F2114442F24945C0F60004C0F66E
:1023C00000050368CCE90F4542F20534C0F600046D
:1023D000CCE91341191D044660467346FEF7C4FA62
:1023E0000021019120680268019242680192019ADD
:1023F00084F83810C26842F48072C260426942F0C8
:1024000001024261426942F040024261B9E700BF05
:102410000168806B0968C90548BF00F031BB002125
:10242000C1850168CA6822F48072CA604A6922F0D4
:1024300001024A614A6922F040024A61202180F883
:102440003A1000F01DBB00BF806B00F01BBB00BF4B
:1024500090F83810012904BF02207047012201685A
:1024600080F838204A6990F83930212B06D112F0D3
:10247000800203D04A6922F080024A614A6990F8DA
:102480003A30222B0ED112F040020BD0CA6822F44F
:102490008072CA604A6922F001024A614A6922F0E8
:1024A00040024A61002180F838100020704700BFC8
:1024B00090F83810012904BF02207047012180F8EC
:1024C000381090F83910212904D101684A6942F086
:1024D00080024A6190F83A10222915D181B000217A
:1024E000009101680A6800924A680092009ACA68DE
:1024F00042F48072CA604A6942F001024A614A6944
:1025000042F040024A6101B0002180F838100020FA
:10251000704700BF10B504460068416994F839203F
:10252000212A13D111F0800110D0416921F08001DE
:102530004161206B002818BFFEF76CFA2068C16863
:1025400021F0C001C160202084F839002068416971
:1025500094F83A20222A17D111F0400114D0416991
:1025600021F040014161606B002818BFFEF752FA6C
:102570002068C16821F49071C160416921F00101B6
:102580004161202084F83A00002010BD10B50446B7
:102590000068C16821F4F071C160416921F0010156
:1025A0004161416909060FD5416921F0800141610E
:1025B000206B48B100210165FEF72CFA20B1206B99
:1025C000FEF740FC202813D020684169490613D546
:1025D000416921F040014161606B68B100210165F2
:1025E000FEF718FA40B1606BFEF72CFC202803D1EF
:1025F0001020E063032010BD00202021E084E0854E
:10260000E06384F83A1084F8391010BD10B5044620
:102610000068C16821F0C001C1604169090613D595
:10262000416921F080014161206B68B100210165A1
:10263000FEF7F0F940B1206BFEF704FC202803D12F
:102640001020E063032010BD00202021E08484F8E6
:10265000391010BD10B504460068C16821F49071AE
:10266000C160416921F0010141614169490613D509
:10267000416921F040014161606B68B10021016551
:10268000FEF7C8F940B1606BFEF7DCFB202803D1F0
:102690001020E063032010BD00202021E08584F895
:1026A0003A1010BD10B501680446006BCA6822F4E8
:1026B000F072CA604A6922F001024A6140B14A6977
:1026C00042F24D731206C0F6000303EAE27202659D
:1026D000626B4AB14B694FEA436C42F27573C0F6C4
:1026E000000303EAEC7313654A6912060BD54A69C5
:1026F00022F080024A6130B1FEF7D2F94FF00001BA
:1027000010B1206B016501212068426952060DD588
:10271000426922F040024261606B38B1FEF7C0F9B5
:102720004FF0000110B1606B0165012159B100202B
:10273000E084E085E063202084F8390084F83A00E2
:10274000204600F02BF8002010BD00BF806B002158
:10275000D0E90C3219651AB1126D002A18BF704702
:10276000C184C185C163202180F8391080F83A10F6
:1027700000F014B8806B0021D0E90C2319651AB160
:10278000126D002A18BF7047C184C185C163202122
:1027900080F8391080F83A10AFF30080704700BF1E
:1027A00010B50168CA6822F0C002CA604A69120600
:1027B00014D54A6922F080024A61016B71B1044666
:1027C00042F2F170C0F6000008650846FEF768F9AD
:1027D00058B1206B016D8847002010BD0021C184D5
:1027E000202180F8391000F00BF8002010BD00BF48
:1027F000806B0021C184202180F83910AFF3008064
:10280000704700BF10B50168CA6822F49072CA60B0
:102810004A6922F001024A614A69520614D54A699E
:1028200022F040024A61416B71B1044642F65D00FC
:10283000C0F6000008650846FEF732F958B1606B33
:10284000016D8847002010BD0021C185202180F83E
:102850003A1000F00BF8002010BD00BF806B002183
:10286000C185202180F83A10AFF30080704700BF87
:10287000B0B501680A68CC684B6902F02F05202DBD
:1028800004F0200503D115B1BDE8B040B0E05FEA27
:10289000027C1EBF03F0010E04F4907313EB0E03D1
:1028A00029D1130616D514F0800313D090F83920DF
:1028B000212A31D18368026AB3F5805F23D113885E
:1028C0006FF35F234B600369002B14BF01320232A8
:1028D00002621CE052061FD514F0400208BFB0BDD2
:1028E000CA6822F04002CA60202180F83910BDE891
:1028F000B04000F0C1B8D10718BF14F480710CD1FA
:10290000510710D416E0531C036212784A60C28C3F
:10291000013A1304C2845DD0B0BDC16B41F0010126
:10292000C163510706D5BEF1000F03D0C16B41F062
:102930000201C163910706D5BEF1000F03D0C16B40
:1029400041F00401C163BCF1000F06D5BEF1000FD8
:1029500003D0C16B41F00801C163C16B0029DBD01A
:10296000910604D51DB1044600F042F820460168E6
:102970004A69C36B02F0400203F00803D21823D067
:10298000CA6822F49072CA604A6922F001024A6160
:10299000202280F83A204A69520624D54A6922F05A
:1029A00040024A61416BF1B142F66922C0F6000271
:1029B000044608460A65FEF773F80028ACD0606B41
:1029C000016DBDE8B0400847044600F053F8002010
:1029D000E063B0BDC86820F08000C860C86840F0FF
:1029E0004000C860B0BDBDE8B04000F043B800BFD3
:1029F00090F83A10222918BF70478168B1F5805FBE
:102A000008D102680369816A52687BB1D2B221F8A9
:102A1000012B0FE0016802694968002A826A18BF29
:102A200001F07F01531C8362117004E06FF35F2299
:102A300021F8022B8162C18D01390A04C18500D0C1
:102A400070470168CA6822F02002CA60CA6822F48E
:102A50008072CA604A6922F001024A61202180F82E
:102A60003A1000F00DB800BF806B0021C185C18411
:102A7000AFF30080704700BF704700BF704700BFD2
:102A8000704700BF704700BF90F83810012904BF9D
:102A900002207047242180F839100168CA6842F08A
:102AA0000102CA60202180F83910002180F8381016
:102AB0000020704790F83810012904BF02207047A9
:102AC000242180F839100168CA6842F00202CA6005
:102AD000202180F83910002180F83810002070473C
:102AE00090F83810012904BF02207047242180F893
:102AF00039100168CA6822F00202CA60202180F8F9
:102B00003910002180F838100020704790F83810F4
:102B100001294FF002010DD0242280F839200268EB
:102B2000D36861F383032021D36080F8391000213A
:102B300080F838100846704790F83810012904BF13
:102B400002207047242180F8391001680123CA68E7
:102B500063F38302CA60202180F83910002180F8D5
:102B600038100020704700BF90F8391090F83A00F4
:102B70000843C0B2704700BFC06B704710B592B039
:102B8000002043F640010190C4F202010A680124CA
:102B900042F080520A60096801F080510191019968
:102BA00047F200010190C4F200010A6842F4404279
:102BB0000A60096801F44041019101994FF48031A4
:102BC000029104904FF4800008210890022009919E
:102BD0004FF4B4710790CDE90A1007200C9001A8BA
:102BE0000194FEF71BFCC0B9FEF75EFB08B101249F
:102BF00013E002200E9000200F900F200D904FF454
:102C0000A05010904FF4805011900DA80621FEF7AF
:102C100089FD0446002818BF0124204612B010BDCB
:102C20002DE9F04F81B00029009351D000F10077D9
:102C300043F6300607F1FF77C4F20206C7F38F2789
:102C40004FF00108356808FA07F72F433760C0F3E3
:102C5000872740F2F00B87F0800EA2F1010A0027CF
:102C6000C2F2000B002604E00136102E07F1020725
:102C70002ED008FA06F40C42F6D03BF81E5003237F
:102C800025432BF81E50C56803FA07FC0A9B25EA6A
:102C90000C0503FA07F945EA0905C560056802FA5B
:102CA00007F325EA0C052B43BAF1010F0360DBD8CB
:102CB00043686FEA0C05A343009CB440A4B22343CD
:102CC000436083682B400B9DBD402B438360CBE763
:102CD00001B0BDE8F08F00BF00F1007043F6300294
:102CE00000F1FF70C4F20202C0F38F2001211368CB
:102CF00001FA00F018431060704700BF2DE9F04F53
:102D000081B0C0F3872740F2F00B87F0800CA2F16E
:102D1000010A00264FF00108C2F2000B00250093C3
:102D200005E000BF0135102D06F102062ED008FA8D
:102D300005F70F42F6D03BF81C4003233C432BF829
:102D40001C40C46803FA06FE0A9B24EA0E0403FA38
:102D500006F944EA0904C460046802FA06F324EAA6
:102D60000E042343BAF1010F0360DBD84368009CD3
:102D7000BB43AC40A4B22343436083686FEA0E07B1
:102D80003B400B9FB7403B438360CBE701B0BDE8BE
:102D9000F08F00BF002908BF70472DE9F04F00F108
:102DA000007443F6300604F1FF74C4F20206C4F363
:102DB0008F240125376805FA04F4DDF828E03C4348
:102DC000346000F1200A00266FF003084FF00F096D
:102DD000002404E00134102C06F1040614D021FA7A
:102DE00004F5ED07F6D008EA54055AF805B006F0E8
:102DF0001C0709FA07FC2BEA0C0C0EFA07F747EA46
:102E00000C074AF80570E5E7C0F3872740F2F00C9D
:102E100087F0800E00244FF0010AC2F2000C002758
:102E200005E000BF0137102F04F102042CD00AFA8C
:102E300007F50D42F6D03CF81E6003FA04F82E4365
:102E40002CF81E60D0F80CB0032606FA04F92BEA21
:102E5000090B4BEA0806C660066826EA090802263E
:102E6000A64046EA08060660466826EA050502FA14
:102E700007F6B6B2354345608568099E25EA09051F
:102E8000A64035438560CDE7BDE8F04F704700BFF1
:102E90002DE9F041C0F3872240F2F00882F0800271
:102EA00000234FF0010C4FF0030EC2F20008002582
:102EB00007E000BF0135102D03F1020308BFBDE894
:102EC000F0810CFA05F60E42F4D007680EFA03F40E
:102ED0003C43046038F81240B44328F81240E9E754
:102EE00000F1007000F1FF70C0F38F20704700BF49
:102EF00010B54FF0000E4FF0030C002306E000BFAA
:102F00000133102B0EF1020E08BF10BD21FA03F29F
:102F1000D207F5D002680CFA0EF4A2430260EFE784
:102F2000B0B500224FF0030C4FF0010E002305E076
:102F30000133102B02F1020208BFB0BD21FA03F4E5
:102F4000E407F5D004680CFA02F5AC430EFA02F57A
:102F50002C430460ECE700BF10B54FF0000E4FF0BB
:102F6000030C002306E000BF0133102B0EF1020E0C
:102F700008BF10BD21FA03F2D207F5D002680CFA9F
:102F80000EF422430260EFE7B0B500224FF0030CCD
:102F90004FF0020E002305E00133102B02F1020274
:102FA00008BFB0BD21FA03F4E407F5D004680CFAB9
:102FB00002F5AC430EFA02F52C430460ECE700BFC7
:102FC000B0B54FF0000E4FF0030C002306E000BF39
:102FD0000133102B0EF1020E08BFB0BD21FA03F42D
:102FE000E407F5D0C4680CFA0EF5AC4302FA0EF50E
:102FF0002C43C460ECE700BF01F58032C261C161BF
:10300000C261C169C06970470021022805D300BFB1
:10301000013103284FEA5000FAD888B2704700BF48
:1030200000F1007043F6300200F1FF70C4F20202BA
:10303000C0F38F200121136801FA00F023EA000099
:103040001060704700F1007000F1FF7040F2F00175
:10305000C0F38F20C2F2000131F81000704700BFAA
:1030600000F1007000F1FF7040F2F001C0F38F201A
:10307000C2F2000131F810004FF6FF71484070476E
:103080004EF6FC50CEF20000016821F08071016024
:10309000016841F08071016041F20000CEF2000051
:1030A000016821F001010160016841F00101016046
:1030B00000214160416800BF00BF4068401A70476E
:1030C0002DE9F04381B040F2D808C2F2000898F828
:1030D0000040042C1ED806461420994615460F467B
:1030E00001F0ACFFB0B10899027807F0010302F0DB
:1030F000FC0265F34103C0E90391611C1A4488F89E
:10310000001008EB84010270C0E90166486001B05C
:10311000BDE8F083002001B0BDE8F08370B540F257
:10312000D80CC2F2000C9CF8004084B100210022AF
:103130000CEB81035B6883420ED00132A24201F1A5
:103140000101F5D323461146A34204D007E0002332
:103150000021A34203D170BD1346A342FBD00CEB68
:1031600081004068EFF31086EFF3108172B69CF88F
:103170000010013999420ADD0CEB8302141D22462E
:1031800052F8045F0133256099421446F8DC8CF84C
:10319000001001F02BFF002E18BF70BD62B670BD8D
:1031A000017801F0FD010170704700BF017841F026
:1031B00002010170704700BF41688160704700BF25
:1031C0000278002918BF012102F0FE0211440170AB
:1031D000704700BF41607047704700BF40F20C105D
:1031E000C2F2000001680131016040F21010C2F229
:1031F0000000016811B101680139016070B540F249
:10320000D804C2F20004207818B3002504E000BFFF
:103210002078013585421CD204EB850670680028B1
:10322000F6D001788907F3D5816800291CBF0139E0
:10323000816081680029EBD1D0E903219047706853
:1032400001784268CB07826004BF01F0FC01017085
:10325000DEE7BDE87040FFF7BFBF00BFEFF30581B9
:1032600069B1002808BF70474EF21001CEF200018C
:103270000A68D20300EBE2700028F9D108E040F2BE
:103280000C11C2F200010A680B689B1A8342FBD33F
:10329000704700BF40F20C10C2F200000068704797
:1032A00010B582B041F60004C4F202044FF0030CE2
:1032B0004FF0000E20464FF4C04101220023CDE91B
:1032C00000ECFFF7ADFC4FF0C040A06102B010BDB4
:1032D00080B582B000204FF0000C4FF0020EC4F217
:1032E0000200012100220023CDE900ECFFF798FC49
:1032F00002B080BD1020C4F20200006840F20A1142
:10330000C007C2F2000102BF0020087070470878B1
:10331000002812BF00200120087070471020C4F25E
:103320000200006840F20A11C007C2F2000107D192
:10333000087800284FF0000008BF7047012201E024
:1033400000220120087010467047000010B50446A6
:103350000020C4E90010C4E90202C4E904000A2004
:10336000607442B9084601F069FEE06048B1207C13
:1033700040F002002074207C40F001002074002006
:1033800010BD00202060012010BD00BF002808BF34
:103390007047017C890708D510B5C1680446084606
:1033A00001F024FE2046BDE81040002101740160B8
:1033B000704700BF2DE9F041054600284FF000009E
:1033C00008BFBDE8F0811446A2B3D5E900028242ED
:1033D00024BF00226A60D5E901239A1A034688BFF8
:1033E000134638BF13185A1EA24201D214461AB30C
:1033F0006A68EB68871A2646A74238BF3E46981887
:103400003246884601F092FD6868BC4230446860EC
:1034100009D90020A71B6860E86808EB06013A4656
:1034200001F084FD6F60D5E90001814224BF0020D6
:1034300068602046BDE8F0810020BDE8F08100BF53
:10344000002804BF00207047D0E90123934208BF41
:1034500001689A1A88BF11463CBF00688118481E4F
:10346000704700BF00284FF0000318BF002A01D1A9
:1034700018467047D0E900C3634524BF002343606A
:103480008368634524BF0023836010B5D0E9013E03
:10349000BEEB030E634688BF734638BF0EEB0C03CA
:1034A000013B934201D21A469BB192B1A1F1010CAA
:1034B000134600BF8168002908BF01680139816097
:1034C0001CF803E0C468013B04F801E0F2D11346A4
:1034D00000E00023BDE81040184670472DE9F04198
:1034E000054600284FF0000008BFBDE8F0811446F3
:1034F000BAB32868AA68824224BF0022AA60D5E92C
:103500000137DA1B38BF00229F4203EB000688BF59
:10351000F21BA24201D214462AB3D5E90223264661
:10352000871A1A44A74238BF3E46884608461146C5
:10353000324601F0FBFCA868BC423044A86009D9BF
:10354000A71B0020E968A86008EB06003A4601F0D6
:10355000EDFCAF602868A968814224BF0020A86004
:103560002046BDE8F0810020BDE8F081014600283A
:103570004FF000000AD0D1E901C3BCEB030224BF25
:10358000104670470868ACEB03010844704700BF61
:1035900000281CBF0021C0E901117047002804BFAA
:1035A0004FF0FF307047B0B5D0E90123B2EB030E06
:1035B00038BF4FF0000E03D20468D21A02EB040E9B
:1035C000BEF1000F12D0D0F800C0D0E902230024D1
:1035D000002000BF624528BF22469D5C8D4208BF87
:1035E000B0BD0130864502F10102F3D14FF0FF304A
:1035F000B0BD00BF002804BF4FF0FF3070472DE979
:10360000F04F81B08446D0E90103C51A38BF0025C8
:1036100003D2DCF80070C01AC51995424FF0FF3094
:1036200045D3002D43D0DCF800E0DCE9023C11F882
:10363000019B901E00904FF0000A4FF0000B0020FD
:1036400006E028446E1C641B964230D0254664B3C5
:10365000734528BF53461CF8034001334C4508BF4F
:103660004FF0010B6C1E5FEA0B6600F10100EDD01C
:10367000022A4FF00106E7D3002CE5D0009E023D60
:10368000B54228BF35466E1C002500BF734528BFD4
:1036900053461CF8037011F805804745D1D1013518
:1036A000AE4203F10103F1D1CCE74FF0FF3001B09E
:1036B000BDE8F08F2DE9F04381B004460846894605
:1036C00001F046FC002C4FF0000618BF002835D052
:1036D000D4E900720646BA4224BF00226260D4E9EF
:1036E000012339469B1A88BF194638BFD9194B1E8A
:1036F000834201D21E462BB3E068BD1A3746B5425D
:1037000038BF2F46104449463A4601F00FFC606826
:10371000AE42384460600BD90020A6EB0708606019
:10372000E06809EB0701424601F000FCC4F80480A0
:10373000D4E90001814224BF00206060304601B01E
:10374000BDE8F0830026F9E72DE9F04F83B00028AB
:103750004ED08246D0E90103834208BFDAF800C0A8
:10376000181A88BF84463CBFDAF8003003EB000C1F
:10377000DAE90104B0EB040E38BF4FF0000E04D2BA
:10378000DAF80030001B00EB030EBEF1000F4FF023
:10379000000600F08780DAE90103C41A28BF264634
:1037A00003D2DAF80040C01A0619D6B19AF811907F
:1037B000DAF80000DAF80C404FF00008002700BFEC
:1037C000834228BF4346E55C4D4506D00137BE42E3
:1037D00003F10103F4D14FF0FF37F80F964503D3FF
:1037E00008E00120964505D220B1BCF1010F01D0BF
:1037F000002657E0501E4FF000034FF000060190E6
:103800004BD000BFDAF800B0DAF808000C46584593
:1038100028BFCAF80830DAE90109B0EB090838BF57
:103820009846814500EB0B0188BFA1EB0908B8F170
:10383000000F31D0DAF80C50BBEB090718BF012795
:1038400005EB09010DF10B003A4601F06FFB002377
:1038500009EB0700CB45CAF8080007D1CAF80830C1
:1038600028788DF80B000120CAF80800DAF8080063
:103870002146584528BFCAF80830B8F1000F0CD0CF
:103880009DF80B0088559AF81120904205D00198B8
:103890000136B042B6D100E021460198864218BFF9
:1038A00001368B55304603B0BDE8F08F002804BFC9
:1038B00000207047B0B583684FF0000C81B1D0F89C
:1038C00004E09E450CD00468002500BF01330CF1D4
:1038D000010CA34228BF2B468C4501D29E45F5D151
:1038E0008C451CBF0020B0BDC068C05C10700120BA
:1038F000B0BD000070B590B047F2FF73C4F2000392
:1039000098424FDC44F6FF33C4F20003984262DC75
:1039100044F20044C4F20004A04200F0BC8044F62B
:103920000003C4F20003984240F0B380002543F640
:1039300020000095C4F20200036A164643F4802377
:103940000362036A03F480230093009B036843F43B
:1039500080230360036823F480230360084600F09B
:1039600011FF04F58060CDE900060C20CDE904507C
:1039700027200695CDE902550795FCF7B9FD2720CC
:1039800006210222FCF776FD2720FCF79FFD272069
:10399000FCF796FE6846FEF7ADF844F60C00C4F25C
:1039A000000072E040F6FF73C4F20103984221DC8C
:1039B00047F60003C4F20003984271D047F6004373
:1039C000C4F20003984264D145F20000C4F2000042
:1039D00000F5305076E044F60043C4F2000398420C
:1039E00065D045F20003C4F20003984251D145F27C
:1039F000000052E041F20043C4F2010398425BD060
:103A000041F20003C4F20103984242D1002443F67C
:103A100020000094C4F20200436A154643F01003EC
:103A20004362436A03F010030093009B436843F032
:103A300010034360436823F010034360084600F01E
:103A400029FE45F20000C4F2000000F54040CDE937
:103A500000050C20CDE9044025200694CDE9024460
:103A60000794FCF745FD252006210022FCF702FD06
:103A70002520FCF72BFD2520FCF722FE6846FEF7EB
:103A800039F841F20C00C4F20100016841F0200154
:103A9000016010B070BD44F20040C4F2000011E0BB
:103AA00045F20000C4F2000000F520500AE044F6A0
:103AB0000C00C4F2000003E041F20C00C4F201006B
:103AC00000F57D70002310B0BDE8704000E000BF3D
:103AD0002DE9F04F97B0044644F2004043F6200B26
:103AE000C4F2000040F6000A0E46C4F2020B844203
:103AF000C4F2020ACDE9042325D041F20000C4F249
:103B00000100844244D100200790DBF8240040F0FB
:103B10001000CBF82400DBF8240000F01000079020
:103B20000798DBF8040040F01000CBF80400DBF845
:103B3000040020F01000CBF80400304600F0AAFD8D
:103B40004FF025093AE000200790DBF82000032E13
:103B500040F40030CBF82000DBF8200000F4003007
:103B600007900798DBF8000040F40030CBF8000025
:103B7000DBF8000020F40030CBF8000017D0012E55
:103B800009D0CEB9AAF50060072703250C2107E06C
:103B90004FF0250912E00AF5806007270325602110
:103BA00000220123CDE90057FFF7F4F804E0AAF55D
:103BB000E230072100F05CFD4FF02609AAF5E03065
:103BC000844203901ED100200790DBF8200040F4CF
:103BD0008020CBF82000DBF8200000F48020079044
:103BE0000798DBF8000040F48020CBF80000DBF8F9
:103BF000000020F48020CBF80000304600F0C2FD29
:103C00004FF02709AAF5DE308442069036D1002015
:103C10000790DBF82000032E40F40020CBF82000B2
:103C2000DBF8200000F4002007900798DBF8000084
:103C300040F40020CBF80000DBF8000020F4002066
:103C4000CBF8000014D0012E06D0AEB9AAF5006062
:103C500008270325032104E00827032550464FF4D5
:103C6000406100220123CDE90057FFF793F803E0FC
:103C70000698082100F0FCFC4FF03409AAF5DC3767
:103C8000BC4238D100200790DBF82000032E40F41E
:103C90008010CBF82000DBF8200000F480100790A3
:103CA0000798DBF8000040F48010CBF80000DBF848
:103CB000000020F48010CBF8000016D0CEB94FF0F1
:103CC0000808032550464FF4805100220123CDE916
:103CD0000058FFF75FF80AF58060042100220123F5
:103CE000CDE90058FFF756F803E03846082100F008
:103CF000BFFC4FF03509AAF57445AC423AD100201B
:103D00000790DBF82400032E40F02000CBF82400BD
:103D1000DBF8240000F0200007900798DBF804008F
:103D200040F02000CBF80400DBF8040020F0200075
:103D3000CBF8040018D0012E07D0CEB94FF0080CF4
:103D40004FF0030E5046C02107E00AF580504FF0B7
:103D5000080C4FF0030E4FF4844100220123CDE9FB
:103D600000ECFFF717F803E02846082100F080FC7C
:103D70004FF04709AAF5C83844453BD100200790C9
:103D8000DBF82000032E40F08040CBF82000DBF869
:103D9000200000F0804007900798DBF8000040F01A
:103DA0008040CBF80000DBF8000020F08040CBF82A
:103DB000000019D0012E09D0D6B90AF500604FF0E5
:103DC000080C4FF0030E4FF4C07106E00AF5406096
:103DD0004FF0080C4FF0030EC02100220123CDE963
:103DE00000ECFEF7D7FF03E04046082100F040FC5E
:103DF0004FF0520931462E463D46AAF5C637BC4221
:103E000030D100200790DBF82000032940F000406B
:103E1000CBF82000DBF8200000F000400790079866
:103E2000DBF8000040F00040CBF80000DBF80000B9
:103E300020F00040CBF800000ED089B90AF50060F0
:103E40004FF0080C4FF0030E032100220123CDE9AF
:103E500000ECFEF79FFF03E03846082100F008FC65
:103E60004FF0530904980794089005980D900C2082
:103E70000C9000200B90CDE909000E904846FCF70D
:103E800037FBA4EB0A0000F5E230B0FA80F04209FB
:103E900003980621844208BF02220698844208BF84
:103EA0000422AC4208BF0522B44208BF06224445A2
:103EB00008BF07224846BC4208BF0822FCF7DAFACE
:103EC0004846FCF703FB4846FCF7FAFB07A8FDF75A
:103ED00011FEE06840F02000E06017B0BDE8F08F10
:103EE000F0B591B047F2FF75C4F20005A84250DC6E
:103EF00044F6FF35C4F20005A84263DC44F20044F6
:103F0000C4F20004A04200F0BE8044F60005C4F2F2
:103F10000005A84240F0B580002543F62000019539
:103F2000C4F20200066A174646F480260662066A54
:103F300006F480260196019E066846F480260660F7
:103F4000066826F48026066008461E4600F01AFC25
:103F500004F58060CDE901070C20CDE9055027204C
:103F60000796CDE903550895FCF7C2FA27200621EC
:103F70000222FCF77FFA2720FCF7A8FA2720FCF79B
:103F80009FFB01A8FDF7B6FD44F60C00C4F200004B
:103F900073E040F6FF75C4F20105A84221DC47F644
:103FA0000005C4F20005A84272D047F60045C4F2ED
:103FB0000005A84265D145F20000C4F2000000F5FA
:103FC000305077E044F60045C4F20005A84266D0C0
:103FD00045F20005C4F20005A84252D145F20000A6
:103FE00053E041F20045C4F20105A8425CD041F221
:103FF0000005C4F20105A84243D1002443F6200085
:104000000194C4F20200456A164645F01005456267
:10401000456A05F010050195019D456845F01005BC
:104020004560456825F01005456008461D4600F0CE
:1040300031FB45F20000C4F2000000F54040CDE93C
:1040400001060C20CDE9054025200795CDE9034464
:104050000894FCF74DFA252006210022FCF70AFA05
:104060002520FCF733FA2520FCF72AFB01A8FDF7F1
:1040700041FD41F20C00C4F20100016841F0200151
:10408000016011B0F0BD44F20040C4F2000011E044
:1040900045F20000C4F2000000F520500AE044F6AA
:1040A0000C00C4F2000003E041F20C00C4F2010075
:1040B00000F57D7011B0BDE8F04009E580B582B033
:1040C00040F2840240F26C0344F2004CC2F200025F
:1040D000C2F20003C4F2000C40F29C01604508BF2C
:1040E00013460CF58062C2F20001904218BF1946D7
:1040F0000CF5006240F20C03C2F20003904240F261
:10410000240218BF0B460CF54061C2F2000288423F
:1041100018BF1A4640F2B4030CF55041C2F2000336
:10412000884218BF13460CF5505240F23C01C2F2CF
:104130000001904240F2540218BF19460CF560533A
:10414000C2F20002984218BF0A460DF1070110465C
:104150000122FFF7C3F99DF80710002808BF0146A8
:10416000C8B202B080BD00BF10B540F2840C40F26E
:104170006C0344F2004EC2F2000CC2F20003C4F21F
:10418000000E40F29C04704508BF63460EF5806C3B
:10419000C2F20004604518BF1C4640F20C030EF545
:1041A000006CC2F20003604518BF234640F22404AD
:1041B0000EF5406CC2F20004604518BF1C4640F288
:1041C000B4030EF5504CC2F20003604518BF2346FD
:1041D00040F23C040EF5505CC2F20004604518BF8A
:1041E0001C4640F254030EF5605CC2F200036045C9
:1041F00018BF23461846FFF7A7FA80B210BD00BFCC
:104200000A7800BF002A08BF704700BF03681B067A
:10421000FCD5426002681206FCD511F8012FF1E7C7
:10422000002A08BF704700BF03681B06FCD50B7847
:10423000013A436003681B06FCD5002A01F1010125
:10424000F2D1704780B540F2840C40F26C0344F226
:10425000004EC2F2000CC2F20003C4F2000E40F2A3
:104260009C02704508BF63460EF5806CC2F20002E6
:10427000604518BF1A4640F20C030EF5006CC2F2FE
:104280000003604518BF134640F224020EF5406C4F
:10429000C2F20002604518BF1A4640F2B4030EF5A0
:1042A000504CC2F20003604518BF13460EF5505241
:1042B00040F23C0CC2F2000C904240F2540218BF93
:1042C0009C460EF56053C2F20002984218BF624647
:1042D0001046FFF763F900B280BD00BF70B50E460F
:1042E00040F2840240F26C0344F20041C2F2000248
:1042F000C2F20003C4F2000140F29C05884208BFEC
:10430000134601F58062C2F20005904218BF1D46B7
:1043100040F20C0301F50062C2F20003904218BFA4
:104320002B4640F2240501F54062C2F2000590429E
:1043300018BF1D4601F5504240F2B403C2F200031B
:10434000904201F5505240F23C0418BF2B46C2F295
:104350000004904201F5605140F2540518BF1C461C
:10436000C2F200058842304618BF254600F0F0FD35
:10437000024628463146FFF73DF900B270BD00BF46
:1043800080B540F2840240F26C0344F2004CC2F269
:104390000002C2F20003C4F2000C40F29C0160452E
:1043A00008BF13460CF58062C2F20001904218BFAC
:1043B00019460CF5006240F20C03C2F20003904271
:1043C00040F2240218BF0B460CF54061C2F2000215
:1043D000884218BF1A4640F2B4030CF55041C2F2AD
:1043E0000003884218BF13460CF5505140F23C02BE
:1043F000C2F20002884240F2540118BF1A460CF57E
:104400006053C2F20001984218BF11460846FFF7F8
:10441000ADF8B0FA80F0400980BD00BF80B540F231
:10442000840240F26C0344F2004CC2F20002C2F279
:104430000003C4F2000C40F29C01604508BF134623
:104440000CF58062C2F20001904218BF19460CF5CB
:10445000006240F20C03C2F20003904240F22402D8
:1044600018BF0B460CF54061C2F20002884218BF2B
:104470001A4640F2B4030CF55041C2F200038842E0
:1044800018BF13460CF5505140F23C02C2F2000234
:10449000884240F2540118BF1A460CF56053C2F22C
:1044A0000001984218BF11460846FEF7C9FFB0FA4E
:1044B00080F0400980BD00BF80B540F2840240F228
:1044C0006C0344F2004CC2F20002C2F20003C4F2D8
:1044D000000C40F29C01604508BF13460CF5806259
:1044E000C2F20001904218BF19460CF5006240F27A
:1044F0000C03C2F20003904240F2240218BF0B46A4
:104500000CF54061C2F20002884218BF1A4640F220
:10451000B4030CF55041C2F20003884218BF1346A1
:104520000CF5505140F23C02C2F20002884240F2C7
:10453000540118BF1A460CF56053C2F200019842AC
:1045400018BF11460846FFF711F880B280BD00BFC2
:1045500040F2840240F26C0344F2004CC2F20002CA
:10456000C2F20003C4F2000C40F29C01604508BF97
:1045700013460CF58062C2F20001904218BF194642
:104580000CF5006240F20C03C2F20003904240F2CC
:10459000240218BF0B460CF54061C2F200028842AB
:1045A00018BF1A4640F2B4030CF55041C2F20003A2
:1045B000884218BF13460CF5505140F23C02C2F23B
:1045C0000002884240F2540118BF1A460CF56053AD
:1045D000C2F20001984218BF11460846FEF7D8BF44
:1045E00080B540F2840C40F26C0344F2004EC2F2FB
:1045F000000CC2F20003C4F2000E40F29C027045AF
:1046000008BF63460EF5806CC2F20002604518BF19
:104610001A4640F20C030EF5006CC2F2000360452E
:1046200018BF134640F224020EF5406CC2F200029D
:10463000604518BF1A4640F2B4030EF5504CC2F262
:104640000003604518BF134640F23C020EF5505C73
:10465000C2F20002604518BF1A4640F254030EF53C
:10466000605CC2F20003604518BF1346597480BDF8
:10467000704700BF704700BF704700BF704700BF62
:10468000704700BF704700BF704700BF704700BF52
:10469000704700BF70B582B003283CD8DFE800F057
:1046A000022C0B2100204FF0070C0324C4F202005F
:1046B0004FF4C06129E00024C4F202040725032658
:1046C00020464FF4007100220123CDE90065FEF77A
:1046D00061FB04F58060802100220123CDE90065A3
:1046E00017E00020C4F20200A0F57040072102B0DC
:1046F000BDE87040FFF7BCBF0020C4F2020000F527
:1047000080604FF0070C0324C02100220123CDE973
:10471000004CFEF73FFB02B070BD00BF80B582B019
:10472000032824D001280FD000281CBF02B080BD70
:1047300044F20040C4F2000000F5DE304FF0070CF8
:104740004FF0030E0C210AE044F20040C4F20000D6
:1047500000F5E4304FF0070C4FF0030E602100220B
:104760000123CDE900ECFEF715FB02B080BD44F259
:104770000040C4F20000072102B0BDE88040FFF70E
:1047800077BF00BF80B582B0032833D8DFE800F0E0
:104790000220091644F60000C4F2000000F5DE30E5
:1047A0001CE044F60000C4F2000000F5E2304FF0D7
:1047B000070C4FF0030E4FF4407115E044F6000073
:1047C000C4F20000072102B0BDE88040FFF750BFEF
:1047D00044F60000C4F2000000F5E0304FF0070C92
:1047E0004FF0030E4FF4406100220123CDE900ECAD
:1047F000FEF7D0FA02B080BD80B582B0032825D084
:1048000001280FD000281CBF02B080BD44F6004034
:10481000C4F2000000F5DA304FF0080C4FF0030E40
:1048200003210BE044F60040C4F2000000F5DE3046
:104830004FF0080C4FF0030E4FF4406100220123AB
:10484000CDE900ECFEF7A6FA02B080BD44F60040C8
:10485000C4F20000082102B0BDE88040FFF708BFA5
:1048600003281FD0002818BF704770B582B045F2EA
:104870000004C4F2000404F5DC30082503264FF4DC
:10488000805100220123CDE90065FEF783FA04F58B
:10489000DE30042100220123CDE90065FEF77AFA1B
:1048A00002B070BD45F20000C4F200000821FFF71D
:1048B000DFBE00BF80B582B0032825D001280FD00D
:1048C00000281CBF02B080BD41F20040C4F20100CC
:1048D00000F574404FF0080C4FF0030EC0210BE0C0
:1048E00041F20040C4F2010000F582304FF0080CA4
:1048F0004FF0030E4FF4844100220123CDE900EC78
:10490000FEF748FA02B080BD41F20040C4F2010057
:10491000082102B0BDE88040FFF7AABE80B582B092
:10492000032825D0012810D000281CBF02B080BD6C
:1049300047F60000C4F2000000F5CC304FF0080C40
:104940004FF0030E4FF4C0710AE047F60000C4F2C6
:10495000000000F5CE304FF0080C4FF0030EC021E0
:1049600000220123CDE900ECFEF714FA02B080BD6D
:1049700047F60000C4F20000082102B0BDE8804004
:10498000FFF776BE032817D0002818BF704780B500
:1049900082B047F60040C4F2000000F5CA304FF084
:1049A000080C4FF0030E032100220123CDE900EC97
:1049B000FEF7F0F902B080BD47F60040C4F20000F7
:1049C0000821FFF755BE00BF10B582B041F20004C8
:1049D000C4F20104206880060AD5606801A98DF838
:1049E000040040F26C00C2F200000122FEF7E2FC7B
:1049F0000020019021680191616801910199019065
:104A000021680191616801910199019021680191EA
:104A1000616801910199019021680191616801919A
:104A2000019901902068019060680190019825200B
:104A3000FBF746FE02B010BD10B582B044F2004450
:104A4000C4F20004206880060AD5606801A98DF8C8
:104A5000040040F28400C2F200000122FEF7AAFC2A
:104A600000200190216801916168019101990190F4
:104A7000216801916168019101990190216801917A
:104A8000616801910199019021680191616801912A
:104A9000019901902068019060680190019826209A
:104AA000FBF70EFE02B010BD10B582B044F6000454
:104AB000C4F20004206880060AD5606801A98DF858
:104AC000040040F29C00C2F200000122FEF772FCDA
:104AD0000020019021680191616801910199019084
:104AE000216801916168019101990190216801910A
:104AF00061680191019901902168019161680191BA
:104B00000199019020680190606801900198272028
:104B1000FBF7D6FD02B010BD10B582B044F60044DC
:104B2000C4F20004206880060AD5606801A98DF8E7
:104B3000040040F20C00C2F200000122FEF73AFC31
:104B40000020019021680191616801910199019013
:104B50002168019161680191019901902168019199
:104B60006168019101990190216801916168019149
:104B700001990190206801906068019001983420AB
:104B8000FBF79EFD02B010BD10B582B045F20004E7
:104B9000C4F20004206880060AD5606801A98DF877
:104BA000040040F22400C2F200000122FEF702FCE1
:104BB00000200190216801916168019101990190A3
:104BC0002168019161680191019901902168019129
:104BD00061680191019901902168019161680191D9
:104BE000019901902068019060680190019835203A
:104BF000FBF766FD02B010BD10B582B041F2004473
:104C0000C4F20104206880060AD5606801A98DF805
:104C1000040040F2B400C2F200000122FEF7CAFB19
:104C20000020019021680191616801910199019032
:104C300021680191616801910199019021680191B8
:104C40006168019101990190216801916168019168
:104C500001990190206801906068019001984720B7
:104C6000FBF72EFD02B010BD10B582B047F6000470
:104C7000C4F20004206880060AD5606801A98DF896
:104C8000040040F23C00C2F200000122FEF792FB59
:104C900000200190216801916168019101990190C2
:104CA0002168019161680191019901902168019148
:104CB00061680191019901902168019161680191F8
:104CC000019901902068019060680190019852203C
:104CD000FBF7F6FC02B010BD10B582B047F60044F9
:104CE000C4F20004206880060AD5606801A98DF826
:104CF000040040F25400C2F200000122FEF75AFB09
:104D00000020019021680191616801910199019051
:104D100021680191616801910199019021680191D7
:104D20006168019101990190216801916168019187
:104D300001990190206801906068019001985320CA
:104D4000FBF7BEFC02B010BD82B041F20044C4F2D9
:104D50000104FDF713FFFBF745FAFEF7A1FA204621
:104D600000214FF46122FEF7C5FD11A12046FFF797
:104D700047FA13A520462946FFF7B0FA0028F9D4D0
:104D80002046FFF7FDFA0028F4D12046FFF796F9F8
:104D90008DF80700E0688004F2D500BF20680006A7
:104DA000FCD59DF80700606020680006FCD5E7E7A9
:104DB00048656C6C6F20776F726C640A00000000AD
:104DC0004F4B0000704700BFFEE700BFFEE700BF8B
:104DD000FEE700BFFEE700BF704700BF704700BF9F
:104DE000704700BF704700BFFEF7F8B94EF6885015
:104DF000CEF2000001684FF0000C41F47001016038
:104E000043F60001C4F202010A6842F001020A609E
:104E1000C1F808C00B684FF6FF72CFF6F6621A4071
:104E20000A6043F21002C2F200424A600A6822F4A9
:104E300080220A60C1F80CC04FF0006140F8801C6D
:104E4000704700BF80B543F60400C4F20200416819
:104E500001F00C0242F20041082AC0F2F40106D02F
:104E6000042A20D141F20021C0F27A011BE0D0F8DF
:104E700000C00368026803F03F03C2F3881E5FEAC4
:104E80004C2241F20022C0F27A0258BF0A46B2FB1D
:104E9000F3F102680223C2F301420EFB01F103EBBE
:104EA0004202B1FBF2F140F20802C2F200021160CC
:104EB000406845F2A801C0F30310C0F60001085C89
:104EC000116821FA00F0106080BD2DE9F05F054601
:104ED000002092469B4688460646814640241BE0B9
:104EE000284641464746224600F048F853465A466F
:104EF000C01A914110D311461846224600F02FF8EF
:104F00002D1A67EB01084F4622460120002100F0D0
:104F100026F817EB00094E41201EA4F10104DFDC46
:104F2000484631462A464346BDE8F09F40EA010321
:104F30009B0703D009E008C9121F08C0042AFAD24F
:104F400003E011F8013B00F8013B521EF9D2704713
:104F5000421C10F8011B0029FBD1801A7047202A3F
:104F600004DB203A00FA02F1002070479140C2F1C0
:104F7000200320FA03F3194390407047202A04DBF2
:104F8000203A21FA02F00021704721FA02F3D040C2
:104F9000C2F1200291400843194670471CB50948E8
:104FA0000090094801900546009C06E0E06840F04A
:104FB000010394E8070098471034AC42F6D3FBF79E
:104FC000F9F80000C8500008E850000802E008C8DE
:104FD000121F08C1002AFAD170477047002001E073
:104FE00001C1121F002AFBD17047000010B5002834
:104FF00021D0114B0022001F196803E0814203D821
:105000000A4649680029F9D152B11368841A9C42B2
:1050100004D1006818441060104602E0506000E0BF
:10502000186039B102680B1A934203D10B681A4415
:1050300002604968416010BD00000020F0B50B30EF
:10504000154D20F007010024144A0FE003688B423D
:105050000BD38B4205D95E1A43184768C3E9006732
:1050600000E04368136002C004E0021D10680028DD
:10507000ECD12046002802D1286808B10020F0BDFC
:10508000064A07481060074A121A22F00702C0E9D0
:10509000002401202860D7E7040000200000002041
:1050A0001C02002018120020000000000000000078
:1050B00001020304060708090000000001020304BE
:1050C0000006101600061016E85000080000002028
:1050D000D8000000CC4F0008C0510008D8000020C4
:1050E00040150000DC4F0008000000000000000038
:1050F0000024F40020000000000000000000000078
:1051000014010020000A0000000000002000000040
:10511000000000000000000034010020000A000030
:10512000000000002000000000000000000000005F
:1051300054010020000A00000000000020000000D0
:10514000000000000000000074010020000A0000C0
:10515000000000002000000000000000000000002F
:1051600094010020000A0000000000002000000060
:105170000000000000000000B4010020000A000050
:1051800000000000200000000000000000000000FF
:10519000D4010020000A00000000000020000000F0
:1051A0000000000000000000F4010020000A0000E0
:1051B00000000000010000001000000000000000DE
:04000005080001AD41
:00000001FF
