:020000040800F2
:10000000580B0020C1010008A11A0008811800083F
:100010009D1A0008B5020008FD2C00080000000031
:10002000000000000000000000000000A91A000805
:10003000B902000800000000A51A0008AD1A000867
:10004000DB010008DB010008DB010008DB01000820
:10005000DB010008DB010008BD0200084D030008B9
:100060006903000885030008A1030008DB010008FC
:10007000DB010008DB010008DB010008DB010008F0
:10008000DB010008DB010008DB010008DB010008E0
:10009000DB010008DB010008DB010008BD030008EC
:1000A000DB010008DB010008DB010008DB010008C0
:1000B000DB010008DB010008DB010008DB010008B0
:1000C000DB010008DB010008DB010008DB010008A0
:1000D000DB0100083D2B0008AD2B00081D2C00089B
:1000E000D9020008DB010008DB010008DB01000881
:1000F000DB010008DB010008DB010008DB01000870
:10010000DB010008DB010008DB010008DB0100085F
:100110007D290008ED290008DB010008DB0100084B
:10012000DB010008DB010008DB010008DB0100083F
:10013000DB010008DB010008DB010008DB0100082F
:10014000DB010008DB010008DB010008DB0100081F
:10015000DB010008DB010008DB0100088D2C000832
:10016000DB010008DB010008DB010008DB010008FF
:10017000DB010008DB010008DB01000800000000D3
:10018000DB010008DB0100085D2A0008CD2A000819
:10019000DB010008DB010008DB010008DB010008CF
:1001A000DB010008DB010008DB010008DFF80CD0F0
:1001B00000F03CF800480047012D0008580B0020D3
:1001C0000648804706480047FEE7FEE7FEE7FEE7F1
:1001D000FEE7FEE7FEE7FEE7FEE7FEE7B11A0008EE
:1001E000AD01000840EA01039B0703D009E008C9FC
:1001F000121F08C0042AFAD203E011F8013B00F8EC
:10020000013B521EF9D27047D2B201E000F8012B37
:10021000491EFBD270470022F6E710B513460A4686
:1002200004461946FFF7F0FF204610BD1CB50948EB
:100230000090094801900546009C06E0E06840F007
:10024000010394E8070098471034AC42F6D3FFF757
:10025000B1FF0000243B0008443B000870B58C1837
:1002600010F8015B15F0070301D110F8013B2A11CA
:1002700006D110F8012B03E010F8016B01F8016BB7
:100280005B1EF9D12B0705D40023521E0DD401F8B3
:10029000013BFAE710F8013BCB1A921C03E013F87C
:1002A000015B01F8015B521EF9D5A142D8D30020B1
:1002B00070BD0000FEE700007047000043F61441E7
:1002C000C4F201010868C00708BF7047012201207D
:1002D0000A6001F099BC000010B543F61444C4F262
:1002E00001042068400504D54FF48060206001F0CF
:1002F0008BFC2068000504D54FF40060206001F0FD
:1003000083FC2068C00404D54FF48050206001F0C5
:100310007BFC2068800404D54FF40050206001F07D
:1003200073FC2068400404D54FF48040206001F045
:100330006BFC2068000458BF10BD4FF400414FF41F
:1003400000402160BDE8104001F05EBC43F614415E
:10035000C4F201010868800758BF704702220220DA
:100360000A6001F051BC000043F61441C4F20101DF
:100370000868400758BF7047042204200A6001F053
:1003800043BC000043F61441C4F2010108680007B1
:1003900058BF7047082208200A6001F035BC0000F1
:1003A00043F61441C4F201010868C00658BF704703
:1003B000102210200A6001F027BC000010B543F69F
:1003C0001444C4F201042068800603D52020206074
:1003D00001F01AFC2068400603D54020206001F09F
:1003E00013FC2068000603D58020206001F00CFC7F
:1003F0002068C00504D54FF48070206001F004FC33
:100400002068800558BF10BD4FF400714FF4007094
:100410002160BDE8104001F0F7BB0000EFF305815B
:1004200069B1002808BF70474EF21001CEF20001FA
:100430000A68D20300EBE2700028F9D108E040F22C
:100440004C61C2F200010A680B689B1A8342FBD31D
:100450007047000040F24C60C2F200000068704734
:1004600090F83D20202A1CBF02207047242280F8EB
:100470003D200268136823F001031360536A23F0E0
:1004800010035362536A19435162116841F001012C
:100490001160202180F83D1000207047006C7047EB
:1004A000002804BF0120704710B5044690F83D00B5
:1004B00028B9002084F83C00204600F05BFE242090
:1004C00084F83D002068016821F00101016001F01D
:1004D00015F84DF68361C4F21B31A0FB011E4FEAF3
:1004E0009E424FF4967102FB01FC48F63811C0F2AF
:1004F0004101ACFB0113D4E9001C4A6048F2A1623F
:10050000C0F20102944538BF4FEA9E435A1C48F29C
:10051000A063C0F201039C450A6209D84FEA4C026D
:10052000B0FBF2F040F6FC72104208BF04201BE062
:10053000A3681922002B08BF03220CFB02F2B0FBB8
:10054000F2F2120508D04BB119220CFB02F2B0FBFB
:10055000F2F040F4804005E0012005E00CEB4C0295
:10056000B0FBF2F040F40040C861D4E90702104348
:100570000860D4E903C2D4E9053042EA0C0218430A
:100580008A60C860086840F00100086000202021EF
:10059000206484F83D10206384F83E0010BD000004
:1005A0002DE9F04F83B01D46914688460446FFF77B
:1005B00051FF94F83D10202918D107462068806922
:1005C00086070FD5FFF746FFC01B1A28F6D3002079
:1005D0002021002E206384F83D1084F83E0084F82A
:1005E0003C0003D494F83C00012803D1022003B05E
:1005F000BDE8F08F4FF0010B206884F83CB0016833
:10060000C90703D1016841F0010101600168B9F136
:10061000010F21F4006101604FF0240084F83D00D7
:100620004FF00000206440F20000CFF6FF70E0625F
:1006300008F0FE00019098BFD946CDF8009005F172
:1006400001094FF0A00805E0009883450BF1010B6C
:1006500000F09A802068016841F48071016040696F
:1006600010F0010022D180F00106B24607E000BF81
:100670002068406910F0010080F0010A16D1B9F13C
:10068000000FF5D02DB1FFF7E5FEC01BA842EFD952
:1006900000E0B24600212020216384F83D005FEA9B
:1006A000CA7084F83E1084F83C1069D12068019922
:1006B0000161FFF7CFFE216807464B694A6994F84C
:1006C0003D109B071CD412F4806019D1A02917D0CB
:1006D00045B1FFF7BFFEC01BA84288BF84F83D802C
:1006E00002E000BF84F83D8020684269416994F8C7
:1006F0003D00920704D411F4806101D1A028E7D114
:10070000202084F83D00206841690268890742F48E
:100710000072026019D46FF48061416120688069C1
:1007200086077FF591AFFFF795FEC01B1A28F5D31A
:1007300000202021002E206384F83D1084F83E0024
:1007400084F83C007FF580AF1AE0002102914169F6
:10075000029180690290029820688069850715D50A
:10076000FFF778FEC01B1A28F6D300202021002DA9
:10077000206384F83D1084F83E0084F83C0006D5E0
:10078000032003B0BDE8F08F012000E0002020210D
:1007900084F83D10002184F83C1003B0BDE8F08FD0
:1007A0002DE9F04F81B09A46164688460446FFF779
:1007B00051FE94F83D1020291AD1DDF82890054605
:1007C0002068806987070FD5FFF744FE401B1A2871
:1007D000F6D300202021002F206384F83D1084F8F8
:1007E0003E0084F83C0003D494F83C00012803D177
:1007F000022001B0BDE8F08F0121206884F83C1090
:100800000168C90703D1016841F001010160016875
:1008100021F400610160222184F83D10102184F848
:100820003E10002121640021CFF6FF716662A4F81A
:100830002AA0E162618D2185E16A026811F5803F9D
:1008400042F48062026018BF012947D1016841F477
:1008500080710160406910F0010021D1B9F1000FF1
:1008600080F0010610D009F1010706E02068406918
:1008700010F0010080F0010612D1002FF6D0FFF732
:10088000E9FD401B4845F1D900202021206384F870
:100890003D10F10784F83E0084F83C0040F0B5803C
:1008A0002069B0F5804F03D148F00100C1B27DE06E
:1008B000062000EAD81A20680AF1F00101614169B6
:1008C000090721D44169490500F18E80B9F1000F73
:1008D00000F0938019F1010706D00FE00429B5D08C
:1008E000216B1129B2D0B5E7206800BF4169090723
:1008F0000AD44169490577D4002FF7D0FFF7AAFD44
:10090000401B4845F0D978E020685FFA88F1016122
:100910004169890717D44169490565D4B9F1000FC8
:100920006BD019F1010708D12068416989070AD401
:100930004169490558D4002FF7D0FFF78BFD401BC4
:100940004845F1D959E000200090206841690091A4
:10095000816900910099016841F4807101604069EA
:1009600010F0010020D1B9F1000F80F0010710D084
:1009700009F1010606E02068406910F0010080F0EE
:10098000010711D1002EF6D0FFF764FD401B48454A
:10099000F1D900202021206384F83D10F90784F864
:1009A0003E0084F83C0030D14AF0F101206801613A
:1009B0004169890734D44169490515D4B9F1000F5B
:1009C0001BD019F1010609D1206800BF41698907D0
:1009D00026D44169490507D4002EF7D0FFF73AFD28
:1009E000401B4845F0D908E0016841F400710160FE
:1009F0006FF4806141610420206400202021206385
:100A000084F83D1084F83C00206C216C002084F8B0
:100A10003C000320042908BF012001B0BDE8F08F8D
:100A2000208D022817D0012804D0E8B900200090BA
:100A3000206806E02068016821F4806101600021DF
:100A4000009141690091816900910099016841F428
:100A50000071016014E02068016821F48061016088
:100A6000016841F4006103E02068016841F480619D
:100A70000160002100914169009180690090009817
:100A8000208D002800F012814FF0010A09F10107C2
:100A90004FF000080EE0B3462020C4F8308084F800
:100AA0003D005FEACB7084F83E8084F83C8000F023
:100AB000DD800EE1042819D202282BD0012846D16E
:100AC000206841694E0600F1E1804169C9067BD486
:100AD000B9F1000F04D0FFF7BDFC401B4845EFD92A
:100AE000206C40F02000206475E000BF2068416960
:100AF0004E0656D44169C90644D4B9F1000F04D05A
:100B0000FFF7A8FC401B4845F0D9206C40F02000BE
:100B100020643EE02068406910F004008AEA9006F4
:100B2000B34609D0A2E000BF2068406910F004007D
:100B30008AEA900B40F09A80002FF5D0B9F1000FAF
:100B4000A9D0FFF787FC401B4845EDD9A4E72068F2
:100B5000406910F004008AEA900B5E4607D04EE030
:100B60002068406910F004008AEA900647D1002FFF
:100B7000F6D0B9F1000F36D0FFF76CFC401B4845AA
:100B8000EED931E06FF010014161C4F84080C4F843
:100B900030802020002E84F83D0084F83C8040F115
:100BA00090802068616A00694A1C62620870208D2A
:100BB00001382085608D01386085206841694907CA
:100BC00070D50069616A64E06FF010014161C4F89A
:100BD0004080C4F830802020002E84F83D0084F846
:100BE0003C8053D46DE05E462020C4F8308084F809
:100BF0003D00F00784F83E8084F83C8069D120688D
:100C0000616A026822F48062026000694A1C6262C2
:100C10000870208D01382085608D0138608520683E
:100C2000406910F0040021D18AEA900B5E4606E08C
:100C30002068406910F004008AEA900616D1002F5F
:100C4000F6D0B9F1000F05D0FFF704FC401B484572
:100C5000EED900E05E462020C4F8308084F83D00E4
:100C600084F83E80F00784F83C8032D12068616AC5
:100C7000026842F40072026000694A1C62620870F5
:100C8000208D01382085608D013860852068616A7B
:100C900000694A1C62620870208D01382085608DD1
:100CA00001386085208D00287FF404AF202084F86F
:100CB0003D00002084F83E0084F83C0001B0BDE80F
:100CC000F08F216C0120202908BF032001B0BDE86E
:100CD000F08F032001B0BDE8F08F00002DE9F04750
:100CE00082B09A46164688460446FFF7B3FB94F84E
:100CF0003D1020291AD1DDF828900546206880692A
:100D000087070FD5FFF7A6FB401B1A28F6D3002054
:100D10002021002F206384F83D1084F83E0084F8E1
:100D20003C0003D494F83C00012803D1022002B017
:100D3000BDE8F0870121206884F83C100168C907EC
:100D400003D1016841F001010160016821F40061F3
:100D50000160212184F83D10102184F83E1000210B
:100D600021640021CFF6FF716662A4F82AA0E16237
:100D7000618D2185E16A11F5803F18BF012944D1B9
:100D8000016841F480710160406910F0010021D1D7
:100D9000B9F1000F80F0010610D009F1010706E05B
:100DA0002068406910F0010080F0010612D1002F88
:100DB000F6D0FFF74FFB401B4845F1D9002020211A
:100DC000206384F83D10F10784F83E0084F83C006D
:100DD00040F0D4802069B0F5804F01D1FE212BE096
:100DE000062000EAD8112068F03101614169090745
:100DF00021D44169490500F1B080B9F1000F00F03C
:100E0000B58019F1010606D00FE00429B8D0216B96
:100E10001229B5D0B8E72068416909070BD44169A8
:100E2000490500F19A80002EF6D0FFF713FB401B16
:100E30004845F0D99AE0FF21206801EA08010161E4
:100E4000416989071AD44169490500F18680B9F1E1
:100E5000000F00F08B8019F1010609D1206800BF56
:100E6000416989070AD44169490576D4002EF7D033
:100E7000FFF7F0FA401B4845F0D977E000200190D9
:100E800021684A690192896901910199218D00299E
:100E900054D009F1010600BF216851F8142F120641
:100EA0000FD40A68520574D4002EF5D0B9F1000FA2
:100EB00074D0FFF7CFFA0146491B00204945EBD912
:100EC0006CE0626AD4F800E0511C61621178CEF8DF
:100ED0001010618D01396185B4F828C07146ACF1FC
:100EE0000107278551F8143F5B070CD53B040AD056
:100EF000931C63625278CEF81020628D013A6285AD
:100F0000ACF1020222850A6803E000BF216851F8B3
:100F1000142F52070FD40A6852053AD4002EF5D088
:100F2000B9F1000F3AD0FFF795FA0146491B0020AE
:100F30004945EBD932E0218D0029ADD121680A68FD
:100F400042F400720A60202184F83D1084F83E00CB
:100F500084F83C0002B0BDE8F087016841F40071FC
:100F600001606FF480614161042020640020202131
:100F7000206384F83D1084F83C00206C216C002034
:100F800084F83C000320042908BF012002B0BDE81A
:100F9000F0876FF480600860042002E0206C40F06D
:100FA0002000206400202021206384F83D1084F874
:100FB0003C00206C042808D12068016841F40071CD
:100FC0000160012002B0BDE8F087032002B0BDE857
:100FD000F08700002DE9F04F83B0994692460F4606
:100FE0000446FFF737FA94F83D1020291CD1DDF8AC
:100FF0003880DDF830B005462068806986070FD557
:10100000FFF728FA401B1A28F6D300202021002ED3
:10101000206384F83D1084F83E0084F83C0003D43B
:1010200094F83C00012803D1022003B0BDE8F08F02
:101030000121206884F83C1001684646C90703D1A5
:10104000016841F00101016001684FF0000821F4DE
:1010500000610160212084F83D00402084F83E00BA
:101060000D98C4F84080C4F824B060850020CFF605
:10107000FF70E062608D39462085204652464B461F
:10108000CDE9006500F0FEFB48B1216C032084F837
:101090003C80042908BF012003B0BDE8F08F208DFB
:1010A000B04688B308F10106206850F8141F0906FD
:1010B0000DD4016849053DD4002EF5D0B8F1000FDC
:1010C0003DD0FFF7C7F9401B4045EDD937E0606AD6
:1010D0002168421C626202780A61228D531E2385B8
:1010E000678D013F67854F697F070AD51B0408D0CC
:1010F000831C636240780861901E2085608D0138F2
:101100006085208D0028CFD1204641462A4600F038
:1011100091FCF8B92068016841F400710160202059
:1011200084F83D00002084F83E0084F83C0003B0C1
:10113000BDE8F08F6FF480610160042002E0206C54
:1011400040F02000206400202021206384F83D101E
:1011500084F83C00206C042808D12068016841F420
:1011600000710160012003B0BDE8F08F032003B0DF
:10117000BDE8F08F7047000040F24C60C2F2000002
:1011800001680131016040F25060C2F20000016864
:1011900011B101680139016070B540F2C814C2F2A2
:1011A0000004207818B3002504E000BF2078013542
:1011B00085421CD204EB850670680028F6D00178C1
:1011C0008907F3D5816800291CBF013981608168D6
:1011D0000029EBD1D0E9032190477068017842687B
:1011E000CB07826004BF01F0FC010170DEE7BDE8BF
:1011F000704000F0CFBC000080B543F60040C4F260
:101200000200016841F400710160016841F48061ED
:101210000160016841F480710160032000F060F812
:101220000F2000F005F800F01BF8002080BD000042
:1012300010B540F2FC01C2F20001096844F6D35235
:10124000C1F26202A1FB02120446900900F002FB07
:101250004FF0FF302146002200F016F8002010BDAC
:1012600070470000002848BF704700F01F010122AE
:1012700002FA01F11C2202EAD0004EF28022CEF2E4
:10128000000281507047000010B54EF60C5CCEF2A3
:10129000000CDCF80030C3F3022E8EF00704042C9F
:1012A00028BF0424BEF103034FF0FF3E0EFA04F4FE
:1012B00038BF0023A14399400EFA03F39A43114328
:1012C00000F1604200F00F03090102F56442043BA3
:1012D0006344002848BF03F10C02117010BD0000E8
:1012E0004EF60C51CEF200010A684FF6FF031A4089
:1012F00060F30A2242F0806040F0FD7008607047A1
:1013000070B582B00020019043F64000C4F20200A4
:101310000168402641F0805101600068C4F20E2649
:1013200000F080500190019847F204050120C4F2BA
:1013300000053060FFF78EF8044600BF2868C00340
:1013400006D4FFF787F8001BB0F57A7FF6D90EE0D8
:1013500001207060FFF77EF8044600BF2868800314
:1013600008D4FFF777F8001BB0F57A7FF6D9032091
:1013700002B070BD002002B070BD00002DE9F04148
:1013800043F60807C4F20207D7F8F8230D4602F027
:101390000F01A942044607D287F8F853D7F8F8039B
:1013A00000F00F00A8425AD12068810705D539689E
:1013B000A26821F0F00111433960C00735D1D7F898
:1013C000F80300F00F00A84207D987F8F853D7F8C0
:1013D000F80300F00F00A84241D12068410705D56D
:1013E0003968E26821F4E05111433960000706D5FD
:1013F0003868216920F4604040EAC100386000F09C
:1014000091F8396843F28632C1F30311C0F6000245
:10141000515CC84040F2FC01C2F2000108600F209C
:10142000FFF706FF0020BDE8F0816068811E0229F9
:1014300007D257F8081C89015CBF0120BDE8F08184
:1014400010E0012807D157F8081C89035CBF012070
:10145000BDE8F08106E057F8081C890702D4012096
:10146000BDE8F081396821F0030108433860FEF7D8
:10147000F1FF61680646012941F2883837D0022918
:1014800027D003290ED100BF386800F00C000C28CB
:1014900095D0FEF7DFFF801B40454FF00300F3D9E6
:1014A000C1E700BF386810F00C0F3FF488AFFEF7BB
:1014B000D1FF801B40454FF0030088BFBDE8F0819D
:1014C000F0E700BFFEF7C6FF801B40454FF003006A
:1014D000A9D8386800F00C000828F3D16FE700BFE6
:1014E000FEF7B8FF801B40454FF003009BD83868DB
:1014F00000F00C000428F3D161E7000040F2FC008A
:1015000043F60801C2F20000C4F202010068096853
:1015100043F29632C1F38221C0F60002515CC8400A
:101520007047000043F60401C4F20201486800F06D
:101530000C0242F20040082AC0F2F40007D0042A4C
:1015400018BF704741F20020C0F27A007047D1F80E
:1015500000C00B680A685B0241F200230CF03F0CEC
:10156000C0F27A0358BF0346B3FBFCF00968C2F32C
:1015700088125043C1F30141022202EB4101B0FB4A
:10158000F1F07047F0B581B00446007843F60006EC
:10159000C007C4F2020644D0B06800F00C00042872
:1015A00005D1306880033CD56068D0BB64E0B0688A
:1015B00000F00C00082802D170684002F1D4656880
:1015C0003068B5F5A02F05D0B5F5803F09D140F4BE
:1015D00080300CE040F480203060306840F480308F
:1015E00005E020F480303060306820F480203060E6
:1015F000FEF730FF002D054610D000BF3068800395
:101600000FD4FEF727FF401B6428F7D9EFE000BF97
:10161000FEF720FF401B642800F2E9803068800359
:10162000F6D42078800718D5B06810F00C0F07D0DA
:10163000B06800F00C00082857D17068400254D4FC
:101640003068800702D5E068012815D1306821692B
:1016500020F0F80040EAC1003060207800070ED486
:101660002078400721D4A569002D00F0EF80B068F4
:1016700000F00C0008286BD1012001B0F0BD6069BA
:10168000002851D00020C4F247200121C0F8801E5C
:10169000FEF7E0FE054600BF706F8007E0D4FEF75E
:1016A000D9FE401B0228F7D9A1E000200090306C41
:1016B00047F2000740F080503064306CC4F20007FD
:1016C00000F0805000900098386840F480703860D6
:1016D000FEF7C0FE054600BF3868C0051BD4FEF704
:1016E000B9FE401B0228F7D981E0E068002840F2EB
:1016F0000000C4F247204CD001210160FEF7AAFE91
:10170000054600BF30688007A0D4FEF7A3FE401B4B
:101710000228F7D96BE0A568306F052D48D0012D60
:101720004DD140F0010050E00020C4F247200021DC
:10173000C0F8801EFEF78EFE054600BF706F800762
:101740007FF58EAFFEF786FE401B0228F6D94EE0ED
:101750000027C4F2472700203866FEF77BFE022DE3
:1017600005460BD1306880014FD5FEF773FE401B54
:1017700002284FF00300F5D966E000BF3068800111
:1017800064D5FEF767FE401B03284FF00300F5D336
:101790005AE000210160FEF75DFE054630688007D3
:1017A0007FF55BAFFEF756FE401B0228F6D91EE020
:1017B00040F004003067306F40F0010005E020F099
:1017C00001003067306F20F004003067FEF742FE02
:1017D000002D054641F2883713D000BF306F8007D7
:1017E0003FF541AFFEF736FE401BB842F6D9032065
:1017F00001B0F0BDFEF72EFE401BB8424FF00300D3
:1018000022D8306F8007F5D42DE704F11C052FCDC9
:10181000084340EA8210D9034FF6FF729143A1F5C5
:10182000803140EA05600843706001203866FEF7A9
:1018300011FE04463068800108D4FEF70BFE001B41
:1018400002284FF00300F5D901B0F0BD002001B02F
:10185000F0BD0000411E0020B0EB116F1CBF012045
:1018600070474EF21002CEF2000251604EF6235144
:10187000CEF20001F0230B700721906011607047D9
:10188000FEE700002DE9F04F83B0044600680193A5
:1018900091460268DDF834A042F48072026040692B
:1018A0000C9E10F001000F4624D180F0010B06F1D0
:1018B00001085D4607E000BF2068406910F00100A4
:1018C00080F0010516D1B8F1000FF5D036B1FEF762
:1018D000C1FDA0EB0A00B042EED900E05D46002059
:1018E0002021206384F83D10E90784F83E0084F845
:1018F0003C000DD1206807F0FE01016141698907B4
:101900002AD4416949056AD4751C23D026B11BE04D
:10191000032003B0BDE8F08F00202021206384F86D
:101920003D1084F83C00216C0320042908BF0120ED
:1019300003B0BDE8F08F00BF416989070CD441694D
:1019400049054CD4002DF7D0FEF784FDA0EB0A002A
:10195000B042E1D82068EFE700200290206850F8FC
:10196000141F02914168029102990168090613D47B
:10197000751C04E0206850F8141F09060CD4016897
:10198000490536D4002DF5D02EB3FEF763FDA0EB4C
:101990000A00B042EED91EE001992068012942D028
:1019A0004FEA1921016150F8141F09063AD4751C39
:1019B00005E000BF206850F8141F090632D4016802
:1019C000490516D4002DF5D02EB1FEF743FDA0EB4E
:1019D0000A00B042EED9206C40F020000DE0016812
:1019E00041F4007101606FF4806141610420206462
:1019F00092E76FF4806101600420206400202021C0
:101A0000206384F83D1084F83C00206C04287FF4A7
:101A10007FAF2068016841F400710160012003B0CC
:101A2000BDE8F08F20685FFA89F10161002003B002
:101A3000BDE8F08FF0B581B004460068154650F857
:101A4000143F5A0718D40E464F1C04E0206850F883
:101A5000141F490710D40168490510D4002FF5D090
:101A600026B1FEF7F7FC401BB042EFD9206C40F0E6
:101A700020002064032008E0002001B0F0BD6FF4D6
:101A80008061016004202064012000212022216364
:101A900084F83D2084F83C1001B0F0BDFEE7000062
:101AA000704700007047000070470000FFF764BBFC
:101AB0004EF68850CEF2000001684FF0000C41F461
:101AC0007001016043F60001C4F202010A6842F0AD
:101AD00001020A60C1F808C00B684FF6FF72CFF62A
:101AE000F6621A400A6043F21002C2F200424A60F3
:101AF0000A6822F480220A60C1F80CC04FF000612D
:101B000040F8801C704700002DE9F0410546002890
:101B10004FF0000008BFBDE8F0811446A2B3D5E93C
:101B20000002824224BF00226A60D5E901239A1A8A
:101B3000034688BF134638BF13185A1EA24201D26B
:101B400014461AB36A68EB68871A2646A74238BF5C
:101B50003E46981832468846FEF744FB6868BC4209
:101B60003044686009D90020A71B6860E86808EB6A
:101B700006013A46FEF736FB6F60D5E90001814267
:101B800024BF002068602046BDE8F0810020BDE849
:101B9000F0810000704700004EF6FC50CEF20000CD
:101BA000016821F080710160016841F0807101607D
:101BB00041F20000CEF20000016821F00101016055
:101BC000016841F00101016000214160416800BFEE
:101BD00000BF4068401A704710B582B041F600045B
:101BE000C4F202044FF0030C4FF0000E20464FF4F5
:101BF000C04101220023CDE900EC00F007F84FF0CE
:101C0000C040A06102B010BD704700002DE9F04F48
:101C100081B00029009351D000F1007743F63006DF
:101C200007F1FF77C4F20206C7F38F274FF00108D0
:101C3000356808FA07F72F433760C0F3872740F26B
:101C4000E01B87F0800EA2F1010A0027C2F2000B10
:101C5000002604E00136102E07F102072ED008FA04
:101C600006F40C42F6D03BF81E50032325432BF814
:101C70001E50C56803FA07FC0A9B25EA0C0503FA07
:101C800007F945EA0905C560056802FA07F325EA80
:101C90000C052B43BAF1010F0360DBD843686FEAF0
:101CA0000C05A343009CB440A4B223434360836863
:101CB0002B400B9DBD402B438360CBE701B0BDE8BB
:101CC000F08F0000002908BF70472DE9F04F00F1A8
:101CD000007443F6300604F1FF74C4F20206C4F344
:101CE0008F240125376805FA04F4DDF828E03C4329
:101CF000346000F1200A00266FF003084FF00F094E
:101D0000002404E00134102C06F1040614D021FA5A
:101D100004F5ED07F6D008EA54055AF805B006F0C8
:101D20001C0709FA07FC2BEA0C0C0EFA07F747EA26
:101D30000C074AF80570E5E7C0F3872740F2E01C7E
:101D400087F0800E00244FF0010AC2F2000C002739
:101D500005E000BF0137102F04F102042CD00AFA6D
:101D600007F50D42F6D03CF81E6003FA04F82E4346
:101D70002CF81E60D0F80CB0032606FA04F92BEA02
:101D8000090B4BEA0806C660066826EA090802261F
:101D9000A64046EA08060660466826EA050502FAF5
:101DA00007F6B6B2354345608568099E25EA090500
:101DB000A64035438560CDE7BDE8F04F7047000091
:101DC0002DE9F04186B0164645F20042C4F2000209
:101DD00045F6004445F600039042C4F20004C4F204
:101DE00000030ED0A04207D0984212BF002540F257
:101DF0005405C2F2000508E040F2A805C2F2000551
:101E000003E040F20005C2F20005A042286045D080
:101E1000984222D0904240F0CA800020059043F6BC
:101E20004000C4F202000268052942F40012026078
:101E3000006800F400100590059800F2B880DFE813
:101E400001F0039D81B6B6AD40F200404FF0040CA6
:101E50000124C4F20200C02199E00020049043F65E
:101E60004000C4F202000268052942F480020260C8
:101E7000006800F480000490049800F29880DFE885
:101E800001F0036B5696967640F200404FF0040C3A
:101E90000124C4F202004FF4406178E00020039076
:101EA00043F64000C4F202000268052942F4000231
:101EB0000260006800F400000390039830D001290C
:101EC0001DD0002973D140F20044C4F20204A4F5ED
:101ED00080604FF0040801274FF480710122012334
:101EE000CDE90078FFF7EEFE04F580604FF4007155
:101EF00001220123CDE90078FFF7E4FE57E040F22C
:101F00000040C4F2020000F5C050042701244FF441
:101F1000C07101220123CDE90047FFF7D3FE46E05F
:101F200040F20040C4F20200A0F5D4303CE040F2A0
:101F30000040C4F2020000F5C0504FF0040C012430
:101F4000302124E040F200404FF0040C0124C4F2A0
:101F500002004FF410711AE040F20040C4F2020097
:101F600000F580504FF0040C012403210FE040F2F3
:101F70000040C4F20200A0F5D63015E040F2004067
:101F80004FF0040C0124C4F202004FF4407101220E
:101F90000123CDE9004CFFF795FE08E040F2004038
:101FA000C4F20200A0F5D830042100F017F8002098
:101FB0004FF48041C5E90160C5E90301C5E90500A9
:101FC000C5E907002846FEF76BFA28460021FEF710
:101FD00047FA002006B0BDE8F0810000704700001D
:101FE00045F20042C4F20002904216D045F600428B
:101FF000C4F2000290420BD045F60002C4F2000287
:10200000904212BF002040F25400C2F2000008E0EB
:1020100040F2A800C2F2000003E040F20000C2F269
:10202000000080B502220523FEF7BAFA002818BF87
:10203000012080BDF0B583B00D4645F20041C4F2E9
:1020400000011C4688428DF80B2016D045F6004151
:10205000C4F2000188420BD045F60001C4F2000131
:10206000884212BF002640F25406C2F2000608E081
:1020700040F2A806C2F2000603E040F20006C2F2F7
:1020800000064FF47A770DF10B0230462946012302
:102090000097FEF723FE38B9304629462246012331
:1020A0000097FEF77DFB28B13046FEF7F7F90120D7
:1020B00003B0F0BD002003B0F0BD0000F0B583B068
:1020C0000D4645F20041C4F200011C4688428DF8DD
:1020D0000B2016D045F60041C4F2000188420BD017
:1020E00045F60001C4F20001884212BF002640F20A
:1020F0005406C2F2000608E040F2A806C2F200064A
:1021000003E040F20006C2F200064FF47A770DF1C8
:102110000B023046294601230097FEF7DFFD38B950
:10212000089B3046294622460097FEF739FB28B126
:102130003046FEF7B3F9012003B0F0BD002003B034
:10214000F0BD000010B582B045F20044C4F20004B6
:10215000A04216D045F60044C4F20004A0420BD0C1
:1021600045F60004C4F20004A04212BF002440F26D
:102170005404C2F2000408E040F2A804C2F20004D1
:1021800003E040F20004C2F200048DF806208DF84E
:1021900007304FF47A7C0DF1060220460223CDF879
:1021A00000C0FEF79BFD28B12046FEF777F901201D
:1021B00002B010BD002002B010BD000010B584B008
:1021C00045F20044DDF818C0C4F20004A04216D065
:1021D00045F60044C4F20004A0420BD045F60004CA
:1021E000C4F20004A04212BF002440F25404C2F220
:1021F000000408E040F2A804C2F2000403E040F248
:102200000004C2F200044FF47A700093029001239C
:102210002046FF2A88BF1023CDF804C0FEF7DAFE5F
:1022200028B12046FEF73AF9012004B010BD002085
:1022300004B010BDF0B581B0044641F0D00045F2C5
:10224000004584F844001820C4F2000584F84500D5
:10225000FFF7A2FC41F68022C0F2060228460021C8
:10226000FFF7AEFD94F844102846FFF7B9FE0028AA
:1022700040F0808094F844100DF103032846752245
:10228000FFF7D8FE9DF80300712873D194F844102D
:1022900028466B220023FFF755FF6420FEF7BEF8A7
:1022A00094F8441028466B220123FFF74BFFC82007
:1022B000FEF7B4F894F8441028461A2203230327A3
:1022C000FFF740FF94F84410284619220423FFF733
:1022D00039FF94F844100DF1030628461B223346BB
:1022E000FFF7A8FE9DF8030094F8441000F0E50302
:1022F00028461B228DF80330FFF724FF94F8441082
:1023000028461C223346FFF795FE9DF8030094F8FB
:10231000441000F0E70328461C228DF80330FFF735
:1023200011FF94F8441028461D223346FFF782FE21
:102330009DF8030094F8441067F303008DF8030040
:1023400000F0F30328461D22FFF7FCFE94F844102A
:10235000284637222223FFF7F5FE94F8441028463A
:1023600038220123FFF7EEFE94F845102846FFF7C8
:1023700037FE10B1022001B0F0BD94F84510284698
:102380000A220023FFF7DEFE0A20FEF747F894F842
:10239000451028460A220F23FFF7D4FE0A20FEF735
:1023A0003DF894F8451028460A220023FFF7CAFE9C
:1023B0000A20FEF733F894F8451028460A22122323
:1023C000FFF7C0FE0A20FEF729F84FF06251002205
:1023D0004EF2000304F1380C0020C3F6FA32C3F6C3
:1023E000BF738CE80E0001B0F0BD000010B584B0E2
:1023F000044690F8441045F200404FF0060CC4F239
:1024000000000DF10A033B22CDF800C0FFF756FE95
:10241000BDF80A00BDF80C20C1BA00BA000CA084B7
:10242000D0BA12BABDF80E30120CE284DABA00EE5D
:10243000101A94ED0E1A02EE100A03EE102A1BBABF
:10244000B8EEC00AB8EEC22AB8EEC33A1B0C21EEB1
:10245000000A21EE022A21EE031A238584ED000AE8
:1024600084ED012A002084ED021A04B010BD0000A2
:1024700010B584B0044690F8441045F200404FF087
:10248000060CC4F200000DF10A034322CDF800C08F
:10249000FFF714FEBDF80A00BDF80C20C1BA00BA5F
:1024A000000C6085D0BA12BABDF80E30120CA285AD
:1024B000DABA00EE101A94ED0F1A02EE100A03EECB
:1024C000102A1BBAB8EEC00AB8EEC22AB8EEC33A58
:1024D0001B0C21EE000A21EE022A21EE031AE385ED
:1024E00084ED030A84ED042A002084ED051A04B06B
:1024F00010BD000010B592B0002043F640010190DD
:10250000C4F202010A68012442F080520A6009689C
:1025100001F080510191019947F200010190C4F24C
:1025200000010A6842F440420A60096801F440412F
:10253000019101994FF48031029104904FF4800091
:1025400008210890022009914FF4B4710790CDE959
:102550000A1007200C9001A80194FFF713F8C0B9E6
:10256000FEF7CEFE08B1012413E002200E900020F9
:102570000F900F200D904FF4A05010904FF480500A
:1025800011900DA80621FEF7F9FE0446002818BF99
:102590000124204612B010BD80B50246002840F24A
:1025A0004C20C2F200004FF4806118BFFF22FDF7FB
:1025B0002BFE80BD40F24422C2F20002108040F2A5
:1025C0004620C2F20000018070470000F0B581B0E3
:1025D00045F20044C4F20004FFF7DEFA41F680221F
:1025E000C0F20602204600210025FFF7E9FB204645
:1025F0007821FFF7F5FC002840F0E2806420FDF729
:102600000DFF204678210022AE230026FFF79AFD19
:102610002046782100222023FFF794FD20467821D0
:1026200000221023FFF78EFD204678210022B023E0
:10263000FFF788FD204678210022C823FFF782FD9E
:102640002046782100220023FFF77CFD20467821D8
:1026500000221023FFF776FD204678210022402338
:10266000FFF770FD2046782100228123FFF76AFDE5
:10267000204678210022FF23FFF764FD20467821C1
:102680000022A123FFF75EFD204678210022A62329
:10269000FFF758FD204678210022A823FFF752FDBE
:1026A0002046782100223F23FFF74CFD2046782169
:1026B0000022A423FFF746FD204678210022D323E1
:1026C000FFF740FD2046782100220023FFF73AFD66
:1026D000204678210022D523FFF734FD20467821BB
:1026E0000022F023FFF72EFD204678210022D92377
:1026F000FFF728FD2046782100222223FFF722FD44
:10270000204678210022DA23FFF71CFD204678219D
:1027100000221223FFF716FD204678210022DB233A
:10272000FFF710FD2046782100222023FFF70AFD45
:102730002046782100228D23FFF704FD20467821D2
:1027400000221423FFF7FEFC204678210022AF234D
:10275000FFF7F8FC40F24C25C2F2000528464FF482
:102760008061FDF758FD802746F0B000C3B22046D7
:1027700078210022FFF7E6FC204678210022002382
:10278000FFF7E0FC2046782100221023FFF7DAFC57
:102790002046782140222B460097FFF70FFD013697
:1027A000082E05F18005DFD140F24420C2F200007E
:1027B0000021018040F24620C2F200000125018084
:1027C000284601B0F0BD00002DE9F04F85B040F281
:1027D0004423C2F200031B880F7804921F447F2F0A
:1027E00009D840F24622C2F2000217884A780297BE
:1027F0003A443F2A03D9002005B0BDE8F08F00908D
:102800004878002864D040F24827C2F200073F7899
:10281000009AB7FA87F7203A01927A09049F40F2AA
:102820004C25002F18BF012757404FF0000BC2F274
:102830000005039705E000BF48780BF1010B8345C5
:1028400046D20F78002FF7D0019E4F68704307EBF8
:10285000400030F81B7002980124584400F007062D
:1028600004FA06FC4FF68076C0F20F0606EA00185E
:102870006FEA0C094FF0000A80B209E03F2898BFC8
:10288000BEF17F0F1AD90E780AF1010AB245D3D2F0
:1028900003EB0A0607FA0AF424041FFA86FEEDD5B4
:1028A0003F2898BFBEF17F0FEDD8049CA24208D10B
:1028B00008EB0E06AC5D44EA0C0407E0039C002C18
:1028C000F6D108EB0E06AC5D04EA0904AC55DAE774
:1028D000087840F244211844C2F2000108805DF8F3
:1028E000140BBDE8F08F00000378002B04BF00201C
:1028F000704770B514460D46461C00BFD8B2294635
:102900002246FFF761FF16F8011C884204D116F831
:10291000013B002BF2D10021BDE870400846704712
:10292000F0B581B040F24C2445F200450026C2F2D9
:102930000004C4F20005802746F0B000C3B2284668
:1029400078210022FFF7FEFB284678210022002391
:10295000FFF7F8FB2846782100221023FFF7F2FB4F
:1029600028467821402223460097FFF727FC0136AE
:10297000082E04F18004DFD101B0F0BD10B582B0A3
:1029800044F60044C4F20004206880060AD560685A
:1029900001A98DF8040040F20810C2F200000122E3
:1029A000FFF7B2F800200190216801916168019160
:1029B000019901902168019161680191019901904B
:1029C000216801916168019101990190216801914B
:1029D00061680191019901902068019060680190FF
:1029E00001983420FEF73EFC02B010BD10B582B055
:1029F00045F20004C4F20004206880060AD560682D
:102A000001A98DF8040040F22010C2F2000001225A
:102A1000FFF77AF800200190216801916168019127
:102A200001990190216801916168019101990190DA
:102A300021680191616801910199019021680191DA
:102A4000616801910199019020680190606801908E
:102A500001983520FEF706FC02B010BD10B582B01B
:102A600047F60004C4F20004206880060AD56068B6
:102A700001A98DF8040040F23810C2F200000122D2
:102A8000FFF742F8002001902168019161680191EF
:102A9000019901902168019161680191019901906A
:102AA000216801916168019101990190216801916A
:102AB000616801910199019020680190606801901E
:102AC00001985220FEF7CEFB02B010BD10B582B0C7
:102AD00047F60044C4F20004206880060AD5606806
:102AE00001A98DF8040040F25010C2F2000001224A
:102AF000FFF70AF8002001902168019161680191B7
:102B000001990190216801916168019101990190F9
:102B100021680191616801910199019021680191F9
:102B200061680191019901902068019060680190AD
:102B300001985320FEF796FB02B010BD10B582B08D
:102B400041F20004C4F20104206880060AD56068DE
:102B500001A98DF8040040F26810C2F200000122C1
:102B6000FEF7D2FF00200190216801916168019178
:102B70000199019021680191616801910199019089
:102B80002168019161680191019901902168019189
:102B9000616801910199019020680190606801903D
:102BA00001982520FEF75EFB02B010BD10B582B083
:102BB00044F20044C4F20004206880060AD560682C
:102BC00001A98DF8040040F28010C2F20000012239
:102BD000FEF79AFF00200190216801916168019140
:102BE0000199019021680191616801910199019019
:102BF0002168019161680191019901902168019119
:102C000061680191019901902068019060680190CC
:102C100001982620FEF726FB02B010BD10B582B049
:102C200044F60004C4F20004206880060AD56068F7
:102C300001A98DF8040040F29810C2F200000122B0
:102C4000FEF762FF00200190216801916168019107
:102C500001990190216801916168019101990190A8
:102C600021680191616801910199019021680191A8
:102C7000616801910199019020680190606801905C
:102C800001982720FEF7EEFA02B010BD10B582B011
:102C900041F20044C4F20104206880060AD560684D
:102CA00001A98DF8040040F2B010C2F20000012228
:102CB000FEF72AFF002001902168019161680191CF
:102CC0000199019021680191616801910199019038
:102CD0002168019161680191019901902168019138
:102CE00061680191019901902068019060680190EC
:102CF00001984720FEF7B6FA02B010BDFEE70000CB
:102D000088B0FFF7F7FBFEF777FAFEF745FFFEF70F
:102D100063FF4FF49670FDF781FBFFF757FCE0B1BE
:102D200040F2FC19C2F2000948460021FFF782FA7E
:102D300000B30020FFF730FC00201421FFF73AFC1D
:102D400040F200110FF21060C2F200010122FFF701
:102D5000CBFDFFF7E5FD00BFFEE741F61404C4F22A
:102D6000020400BF206880F4005020605020FDF76E
:102D700055FBF7E741F614009FEDB78A4CF6CD4BB3
:102D800043F6163A43F61E38C4F202004FF40051DF
:102D90006D46B6EE009A3026CCF6CC4BC0F6000A53
:102DA000C0F6000805AF41602EE000BF00F8016BDF
:102DB00048F21F51C5F2EB11ACFB0112510964221C
:102DC00001FB12C1A1FB0B232E220270DA0802EBD9
:102DD0008202A1EB420141F0300146EAD303817047
:102DE00000214370C17000203221FFF7E3FB40F265
:102DF00000112846C2F200010122FFF775FDFFF71E
:102E00008FFD6420FDF70AFB4846FFF7EFFA4846BE
:102E1000FFF72EFB00200024FFF7BEFB99ED000A10
:102E200043F60A334120C0F6000300BF1A19611CA3
:102E30002855507803290C46F8D1B5EE400A681899
:102E4000F1EE10FABEBF2D2100F8011BB1EE400AD1
:102E500020EE080A30EE090ABCEEC00A10EE10CAD5
:102E6000BCF1640F02D200F8016B25E048F21F515B
:102E7000C5F2EB11ACFB01235B090022A3FB0B465F
:102E8000F60806EB8604A3EB440444F0300451B288
:102E900001320A2B33467C54F0D213060BD0013892
:102EA000302600BF013A51B2795C130600F8011FC9
:102EB000F8D1013000E0302648F21F51C5F2EB1185
:102EC000ACFB01125109642201FB12C14FF0000951
:102ED000A1FB0B232E220270DA0802EB8202A1EB87
:102EE000420146EAD30341F030014370817080F81B
:102EF000039000200021FFF75DFB40F200112846FF
:102F0000C2F200010122FFF7EFFC40F2FC10C2F216
:102F1000000090ED010A43F612334120C0F6000391
:102F200003EB090209F1010105F8090050780329B2
:102F30008946F5D1B5EE400A6818F1EE10FABEBF29
:102F40002D2100F8011BB1EE400A20EE080A30EEF8
:102F5000090ABCEEC00A40F2FC1910EE10CAC2F217
:102F60000009BCF1640F03D200F8016B26E000BF3A
:102F700048F21F51C5F2EB11ACFB01235B090022A3
:102F8000A3FB0B64E60806EB8604A3EB440444F0C1
:102F9000300451B201320A2B33467C54F0D213066E
:102FA0000BD00138302600BF013A51B2795C1306CC
:102FB00000F8011FF8D1013000E0302648F21F511F
:102FC000C5F2EB11ACFB01125109642201FB12C1E5
:102FD0000024A1FB0B232E220270DA0802EB8202EE
:102FE000A1EB420146EAD30341F030014370817006
:102FF000C47000200A21FFF7DDFA40F200112846D4
:10300000C2F200010122FFF76FFC99ED020A43F6BC
:103010001A334120C0F600031A19611C2855507854
:1030200003290C46F8D1B5EE400A6818F1EE10FA03
:10303000BEBF2D2100F8011BB1EE400A20EE080AA8
:1030400030EE090ABCEEC00A10EE10CABCF1640FE3
:1030500004D200F8016B27E00000C84248F21F517B
:10306000C5F2EB11ACFB01235B090022A3FB0B644F
:10307000E60806EB8604A3EB440444F0300451B2A6
:1030800001320A2B33467C54F0D213060BD00138A0
:10309000302600BF013A51B2795C130600F8011FD7
:1030A000F8D1013000E0302648F21F51C5F2EB1193
:1030B000ACFB01125109642201FB12C10024A1FBE7
:1030C0000B232E220270DA0802EB8202A1EB4201EE
:1030D00046EAD30341F0300143708170C470002090
:1030E0001421FFF767FA40F200112846C2F20001EE
:1030F0000122FFF7F9FB99ED030A43F60E3347204F
:10310000C0F600031A19611C2855507803290C4693
:10311000F8D1B5EE400A6818F1EE10FABEBF2D21C5
:1031200000F8011BB1EE400A20EE080A30EE090A51
:10313000BCEEC00A10EE10CABCF1640F02D200F857
:10314000016B25E048F21F51C5F2EB11ACFB0123E6
:103150005B090022A3FB0B64E60806EB8604A3EBE5
:10316000440444F0300451B201320A2B33467C54FB
:10317000F0D213060BD00138302600BF013A51B20D
:10318000795C130600F8011FF8D1013000E0302609
:1031900048F21F51C5F2EB11ACFB01125109642238
:1031A00001FB12C10024A1FB0B232E220270DA08BE
:1031B00002EB8202A1EB420146EAD30341F0300167
:1031C00043708170C47000201E21FFF7F3F940F2B4
:1031D00000112846C2F200010122FFF785FB99ED9C
:1031E000040A47200AEB0402611C28555078032981
:1031F0000C46F7D1B5EE400A6818F1EE10FABEBFE2
:103200002D2100F8011BB1EE400A20EE080A30EE35
:10321000090ABCEEC00A10EE10CABCF1640F03D25A
:1032200000F8016B26E000BF48F21F51C5F2EB1118
:10323000ACFB01235B090022A3FB0B64E60806EB51
:103240008604A3EB440444F0300451B201320A2B4B
:1032500033467C54F0D213060BD00138302600BF21
:10326000013A51B2795C130600F8011FF8D1013020
:1032700000E0302648F21F51C5F2EB11ACFB011201
:103280005109642201FB12C10024A1FB0B232E2251
:103290000270DA0802EB8202A1EB420146EAD30394
:1032A00041F0300143708170C47000202821FFF785
:1032B00081F940F200112846C2F200010122FFF715
:1032C00013FB99ED050A472008EB0402611C285501
:1032D000507803290C46F7D1B5EE400A6818F1EE94
:1032E00010FABEBF2D2100F8011BB1EE400A20EEFE
:1032F000080A30EE090ABCEEC00A10EE10CABCF192
:10330000640FFFF453AD48F21F51C5F2EB11ACFB53
:1033100001235B09002200BFA3FB0B64E60806EB58
:103320008604A3EB440444F0300451B201320A2B6A
:1033300033467C54F0D213060BD00138302600BF40
:10334000013A51B2795C130600F8011FF8D101303F
:103350002EE530262CE500BF4D5055393235302052
:103360004641494C0000000002E008C8121F08C195
:10337000002AFAD170477047002001E001C1121FF6
:10338000002AFBD17047000000000000000001028D
:1033900003040607080900000000010203040000FE
:1033A000000000000000000000000000000000001D
:1033B00000000010001000100010001000100000AD
:1033C0000010000000000028002800280000000075
:1033D0000000000000000000000000240024007C29
:1033E00000240048007C004800480000000000382D
:1033F00000540050003800140054005400380010ED
:103400000000002000540058003000280054001430
:103410000008000000000010002800280010003400
:1034200000480048003400000000001000100010A8
:103430000000000000000000000000000000000884
:10344000001000200020002000200020002000109C
:10345000000800200010000800080008000800080C
:1034600000080010002000100038001000280000A4
:10347000000000000000000000000000000000103C
:103480000010007C00100010000000000000000090
:10349000000000000000000000000000001000100C
:1034A00000100000000000000000000000380000D4
:1034B000000000000000000000000000000000000C
:1034C00000000000001000000000000800080010CC
:1034D0000010001000100020002000000000003844
:1034E00000440044005400440044004400380000FC
:1034F00000000010003000500010001000100010FC
:1035000000100000000000380044004400040008DF
:1035100000100020007C000000000038004400047F
:1035200000180004000400440038000000000008F7
:103530000018002800280048007C0008000800004F
:103540000000007C004000400078000400040044BB
:1035500000380000000000380044004000780044BB
:1035600000440044003800000000007C0004000813
:103570000010001000200020002000000000003893
:103580000044004400380044004400440038000077
:1035900000000038004400440044003C00040044A3
:1035A00000380000000000000000001000000000D3
:1035B00000000000001000000000000000000000FB
:1035C00000100000000000000010001000100000BB
:1035D0000000000C003000400030000C0000000033
:1035E0000000000000000000007C0000007C0000E3
:1035F000000000000000000000000060001800044F
:1036000000180060000000000000003800440004C2
:10361000000800100010000000100000000000383A
:103620000044004C0054005C0040004000380000A2
:10363000000000100028002800280028007C00441A
:10364000004400000000007800440044007800447A
:1036500000440044007800000000003800440040AE
:1036600000400040004000440038000000000070AE
:10367000004800440044004400440048007000003A
:103680000000007C00400040007C00400040004002
:10369000007C00000000007C0040004000780040FA
:1036A000004000400040000000000038004400409E
:1036B0000040005C0044004400380000000000446A
:1036C00000440044007C00440044004400440000E6
:1036D0000000003800100010001000100010001052
:1036E000003800000000000400040004000400048E
:1036F000000400440038000000000044004800506E
:1037000000600050004800480044000000000040F5
:10371000004000400040004000400040007C0000AD
:1037200000000044006C006C00540044004400445D
:103730000044000000000044006400640054005491
:10374000004C004C004400000000003800440044DD
:1037500000440044004400440038000000000078A9
:103760000044004400440078004000400040000055
:103770000000003800440044004400440044005469
:103780000038000400000078004400440044007841
:103790000048004800440000000000380044004099
:1037A0000030000800040044003800000000007CE5
:1037B0000010001000100010001000100010000099
:1037C000000000440044004400440044004400441D
:1037D0000038000000000044004400440028002895
:1037E00000280010001000000000004400440054B5
:1037F00000540054006C0028002800000000004421
:1038000000280028001000100028002800440000B4
:1038100000000044004400280028001000100010A0
:10382000001000000000007C0004000800100010E0
:1038300000200040007C0000000000180010001074
:1038400000100010001000100010001000180020E0
:1038500000200010001000100010000800080000F8
:1038600000000030001000100010001000100010C8
:103870000010001000300010002800280044000054
:103880000000000000000000000000000000000038
:1038900000000000000000000000000000FE00200A
:1038A0000010000000000000000000000000000008
:1038B00000000000000000380044003C0044004CC0
:1038C0000034000000000040004000580064004444
:1038D00000440064005800000000000000000038B0
:1038E0000044004000400044003800000000000494
:1038F00000040034004C00440044004C003400003C
:1039000000000000000000380044007C004000443B
:10391000003800000000000C0010007C00100010B7
:103920000010001000100000000000000000003433
:10393000004C00440044004C003400040078004077
:10394000004000580064004400440044004400006B
:1039500000000010000000700010001000100010A7
:1039600000100000000000100000007000100010A7
:10397000001000100010001000E00040004000485F
:10398000005000600050004800440000000000703B
:1039900000100010001000100010001000100000B7
:1039A000000000000000007800540054005400544F
:1039B00000540000000000000000005800640044B3
:1039C00000440044004400000000000000000038F3
:1039D000004400440044004400380000000000009F
:1039E0000000005800640044004400640058004097
:1039F0000040000000000034004C00440044004C33
:103A0000003400040004000000000058006400407E
:103A100000400040004000000000000000000038AE
:103A2000004400300008004400380000000000207E
:103A30000020007800200020002000200018000056
:103A40000000000000000044004400440044004C1A
:103A50000034000000000000000000440044002882
:103A600000280028001000000000000000000054A2
:103A700000540054006C00280028000000000000E2
:103A8000000000440028001000100028004400003E
:103A9000000000000000004400440028002800103E
:103AA00000100010006000000000007C0008001002
:103AB00000200040007C00000000001800100010F2
:103AC000001000200020001000100010001800104E
:103AD0000010001000100010001000100010001066
:103AE0000010003000100010001000080008001046
:103AF0000010001000300000000000000074004CB6
:103B00000000000000000000000041783A00477803
:103B10003A0041793A0047793A00417A3A00477AC7
:103B20003A000000483B000800000020C8010000E7
:103B30005C020008883B0008C801002090090000D2
:103B400078330008000000001112540251400A515D
:103B500058540A515C541324F423070A139E33B3B8
:103B600008201354061220191841A9180A157418B0
:103B70000A1594180A15B4180A15D4180A15F41859
:083B80000B141407189A341805
:04000005080001AD41
:00000001FF
